:100000000C947C020C9499020C9499020C94990221
:100010000C9499020C9499020C9499020C949902F4
:100020000C9499020C9499020C948D0B0C94C80BAF
:100030000C9499020C9499020C9499020C949902D4
:100040000C9499020C9499020C9499020C949902C4
:100050000C9499020C9499020C9499020C949902B4
:100060000C9499020C9499020C9499020C949902A4
:100070000C9499020C9499020C9499020C94990294
:100080000C9499020C9499020C9499020C942010EF
:100090000C9499020C9499020C9499020C94990274
:1000A0000C9499020C9499020C949902220B1F0B48
:1000B0001C0B190B160B130B100B0D0B0A0B070B5C
:1000C000040B010BFE0AFB0AF80AF50AF20AEF0A12
:1000D000EC0AE90AE60AE30AE00ADD0ADA0AD70AC4
:1000E000D40AD10ACE0ACB0AC80AC50AC20ABF0A74
:1000F000BC0AB90AB60AB30AB00AAD0AAA0AA70A24
:10010000A40AA10A9E0A9B0A980A950A920A8F0AD3
:100110008C0A890A860A830A800A7D0A7A0A770A83
:10012000740A710A6E0A6B0A680A650A620A05A8EF
:100130004CCDB2D44EB93836A9020C50B99186884C
:10014000083CA6AAAA2ABE000000803F00010000C9
:100150008001120002000092014300030000D5015B
:100160000401030904D9011402030904EF01160371
:1001700003090407020C0001C11201803601813617
:100180001201000202000010C0167A0400010102F0
:10019000030109024300020100C03209040000010A
:1001A00002020100052400100105240101010424BC
:1001B0000206052406000107058203100040090419
:1001C0000100020A000000070503024000000705C5
:1001D000840240000004030904140359006F0075F1
:1001E00000720020004E0061006D006500000016E6
:1001F000035500530042002000530065007200695F
:100200000061006C0000000C033100320033003448
:1002100000350000006E616E00696E66000000002F
:10022000000000005F00000007000700147F147F3B
:1002300014242A7F2A122313086462364955225057
:100240000005030000001C2241000041221C001494
:10025000083E081408083E0808005030000008084E
:10026000080808006060000020100804023E5149A0
:10027000453E00427F400042615149462141454B85
:10028000311814127F1027454545393C4A494930F9
:1002900001710905033649494936064949291E00B5
:1002A00036360000005636000008142241001414AF
:1002B000141414004122140802015109063249792C
:1002C000413E7E1111117E7F494949363E414141EF
:1002D000227F4141221C7F494949417F0909090187
:1002E0003E4149497A7F0808087F00417F4100204C
:1002F00040413F017F081422417F404040407F023F
:100300000C027F7F0408107F3E4141413E7F090976
:1003100009063E4151215E7F09192946464949494E
:100320003101017F01013F4040403F1F2040201F1D
:100330003F4038403F6314081463070870080761A2
:1003400051494543007F414100020408102000410B
:10035000417F00040201020440404040400001028D
:10036000040020545454787F48444438384444446A
:1003700020384444487F3854545418087E090102F8
:100380000C5252523E7F0804047800447D40002005
:1003900040443D007F1028440000417F40007C0421
:1003A0001804787C0804047838444444387C1414D5
:1003B0001408081414187C7C080404084854545485
:1003C00020043F4440203C4040207C1C2040201C16
:1003D0003C4030403C44281028440C5050503C4491
:1003E00064544C44000836410000007F0000004186
:1003F0003608001008081008784641467800407A10
:1004000010F35A00A0724E18090010A5D4E800009D
:10041000E87648170000E40B54020000CA9A3B003B
:100420000000E1F505000080969800000040420FB2
:10043000000000A08601000000102700000000E876
:1004400003000000006400000000000A000000003B
:10045000000100000000002C76D888DC674F0823DC
:10046000DFC1DFAE59E1B1B796E5E3E453C63AE642
:1004700051997696E8E6C28426EB898C9B62ED4022
:100480007C6FFCEFBC9C9F40F2BAA56FA5F4900571
:100490005A2AF75C936B6CF9676DC11BFCE0E40DA5
:1004A00047FEF520E6B500D0ED902E030094357799
:1004B000050080841E080000204E0A000000C80CC1
:1004C000333333330F986E12831141EF8D2114892A
:1004D0003BE65516CFFEE6DB18D1844B381BF77C84
:1004E0001D901DA4BBE424203284725E228100C9C9
:1004F000F124ECA1E53D270011241FBECFEFDAE087
:10050000DEBFCDBF16E0A0E0B1E0E2ECFDE402C04A
:1005100005900D92A036B107D9F71AE0A0E6B6E033
:1005200001C01D92AC35B107E1F70E94141B0C9479
:10053000DF260C94000087E880937A000895982FB6
:100540009F71906490937C00807280937B00809177
:100550007A00806480937A0080917A0086FDFCCFD7
:100560002091780030917900C9010895CF92DF92EF
:10057000EF92FF920F931F93DC01841795073CF1D4
:10058000C801840F951FA817B9070CF562177307E8
:10059000F4F0E20EF31E6E157F05CCF490E0A41B80
:1005A000B50B621B730B609FF001619FF00D709F94
:1005B000F00D1124CA0EDB1EEC0DFD1D8081803272
:1005C00009F491E081E09827292F30E002C020E073
:1005D00030E0C9011F910F91FF90EF90DF90CF9015
:1005E00008952F923F924F925F926F927F928F92D7
:1005F0009F92AF92BF92CF92DF92EF92FF920F93B2
:100600001F93DF93CF93CDB7DEB760970FB6F89403
:10061000DEBF0FBECDBF9A8389837C836B835E83ED
:100620004D83190118870F83FA86E986DC86CB860D
:10063000BE86AD86988A8F86882499242EC06980CC
:100640007A806A0C7B1CC301B20149815A812B81DB
:100650003C810D811E817101CF80D8840E94B60239
:10066000892B81F0C301B20149855A852B853C85D0
:100670000D851E85EF84F888CDA0DEA00E94B6020D
:10068000892BC1F40894A11CB11C8D819E81A816F0
:10069000B906ACF20894811C911C821493041CF0DE
:1006A00020E030E009C0AA24BB244B805C80480CC9
:1006B000591CEBCF21E030E0C90160960FB6F894E9
:1006C000DEBF0FBECDBFCF91DF911F910F91FF9085
:1006D000EF90DF90CF90BF90AF909F908F907F90E2
:1006E0006F905F904F903F902F9008951092BF00B1
:1006F0001092CF00089583E08093BF008FEF809326
:10070000CF0008950F931F9300E011E0C8010E94ED
:10071000AE0583E091E00E94AE0587E191E00E9482
:10072000AE0589E291E00E94AE058DE391E00E9462
:10073000AE0588E491E00E94AE0584E691E00E9457
:10074000AE0589E791E00E94AE058BE991E00E9439
:10075000AE0580EB91E00E94AE0588ED91E00E942D
:10076000AE05C8010E94AE0581E092E00E94AE0590
:1007700087E192E00E94AE0586E292E00E94AE051B
:1007800086E392E00E94AE0581E492E00E94AE050D
:100790008AE592E00E94AE0580E792E00E94AE05F5
:1007A0008CE792E00E94AE0586E892E00E94AE05DA
:1007B00085E992E00E94AE0584EA92E00E94AE05CF
:1007C00083EB92E00E94AE0587EC92E00E94AE05BA
:1007D00086ED92E00E94AE0589EE92E00E94AE05A1
:1007E0008BEF92E00E94AE051F910F9108950F9339
:1007F0001F93CF93DF930E94B81EC0E0D0E080E04B
:1008000090E0BE0144E550E09E0101E010E00E944E
:10081000FB1E2196C133D10591F784E190E06AE097
:1008200070E04EE053E020E030E00E94AF200E94F4
:10083000D420FFCFAF92BF92CF92DF92EF92FF9280
:100840000F931F93CF93DF930E946F0D7B018C0159
:1008500080E090E00E949F1688E193E00E94AE0540
:100860002A9A2B9A1092BF001092CF00C0E0D0E0DD
:1008700093E0A92EBB24BA9488ECC82ED12C0E94F8
:10088000B81E0E946F0DA80197010E94562120E01A
:1008900030E040E050E40E944623882334F02A9858
:1008A0002B98A092BF00B092CF007E9B0DC00E94FB
:1008B0006419DF91CF911F910F91FF90EF90DF901E
:1008C000CF90BF90AF9008957D9B02C00E94F70328
:1008D0008AE090E06AE070E044E253E021E030E03A
:1008E0000E94AF20C0FD0AC08AE090E064E170E0A1
:1008F0004EE253E021E030E00E94AF2088EE93E02A
:10090000F6013197F1F70197D9F721960E94D4208B
:10091000B6CF2F923F924F925F926F927F928F92BB
:100920009F92AF92BF92CF92DF92EF92FF920F937E
:100930001F93DF93CF9300D000D0CDB7DEB789836C
:100940009A833A011901270148016B01AA24BB24AB
:1009500024C0F7018081803219F44114510431F42C
:10096000C801B60141E050E00E94C01E8B819C810D
:1009700001969C838B830F5F1F4F0894E11CF11C31
:10098000EB81FC81E615F70524F30894A11CB11C4A
:10099000860C971C0894C11CD11CA214B30444F407
:1009A00089819A819C01890174011C821B82E8CF94
:1009B0000F900F900F900F90CF91DF911F910F919B
:1009C000FF90EF90DF90CF90BF90AF909F908F906F
:1009D0007F906F905F904F903F902F9008952F924F
:1009E0003F924F925F926F927F928F929F92AF92BF
:1009F000BF92CF92DF92EF92FF920F931F93DF93FC
:100A0000CF93CDB7DEB72A970FB6F894DEBF0FBEEF
:100A1000CDBF83E08093BF008FEF8093CF00DE01D6
:100A20001196E9EFF3E08AE001900D928150E1F731
:100A300088249924BAEE2B2EBFEF3B2EABE04A2E32
:100A4000512C4C0E5D1EF8EC6F2E712C0E94B81EBE
:100A50007E9955C00E945F098237910509F44FC005
:100A600080E090E060E070E04EE053E021E030E0B4
:100A70000E94AF2080E090E06AE070E04FE353E036
:100A800021E030E00E94AF205E010894A11CB11C5F
:100A9000F501C080D180C60164E170E045E150E01D
:100AA00028E030E000E513E0E1E0EE2EF12C0E94BA
:100AB00089040894C11CD11CF501D182C082F5E5DE
:100AC000CF16D1041CF0F5013182208282E090E043
:100AD000A80EB91EA414B504D9F60E94D420089417
:100AE000811C911C88EE93E0F3013197F1F7019797
:100AF000D9F798EE891693E0990609F0A7CF2A96C0
:100B00000FB6F894DEBF0FBECDBFCF91DF911F911E
:100B10000F91FF90EF90DF90CF90BF90AF909F909C
:100B20008F907F906F905F904F903F902F9008959F
:100B30000E9443090EC00E94B81E84E190E064E167
:100B400070E043E054E021E030E00E94AF200E94DA
:100B5000D4200E945C09882371F30895DC010D9074
:100B60000020E9F71197A81BB90BBD010E94140AD8
:100B700008952F923F924F925F926F927F928F9241
:100B80009F92AF92BF92CF92DF92EF92FF920F931C
:100B90001F93DF93CF93CDB7DEB766970FB6F89468
:100BA000DEBF0FBECDBF3C011B015C8B4B8B3E8B70
:100BB0002D8B8FE0482E84E0582EC2010E94AE0596
:100BC00082E194E00E94AE05C3010E94AE05C2011D
:100BD0000E94AE05C1010E94AE05C2010E94AE0591
:100BE0008B899C890E94AE05C2010E94AE0500D08F
:100BF00000D000D0EDB7FEB731963E010894611CDD
:100C0000711CADB7BEB712967C926E92119782E2BC
:100C100094E0938382838D899E89958384830E9447
:100C20000126ADB7BEB716960FB6F894BEBF0FBE7D
:100C3000ADBFC3010E94AE05C2010E94AE0500D047
:100C400000D000D0EDB7FEB73196ADB7BEB7129663
:100C50007C926E92119780E394E093838283158354
:100C600004830E940126EDB7FEB736960FB6F894BE
:100C7000FEBF0FBEEDBFC3010E94AE05C2010E94C0
:100C8000AE0500D000D000D0EDB7FEB73196ADB7BD
:100C9000BEB712967C926E9211978DE394E0938387
:100CA0008283F582E4820E940126EDB7FEB7369674
:100CB0000FB6F894FEBF0FBEEDBFC3010E94AE0594
:100CC000C2010E94AE0500D000D000D0EDB7FEB743
:100CD0003196ADB7BEB712967C926E9211978BE4A7
:100CE00094E093838283D582C4820E940126EDB76B
:100CF000FEB736960FB6F894FEBF0FBEEDBFC30128
:100D00000E94AE05C2010E94AE050E948C0700D071
:100D100000D000D00DB71EB70F5F1F4FADB7BEB7E5
:100D200012967C926E9211972CE534E0F801338391
:100D300022830E942A22D80115967C936E931497E1
:100D40000E940126EDB7FEB736960FB6F894FEBFA7
:100D50000FBEEDBFC3010E94AE05C2010E94AE05E9
:100D600000D000D000D00DB71EB70F5F1F4FADB73A
:100D7000BEB712967C926E92119784E694E0F801C9
:100D800093838283C501B40120E030E040E251E466
:100D90000E944A230E942A22D80115967C936E93C2
:100DA00014970E940126EDB7FEB736960FB6F89459
:100DB000FEBF0FBEEDBFC3010E94AE05C2010E947F
:100DC000AE0566960FB6F894DEBF0FBECDBFCF91CD
:100DD000DF911F910F91FF90EF90DF90CF90BF9028
:100DE000AF909F908F907F906F905F904F903F90CB
:100DF0002F900895AF92BF92CF92DF92EF92FF9221
:100E00000F931F93DF93CF93CDB7DEB72A970FB61B
:100E1000F894DEBF0FBECDBF0E94AE0500E010E02B
:100E20007E010894E11CF11C7AE0A72EB12C6EE63D
:100E3000C62E64E0D62E36C0C901C0970A97C0F509
:100E4000C80153E0880F991F5A95E1F7000F111F51
:100E5000080F191F00531040020F131F8DB79EB7C4
:100E600008970FB6F8949EBF0FBE8DBFEDB7FEB7C3
:100E70003196ADB7BEB71296FC92EE921197B3823F
:100E8000A282D582C482378326830E94D0258DB763
:100E90009EB708960FB6F8949EBF0FBE8DBFC701D0
:100EA0000E94AE050E945F099C019923DCF3C4CF28
:100EB0008FE094E00E94AE05C8012A960FB6F89420
:100EC000DEBF0FBECDBFCF91DF911F910F91FF907D
:100ED000EF90DF90CF90BF90AF9008958091600623
:100EE000909161060895909361068093600608953D
:100EF00080916206909163060895909363068093B3
:100F00006206089580916406909165060895909315
:100F10006506809364060895209166063091670601
:100F20004091680650916906B901CA01089560931D
:100F30006606709367068093680690936906089525
:100F40008091DD049091DE0408959093DE048093F7
:100F5000DD04089580916A0690916B060895909340
:100F60006B0680936A0608958091DB049091DC04FF
:100F7000089580916A0690916B06892B59F48091AF
:100F8000DD049091DE04892B29F01092DE0410928A
:100F9000DD0408958091DD049091DE04892B51F4E5
:100FA00081E090E090936B0680936A069093DE0454
:100FB0008093DD04089580916A0690916B06892BD9
:100FC00059F08091DD049091DE04892B29F0109274
:100FD000DE041092DD0408958091DD049091DE041A
:100FE000892B51F481E090E09093DE048093DD043E
:100FF00010926B0610926A060895EF92FF920F937B
:101000001F93CF93DF9389B1869580FF0FC06091C6
:1010100066067091670680916806909169060E9445
:101020002A22DC01CB010E9446140BC083B18695B5
:1010300080FF03C00E94B90704C0489B02C00E9401
:10104000DB0781E00E949F02EC010E946F0D7B0193
:101050008C010E94470D9B01AC01C801B7010E94A1
:10106000562120E030E040E85FE30E94462387FFFE
:101070000AC00E94470D20E030E040E050E00E94AE
:10108000BB21882399F4BE0180E090E00E945D229C
:1010900020E030EC4FE754E40E94C2210E943E0D54
:1010A00060E070E080E090E00E94520DDF91CF910F
:1010B0001F910F91FF90EF9008956F927F928F9202
:1010C0009F92AF92BF92CF92DF92EF92FF920F93D7
:1010D0001F93CF93DF9380E00E949F02EC010E9458
:1010E0005B0D7B018C010E946F0D9B01AC01C8015F
:1010F000B7010E94562120E030E040E050E00E941D
:10110000BB21882351F40E945B0D20E030E040E0D9
:1011100050E00E94BB21882329F5BE0180E090E0C9
:101120000E945D2220E030E040EF52E40E944A231A
:1011300020E030EC4FE754E40E94C22120E030E090
:1011400040E752E40E94562160936606709367065A
:10115000809368069093690660E070E080E090E01C
:101160000E94660DC0916406D09165066091660686
:101170007091670680916806909169062BED3FE0BB
:1011800049E450EC0E944A2320E030E044E353E479
:101190000E94C2217B018C01C8010E94AD233B014A
:1011A0004C012796BE01882777FD8095982F2797B9
:1011B0000E945D225B016C01C401B30120E030E0BC
:1011C00040E850EC0E944A239B01AC01C601B501E6
:1011D0000E9457210E942A22709361066093600644
:1011E000B701C8010E94BF2120E030E040E850EC88
:1011F0000E944A2320E030E044E352E40E94572159
:101200000E942A227093630660936206209731F44D
:1012100080916A0690916B06892B49F4C534D105FB
:1012200051F480916A0690916B06892B21F41092FB
:10123000DE041092DD048091DD049091DE04892BA0
:1012400099F080916A0690916B06892B29F01C1603
:101250001D0654F4219704C0C534D1052CF4219601
:10126000D0936506C0936406DF91CF911F910F91D3
:10127000FF90EF90DF90CF90BF90AF909F908F90B6
:101280007F906F90089581E08093D70080EA8093EB
:10129000D80082E189BD09B400FEFDCF80E98093CA
:1012A000D8001092E00010926C0610926D068CE04F
:1012B0008093E2007894089580916C0608952FB78A
:1012C000F89480916C06882369F083E08093E900AC
:1012D0009BE68091E80085FD09C082FF03C09093E2
:1012E000E800F7CF2FBF2FEF3FEF0CC09091F10038
:1012F0008091E80085FD03C08BE68093E8002FBF56
:10130000292F30E0C90108952FB7F89480916C0619
:10131000882311F490E010C083E08093E90090915D
:10132000F200992349F48091E80082FF05C085FD11
:1013300003C08BE68093E8002FBF892F089580912A
:101340006C06882371F09FB7F89483E08093E900DE
:101350002BE602C02093E8008091E80085FDFACFDB
:101360009FBF0895482F80916C068823D9F12FB72D
:10137000F89484E08093E90080916F06882341F01F
:101380008091E80085FD02C02FBF12C010926F0649
:101390009091E400975E34E08091E80085FD13C0F1
:1013A0002FBF8091E400891729F481E080936F06B4
:1013B0008FEF089580916C068823A1F02FB7F894E1
:1013C0003093E900E9CF4093F1008091E80085FD7A
:1013D00003C08AE38093E80085E080936E062FBF08
:1013E00080E008958FEF0895282F80916C06882360
:1013F00051F09FB7F89484E08093E9008091E80071
:1014000085FD03C09FBF8FEF08952093F100809169
:10141000E80085FD03C08AE38093E80085E08093BF
:101420006E069FBF80E00895CF93DF93EC0180911B
:101430006C06882309F41CC13FB7F89484E08093BC
:10144000E90080916F06882309F408C18091E800C3
:1014500085FD02C03FBF0CC110926F06FFC0909186
:10146000E400975E8091E80085FD13C03FBF809146
:10147000E400891721F481E080936F06F9C0809120
:101480006C06882309F4F4C03FB7F894B093E900E0
:10149000E9CF8091F200242F281B822F90E068175B
:1014A000790708F4262F822F90E08134910508F007
:1014B000C6C08A5A9F4FFC01EE0FFF1F0590F491A2
:1014C000E02D099489918093F10089918093F10036
:1014D00089918093F10089918093F10089918093A3
:1014E000F10089918093F10089918093F1008991B5
:1014F0008093F10089918093F10089918093F100AC
:1015000089918093F10089918093F1008991809372
:10151000F10089918093F10089918093F100899184
:101520008093F10089918093F10089918093F1007B
:1015300089918093F10089918093F1008991809342
:10154000F10089918093F10089918093F100899154
:101550008093F10089918093F10089918093F1004B
:1015600089918093F10089918093F1008991809312
:10157000F10089918093F10089918093F100899124
:101580008093F10089918093F10089918093F1001B
:1015900089918093F10089918093F10089918093E2
:1015A000F10089918093F10089918093F1008991F4
:1015B0008093F10089918093F10089918093F100EB
:1015C00089918093F10089918093F10089918093B2
:1015D000F10089918093F10089918093F1008991C4
:1015E0008093F10089918093F10089918093F100BB
:1015F00089918093F10089918093F1008991809382
:10160000F10089918093F10089918093F100899193
:101610008093F10089918093F10089918093F1008A
:1016200089918093F10089918093F1008991809351
:10163000F10089918093F10089918093F100899163
:101640008093F1008091E80085FD02C05093E8008E
:10165000621B7109A0936E063FBF04C0B4E040E472
:101660005AE3A5E06115710509F0F9CE80E001C0EB
:101670008FEFDF91CF9108959FB7F89480916E0618
:10168000882341F084E08093E9008AE38093E800B6
:1016900010926E069FBF08956091DF047091E00480
:1016A0008091E1049091E20408958091E30408950B
:1016B0008091E40408958091E504089580916D0679
:1016C0000895282F9FB7F89480916C06882339F0ED
:1016D00082E08093E9008091E80085FD03C09FBF10
:1016E0008FEF089581EA8093F10080E28093F1000A
:1016F0001092F1001092F1001092F1001092F1009E
:1017000081E08093F1001092F1002093F1008AE3D0
:101710008093E8009FBF80E008951F920F920FB65C
:101720000F9211248F939F938091E1001092E1001A
:10173000982F83FF11C01092E90081E08093EB00A5
:101740001092EC0082E18093ED0088E08093F0003D
:1017500010926C0610926D0692FF13C080916C0679
:10176000882379F080916E06882359F08150809308
:101770006E06882331F484E08093E9008AE3809345
:10178000E8009F918F910F900FBE0F901F901895BA
:101790001F920F920FB60F9211240F931F932F9346
:1017A0003F934F935F936F937F938F939F93AF93E9
:1017B000BF93EF93FF931092E9008091E80083FFBD
:1017C0003CC14091F1003091F1008091F100682F0F
:1017D00070E02091F100922F80E0682B792B8091AE
:1017E000F100A82FB0E02091F100922F80E0A82B0B
:1017F000B92B1091F1000091F10082EF8093E80085
:10180000363009F05AC023E531E0A9014550504077
:10181000F9013797859194918617970701F5FA0199
:10182000859194918A179B07D1F49A012E5F3F4FBF
:10183000F901659174912E5F3F4FF9014491212F79
:1018400030E0902F80E0282B392B2F3F310519F005
:1018500010F02FEF30E0241758F4422F09C0295F11
:101860003F4F495F5F4FF1E02D373F0789F6E5C0F5
:101870005EEF8091E800282F30E0C90185709070FC
:10188000892BB9F322FDDCC0342F413108F030E15F
:10189000232FCB0106C0FC010196E491E093F100F7
:1018A00021502223C1F7630F711D431B5093E800A1
:1018B0004423F9F63031E9F2C3C0353061F48EEFDC
:1018C0008093E8008091E80080FFFCCF862F80683D
:1018D0008093E300B5C0393051F5442309F0ADC021
:1018E00060936C0610926D0610926E068EEF8093D8
:1018F000E80086E791E021E02093E900FC010196F1
:10190000E491E093EB00EE2369F0AC014F5F5F4F91
:10191000FC0184918093EC00CA010196FA01349194
:101920003093ED002F5F253039F78EE181C03830DC
:1019300061F4403809F081C08091E80080FFFCCF5D
:1019400080916C068093F10050C0313289F4413AA5
:1019500009F073C08091E80080FFFCCFEFEDF4E068
:1019600081918093F10084E0E63EF807C9F73DC01D
:101970003032A1F4413209F060C08091E80082FF6A
:10198000FCCFEFEDF4E08091F100819384E0E63E3E
:10199000F807C9F78BEF8093E80027C0323251F483
:1019A000413209F04AC060936D068091E80080FFE3
:1019B000FCCF1BC03323E9F48091E80080FFFCCF0B
:1019C000423811F080E00DC0A093E9008091EB0057
:1019D00090E025E0969587952A95E1F78170109221
:1019E000E9008093F1001092F1008EEF8093E800FF
:1019F00027C0313011F0333001F54230F1F4672B5C
:101A0000E1F42A2F2F77822F81508430B0F48EEFAB
:101A10008093E8002093E900333079F089E18093E6
:101A2000EB0081E090E002C0880F991F2A95E2F751
:101A30008093EA001092EA0003C081E28093EB00F9
:101A4000FF91EF91BF91AF919F918F917F916F9196
:101A50005F914F913F912F911F910F910F900FBE6A
:101A60000F901F9018952091B0073091B1074091C9
:101A7000B2075091B307B901CA0108956093B00746
:101A80007093B1078093B2079093B30708952091A4
:101A90007A0630917B0640917C0650917D06B90113
:101AA000CA01089560937A0670937B0680937C0642
:101AB00090937D06089520917A0630917B0640919F
:101AC0007C0650917D06B901CA01089560937A069B
:101AD00070937B0680937C0690937D060895AF9269
:101AE000BF92CF92DF92EF92FF920F931F9360917C
:101AF000B4067091B5068091B6069091B706E09055
:101B00009400F09095000E945B2220E030E040E8D5
:101B100057E40E944A235B016C0100E010E0C80119
:101B2000B7010E945B229B01AC01C601B5010E9476
:101B3000572120E030E040E853E40E944A2320E0AF
:101B400034E244EF5AE40E94C2211F910F91FF90AA
:101B5000EF90DF90CF90BF90AF9008950E946F0DEF
:101B60000E942A22DC01CB016CE370E00E94F72383
:101B700008950E946F0D0E942A22DC01CB016CE3C4
:101B800070E00E94F723CB0108951092B4061092E2
:101B9000B5061092B6061092B7060895CF93DF935C
:101BA000409172065091730641505040EC01CC0FA9
:101BB000DD1FC254D84FFC01EE0FFF1FEE0FFF1FB9
:101BC000E258F94F9C010EC02F5F3F4F8A819B81E5
:101BD0008993999384819581A681B781819391930B
:101BE000A193B193241735077CF350937306409368
:101BF000720682E090E09093230880932208DF91A0
:101C0000CF910895CF93DF934091B0065091B106E4
:101C100041505040EC01CC0FDD1FCC54D84FFC019B
:101C2000EE0FFF1FEE0FFF1FEA5DF74F9C010EC086
:101C30002F5F3F4F8A819B818993999384819581FE
:101C4000A681B78181939193A193B193241735070E
:101C50007CF35093B1064093B00681E090E09093FE
:101C6000230880932208DF91CF910895EF92FF928D
:101C70000F931F93AB01823591052CF025EA30E0DC
:101C8000281B390B05C09C0197FF02C020E030E003
:101C9000E0907006F0907106F701EE0FFF1FE45C14
:101CA000F74F318320838701000F111F000F111F91
:101CB0000E52184FBA01882777FD8095982F0E9401
:101CC0005D22F80160837183828393830894E11C11
:101CD000F11CF0927106E09270061F910F91FF9037
:101CE000EF900895CF93DF93409170065091710665
:101CF00041505040EC01CC0FDD1FC45CD74FFC01BC
:101D0000EE0FFF1FEE0FFF1FEE52F84F9C010EC0AB
:101D10002F5F3F4F8A819B8189939993848195811D
:101D2000A681B78181939193A193B193241735072D
:101D30007CF3509371064093700680912208909135
:101D4000230804969093230880932208DF91CF9173
:101D50000895EF92FF920F931F93AB018035910589
:101D60002CF025EA30E0281B390B05C09C0197FFB9
:101D700002C020E030E0E0907206F0907306F701B8
:101D8000EE0FFF1FE254F84F318320838701000FCD
:101D9000111F000F111F0258194FBA01882777FD34
:101DA0008095982F0E945D22F80160837183828361
:101DB00093830894E11CF11CF0927306E092720682
:101DC0001F910F91FF90EF900895A091B006B091F0
:101DD000B106E4EBF7E060E070E040E050E020E0C6
:101DE00030E00CC08081918188971CF46F5F7F4F39
:101DF00002C04F5F5F4F2F5F3F4F32962A173B075E
:101E00008CF3461757075CF481E090E09093AB06A3
:101E10008093AA061092B3061092B206089581E04C
:101E200090E09093B3068093B2061092AB061092A6
:101E3000AA0608950E946F0D20910C0730910D079E
:101E400040910E0750910F070E94562120E030E08C
:101E500040E050E40E9446238823F4F01092AB0641
:101E60001092AA0680E090E0A0E0B0E080930C071A
:101E700090930D07A0930E07B0930F078093AC06C5
:101E80009093AD06A093AE06B093AF062A98109239
:101E90003B0810923A0808950E946F0D2091AC06FD
:101EA0003091AD064091AE065091AF060E9456218A
:101EB00020E030E040E05FE30E944623882364F0A6
:101EC0002A980E946F0D6093AC067093AD068093C4
:101ED000AE069093AF0608952A9A08950E946F0D5A
:101EE00020910C0730910D0740910E0750910F077C
:101EF0000E94562120E030E040E050E00E9446235E
:101F00008823F4F01092B3061092B20680E090E0BD
:101F1000A0E0B0E080930C0790930D07A0930E070C
:101F2000B0930F078093AC069093AD06A093AE06D6
:101F3000B093AF062B9810923B0810923A08089580
:101F40000E946F0D2091AC063091AD064091AE0617
:101F50005091AF060E94562120E030E040E05FE360
:101F60000E944623882364F02B980E946F0D609393
:101F7000AC067093AD068093AE069093AF060895BD
:101F80002B9A0895181619062CF420E030E0161646
:101F9000170614F021E030E0C9010895EF92FF9296
:101FA0000F931F93CF93DF93609174067091750622
:101FB000615070409C01220F331F220F331FA90173
:101FC000405A584FE901C05FD84FF901E454F94F26
:101FD0009C011EC02F5F3F4FDA011496ED90FD90DB
:101FE0000D911C911797ED92FD920D931D93AD01EC
:101FF0008C819D81AE81BF8189939993A993B99377
:1020000084819581A681B78181939193A193B193A6
:1020100026173707FCF27093750660937406DF91FC
:10202000CF911F910F91FF90EF9008951092900023
:1020300084E08093910081E080937100789408950A
:102040001F920F920FB60F9211248F939F93AF930D
:10205000BF938091A6069091A706892B99F4809151
:10206000B4069091B506A091B606B091B706019658
:10207000A11DB11D8093B4069093B506A093B6063A
:10208000B093B706BF91AF919F918F910F900FBE04
:102090000F901F9018952098219850985198279844
:1020A00085988698229A0E949B0283E08093BF00C5
:1020B0008FEF8093D10082E88093C0003F9A87E041
:1020C0008093C1001092C300089586EE94E00E94B0
:1020D000FA0624E08030920714F08FEF93E09C0121
:1020E00097FF02C020E030E0B901882777FD809596
:1020F000982F0E945D2220E030EC4FE754E40E94CC
:10210000C2216093B0077093B1078093B207909398
:10211000B3070E946F0D60937A0670937B068093DD
:102120007C0690937D0608950F931F93CF93DF93C2
:10213000C091B006D091B106C530D10574F580EFDD
:1021400094E00E94FA06CC0FDD1FCC54D84F99833F
:1021500088830091B0061091B1068FEF94E00E9441
:10216000FA06000F111F000F111F0A5D174FAA2753
:1021700097FDA095BA2FBC01CD010E945D22F80108
:1021800060837183828393838091B0069091B106BE
:1021900001969093B1068093B006DF91CF911F9185
:1021A0000F9108950F931F93CF93DF93C091720601
:1021B000D0917306CA30D10574F58EE095E00E9487
:1021C000FA06CC0FDD1FC254D84F99838883009143
:1021D0007206109173068CE195E00E94FA06000FDA
:1021E000111F000F111F0258194FAA2797FDA09524
:1021F000BA2FBC01CD010E945D22F801608371837A
:1022000082839383809172069091730601969093D6
:10221000730680937206DF91CF911F910F910895FD
:10222000EF92FF920F931F93809170069091710629
:1022300044977CF58AE295E00E94FA068C0189E3D6
:1022400095E00E94FA06E0907006F0907106F701A2
:10225000EE0FFF1FE45CF74F118300838701000F2F
:10226000111F000F111F0E52184FAA2797FDA0959E
:10227000BA2FBC01CD010E945D22F80160837183F9
:10228000828393830894E11CF11CF0927106E09222
:1022900070061F910F91FF90EF90089588E495E0EC
:1022A0000E94FA069093250880932408089581E6F9
:1022B00095E00E94FA0690932308809322080895DF
:1022C0008AE795E00E94FA0624E08030920714F035
:1022D0008FEF93E09C0197FF02C020E030E0B9014E
:1022E000882777FD8095982F0E945D2220E030E0BE
:1022F00040EF52E40E944A2320E030EC4FE754E4E0
:102300000E94C22120E030E040E752E40E945621C2
:102310000E9497070E946F0D609376067093770670
:102320008093780690937906089582E895E00E945C
:10233000FA068634910514F085E490E097FF02C018
:1023400080E090E00E94870708952F923F924F927D
:102350005F926F927F928F929F92AF92BF92CF9235
:10236000DF92EF92FF920F931F93DF93CF9300D0F2
:1023700000D000D0CDB7DEB71A82198281C000D05C
:102380002DB73EB72F5F3F4F3C832B8309811A81C6
:10239000000F111F000F111FF801E05AF84F608164
:1023A0007181828193810E942A221B012C01005F8E
:1023B000184FF80160817181828193810E942A22E5
:1023C0003B014C010091590610915A06ED81FE81A6
:1023D000EE0FFF1FE45CF74FE080F180ED81FE819E
:1023E000EE0FFF1FEE0FFF1FEE52F84F608171815D
:1023F000828193810E942A225B016C0180915206A6
:1024000090915306EB81FC8191838083C101B301DC
:1024100042E050E022E030E06501F3E0AF2EB12C65
:10242000E3E08E2E912C0E94F1020F900F90892BE9
:1024300099F08D819E810E94720E89819A810E94FD
:10244000CE0F29813A81215030403A8329838D81F2
:102450009E8101979E838D83ED81FE813196FE835F
:10246000ED8380917006909171062D813E81281731
:1024700039070CF484CF89819A8101969A838983E4
:102480008091740690917506E981FA81E817F90741
:102490001CF41E821D82E5CF26960FB6F894DEBF8F
:1024A0000FBECDBFCF91DF911F910F91FF90EF90A5
:1024B000DF90CF90BF90AF909F908F907F906F9064
:1024C0005F904F903F902F9008952F923F924F92A0
:1024D0005F926F927F928F929F92AF92BF92CF92B4
:1024E000DF92EF92FF920F931F93DF93CF93CDB7BD
:1024F000DEB728970FB6F894DEBF0FBECDBF1A82A5
:102500001982ABC000D02DB73EB72F5F3F4F3C8341
:102510002B8309811A81000F111F000F111FF80171
:10252000E05AF84F60817181828193810E942A2252
:102530001B012C01005F184FF801608171818281BD
:1025400093810E942A223B014C010091590610916F
:102550005A062F813885220F331F2254384F3E836D
:102560002D83F901E080F1804F805884440C551C84
:10257000440C551C2EE736E0420E531EF2016081DA
:102580007181828193810E942A225B016C0180917A
:10259000460690914706EB81FC8191838083C101BF
:1025A000B30142E050E022E030E06501F7E0AF2EF9
:1025B000B12CE7E08E2E912C0E94F1020F900F902B
:1025C000892BB9F1ED81FE8100811181F2016081D9
:1025D0007181828193810E942A229B01AC01C801F2
:1025E000B9010E94360EED81FE81008111810B5FE1
:1025F0001F4FF20160817181828193810E942A22A2
:102600009B01AC01C801B9010E94360E8F819885EB
:102610000E94CE0D89819A810E94CE0F29813A8134
:10262000215030403A8329838F819885019798877C
:102630008F83EF81F8853196F887EF83809172065A
:10264000909173062F813885281739070CF45ACFDB
:1026500089819A8101969A838983809174069091E9
:102660007506E981FA81E817F9071CF418861F82BC
:10267000E5CF28960FB6F894DEBF0FBECDBFCF9141
:10268000DF911F910F91FF90EF90DF90CF90BF905F
:10269000AF909F908F907F906F905F904F903F9002
:1026A0002F9008952F923F924F925F926F927F9258
:1026B0008F929F92AF92BF92CF92DF92EF92FF9252
:1026C0000F931F93DF93CF93CDB7DEB728970FB645
:1026D000F894DEBF0FBECDBF1A821982ABC000D006
:1026E0002DB73EB72F5F3F4F3C832B8309811A8163
:1026F000000F111F000F111FF801E05AF84F608101
:102700007181828193810E942A221B012C01005F2A
:10271000184FF80160817181828193810E942A2281
:102720003B014C010091590610915A062F813885C2
:10273000220F331F2C54384F3E832D83F901E08044
:10274000F1804F805884440C551C440C551C26E2E3
:1027500038E0420E531EF2016081718182819381C3
:102760000E942A225B016C0180912A0690912B061F
:10277000EB81FC8191838083C101B30142E050E091
:1027800022E030E06501F7E0AF2EB12CE7E08E2EBD
:10279000912C0E94F1020F900F90892BB9F1ED81DD
:1027A000FE8100811181F2016081718182819381BA
:1027B0000E942A229B01AC01C801B9010E94A90E06
:1027C000ED81FE8100811181095F1F4FF20160815F
:1027D0007181828193810E942A229B01AC01C801F0
:1027E000B9010E94A90E8F8198850E94020E8981ED
:1027F0009A810E94CE0F29813A81215030403A833C
:1028000029838F819885019798878F83EF81F88539
:102810003196F887EF838091B0069091B1062F81B1
:102820003885281739070CF45ACF89819A81019687
:102830009A8389838091740690917506E981FA8163
:10284000E817F9071CF418861F82E5CF28960FB603
:10285000F894DEBF0FBECDBFCF91DF911F910F91D6
:10286000FF90EF90DF90CF90BF90AF909F908F90B0
:102870007F906F905F904F903F902F9008950E94AF
:1028800052130E9465120E94A5110895EF92FF92C3
:102890000F931F93CF93DF93EC0180917406909177
:1028A0007506449709F46FC00E946F0D2091B80619
:1028B0003091B9064091BA065091BB060E9456214C
:1028C0002DEC3CEC4CE45EE30E94462318160CF021
:1028D0005AC000917406109175060E946E07000F91
:1028E000111F000F111F005A184FAA2797FDA0951E
:1028F000BA2FBC01CD010E945D22F8016083718373
:102900008283938300917406109175060E94780764
:10291000000F111F000F111F005F184FAA2797FD0E
:10292000A095BA2FBC01CD010E945D22F801608301
:10293000718382839383E0907406F090750687011B
:10294000000F111F000F111F0454194FBE018827DB
:1029500077FD8095982F0E945D22F8016083718336
:10296000828393830894E11CF11CF0927506E09237
:1029700074060E946F0D6093B8067093B906809339
:10298000BA069093BB06DF91CF911F910F91FF90F4
:10299000EF9008952F923F924F925F926F927F92A5
:1029A0008F929F92AF92BF92CF92DF92EF92FF925F
:1029B0000F931F93DF93CF9300D000D0CDB7DEB736
:1029C00050E6652E57E0752E40E1842E47E0942EA8
:1029D0002CEB36E03A8329831C821B8233C0F3013F
:1029E000A080B180C280D380F401208031804280F9
:1029F0005380E981FA81E080F18002811381C60170
:102A0000B5010E942A22161617063CF4C201B10134
:102A10000E942A2216161706FCF08B819C810E94C8
:102A2000CE0F2B813C812F5F3F4F3C832B8384E073
:102A300090E0680E791E880E991EE981FA8134961D
:102A4000FA83E98380917406909175062B813C810D
:102A50002817390724F233C0C801B7012BED3FE036
:102A600049E450EC0E944A237B018C0120E030E0D5
:102A700044E353EC0E94C2210E94AD239B01AC01B0
:102A8000C601B5010E945721F301608371838283DF
:102A90009383C801B70120E030E044E353E40E948F
:102AA000C2210E94BF219B01AC01C201B1010E9461
:102AB0005621F4016083718382839383B2CF0F9098
:102AC0000F900F900F90CF91DF911F910F91FF907A
:102AD000EF90DF90CF90BF90AF909F908F907F90BE
:102AE0006F905F904F903F902F900895AF92BF925C
:102AF000CF92DF92EF92FF920F931F93CF93DF93CA
:102B00000E9482077C010E94B4078C01C70169E220
:102B100070E04FE050E027E030E0E1E0EE2EF12CF5
:102B20000E9489040E9482078C010E946E077C012A
:102B30000E9478079C01C80107966DE270E0A7012A
:102B400001E010E00E94FB1EC0E0D0E0CE0167E291
:102B500070E02396AE0127E230E001E010E00E9431
:102B6000FB1E2796CA35D10589F7AA24BB24C0E0ED
:102B7000D0E028C0FE01E45AF84F60817181828163
:102B800093810E942A226B017C01FE01E45FF84FD1
:102B900060817181828193810E942A229B01AC0114
:102BA0000091590610915A06C601B90142E050E061
:102BB00022E030E0B1E0EB2EF12C0E948904089471
:102BC000A11CB11C24968091740690917506A816DC
:102BD000B90684F2ACE3CA2EA8E0DA2EF2EDAF2EED
:102BE000F7E0BF2EC0E0D0E01EC0F601E190F1900A
:102BF0006F01F50161917191819191915F010E9445
:102C00002A229B01AC010091520610915306C70184
:102C1000B90143E050E023E030E0E1E0EE2EF12C9A
:102C20000E94890421968091700690917106C817C0
:102C3000D907DCF20EEBC02E07E0D02E1EE7A12E46
:102C400016E0B12EC0E0D0E01EC0F601E190F19098
:102C50006F01F50161917191819191915F010E94E4
:102C60002A229B01AC010091460610914706C7013C
:102C7000B90145E050E025E030E0B1E0EB2EF12C69
:102C80000E94890421968091720690917306C8175C
:102C9000D907DCF2A4EBCA2EA7E0DA2EF6E2AF2EBB
:102CA000F8E0BF2EC0E0D0E01EC0F601E190F19048
:102CB0006F01F50161917191819191915F010E9484
:102CC0002A229B01AC0100912A0610912B06C70114
:102CD000B90147E050E027E030E0E1E0EE2EF12CD2
:102CE0000E94890421968091B0069091B106C81780
:102CF000D907DCF2DF91CF911F910F91FF90EF90F8
:102D0000DF90CF90BF90AF9008951F93E1E6F0E081
:102D100080E8808311E010830E944B108FE30E94B3
:102D200008211092900084E080939100109371002C
:102D300078940E9498050E9476151F9108952F920D
:102D40003F924F925F926F927F928F929F92AF923B
:102D5000BF92CF92DF92EF92FF920F931F93DF9378
:102D6000CF93CDB7DEB7A3970FB6F894DEBF0FBEF3
:102D7000CDBF9BA38AA30E94B90D8C010E94AE0D0A
:102D80009C010A301105D4F4CE0146962A30310553
:102D90008CF54DB75EB7485050400FB6F8945EBF03
:102DA0000FBE4DBFEDB7FEB73196ADB7BEB71296A9
:102DB0009C938E93119780EA95E046C00A301105E6
:102DC00059F18B30910544F18DB79EB708970FB636
:102DD000F8949EBF0FBE8DBFEDB7FEB73196CE0102
:102DE0004696ADB7BEB712969C938E9311978EEA16
:102DF00095E02AC0ADB7BEB718970FB6F894BEBF1E
:102E00000FBEADBFEDB7FEB7319612969C938E9371
:102E100011978AEB95E018C02A30310534F58DB74B
:102E20009EB708970FB6F8949EBF0FBE8DBFEDB743
:102E3000FEB73196CE014696ADB7BEB712969C93BB
:102E40008E93119787EC95E0938382831583048397
:102E5000378326830E9401264DB75EB7485F5F4FD8
:102E60000FB6F8945EBF0FBE4DBF00D000D000D0AB
:102E7000EDB7FEB731962E010894411C511CADB739
:102E8000BEB712965C924E92119784ED95E09383B3
:102E900082838091240890912508958384830E94E1
:102EA0000126EDB7FEB73196ABE06A2E712C6C0EA1
:102EB0007D1EADB7BEB712967C926E9211978EEDC5
:102EC00095E09383828380912208909123089583D3
:102ED00084830E9401264DB75EB74A5F5F4F0FB6ED
:102EE000F8945EBF0FBE4DBFF6E12F2E312C2C0E95
:102EF0003D1E2091B0063091B106009172061091EE
:102F00007306E0907006F0907106C0907406D09041
:102F100075068090B0079090B107A090B207B0906E
:102F2000B307C101B201A3010E94B9058AA19BA107
:102F3000892B41F538C00E94B81E80E090E060E027
:102F400070E0A50121E030E00E94AF2080E090E039
:102F500064E170E0A60121E030E00E94AF2080E053
:102F600090E06EE170E0A70121E030E00E94AF2028
:102F700088EE93E0F8013197F1F70197D9F70E94B5
:102F8000D42005C051016201730108EC10E0189BC8
:102F9000D2CF1092A7061092A6060E94B81E0E94D9
:102FA00076150E94D420A3960FB6F894DEBF0FBE0C
:102FB000CDBFCF91DF911F910F91FF90EF90DF90E8
:102FC000CF90BF90AF909F908F907F906F905F90C9
:102FD0004F903F902F900895EF92FF920F931F9381
:102FE0008C017B010E94A624E01AF10A0894E11CDE
:102FF000F11CB7010E94F7239C01200F311FC9016A
:103000001F910F91FF90EF900895AF92BF92CF92D2
:10301000DF92EF92FF920F931F93CF93DF9381E0A4
:1030200090E090933B0880933A0883E090E090937F
:10303000B1068093B006B4EBEB2EB7E0FB2E06E2B0
:1030400018E020E030E0C0E0D0E00F2EF0E0AF2E3E
:10305000F0E0BF2EF0E0CF2EF1ECDF2EF02D16C009
:1030600080E090E06DE470E00E94EC179C0103C0EA
:103070001C161D06ACF3F701219331937F01F80173
:10308000A192B192C192D1928F0121968091B00606
:103090009091B106C817D9075CF30E94E50EDF9145
:1030A000CF911F910F91FF90EF90DF90CF90BF9045
:1030B000AF9008950F931F93CF93DF9380913A08B9
:1030C00090913B08892B09F0C7C006E218E0C0E0E8
:1030D000D0E031C0F80160817181828193812091BB
:1030E000B0073091B1074091B2075091B3070E94E9
:1030F0005721F801608371838283938320E030E05D
:1031000040EE50E40E94572120E030E040E252E4DB
:103110000E944623882364F0CE010E94020E809113
:1031200024089091250801979093250880932408FE
:1031300021960C5F1F4F8091B0069091B106C81781
:10314000D90744F2892B71F4809170069091710631
:10315000892B41F48091720690917306892B11F4AA
:103160000E9405180EE716E0C0E0D0E031C0F8017B
:1031700060817181828193812091B0073091B10784
:103180004091B2075091B3070E945721F801608324
:1031900071838283938320E030E040EA50E40E9410
:1031A000572120E030E040E252E40E944623882389
:1031B00064F0CE010E94CE0D8091240890912508E4
:1031C0000197909325088093240821960C5F1F4F48
:1031D0008091720690917306C817D90744F202EDE8
:1031E00017E0C0E0D0E031C0F801608171818281D8
:1031F00093812091B0073091B1074091B20750916F
:10320000B3070E945721F8016083718382839383FF
:1032100020E030E040E450E40E94572120E030E01C
:1032200040E252E40E944623882364F0CE010E94CB
:10323000720E80912408909125080197909325089B
:103240008093240821960C5F1F4F80917006909107
:103250007106C817D90744F2DF91CF911F910F91E2
:1032600008950E94B81E8091A8069091A906892B06
:10327000B1F08091A6069091A706892B81F4109257
:10328000B4061092B5061092B6061092B7061092C8
:10329000A9061092A80689EE95E00E94AE058091DD
:1032A000A6069091A706892B51F40E94FD070E9463
:1032B0005D080E94CA140E945A180E943F140E947E
:1032C00076150E94D4200895EF92FF920F931F93DA
:1032D0000E94B81E2A982B9883E290E00E948707EC
:1032E00081E090E09093A7068093A6069093A906AC
:1032F0008093A8061092AB061092AA061092B3060D
:103300001092B2060F2EF0E0EF2EF0E0FF2EF0E06C
:103310000F2FF0E01F2FF02DE0920C07F0920D0719
:1033200000930E0710930F07109275061092740603
:103330001092730610927206109271061092700627
:10334000109223081092220885E090E090932508BF
:1033500080932408E092AC06F092AD060093AE068E
:103360001093AF060E94051881E090E00E94A50727
:1033700080E090E0A0E8BFE38093B8069093B906A0
:10338000A093BA06B093BB06C801B7010E94970785
:103390000E94820707960E94730789E290E00E94CC
:1033A0007D07E0927606F0927706009378061093F8
:1033B0007906E0927A06F0927B0600937C061093E1
:1033C0007D0680E090E062E370E00E94EC174A978F
:1033D0001CF080E090E002C081E090E00E94AF0726
:1033E0000E9476150E94D4201F910F91FF90EF90BC
:1033F00008958C36910509F474C08D36910524F535
:103400008836910509F476C089369105A4F484368E
:103410009105C9F1853691054CF48F33910509F476
:1034200066C08136910509F070C02AC087369105C3
:1034300009F06BC059C08A36910509F45EC08B361D
:1034400091050CF05DC05FC08237910579F183373B
:1034500091055CF48037910561F181379105C4F5E0
:103460008D36910509F051C039C08437910599F125
:1034700084379105A4F08737910509F046C006C04E
:103480000E94B90708950E94DB0708950E948C07E7
:103490000E942A22DC01CB010E94461408958091EB
:1034A000A6069091A7060E949F1608950E9464198F
:1034B000089520E030E08091A6069091A706892B20
:1034C00011F421E030E03093A7062093A60608957A
:1034D0000E94F70308950E94601108950E946510EC
:1034E00008950E944E1108950E94571108950E9458
:1034F000820308950E94951108950E9494100895E2
:103500000E94D21008950E94101108950E945F0930
:1035100097FD02C00E94F91908950E94861A189B0F
:103520000EC020E030E08091A6069091A706892B7E
:1035300011F421E030E03093A7062093A6061F9BEC
:1035400006C08091A6069091A7060E949F168FB193
:10355000829586958695837080FF02C00E946419CB
:103560008FB182958695877080FF02C00E94F70315
:103570008091AA069091AB06892B11F18091A60645
:103580009091A706892BE1F460910C0770910D07CB
:1035900080910E0790910F0720E030E040E050E06E
:1035A0000E94BB21882351F40E946F0D60930C0789
:1035B00070930D0780930E0790930F070E941A0FC8
:1035C0008091B2069091B306892B11F18091A606E5
:1035D0009091A706892BE1F460910C0770910D077B
:1035E00080910E0790910F0720E030E040E050E01E
:1035F0000E94BB21882351F40E946F0D60930C0739
:1036000070930D0780930E0790930F070E946E0F23
:1036100080912408909125081816190614F00E942C
:103620001A040E9431190895CF93DF9380E090E04F
:103630000E94AB240E9485160E94EF040E94641928
:1036400080E00E949F020E94AB24C8ECD0E00E9460
:103650008D1A88EE93E0FE013197F1F70197D9F7C3
:10366000F6CFA1E1B0E0E7E3FBE10C940A243C01D2
:103670007F876E876A01FC0117821682838181FD34
:1036800003C06FEF7FEF6FC39E012F5F3F4F398BFA
:10369000288BF3012381EE85FF8523FD859123FF90
:1036A0008191FF87EE87882309F45AC3853251F44C
:1036B000EE85FF8523FD859123FF8191FF87EE87AE
:1036C000853229F490E0B3010E94A425E2CF982F1F
:1036D00010E0882499241032B0F49B3269F09C32B7
:1036E00028F4903251F0933271F40BC09D3239F0CE
:1036F000903349F4116028C01260146025C018602E
:1037000023C0106121C017FD2AC0892F80538A3041
:1037100078F416FF06C0FAE09F9E902C1124980EB4
:1037200013C03AE0839E802C1124880E10620CC0D6
:103730009E3221F416FD14C3106406C09C3611F4A9
:10374000106802C0983659F4EE85FF8523FD9591E7
:1037500023FF9191FF87EE87992309F0BCCF892F32
:103760008554833020F4812F8061905E07C0892FBB
:103770008556833008F09FC1812F8F7E86FD02C061
:1037800076E0972E6FE3F62EF822953619F4F0E4E2
:10379000FF2A07C0963619F420E8F22A02C09110D9
:1037A0009A94F7FE0AC03BE3391518F45CE3B52E92
:1037B00002C0B92CB39427E009C047E0491520F4B2
:1037C000BB2447E0942EF7CF292DBB24C6010496D5
:1037D0009D878C87F6016081718182819381AE0122
:1037E0004F5F5F4F0B2D0E94B6246C010981202E84
:1037F000332400FF04C003FD02C01DE209C0F1FE36
:1038000002C01BE205C0F2FC02C010E001C010E2E1
:10381000C1018C709070892BB9F1112311F483E0F0
:1038200001C084E0881510F088240AC0881AF3FCCF
:1038300007C080E290E0B3010E94A4258A94C9F7F2
:10384000112329F0812F90E0B3010E94A42523FECB
:1038500003C005E112E00EC009E112E00BC0E11463
:10386000F10409F0805290E0B3010E94A4250F5F9B
:103870001F4F05C0EF2CFF24F0E1EF22FF24F801D9
:103880008491882361F714C1F7FE12C0BC0C24FE9A
:1038900004C08A81813309F4BA941B141CF0BB2440
:1038A000B3942DC0F8E0FB1550F538E0B32E27C0D7
:1038B000F6FC25C0892D90E08C159D054CF02CEF71
:1038C000C2162FEFD20624F030E8F32A01C09A94F2
:1038D000992049F0E2E0F0E0EC0FFD1FE90DF11D49
:1038E00080818033A1F3F7FE0AC0B92CB394892DEF
:1038F00090E0C816D90614F0992401C09C18F7FC72
:1039000003C025E030E009C01C141D041CF021E0B8
:1039100030E003C096012F5F3F4F112311F02F5F5E
:103920003F4F992029F0892D90E00196280F391FEB
:10393000882D90E02817390714F0882401C0821AD6
:103940004F2C5524C20189709070892B39F008C022
:1039500080E290E0B3010E94A4258A948820C1F7F8
:10396000112329F0812F90E0B3010E94A42543FE8A
:1039700007C008C080E390E0B3010E94A4258A94A8
:103980008820C1F7F7FE46C08601D7FE02C000E0DE
:1039900010E076010894E11CF11CE01AF10A41E004
:1039A00050E04C0F5D1FE40EF51E26014B18510828
:1039B000892D90E0AA24BB24A81AB90A5FEF0F3F13
:1039C000150729F48EE290E0B3010E94A425C016E9
:1039D000D10634F0401651061CF4F701808101C075
:1039E00080E3015010400894E11CF11C0A151B05EE
:1039F0002CF090E0B3010E94A425E0CF0C151D052A
:103A000039F49A81963318F4953311F424FE81E346
:103A100090E04BC08A81813309F00F7E90E0B301C2
:103A20000E94A4259920A1F08EE290E0B3010E94AB
:103A3000A42512E0E1E0F0E0EC0FFD1FE10FF11D25
:103A40001F5F808190E0B3010E94A4259A9491F7B2
:103A500044FC03C085E690E002C085E490E0B30139
:103A60000E94A425D7FC05C0C114D10441F404FF71
:103A700006C0D094C194D108D3948DE201C08BE2EA
:103A800090E0B3010E94A42580E305C08F5F26EF7C
:103A90003FEFC20ED31E3AE0C316D104BCF790E04C
:103AA000B3010E94A425C601C096B3010E94A425BB
:103AB000CC84DD8452C1933631F0933799F093353D
:103AC00009F059C023C0F601808189835E01089402
:103AD000A11CB11C22E030E0C20ED31E21E0E22E78
:103AE000F12C12C0F601A080B18016FD03C06FEF6B
:103AF0007FEF02C0692D70E022E030E0C20ED31EDD
:103B0000C5010E9499257C011F7713C0F601A08092
:103B1000B18016FD03C06FEF7FEF02C0692D70E02A
:103B200022E030E0C20ED31EC5010E948E257C012A
:103B3000106813FF07C01BC080E290E0B3010E9431
:103B4000A4258A94882D90E0E816F906A8F30FC002
:103B5000F50117FD859117FF81915F0190E0B30199
:103B60000E94A42581108A940894E108F108E114C8
:103B7000F10471F7F2C0943611F0993689F517FF08
:103B800008C0F601208131814281538184E090E0B8
:103B90000AC0F601808191819C01442737FD409540
:103BA000542F82E090E0C80ED91E9FE6F92EF12234
:103BB00057FF09C050954095309521953F4F4F4F85
:103BC0005F4F90E8F92ACA01B901AE014F5F5F4F1C
:103BD0002AE030E00E942526E82EE889EE1A41C04E
:103BE000953721F41F7E2AE030E01CC0197F9F36F4
:103BF00061F0903720F4983509F0B2C00FC09037CB
:103C000039F0983709F0ACC004C028E030E00AC0B1
:103C1000106114FD146020E130E004C014FD166052
:103C200020E132E017FF08C0F601608171818281D6
:103C3000938144E050E008C0F60180819181BC018D
:103C400080E090E042E050E0C40ED51EAE014F5F30
:103C50005F4F0E942526E82E5889E51A8FE7F82E37
:103C6000F122F6FE0BC08EEFF822E91438F4F4FED0
:103C700007C0F2FC05C09FEEF92202C01E2D01C054
:103C8000192DF4FE0DC0FE01EE0DF11D8081803373
:103C900019F4E9EEFE2208C01F5FF2FE05C003C062
:103CA0008F2D867809F01F5F0F2DF3FC14C0F0FEF6
:103CB0000FC0181510F09E2C0BC09E2C980C911A5A
:103CC000182D06C080E290E0B3010E94A4251F5F7A
:103CD0001815C0F304C0181510F4811A01C0882407
:103CE00004FF0FC080E390E0B3010E94A42502FF0F
:103CF0001DC001FD03C088E790E00EC088E590E09C
:103D00000BC0802F867891F001FF02C08BE201C0CA
:103D100080E2F7FC8DE290E0B3010E94A42506C08A
:103D200080E390E0B3010E94A4259A94E914C0F3C3
:103D3000EA94E1E0F0E0EC0FFD1FEE0DF11D808153
:103D400090E0B3010E94A425EE2091F706C080E226
:103D500090E0B3010E94A4258A948820C1F799CCF1
:103D6000F30166817781CB016196E2E10C94262410
:103D7000E4E6F8E011928AE0EC35F807D9F7089507
:103D80009C0197FD37C077FD35C08435910594F5CA
:103D9000603371057CF5CB0173E0959587957A9535
:103DA000E1F76770452B99F0E4E58E9FF00111244F
:103DB000E20FF31FEC59F74F81E090E002C0880F4B
:103DC000991F6A95E2F72081282B20830895E4E566
:103DD0008E9FF0011124E20FF31FEC59F74F81E0A1
:103DE00090E002C0880F991F6A95E2F780952081C4
:103DF0002823208308952F923F924F925F926F92D3
:103E00007F928F929F92AF92BF92CF92DF92EF926A
:103E1000FF920F931F93DF93CF93CDB7DEB72E970B
:103E20000FB6F894DEBF0FBECDBF7C016B014A0117
:103E300039011C870B8784179507F9F45B0110C0C3
:103E4000C701B5014B855C850E94C01EC614D7040E
:103E500024F40894A11CB11C03C00894A108B10863
:103E6000C614D7042CF46A147B040CF4FDC0E8CF0C
:103E7000A614B7040CF4F8C0E3CF62177307F9F483
:103E80005C0110C0C501B6014B855C850E94C01E57
:103E9000E814F90424F40894A11CB11C03C008948C
:103EA000A108B108E814F9042CF48A149B040CF45A
:103EB000DBC0E8CFA814B9040CF4D6C0E3CF481790
:103EC000590724F447017A013B016901B4016E19D5
:103ED0007F09882777FD8095982F0E945D226F8348
:103EE000788789879A87B3016C197D09882777FDC0
:103EF0008095982F0E945D226B837C838D839E83A7
:103F00002F81388549855A850E94C2211B012C01C9
:103F100020E030E040E050E00E94462387FF04C0EC
:103F200057FA509457F85094DA82C9820F2EF0E075
:103F3000AF2EF0E0BF2EF0E0CF2EF0E0DF2EF02D20
:103F40007FC0C70169817A814B855C850E94C01E54
:103F5000C601B501A20191010E9457213BC0C701D2
:103F600069817A814B855C850E94C01E1E861D86F4
:103F70006B817C818D819E8120E030E040E050E0CB
:103F80000E944623181624F421E030E03E872D8756
:103F900000E010E06B817C818D819E8120E030E02B
:103FA00040E050E00E94BB21882314F401E010E0BF
:103FB0008D859E85801B910BE981FA81E80FF91FA1
:103FC000FA83E983C601B50120E030E040E85FE311
:103FD0000E9456215B016C0120E030E040E05FE38D
:103FE0000E9446238823CCF06B817C818D819E8149
:103FF00020E030E040E050E00E94462318163CF4F8
:1040000029813A81621673060CF0A9CF06C0898116
:104010009A81861597050CF0A2CF6F8178858985E6
:104020009A8520E030E040E050E00E9446231816D8
:1040300024F40894E11CF11C03C00894E108F10881
:104040006F81788589859A8520E030E040E050E0F6
:104050000E944623181624F48E149F042CF071CF6E
:10406000E814F9040CF06DCF2E960FB6F894DEBF6D
:104070000FBECDBFCF91DF911F910F91FF90EF90B9
:10408000DF90CF90BF90AF909F908F907F906F9078
:104090005F904F903F902F9008954F925F926F9254
:1040A0007F928F929F92AF92BF92CF92DF92EF92C8
:1040B000FF920F931F93CF93DF933B01490125E0BC
:1040C000429FA0011124ADE7EA2EA1E0FA2EE40EF2
:1040D000F51E8C01F1E04F2E512CE2E8AE2EE1E00E
:1040E000BE2EA40EB51EF70184918114910409F42B
:1040F0008095C0E0D0E0C82EDD24BE01660D771D9E
:10410000A2010C2E02C0440F551F0A94E2F74C2165
:104110005D210C2E02C0559547950A94E2F7C8011F
:104120000E94C01E2196C830D10539F70894E11CC1
:10413000F11C0F5F1F4FEA14FB04A9F6DF91CF912A
:104140001F910F91FF90EF90DF90CF90BF90AF90B5
:104150009F908F907F906F905F904F900895CF9237
:10416000DF92EF92FF920F931F93CF93DF936B0138
:104170007A01E901082F10E008C0802F90E0B60115
:104180009E010E944D200B5F1F5FF701E10FF11DA3
:104190004081442391F7DF91CF911F910F91FF90C0
:1041A000EF90DF90CF900895CF93DF9380E060E0B1
:1041B0000E944921C4E6D8E081E069910E94E7208D
:1041C0008AE0CC35D807C1F7DF91CF91089595B13A
:1041D0008295880F807E9F7D982B95B95F9827E008
:1041E00030E070E08F98CB01022E02C09595879544
:1041F0000A94E2F780FF02C02E9A01C02E988F9A8F
:10420000215030408FEF2F3F380761F75F9A0895B4
:104210001F93182F579A249A259A269A879A2C9892
:104220005F9A2C9A80E061E20E94E720106880E0AB
:10423000612F0E94E72080E064E00E94E72080E098
:1042400063E10E94E72080E06CE00E94E72080E0CC
:1042500060E20E94E72080E06CE00E94E72080E0BE
:1042600060E40E94E72080E060E80E94E7201F9160
:104270000895CF93DF93C0E0D0E081E060E00E943A
:10428000E720219681E0C83FD807B9F7DF91CF91A9
:1042900008951F93182F606480E00E94E720106843
:1042A00080E0612F0E94E7201F9108955058BB279E
:1042B000AA270ED0A0C169D130F06ED120F031F420
:1042C0009F3F11F41EF45EC10EF4E095E7FB54C16C
:1042D000E92FB3D180F3BA176207730784079507F4
:1042E00018F071F49EF5CBC10EF4E0950B2EBA2FA9
:1042F000A02D0B01B90190010C01CA01A0011124EC
:10430000FF27591B99F0593F50F4503E68F11A1697
:10431000F040A22F232F342F4427585FF3CF469528
:1043200037952795A795F0405395C9F77EF41F164A
:10433000BA0B620B730B840BBAF09150A1F0FF0F14
:10434000BB1F661F771F881FC2F70EC0BA0F621F00
:10435000731F841F48F4879577956795B795F795F0
:104360009E3F08F0B3CF9395880F08F09927EE0F82
:10437000979587950895DCD008F481E0089514D1CD
:10438000E3954AC10CD037C107D140F0FED030F0E0
:1043900021F45F3F19F0F0C0511172C1F3C04DD14B
:1043A00098F39923C9F35523B1F3951B550BBB27FC
:1043B000AA2762177307840738F09F5F5F4F220FA9
:1043C000331F441FAA1FA9F333D00E2E3AF0E0E8A2
:1043D00030D091505040E695001CCAF729D0FE2FEE
:1043E00027D0660F771F881FBB1F26173707480780
:1043F000AB07B0E809F0BB0B802DBF01FF27935836
:104400005F4F2AF09E3F510568F0B6C039C15F3F4B
:10441000ECF3983EDCF3869577956795B795F7951D
:104420009F5FC9F7880F911D9695879597F9089515
:10443000E1E0660F771F881FBB1F621773078407B1
:10444000BA0720F0621B730B840BBA0BEE1F88F7C0
:10445000E095089504D06894B11112C10895F5D083
:1044600088F09F5790F0B92F9927B751A0F0D1F05D
:10447000660F771F881F991F1AF0BA95C9F712C0E7
:10448000B13081F0FCD0B1E00895F9C0672F782FEA
:104490008827B85F39F0B93FCCF386957795679553
:1044A000B395D9F73EF490958095709561957F4FBF
:1044B0008F4F9F4F0895E89409C097FB3EF4909565
:1044C0008095709561957F4F8F4F9F4F9923A9F0ED
:1044D000F92F96E9BB279395F6958795779567957C
:1044E000B795F111F8CFFAF4BB0F11F460FF1BC0C0
:1044F0006F5F7F4F8F4F9F4F16C0882311F096E953
:1045000011C0772321F09EE8872F762F05C0662300
:1045100071F096E8862F70E060E02AF09A95660FB9
:10452000771F881FDAF7880F9695879597F9089572
:10453000990F0008550FAA0BE0E8FEEF16161706B4
:10454000E807F907C0F012161306E407F50798F01C
:10455000621B730B840B950B39F40A2661F0232B35
:10456000242B252B21F408950A2609F4A140A695B1
:104570008FEF811D811D089597F99F6780E870E096
:1045800060E008959FEF80EC089500240A941616C9
:10459000170618060906089500240A941216130631
:1045A000140605060895EECF50D0E8F3E894E0E055
:1045B000BB279F57F0F02AED3FE049EC06C0EE0F15
:1045C000BB0F661F771F881F28F0B23A6207730778
:1045D000840728F0B25A620B730B840BE3959A950B
:1045E00072F7803830F49A95BB0F661F771F881FCB
:1045F000D2F79048BAC0092E0394000C11F4882316
:1046000052F0BB0F40F4BF2B11F460FF04C06F5F8A
:104610007F4F8F4F9F4F0895EF93E0FF06C0A2EAB0
:104620002AED3FE049EC5FEB53DEE5DF0F900394AA
:1046300001FC9058EEE2F1E0A4C057FD9058440F01
:10464000551F59F05F3F71F04795880F97FB991FF1
:1046500061F09F3F79F087950895121613061406AE
:10466000551FF2CF4695F1DF08C01616170618063B
:10467000991FF1CF86957105610508940895E89416
:10468000BB2766277727CB0197F9089551DF08F4F8
:104690008FEF08950BD0AFCF78DF28F07DDF18F0D3
:1046A000952309F069CF6ECF1124EACFC6DFA0F3BE
:1046B000959FD1F3950F50E0551F629FF001729FB7
:1046C000BB27F00DB11D639FAA27F00DB11DAA1FD6
:1046D000649F6627B00DA11D661F829F2227B00D23
:1046E000A11D621F739FB00DA11D621F839FA00DAE
:1046F000611D221F749F3327A00D611D231F849FFE
:10470000600D211D822F762F6A2F11249F57504054
:104710008AF0E1F088234AF0EE0FFF1FBB1F661FEF
:10472000771F881F91505040A9F79E3F510570F0A8
:1047300023CFA6CF5F3FECF3983EDCF386957795C9
:104740006795B795F795E7959F5FC1F7FE2B880FA3
:10475000911D9695879597F908959F9325DF0F9062
:1047600007FCEE5F59CF9F3F31F0915020F48795C1
:1047700077956795B795880F911D9695879597F9C9
:1047800008959F938F937F936F93FF93EF939B0174
:10479000AC0180DFEF91FF9105D02F913F914F91B8
:1047A0005F9178CFDF93CF931F930F93FF92EF9298
:1047B000DF927B018C01689405C0DA2EEF0176DF71
:1047C000FE01E894A5912591359145915591AEF35F
:1047D000EF017EDDFE019701A801DA9479F7DF9001
:1047E000EF90FF900F911F91CF91DF91089597FB6C
:1047F000092E07260AD077FD04D043D006D000202A
:104800001AF4709561957F4F0895F6F7909581950C
:104810009F4F08952F923F924F925F926F927F9297
:104820008F929F92AF92BF92CF92DF92EF92FF92C0
:104830000F931F93CF93DF93CDB7DEB7CA1BDB0B6C
:104840000FB6F894DEBF0FBECDBF09942A88398811
:1048500048885F846E847D848C849B84AA84B98418
:10486000C884DF80EE80FD800C811B81AA81B98124
:10487000CE0FD11D0FB6F894DEBF0FBECDBFED0138
:104880000895AA1BBB1B51E107C0AA1FBB1FA61797
:10489000B70710F0A61BB70B881F991F5A95A9F7E9
:1048A00080959095BC01CD010895A0E0B0E0EBE5C6
:1048B000F4E20C941224EC01A880B980CA80DB8059
:1048C000A114B104C104D10441F484E2A82E89EDFD
:1048D000B82E8BE5C82E87E0D82EC601B5012DE194
:1048E00033EF41E050E00E94A22627EA31E440E0A5
:1048F00050E00E9483267B018C01C601B5012DE1A9
:1049000033EF41E050E00E94A226CA01B9012CEE2B
:1049100034EF4FEF5FEF0E9483266E0D7F1D801FE7
:10492000911F97FF04C06150704080409048688399
:1049300079838A839B839B013F77C901CDB7DEB71B
:10494000EAE00C942E240E94552408958BE596E00D
:104950000E9455240895A0E0B0E080935B069093F8
:104960005C06A0935D06B0935E060895283008F0BB
:1049700027E03327DA01990F311D87FD91600096FA
:104980006105710539F432602E5F3D9330E32A955D
:10499000E1F708959F3F30F080387105610509F017
:1049A0003C5F3C5F3D93913008F08068911DDF9340
:1049B000CF931F930F93FF92EF92192F987F9695A5
:1049C000E92F96959695E90FFF27E95AFB4F99270E
:1049D0003327EE24FF24A701E701059008940794EC
:1049E00028F4360FE71EF81E491F511D660F771F6A
:1049F000881F991F0694A1F70590079428F4E70EE5
:104A0000F81E491F561FC11D770F881F991F661F6B
:104A10000694A1F70590079428F4F80E491F561F35
:104A2000C71FD11D880F991F661F771F0694A1F716
:104A30000590079420F4490F561FC71FD81F990FE0
:104A4000661F771F881F0694A9F784911095177029
:104A500041F0D695C79557954795F794E7941A95E1
:104A6000C1F7EDEFF3E068941590159135916591DC
:104A7000959105907FE27395E118F10A430B560B6F
:104A8000C90BD009C0F7E10CF11E431F561FC91F07
:104A9000D01D7EF4703311F48A95E6CFE89401506E
:104AA00030F0080F0AF40027021708F4202F23958E
:104AB000022F7A3328F079E37D932A95E9F710C025
:104AC0007D932A9589F6069497956795379517955E
:104AD0001794E118F10A430B560BC90BD00998F053
:104AE00023957E9173957A3308F070E37C932013BD
:104AF000B8F77E9170617D9330F0839571E37D937B
:104B000070E32A95E1F71124EF90FF900F911F9128
:104B1000CF91DF91992787FD90950895FC0105902D
:104B2000615070400110D8F7809590958E0F9F1FAF
:104B30000895FC016150704001900110D8F78095F4
:104B400090958E0F9F1F08950F931F93CF93DF9320
:104B50008C01EB018B8181FF1BC082FF0DC02E8178
:104B60003F818C819D812817390764F4E881F981A0
:104B70000193F983E88306C0E885F985802F0995BC
:104B8000892B31F48E819F8101969F838E8302C091
:104B90000FEF1FEFC801DF91CF911F910F91089583
:104BA000AEE0B0E0E6EDF5E20C9418240D891E8924
:104BB0008F89988D97FF02C080E090E801979E83CF
:104BC0008D831A83098386E08C839E01255E3F4F87
:104BD000CE010196698D7A8DA9010E94311B4D810C
:104BE0005E8157FD0AC02F813885421753070CF4A8
:104BF0009A01020F131FF80110822E96E4E00C9424
:104C00003424AEE0B0E0E7E0F6E20C9418240D891D
:104C10001E8986E08C831A8309838FEF9FE79E832A
:104C20008D839E01275E3F4FCE0101966F89788D5F
:104C3000A9010E94311B2F813885020F131FF80133
:104C400010822E96E4E00C943424FA01AA2728302E
:104C500051F1203181F1E8946F936E7F6E5F7F4F49
:104C60008F4F9F4FAF4FB1E03ED0B4E03CD0670FC5
:104C7000781F891F9A1FA11D680F791F8A1F911D18
:104C8000A11D6A0F711D811D911DA11D20D009F468
:104C900068943F912AE0269F11243019305D3193AA
:104CA000DEF6CF010895462F4770405D4193B3E093
:104CB0000FD0C9F7F6CF462F4F70405D4A3318F03A
:104CC000495D31FD4052419302D0A9F7EACFB4E0EB
:104CD000A6959795879577956795BA95C9F70097A3
:104CE0006105710508959B01AC010A2E0694579544
:104CF000479537952795BA95C9F7620F731F841F9B
:104D0000951FA01D0895629FD001739FF001829F9F
:104D1000E00DF11D649FE00DF11D929FF00D839F4A
:104D2000F00D749FF00D659FF00D9927729FB00DE7
:104D3000E11DF91F639FB00DE11DF91FBD01CF01FA
:104D40001124089597FB092E05260ED057FD04D097
:104D500014D00AD0001C38F4509540953095219518
:104D60003F4F4F4F5F4F0895F6F7909580957095A0
:104D700061957F4F8F4F9F4F0895A1E21A2EAA1B76
:104D8000BB1BFD010DC0AA1FBB1FEE1FFF1FA217FB
:104D9000B307E407F50720F0A21BB30BE40BF50BF8
:104DA000661F771F881F991F1A9469F76095709581
:104DB000809590959B01AC01BD01CF010895F894B9
:024DC000FFCF23
:104DC2000D0A005465656E737920636F6E74726F9D
:104DD2006C733A200D0A006C6566743A206D6F762A
:104DE20065206C6566740D0A0072696768743A2002
:104DF2006D6F76652072696768740D0A0075703A86
:104E020020666972650D0A00646F776E3A206469E4
:104E120073706C61792067616D652073746174755C
:104E2200730D0A0063656E7472653A207061757362
:104E3200652067616D650D0A004C656674206275B8
:104E420074746F6E3A2073746172742F7265737426
:104E52006172742067616D650D0A0052696768743A
:104E620020627574746F6E3A20717569740D0A0050
:104E72004C65667420776865656C3A2073657420AA
:104E82007468652061696D206F662074686520749E
:104E920075727265740D0A005269676874207768CA
:104EA20065656C3A2073657420746865207370655B
:104EB2006564206F66207468652067616D650D0A00
:104EC20000436F6D707574657220636F6E74726FDC
:104ED2006C733A200D0A00613A206D6F7665206C82
:104EE2006566740D0A00643A206D6F7665207269FA
:104EF2006768740D0A00773A2066697265200D0AA8
:104F020000733A20646973706C61792067616D6522
:104F1200207374617475730D0A00723A20737461A0
:104F220072742F72657365742067616D650D0A0076
:104F3200703A207061757365200D0A00713A207114
:104F42007569740D0A006D3A20736574207370657B
:104F520065640D0A006C3A20736574206C6976658D
:104F6200730D0A00673A207365742073636F72656C
:104F72000D0A003F3A207072696E7420636F6E747E
:104F8200726F6C730D0A00683A206D6F766520733C
:104F92006869700D0A006A3A2064726F702061734A
:104FA2007465726F69640D0A006B3A2064726F70E7
:104FB20020626F756C6465720D0A00693A20647232
:104FC2006F7020667261676D656E740D0A006E31D6
:104FD20030303039363731000D0A47414D45204FC8
:104FE2005645520047414D45204F564552005245C5
:104FF2005354415254204F5220515549542100419B
:10500200737465726F69642073686F6F7465720080
:105012006F6F6F6F6F6F6F6F6F6F6F6F6F6F6F6F9E
:105022006F6F6F6F6F6F20202020202020202020A4
:105032002020202020202020206F6F2020206F2081
:105042002020202020202020206F202020206F6F71
:10505200202020202020202020202020202020204E
:105062002020206F6F2020202020202020202020A0
:1050720020202020202020206F6F2020206F6F6FA3
:105082006F6F6F6F6F6F6F6F6F202020206F6F20B9
:10509200202020202020202020202020202020200E
:1050A20020206F6F6F6F6F6F6F6F6F6F6F6F6F6FAC
:1050B2006F6F6F6F6F6F6F6F00EBFF000016002B4B
:1050C200004100434F4E4E45435420555342000D7C
:1050D2000A002D47616D65207374617475732D0D1F
:1050E2000A0041737465726F6964733A2025640023
:1050F200426F756C646572733A2025640046726172
:10510200676D656E74733A20256400506C61736D2F
:105112006120626F6C74733A2025640041696D3AB4
:105122002025640053706565643A20256400256378
:10513200002020202020202020202020202020208D
:10514200202020202020202020202020202020205D
:10515200202020202020202020202020202020204D
:10516200202020202020202020202020206F6F209F
:1051720020206F6F6F6F6F2020206F6F6F6F6F6FC8
:105182006F6F6F6F6F6F6F6F6F6F6F6F6F2020201A
:105192006F6F6F6F6F2020206F6F0071040100002E
:1051A200E100000000080D0A53706565643A2000B2
:1051B2000D0A41737465726F696420783A20000D9C
:1051C2000A41737465726F696420793A20000D0A8E
:1051D200426F756C64657220783A20000D0A426F46
:1051E200756C64657220793A20000D0A4672616717
:1051F2006D656E7420783A20000D0A467261676D03
:10520200656E7420793A20005365742074686520B5
:10521200706C617965722773206C697665733A20C8
:10522200005365742074686520706C61796572271B
:10523200732073636F72653A20000D0A41696D3AFB
:1052420020004D6F76652074686520736869702050
:10525200746F20636F6F72696E646174653A2000C7
:1052620054696D653A203025643A302564005469EA
:105272006D653A2025643A25640054696D653A20CB
:105282003025643A25640054696D653A2025643AF4
:10529200302564004C697665733A20256400506FAE
:1052A200696E74733A202564000D0A47414D45200A
:1052B20053544152544544002020206F2020202086
:1052C200206F6F6F2020206F6F6F6F6F206F6F6F77
:1052D2006F6F6F6F206F6F6F6F6F2020206F6F6F18
:1052E20020202020206F20202000F80520206F2081
:1052F20020206F6F6F206F6F6F6F6F206F6F6F2047
:1053020020206F2020002C06206F206F6F6F206FEF
:10531200200048066F6F6F6F005406010000000006
:00000001FF
