:100000000C947C020C9499020C9499020C94990221
:100010000C9499020C9499020C9499020C949902F4
:100020000C9499020C9499020C9400050C943B05D5
:100030000C9499020C9499020C9499020C949902D4
:100040000C9499020C9499020C9499020C949902C4
:100050000C9499020C9499020C9499020C949902B4
:100060000C9499020C9499020C9499020C949902A4
:100070000C9499020C9499020C9499020C94990294
:100080000C9499020C9499020C9499020C94880D8A
:100090000C9499020C9499020C9499020C94990274
:1000A0000C9499020C9499020C9499029504920470
:1000B0008F048C0489048604830480047D047A04FC
:1000C0007704740471046E046B04680465046204AC
:1000D0005F045C0459045604530450044D044A045C
:1000E0004704440441043E043B043804350432040C
:1000F0002F042C0429042604230420041D041A04BC
:100100001704140411040E040B040804050402046B
:10011000FF03FC03F903F603F303F003ED03EA0323
:10012000E703E403E103DE03DB03D803D50305A8FB
:100130004CCDB2D44EB93836A9020C50B99186884C
:10014000083CA6AAAA2ABE000000803F00010000C9
:100150008001120002000092014300030000D5015B
:100160000401030904D9011402030904EF01160371
:1001700003090407020C0001C11201803601813617
:100180001201000202000010C0167A0400010102F0
:10019000030109024300020100C03209040000010A
:1001A00002020100052400100105240101010424BC
:1001B0000206052406000107058203100040090419
:1001C0000100020A000000070503024000000705C5
:1001D000840240000004030904140359006F0075F1
:1001E00000720020004E0061006D006500000016E6
:1001F000035500530042002000530065007200695F
:100200000061006C0000000C033100320033003448
:1002100000350000006E616E00696E66000000002F
:10022000000000005F00000007000700147F147F3B
:1002300014242A7F2A122313086462364955225057
:100240000005030000001C2241000041221C001494
:10025000083E081408083E0808005030000008084E
:10026000080808006060000020100804023E5149A0
:10027000453E00427F400042615149462141454B85
:10028000311814127F1027454545393C4A494930F9
:1002900001710905033649494936064949291E00B5
:1002A00036360000005636000008142241001414AF
:1002B000141414004122140802015109063249792C
:1002C000413E7E1111117E7F494949363E414141EF
:1002D000227F4141221C7F494949417F0909090187
:1002E0003E4149497A7F0808087F00417F4100204C
:1002F00040413F017F081422417F404040407F023F
:100300000C027F7F0408107F3E4141413E7F090976
:1003100009063E4151215E7F09192946464949494E
:100320003101017F01013F4040403F1F2040201F1D
:100330003F4038403F6314081463070870080761A2
:1003400051494543007F414100020408102000410B
:10035000417F00040201020440404040400001028D
:10036000040020545454787F48444438384444446A
:1003700020384444487F3854545418087E090102F8
:100380000C5252523E7F0804047800447D40002005
:1003900040443D007F1028440000417F40007C0421
:1003A0001804787C0804047838444444387C1414D5
:1003B0001408081414187C7C080404084854545485
:1003C00020043F4440203C4040207C1C2040201C16
:1003D0003C4030403C44281028440C5050503C4491
:1003E00064544C44000836410000007F0000004186
:1003F0003608001008081008784641467800407A10
:1004000010F35A00A0724E18090010A5D4E800009D
:10041000E87648170000E40B54020000CA9A3B003B
:100420000000E1F505000080969800000040420FB2
:10043000000000A08601000000102700000000E876
:1004400003000000006400000000000A000000003B
:10045000000100000000002C76D888DC674F0823DC
:10046000DFC1DFAE59E1B1B796E5E3E453C63AE642
:1004700051997696E8E6C28426EB898C9B62ED4022
:100480007C6FFCEFBC9C9F40F2BAA56FA5F4900571
:100490005A2AF75C936B6CF9676DC11BFCE0E40DA5
:1004A00047FEF520E6B500D0ED902E030094357799
:1004B000050080841E080000204E0A000000C80CC1
:1004C000333333330F986E12831141EF8D2114892A
:1004D0003BE65516CFFEE6DB18D1844B381BF77C84
:1004E0001D901DA4BBE424203284725E228100C9C9
:1004F000F124ECA1E53D270011241FBECFEFDAE087
:10050000DEBFCDBF16E0A0E0B1E0E4EDFCE402C048
:1005100005900D92A236B107D9F71AE0A2E6B6E02F
:1005200001C01D92A835B107E1F70E94A11A0C94F1
:1005300068260C94000087E880937A000895982F2D
:100540009F71906490937C00807280937B00809177
:100550007A00806480937A0080917A0086FDFCCFD7
:100560002091780030917900C901089581E080934D
:10057000D70080EA8093D80082E189BD09B400FEEB
:10058000FDCF80E98093D8001092E00010926206BF
:10059000109263068CE08093E20078940895809135
:1005A000620608952FB7F89480916206882369F057
:1005B00083E08093E9009BE68091E80085FD09C017
:1005C00082FF03C09093E800F7CF2FBF2FEF3FEFDC
:1005D0000CC09091F1008091E80085FD03C08BE68E
:1005E0008093E8002FBF292F30E0C90108952FB76D
:1005F000F89480916206882311F490E010C083E0A3
:100600008093E9009091F200992349F48091E800E9
:1006100082FF05C085FD03C08BE68093E8002FBFF5
:10062000892F089580916206882371F09FB7F8940E
:1006300083E08093E9002BE602C02093E8008091DC
:10064000E80085FDFACF9FBF0895482F809162068C
:100650008823D9F12FB7F89484E08093E900809142
:100660006506882341F08091E80085FD02C02FBF18
:1006700012C0109265069091E400975E34E080917C
:10068000E80085FD13C02FBF8091E400891729F48D
:1006900081E0809365068FEF08958091620688233C
:1006A000A1F02FB7F8943093E900E9CF4093F1001F
:1006B0008091E80085FD03C08AE38093E80085E02F
:1006C000809364062FBF80E008958FEF0895282F50
:1006D00080916206882351F09FB7F89484E080935C
:1006E000E9008091E80085FD03C09FBF8FEF08956A
:1006F0002093F1008091E80085FD03C08AE3809398
:10070000E80085E0809364069FBF80E00895CF9362
:10071000DF93EC0180916206882309F41CC13FB786
:10072000F89484E08093E90080916506882309F4B9
:1007300008C18091E80085FD02C03FBF0CC1109246
:100740006506FFC09091E400975E8091E80085FD0A
:1007500013C03FBF8091E400891721F481E08093AA
:100760006506F9C080916206882309F4F4C03FB79A
:10077000F894B093E900E9CF8091F200242F281B70
:10078000822F90E06817790708F4262F822F90E0D7
:100790008134910508F0C6C08A5A9F4FFC01EE0FC4
:1007A000FF1F0590F491E02D099489918093F10049
:1007B00089918093F10089918093F10089918093D0
:1007C000F10089918093F10089918093F1008991E2
:1007D0008093F10089918093F10089918093F100D9
:1007E00089918093F10089918093F10089918093A0
:1007F000F10089918093F10089918093F1008991B2
:100800008093F10089918093F10089918093F100A8
:1008100089918093F10089918093F100899180936F
:10082000F10089918093F10089918093F100899181
:100830008093F10089918093F10089918093F10078
:1008400089918093F10089918093F100899180933F
:10085000F10089918093F10089918093F100899151
:100860008093F10089918093F10089918093F10048
:1008700089918093F10089918093F100899180930F
:10088000F10089918093F10089918093F100899121
:100890008093F10089918093F10089918093F10018
:1008A00089918093F10089918093F10089918093DF
:1008B000F10089918093F10089918093F1008991F1
:1008C0008093F10089918093F10089918093F100E8
:1008D00089918093F10089918093F10089918093AF
:1008E000F10089918093F10089918093F1008991C1
:1008F0008093F10089918093F10089918093F100B8
:1009000089918093F10089918093F100899180937E
:10091000F10089918093F10089918093F100899190
:100920008093F10089918093F1008091E80085FD2A
:1009300002C05093E800621B7109A09364063FBF98
:1009400004C0B4E040E45AE3A5E06115710509F084
:10095000F9CE80E001C08FEFDF91CF9108959FB76E
:10096000F89480916406882341F084E08093E90044
:100970008AE38093E800109264069FBF0895609117
:10098000000170910101809102019091030108958D
:1009900080910401089580910501089580910601D8
:1009A0000895809163060895282F9FB7F894809149
:1009B0006206882339F082E08093E9008091E800A4
:1009C00085FD03C09FBF8FEF089581EA8093F100FA
:1009D00080E28093F1001092F1001092F1001092E9
:1009E000F1001092F10081E08093F1001092F1008B
:1009F0002093F1008AE38093E8009FBF80E0089590
:100A00001F920F920FB60F9211248F939F93809194
:100A1000E1001092E100982F83FF11C01092E900CD
:100A200081E08093EB001092EC0082E18093ED0076
:100A300088E08093F000109262061092630692FFA5
:100A400013C080916206882379F080916406882320
:100A500059F0815080936406882331F484E08093B8
:100A6000E9008AE38093E8009F918F910F900FBE79
:100A70000F901F9018951F920F920FB60F9211248E
:100A80000F931F932F933F934F935F936F937F9396
:100A90008F939F93AF93BF93EF93FF931092E900CF
:100AA0008091E80083FF3CC14091F1003091F1005A
:100AB0008091F100682F70E02091F100922F80E08A
:100AC000682B792B8091F100A82FB0E02091F100E4
:100AD000922F80E0A82BB92B1091F1000091F1002A
:100AE00082EF8093E800363009F05AC023E531E008
:100AF000A90145505040F901379785919491861787
:100B0000970701F5FA01859194918A179B07D1F413
:100B10009A012E5F3F4FF901659174912E5F3F4F0F
:100B2000F9014491212F30E0902F80E0282B392BC0
:100B30002F3F310519F010F02FEF30E0241758F453
:100B4000422F09C0295F3F4F495F5F4FF1E02D37CA
:100B50003F0789F6E5C05EEF8091E800282F30E07E
:100B6000C90185709070892BB9F322FDDCC0342F48
:100B7000413108F030E1232FCB0106C0FC01019682
:100B8000E491E093F10021502223C1F7630F711D1E
:100B9000431B5093E8004423F9F63031E9F2C3C017
:100BA000353061F48EEF8093E8008091E80080FF9B
:100BB000FCCF862F80688093E300B5C0393051F5B3
:100BC000442309F0ADC06093620610926306109250
:100BD00064068EEF8093E80086E791E021E02093A1
:100BE000E900FC010196E491E093EB00EE2369F04B
:100BF000AC014F5F5F4FFC0184918093EC00CA0110
:100C00000196FA0134913093ED002F5F253039F7CA
:100C10008EE181C0383061F4403809F081C08091A4
:100C2000E80080FFFCCF809162068093F10050C005
:100C3000313289F4413A09F073C08091E80080FFB5
:100C4000FCCFE0E0F1E081918093F10081E0E730BA
:100C5000F807C9F73DC03032A1F4413209F060C055
:100C60008091E80082FFFCCFE0E0F1E08091F100AC
:100C7000819381E0E730F807C9F78BEF8093E800B4
:100C800027C0323251F4413209F04AC06093630602
:100C90008091E80080FFFCCF1BC03323E9F48091F2
:100CA000E80080FFFCCF423811F080E00DC0A09337
:100CB000E9008091EB0090E025E0969587952A95D4
:100CC000E1F781701092E9008093F1001092F10039
:100CD0008EEF8093E80027C0313011F0333001F5FA
:100CE0004230F1F4672BE1F42A2F2F77822F8150C5
:100CF0008430B0F48EEF8093E8002093E900333025
:100D000079F089E18093EB0081E090E002C0880FE8
:100D1000991F2A95E2F78093EA001092EA0003C037
:100D200081E28093EB00FF91EF91BF91AF919F9192
:100D30008F917F916F915F914F913F912F911F9173
:100D40000F910F900FBE0F901F901895CF92DF92CA
:100D5000EF92FF920F931F93DC01841795073CF1EC
:100D6000C801840F951FA817B9070CF56217730700
:100D7000F4F0E20EF31E6E157F05CCF490E0A41B98
:100D8000B50B621B730B609FF001619FF00D709FAC
:100D9000F00D1124CA0EDB1EEC0DFD1D808180328A
:100DA00009F491E081E09827292F30E002C020E08B
:100DB00030E0C9011F910F91FF90EF90DF90CF902D
:100DC00008952F923F924F925F926F927F928F92EF
:100DD0009F92AF92BF92CF92DF92EF92FF920F93CA
:100DE0001F93DF93CF93CDB7DEB760970FB6F8941C
:100DF000DEBF0FBECDBF9A8389837C836B835E8306
:100E00004D83190118870F83FA86E986DC86CB8625
:100E1000BE86AD86988A8F86882499242EC06980E4
:100E20007A806A0C7B1CC301B20149815A812B81F3
:100E30003C810D811E817101CF80D8840E94A6065D
:100E4000892B81F0C301B20149855A852B853C85E8
:100E50000D851E85EF84F888CDA0DEA00E94A60631
:100E6000892BC1F40894A11CB11C8D819E81A81608
:100E7000B906ACF20894811C911C821493041CF0F6
:100E800020E030E009C0AA24BB244B805C80480CE1
:100E9000591CEBCF21E030E0C90160960FB6F89401
:100EA000DEBF0FBECDBFCF91DF911F910F91FF909D
:100EB000EF90DF90CF90BF90AF909F908F907F90FA
:100EC0006F905F904F903F902F900895AF92BF9298
:100ED000CF92DF92EF92FF920F931F936091AC0637
:100EE0007091AD068091AE069091AF06E0909400AF
:100EF000F09095000E94E42120E030E040E857E4C3
:100F00000E94D3225B016C0100E010E0C801B70130
:100F10000E94E4219B01AC01C601B5010E94E020C2
:100F200020E030E040E853E40E94D32220E034E2A5
:100F300044EF5AE40E944B211F910F91FF90EF90D4
:100F4000DF90CF90BF90AF9008950E9466070E94F7
:100F5000B321DC01CB016CE370E00E948023089593
:100F60000E9466070E94B321DC01CB016CE370E0B4
:100F70000E948023CB0108951092AC061092AD061A
:100F80001092AE061092AF0608951092BF00109214
:100F9000CF00089583E08093BF008FEF8093CF0050
:100FA0000895CF93DF9340916806509169064150B0
:100FB0005040EC01CC0FDD1FC854D84FFC01EE0FA0
:100FC000FF1FEE0FFF1FE258F94F9C010EC02F5F6D
:100FD0003F4F8A819B818993999384819581A681D2
:100FE000B78181939193A193B193241735077CF333
:100FF000509369064093680682E090E090931F0842
:1010000080931E08DF91CF910895CF93DF93409195
:10101000AA065091AB0641505040EC01CC0FDD1FA9
:10102000C255D84FFC01EE0FFF1FEE0FFF1FEE5D04
:10103000F74F9C010EC02F5F3F4F8A819B818993A0
:10104000999384819581A681B78181939193A1938E
:10105000B193241735077CF35093AB064093AA064F
:1010600081E090E090931F0880931E08DF91CF915C
:101070000895EF92FF920F931F93AB018235910574
:101080002CF025EA30E0281B390B05C09C0197FFA6
:1010900002C020E030E0E0906606F0906706F701BD
:1010A000EE0FFF1FE85CF74F318320838701000FAD
:1010B000111F000F111F0253184FBA01882777FD27
:1010C0008095982F0E94E621F801608371838283C6
:1010D00093830894E11CF11CF0926706E092660687
:1010E0001F910F91FF90EF900895CF93DF93409160
:1010F00066065091670641505040EC01CC0FDD1F51
:10110000C85CD74FFC01EE0FFF1FEE0FFF1FE2532D
:10111000F84F9C010EC02F5F3F4F8A819B818993BE
:10112000999384819581A681B78181939193A193AD
:10113000B193241735077CF35093670640936606F6
:1011400080911E0890911F08049690931F08809329
:101150001E08DF91CF910895EF92FF920F931F9396
:10116000AB01803591052CF025EA30E0281B390BC6
:1011700005C09C0197FF02C020E030E0E0906806C7
:10118000F0906906F701EE0FFF1FE854F84F318326
:1011900020838701000F111F000F111F0258194FE4
:1011A000BA01882777FD8095982F0E94E621F801E3
:1011B00060837183828393830894E11CF11CF09215
:1011C0006906E09268061F910F91FF90EF900895D5
:1011D000A091AA06B091AB06EEEAF7E060E070E0FD
:1011E00040E050E020E030E00CC0808191818897A1
:1011F0001CF46F5F7F4F02C04F5F5F4F2F5F3F4F09
:1012000032962A173B078CF3461757075CF481E0A8
:1012100090E090937106809370061092730610927E
:101220007206089581E090E09093730680937206B1
:10123000109271061092700608950E946607209120
:1012400006073091070740910807509109070E944F
:10125000DF2020E030E040E050E40E94CF228823ED
:10126000F4F0109271061092700680E090E0A0E019
:10127000B0E08093060790930707A0930807B09308
:1012800009078093A6069093A706A093A806B0939B
:10129000A9062A98109237081092360808950E94DD
:1012A00066072091A6063091A7064091A8065091A6
:1012B000A9060E94DF2020E030E040E05FE30E94CA
:1012C000CF22882364F02A980E9466076093A606BE
:1012D0007093A7068093A8069093A90608952A9A6A
:1012E00008950E94660720910607309107074091F4
:1012F0000807509109070E94DF2020E030E040E01D
:1013000050E40E94CF228823F4F0109273061092CA
:10131000720680E090E0A0E0B0E080930607909332
:101320000707A0930807B09309078093A606909338
:10133000A706A093A806B093A9062B981092370889
:101340001092360808950E9466072091A6063091F3
:10135000A7064091A8065091A9060E94DF2020E030
:1013600030E040E05FE30E94CF22882364F02B98B6
:101370000E9466076093A6067093A7068093A8064E
:101380009093A90608952B9A0895181619062CF41F
:1013900020E030E01616170614F021E030E0C90115
:1013A0000895EF92FF920F931F93CF93DF93609175
:1013B0006A0670916B06615070409C01220F331FCA
:1013C000220F331FA901465A584FE901C65FD84F73
:1013D000F901EA54F94F9C011EC02F5F3F4FDA011B
:1013E0001496ED90FD900D911C911797ED92FD9242
:1013F0000D931D93AD018C819D81AE81BF81899339
:101400009993A993B99384819581A681B78181939A
:101410009193A193B19326173707FCF270936B0653
:1014200060936A06DF91CF911F910F91FF90EF902B
:101430000895CF92DF92EF92FF920F931F93CF9375
:10144000DF93EC0180916A0690916B06449709F452
:1014500067C00E9466072091B0063091B1064091A6
:10146000B2065091B3060E94DF202DEC3CEC4CE418
:101470005EE30E94CF2218160CF052C0E0906A067C
:10148000F0906B068701000F111F000F111FAAE5D6
:10149000CA2EA7E0DA2EC00ED11E6091CC07709143
:1014A000CD07882777FD8095982F0E94E621F601C9
:1014B0006083718382839383FAE0CF2EF7E0DF2E7F
:1014C000C00ED11E6091B4067091B506882777FDD5
:1014D0008095982F0E94E621F601608371838283B4
:1014E00093830A54194FBE01882777FD8095982F62
:1014F0000E94E621F80160837183828393830894BC
:10150000E11CF11CF0926B06E0926A060E946607ED
:101510006093B0067093B1068093B2069093B306C1
:10152000DF91CF911F910F91FF90EF90DF90CF90BF
:1015300008952F923F924F925F926F927F928F9277
:101540009F92AF92BF92CF92DF92EF92FF920F9352
:101550001F93DF93CF93CDB7DEB728970FB6F894DC
:10156000DEBF0FBECDBF1A821982ABC000D02DB72F
:101570003EB72F5F3F4F3C832B8309811A81000FB9
:10158000111F000F111FF801E65AF84F6081718199
:10159000828193810E94B3211B012C01065F184FA9
:1015A000F80160817181828193810E94B3213B01A6
:1015B0004C0100915206109153062F813885220F5D
:1015C000331F2255384F3E832D83F901E080F1808F
:1015D0004F805884440C551C440C551C22E238E0C2
:1015E000420E531EF20160817181828193810E94BB
:1015F000B3215B016C018091230690912406EB815D
:10160000FC8191838083C101B30142E050E022E07C
:1016100030E06501F7E0AF2EB12CE7E08E2E912C83
:101620000E94E1060F900F90892BB9F1ED81FE81A8
:1016300000811181F20160817181828193810E9418
:10164000B3219B01AC01C801B9010E94AC08ED8136
:10165000FE8100811181095F1F4FF201608171815C
:10166000828193810E94B3219B01AC01C801B90121
:101670000E94AC088F8198850E94050889819A8113
:101680000E94D10929813A81215030403A8329832F
:101690008F819885019798878F83EF81F8853196A0
:1016A000F887EF838091AA069091AB062F81388549
:1016B000281739070CF45ACF89819A8101969A83A9
:1016C000898380916A0690916B06E981FA81E81717
:1016D000F9071CF418861F82E5CF28960FB6F894F8
:1016E000DEBF0FBECDBFCF91DF911F910F91FF9055
:1016F000EF90DF90CF90BF90AF909F908F907F90B2
:101700006F905F904F903F902F9008952F923F924F
:101710004F925F926F927F928F929F92AF92BF9201
:10172000CF92DF92EF92FF920F931F93DF93CF93AD
:10173000CDB7DEB728970FB6F894DEBF0FBECDBF8A
:101740001A821982ABC000D02DB73EB72F5F3F4F32
:101750003C832B8309811A81000F111F000F111F79
:10176000F801E65AF84F60817181828193810E946D
:10177000B3211B012C01065F184FF80160817181B4
:10178000828193810E94B3213B014C01009152065A
:10179000109153062F813885220F331F2854384F5C
:1017A0003E832D83F901E080F1804F805884440C02
:1017B000551C440C551C2EE736E0420E531EF20118
:1017C00060817181828193810E94B3215B016C01F0
:1017D00080913F0690914006EB81FC81918380834C
:1017E000C101B30142E050E022E030E06501F7E0E2
:1017F000AF2EB12CE7E08E2E912C0E94E1060F90C7
:101800000F90892BB9F1ED81FE8100811181F201E8
:1018100060817181828193810E94B3219B01AC011F
:10182000C801B9010E943908ED81FE810081118152
:101830000B5F1F4FF20160817181828193810E9451
:10184000B3219B01AC01C801B9010E9439088F8105
:1018500098850E94D10789819A810E94D1092981A6
:101860003A81215030403A8329838F8198850197AE
:1018700098878F83EF81F8853196F887EF83809181
:101880006806909169062F813885281739070CF46E
:101890005ACF89819A8101969A83898380916A06B9
:1018A00090916B06E981FA81E817F9071CF4188614
:1018B0001F82E5CF28960FB6F894DEBF0FBECDBFCE
:1018C000CF91DF911F910F91FF90EF90DF90CF901C
:1018D000BF90AF909F908F907F906F905F904F9050
:1018E0003F902F9008952F923F924F925F926F9268
:1018F0007F928F929F92AF92BF92CF92DF92EF92A0
:10190000FF920F931F93DF93CF9300D000D000D0AE
:10191000CDB7DEB71A82198281C000D02DB73EB78D
:101920002F5F3F4F3C832B8309811A81000F111FCA
:10193000000F111FF801E65AF84F60817181828112
:1019400093810E94B3211B012C01065F184FF801FF
:1019500060817181828193810E94B3213B014C019E
:101960000091520610915306ED81FE81EE0FFF1F8C
:10197000E85CF74FE080F180ED81FE81EE0FFF1F04
:10198000EE0FFF1FE253F84F6081718182819381D6
:101990000E94B3215B016C0180914B0690914C0633
:1019A000EB81FC8191838083C101B30142E050E06F
:1019B00022E030E06501F3E0AF2EB12CE3E08E2EA3
:1019C000912C0E94E1060F900F90892B99F08D8148
:1019D0009E810E94750889819A810E94D10929817E
:1019E0003A81215030403A8329838D819E8101972D
:1019F0009E838D83ED81FE813196FE83ED83809100
:101A00006606909167062D813E81281739070CF4F0
:101A100084CF89819A8101969A83898380916A060D
:101A200090916B06E981FA81E817F9071CF41E8290
:101A30001D82E5CF26960FB6F894DEBF0FBECDBF50
:101A4000CF91DF911F910F91FF90EF90DF90CF909A
:101A5000BF90AF909F908F907F906F905F904F90CE
:101A60003F902F9008950E94990A0E94860B0E9431
:101A7000730C08958091810590918205892B59F40A
:101A800080917F0590918005892B29F01092800527
:101A900010927F05089580917F0590918005892B94
:101AA00051F481E090E090938205809381059093BA
:101AB000800580937F05089580918105909182052E
:101AC000892B59F080917F0590918005892B29F011
:101AD0001092800510927F05089580917F05909166
:101AE0008005892B51F481E090E0909380058093EC
:101AF0007F05109282051092810508951092900042
:101B000084E08093910081E080937100789408953F
:101B10001F920F920FB60F9211248F939F93AF9342
:101B2000BF938091740690917506892B99F48091EA
:101B3000AC069091AD06A091AE06B091AF060196AD
:101B4000A11DB11D8093AC069093AD06A093AE0687
:101B5000B093AF06BF91AF919F918F910F900FBE41
:101B60000F901F901895EF92FF920F931F93CF93B2
:101B7000DF9389B1869580FF0FC060916C067091EC
:101B80006D0680916E0690916F060E94B321DC0174
:101B9000CB010E94190A0BC083B1869580FF03C058
:101BA0000E943A0D04C0489B02C00E945C0D81E077
:101BB0000E949F02EC010E946607E0907A06F09076
:101BC0007B0600917C0610917D06A80197010E947A
:101BD000DF2020E030E040E85FE30E94CF2287FF73
:101BE0000AC0C801B70120E030E040E050E00E94A8
:101BF00044218823F9F4BE0180E090E00E94E621B0
:101C000020E030EC4FE754E40E944B216093AA0798
:101C10007093AB078093AC079093AD0780E090E0A2
:101C2000A0E0B0E080937A0690937B06A0937C06B8
:101C3000B0937D06DF91CF911F910F91FF90EF90B0
:101C400008952098219850985198279885988698BB
:101C5000229A0E949B0283E08093BF008FEF8093C3
:101C6000D10082E88093C0003F9A87E08093C10052
:101C70001092C30008950F931F93CF93DF930E9498
:101C8000411EC0E0D0E080E090E0BE0144E550E0BD
:101C90009E0101E010E00E94841E2196C133D1050F
:101CA00091F784E190E06AE070E047E051E020E0E5
:101CB00030E00E9438200E945D20FFCF6F927F921B
:101CC0008F929F92AF92BF92CF92DF92EF92FF924C
:101CD0000F931F93CF93DF9380E00E949F02EC014C
:101CE000E0907606F09077060091780610917906DC
:101CF0000E9466079B01AC01C801B7010E94DF206A
:101D000020E030E040E050E00E944421882381F44C
:101D100060917606709177068091780690917906A9
:101D200020E030E040E050E00E944421882359F553
:101D3000BE0180E090E00E94E62120E030E040EF2C
:101D400052E40E94D32220E030EC4FE754E40E949A
:101D50004B2120E030E040E752E40E94DF20609316
:101D60006C0670936D0680936E0690936F0680E00C
:101D700090E0A0E0B0E08093760690937706A09381
:101D80007806B0937906C0917D05D0917E0560916B
:101D90006C0670916D0680916E0690916F062BED2A
:101DA0003FE049E450EC0E94D32220E030E044E3DD
:101DB00053E40E944B217B018C01C8010E94362311
:101DC0003B014C012796BE01882777FD8095982F0F
:101DD00027970E94E6215B016C01C401B30120E05A
:101DE00030E040E850EC0E94D3229B01AC01C601D8
:101DF000B5010E94E0200E94B3217093CD0760934B
:101E0000CC07B701C8010E94482120E030E040E83B
:101E100050EC0E94D32220E030E044E352E40E94E0
:101E2000E0200E94B3217093B5066093B40620971A
:101E300031F48091810590918205892B49F4C53454
:101E4000D10551F48091810590918205892B21F46F
:101E50001092800510927F0580917F0590918005FA
:101E6000892B99F08091810590918205892B29F029
:101E70001C161D0654F4219704C0C534D1052CF45A
:101E80002196D0937E05C0937D05DF91CF911F9160
:101E90000F91FF90EF90DF90CF90BF90AF909F9009
:101EA0008F907F906F9008952F923F924F925F9204
:101EB0006F927F928F929F92AF92BF92CF92DF925A
:101EC000EF92FF920F931F93DF93CF9300D000D038
:101ED000CDB7DEB72AE5622E27E0722E9AE0892E72
:101EE00097E0992E26EB36E03A8329831C821B82E9
:101EF00033C0F301A080B180C280D380F401208080
:101F0000318042805380E981FA81E080F180028152
:101F10001381C601B5010E94B321161617063CF4C1
:101F2000C201B1010E94B32116161706FCF08B8185
:101F30009C810E94D1092B813C812F5F3F4F3C83C4
:101F40002B8384E090E0680E791E880E991EE9814B
:101F5000FA813496FA83E98380916A0690916B0640
:101F60002B813C812817390724F233C0C801B701FF
:101F70002BED3FE049E450EC0E94D3227B018C0121
:101F800020E030E044E353EC0E944B210E943623D2
:101F90009B01AC01C601B5010E94E020F301608302
:101FA000718382839383C801B70120E030E044E36A
:101FB00053E40E944B210E9448219B01AC01C201C5
:101FC000B1010E94DF20F4016083718382839383D7
:101FD000B2CF0F900F900F900F90CF91DF911F9184
:101FE0000F91FF90EF90DF90CF90BF90AF909F90B8
:101FF0008F907F906F905F904F903F902F900895BB
:102000000E94B6020EC00E94411E84E190E064E18D
:1020100070E041E151E021E030E00E9438200E9470
:102020005D200E94CF02882371F30895DC010D909A
:102030000020E9F71197A81BB90BBD010E94870387
:1020400008950F931F930DE111E0C8010E9416102F
:1020500080E291E00E94161084E391E00E94161045
:1020600086E491E00E9416108AE591E00E94161025
:1020700085E691E00E94161081E891E00E9416101A
:1020800086E991E00E94161088EB91E00E941610FC
:102090008DEC91E00E94161085EF91E00E941610E1
:1020A000C8010E9416108EE192E00E94161084E38F
:1020B00092E00E94161083E492E00E94161083E5DD
:1020C00092E00E9416108EE592E00E94161087E7BB
:1020D00092E00E9416108DE892E00E94161089E9A5
:1020E00092E00E94161083EA92E00E94161082EBA2
:1020F00092E00E94161081EC92E00E94161080ED92
:1021000092E00E94161084EE92E00E94161083EF77
:1021100092E00E94161086E093E00E94161088E17B
:1021200093E00E9416101F910F910895AF92BF92F5
:10213000CF92DF92EF92FF920F931F93DF93CF9393
:10214000CDB7DEB762970FB6F894DEBF0FBECDBF36
:102150008C017B015A013DE1C32E31E0D32EC60133
:102160000E9416108BE293E00E941610C8010E9494
:102170001610C6010E941610C7010E941610C60153
:102180000E941610C5010E941610C6010E9416106A
:1021900000D000D000D0EDB7FEB731968E010F5FB2
:1021A0001F4FADB7BEB712961C930E9311978BE3DA
:1021B00093E0938382838091AA069091AB069583E6
:1021C00084830E948A25EDB7FEB736960FB6F89441
:1021D000FEBF0FBEEDBFC8010E941610C6010E94CF
:1021E000161000D000D000D0EDB7FEB73196ADB7D5
:1021F000BEB712961C930E93119789E493E09383D4
:1022000082838091680690916906958384830E94F9
:102210008A25EDB7FEB736960FB6F894FEBF0FBE0F
:10222000EDBFC8010E941610C6010E94161000D012
:1022300000D000D0EDB7FEB73196ADB7BEB712965D
:102240001C930E93119786E593E09383828380918C
:10225000660690916706958384830E948A25EDB770
:10226000FEB736960FB6F894FEBF0FBEEDBFC8019D
:102270000E941610C6010E94161000D000D000D097
:10228000EDB7FEB73196ADB7BEB712961C930E935D
:10229000119784E693E09383828380916A069091FC
:1022A0006B06958384830E948A25EDB7FEB7369628
:1022B0000FB6F894FEBF0FBEEDBFC8010E94161006
:1022C000C6010E94161000D000D000D0EDB6FEB6B8
:1022D0000894E11CF11CADB7BEB712961C930E9387
:1022E000119785E793E0F7019383828360916C06F1
:1022F00070916D0680916E0690916F060E94B321D9
:10230000D70115967C936E9314970E948A25EDB79A
:10231000FEB736960FB6F894FEBF0FBEEDBFC801EC
:102320000E941610C6010E94161000D000D000D0E6
:10233000EDB6FEB60894E11CF11CADB7BEB712961F
:102340001C930E9311978DE793E0F701938382839B
:102350006091AA077091AB078091AC079091AD078F
:1023600020E030E040E251E40E94D3220E94B321F9
:10237000D70115967C936E9314970E948A25EDB72A
:10238000FEB736960FB6F894FEBF0FBEEDBFC8017C
:102390000E941610C6010E94161062960FB6F8949D
:1023A000DEBF0FBECDBFCF91DF911F910F91FF9088
:1023B000EF90DF90CF90BF90AF900895AF92BF9213
:1023C000CF92DF92EF92FF920F931F93DF93CF9301
:1023D000CDB7DEB72A970FB6F894DEBF0FBECDBFDC
:1023E0000E94161000E010E07E010894E11CF11C30
:1023F0007AE0A72EB12C67E8C62E63E0D62E36C051
:10240000C901C0970A97C0F5C80153E0880F991F0A
:102410005A95E1F7000F111F080F191F00531040C4
:10242000020F131F8DB79EB708970FB6F8949EBF83
:102430000FBE8DBFEDB7FEB73196ADB7BEB71296E2
:10244000FC92EE921197B382A282D582C482378326
:1024500026830E9459258DB79EB708960FB6F8942B
:102460009EBF0FBE8DBFC7010E9416100E94D202F0
:102470009C019923DCF3C4CF8DE191E00E941610FA
:10248000C8012A960FB6F894DEBF0FBECDBFCF911C
:10249000DF911F910F91FF90EF90DF90CF90BF9051
:1024A000AF9008958AE893E00E94DE1124E0803026
:1024B000920714F08FEF93E09C0197FF02C020E099
:1024C00030E0B901882777FD8095982F0E94E6219A
:1024D00020E030EC4FE754E40E944B216093AA07C0
:1024E0007093AB078093AC079093AD070E9466078B
:1024F00060937A0670937B0680937C0690937D06AA
:10250000089584E993E00E94DE1124E08030920770
:1025100014F08FEF93E09C0197FF02C020E030E0C1
:10252000B901882777FD8095982F0E94E62120E049
:1025300030E040EF52E40E94D32220E030EC4FE73D
:1025400054E40E944B2120E030E040E752E40E9436
:10255000DF2060936C0670936D0680936E069093F7
:102560006F060E94660760937606709377068093E5
:1025700078069093790608950F931F93CF93DF9376
:10258000C091AA06D091AB06C530D10574F58CE98F
:1025900093E00E94DE11CC0FDD1FC255D84F998306
:1025A00088830091AA061091AB068BEA93E00E9403
:1025B000DE11000F111F000F111F0E5D174FAA270C
:1025C00097FDA095BA2FBC01CD010E94E621F8012C
:1025D00060837183828393838091AA069091AB0676
:1025E00001969093AB068093AA06DF91CF911F913D
:1025F0000F9108950F931F93CF93DF93C0916806B7
:10260000D0916906CA30D10574F58AEB93E00E9437
:10261000DE11CC0FDD1FC854D84F998388830091F9
:1026200068061091690688EC93E00E94DE11000FA5
:10263000111F000F111F0258194FAA2797FDA095CF
:10264000BA2FBC01CD010E94E621F801608371839D
:102650008283938380916806909169060196909396
:10266000690680936806DF91CF911F910F910895BD
:10267000EF92FF920F931F938091660690916706E9
:1026800044977CF586ED93E00E94DE118C0185EE87
:1026900093E00E94DE11E0906606F0906706F70175
:1026A000EE0FFF1FE85CF74F118300838701000FD7
:1026B000111F000F111F0253184FAA2797FDA09555
:1026C000BA2FBC01CD010E94E621F801608371831D
:1026D000828393830894E11CF11CF0926706E092D8
:1026E00066061F910F91FF90EF90089584EF93E09D
:1026F0000E94DE118634910514F085E490E097FF86
:1027000002C080E090E090937E0580937D0508955F
:1027100082E194E00E94DE119093210880932008CA
:1027200008958BE294E00E94DE1190931F0880933D
:102730001E080895EF92FF920F931F938C017B0167
:102740000E942F24E01AF10A0894E11CF11CB70141
:102750000E9480239C01200F311FC9011F910F91FE
:10276000FF90EF900895AF92BF92CF92DF92EF92D9
:10277000FF920F931F93CF93DF9381E090E09093AC
:1027800037088093360883E090E09093AB068093FF
:10279000AA064EEAE42E47E0F42E02E218E020E01A
:1027A00030E0C0E0D0E00F2EF0E0AF2EF0E0BF2E22
:1027B000F0E0CF2EF1ECDF2EF02D16C080E090E09F
:1027C0006DE470E00E949A139C0103C01C161D0664
:1027D000ACF3F701219331937F01F801A192B192FB
:1027E000C192D1928F0121968091AA069091AB0659
:1027F000C817D9075CF30E94E808DF91CF911F91B9
:102800000F91FF90EF90DF90CF90BF90AF90089521
:102810000F931F93CF93DF938091360890913708E1
:10282000892B09F0C7C002E218E0C0E0D0E031C057
:10283000F80160817181828193812091AA07309192
:10284000AB074091AC075091AD070E94E020F80122
:10285000608371838283938320E030E040EE50E414
:102860000E94E02020E030E040E252E40E94CF22CB
:10287000882364F0CE010E94050880912008909181
:1028800021080197909321088093200821960C5FDE
:102890001F4F8091AA069091AB06C817D90744F242
:1028A000892B71F48091660690916706892B41F41B
:1028B0008091680690916906892B11F40E94B313E8
:1028C0000EE716E0C0E0D0E031C0F8016081718110
:1028D000828193812091AA073091AB074091AC0788
:1028E0005091AD070E94E020F801608371838283DC
:1028F000938320E030E040EA50E40E94E02020E0B2
:1029000030E040E252E40E94CF22882364F0CE01FE
:102910000E94D107809120089091210801979093FF
:1029200021088093200821960C5F1F4F8091680634
:1029300090916906C817D90744F20EEC17E0C0E081
:10294000D0E031C0F8016081718182819381209152
:10295000AA073091AB074091AC075091AD070E9498
:10296000E020F801608371838283938320E030E06C
:1029700040E450E40E94E02020E030E040E252E4F5
:102980000E94CF22882364F0CE010E9475088091B6
:1029900020089091210801979093210880932008A6
:1029A00021960C5F1F4F8091660690916706C817AD
:1029B000D90744F2DF91CF911F910F9108952F9283
:1029C0003F924F925F926F927F928F929F92AF92BF
:1029D000BF92CF92DF92EF92FF920F931F93DF93FC
:1029E000CF9300D000D0CDB7DEB789839A833A0168
:1029F0001901270148016B01AA24BB2424C0F70157
:102A00008081803219F44114510431F4C801B601B7
:102A100041E050E00E94491E8B819C8101969C837D
:102A20008B830F5F1F4F0894E11CF11CEB81FC812D
:102A3000E615F70524F30894A11CB11C860C971C1D
:102A40000894C11CD11CA214B30444F489819A8156
:102A50009C01890174011C821B82E8CF0F900F90AA
:102A60000F900F90CF91DF911F910F91FF90EF90FA
:102A7000DF90CF90BF90AF909F908F907F906F909E
:102A80005F904F903F902F9008952F923F924F92DA
:102A90005F926F927F928F929F92AF92BF92CF92EE
:102AA000DF92EF92FF920F931F93DF93CF93CDB7F7
:102AB000DEB72A970FB6F894DEBF0FBECDBF83E016
:102AC0008093BF008FEF8093CF00DE011196E4E585
:102AD000F6E08AE001900D928150E1F78824992474
:102AE000BAEE2B2EBFEF3B2EABE04A2E512C4C0EF4
:102AF0005D1EF8EC6F2E712C0E94411E7E9955C010
:102B00000E94D2028237910509F44FC080E090E024
:102B100060E070E047E051E021E030E00E943820C2
:102B200080E090E06AE070E044E454E021E030E0CE
:102B30000E9438205E010894A11CB11CF501C080E0
:102B4000D180C60164E170E045E150E028E030E06A
:102B500005E514E0E1E0EE2EF12C0E94DF1408946C
:102B6000C11CD11CF501D182C082F5E5CF16D1047C
:102B70001CF0F5013182208282E090E0A80EB91E9F
:102B8000A414B504D9F60E945D200894811C911C00
:102B900088EE93E0F3013197F1F70197D9F798EEBA
:102BA000891693E0990609F0A7CF2A960FB6F894F4
:102BB000DEBF0FBECDBFCF91DF911F910F91FF9070
:102BC000EF90DF90CF90BF90AF909F908F907F90CD
:102BD0006F905F904F903F902F900895AF92BF926B
:102BE000CF92DF92EF92FF920F931F93CF93DF93D9
:102BF0000091EF051091F00580917D0590917E0583
:102C000069E270E04FE050E027E030E0E1E0EE2ED6
:102C1000F12C0E94DF1480917D0590917E054091FA
:102C2000CC075091CD072091B4063091B506079698
:102C30006DE270E001E010E00E94841EC0E0D0E090
:102C4000CE0167E270E02396AE0127E230E001E0BA
:102C500010E00E94841E2796CA35D10589F7AA2460
:102C6000BB24C0E0D0E028C0FE01EA5AF84F6081E2
:102C70007181828193810E94B3216B017C01FE01ED
:102C8000EA5FF84F60817181828193810E94B32154
:102C90009B01AC010091520610915306C601B90187
:102CA00042E050E022E030E0B1E0EB2EF12C0E9457
:102CB000DF140894A11CB11C249680916A0690919F
:102CC0006B06A816B90684F2A8E3CA2EA8E0DA2E8D
:102CD000FEECAF2EF7E0BF2EC0E0D0E01EC0F60144
:102CE000E190F1906F01F501619171918191919164
:102CF0005F010E94B3219B01AC0100914B06109132
:102D00004C06C701B90143E050E023E030E0E1E0C8
:102D1000EE2EF12C0E94DF14219680916606909190
:102D20006706C817D907DCF208EBC02E07E0D02EE3
:102D30001EE7A12E16E0B12EC0E0D0E01EC0F601C5
:102D4000E190F1906F01F501619171918191919103
:102D50005F010E94B3219B01AC0100913F061091DD
:102D60004006C701B90145E050E025E030E0B1E0A0
:102D7000EB2EF12C0E94DF14219680916806909131
:102D80006906C817D907DCF2AEEACA2EA7E0DA2E28
:102D9000F2E2AF2EF8E0BF2EC0E0D0E01EC0F60198
:102DA000E190F1906F01F5016191719181919191A3
:102DB0005F010E94B3219B01AC0100912306109199
:102DC0002406C701B90147E050E027E030E0E1E028
:102DD000EE2EF12C0E94DF1421968091AA0690918C
:102DE000AB06C817D907DCF2DF91CF911F910F9185
:102DF000FF90EF90DF90CF90BF90AF9008951F931A
:102E0000E1E6F0E080E8808311E010830E94210E6B
:102E10008FE30E9491201092900084E080939100B3
:102E20001093710078940E9400100E94EE151F917B
:102E300008950E94411E8091830590918405892BFD
:102E4000B1F08091740690917506892B81F41092EF
:102E5000AC061092AD061092AE061092AF0610921C
:102E60008405109283058EEF94E00E9416108091E5
:102E7000740690917506892B51F40E94B30D0E943F
:102E80005E0E0E94540F0E9408140E94330D0E948F
:102E9000EE150E945D200895EF92FF920F931F930D
:102EA000CF93DF930E94411E2A982B9883E290E0F3
:102EB00090937E0580937D05C1E0D0E0D0937506A8
:102EC000C0937406D0938405C09383051092710655
:102ED0001092700610927306109272060F2EF0E098
:102EE000EF2EF0E0FF2EF0E00F2FF0E01F2FF02D7F
:102EF000E0920607F092070700930807109309076E
:102F000010926B0610926A0610926906109268067B
:102F1000109267061092660610921F0810921E0803
:102F200085E090E090932108809320080E94B313DD
:102F3000D0938005C0937F0580E090E0A0E8BFE3D8
:102F40008093B0069093B106A093B206B093B306F7
:102F5000E092A606F092A7060093A8061093A90691
:102F6000E0926C06F0926D0600936E0610936F0669
:102F700080917D0590917E0507969093CD07809373
:102F8000CC0789E290E09093B5068093B406E09276
:102F90007606F09277060093780610937906E09211
:102FA0007A06F0927B0600937C0610937D0680E003
:102FB00090E062E370E00E949A134A972CF010921E
:102FC00082051092810504C0D0938205C0938105CB
:102FD0000E94EE150E945D20DF91CF911F910F910D
:102FE000FF90EF900895AF92BF92CF92DF92EF9251
:102FF000FF920F931F93DF93CF93CDB7DEB7A197C7
:103000000FB6F894DEBF0FBECDBF5C010E94B007C3
:103010008C010E94A5079C010A301105D4F4CE0151
:1030200046962A3031058CF54DB75EB74850504072
:103030000FB6F8945EBF0FBE4DBFEDB7FEB7319629
:10304000ADB7BEB712969C938E9311978DE095E025
:1030500046C00A30110559F18B30910544F18DB706
:103060009EB708970FB6F8949EBF0FBE8DBFEDB701
:10307000FEB73196CE014696ADB7BEB712969C9379
:103080008E9311978BE195E02AC0ADB7BEB7189724
:103090000FB6F894BEBF0FBEADBFEDB7FEB7319609
:1030A00012969C938E93119787E295E018C02A3070
:1030B000310534F58DB79EB708970FB6F8949EBFCB
:1030C0000FBE8DBFEDB7FEB73196CE014696ADB7B8
:1030D000BEB712969C938E93119784E395E09383E9
:1030E000828315830483378326830E948A254DB704
:1030F0005EB7485F5F4F0FB6F8945EBF0FBE4DBF1F
:1031000000D000D000D0EDB7FEB731966E01089424
:10311000C11CD11CADB7BEB71296DC92CE921197EE
:1031200081E495E093838283809120089091210827
:10313000958384830E948A25EDB7FEB73196ABE074
:10314000EA2EF12CEC0EFD1EADB7BEB71296FC9226
:10315000EE9211978BE495E09383828380911E0811
:1031600090911F08958384830E948A254DB75EB78E
:103170004A5F5F4F0FB6F8945EBF0FBE4DBF8E0122
:103180000A5E1F4FC801B601A7010E949610AB2826
:1031900041F536C00E94411E80E090E060E070E0A2
:1031A000A50121E030E00E94382080E090E064E159
:1031B00070E0A60121E030E00E94382080E090E03D
:1031C0006EE170E0A70121E030E00E94382088EE37
:1031D00093E0F8013197F1F70197D9F70E945D204C
:1031E00003C0580108EC10E0189BD4CF109275066C
:1031F000109274060E94411E0E94EE150E945D20EE
:10320000A1960FB6F894DEBF0FBECDBFCF91DF9170
:103210001F910F91FF90EF90DF90CF90BF90AF90F4
:103220000895AF92BF92CF92DF92EF92FF920F93E9
:103230001F93CF93DF930E9466077B018C0180E090
:1032400090E00E94F31786E595E00E9416102A9AF6
:103250002B9A1092BF001092CF00C0E0D0E083E024
:10326000A82EBB24BA94B8ECCB2ED12C0E94411EC0
:103270000E946607A80197010E94DF2020E030E04D
:1032800040E050E40E94CF22882334F02A982B9803
:10329000A092BF00B092CF007E9B0DC00E944C1741
:1032A000DF91CF911F910F91FF90EF90DF90CF9022
:1032B000BF90AF9008957D9B02C00E943B0E8AE0B4
:1032C00090E06AE070E042E655E021E030E00E94E4
:1032D0003820C0FD0AC08AE090E064E170E04CE66E
:1032E00055E021E030E00E94382088EE93E0F601BE
:1032F0003197F1F70197D9F721960E945D20B6CF5B
:103300008C36910509F47AC08D36910524F58836FE
:10331000910509F47CC089369105A4F484369105A1
:10332000C9F1853691054CF48F33910509F46CC0D1
:103330008136910509F076C02AC08736910509F0DB
:1033400071C05FC08A36910509F464C08B3691055F
:103350000CF063C065C082379105A9F183379105F0
:103360005CF48037910591F181379105F4F58D3644
:10337000910509F057C03FC084379105C9F18437E2
:103380009105D4F08737910509F04CC006C00E9422
:103390003A0D08950E945C0D089560916C0670913D
:1033A0006D0680916E0690916F060E94B321DC013C
:1033B000CB010E94190A08958091740690917506B8
:1033C0000E94F31708950E944C17089520E030E002
:1033D0008091740690917506892B11F421E030E0FC
:1033E000309375062093740608950E943B0E08954D
:1033F0000E94811208950E94521208950E9488131B
:1034000008950E94911308950E94211008950E942A
:10341000761308950E94BC1208950E94FA1208952E
:103420000E94381308950E94D20297FD02C00E94A4
:10343000801908950E94131A189B0EC020E030E0F6
:103440008091740690917506892B11F421E030E08B
:1034500030937506209374061F9B06C080917406F6
:10346000909175060E94F3178FB182958695869587
:10347000837080FF02C00E944C178FB182958695A1
:10348000877080FF02C00E943B0E80917006909171
:103490007106892B11F18091740690917506892B24
:1034A000E1F46091060770910707809108079091F9
:1034B000090720E030E040E050E00E9444218823EA
:1034C00051F40E9466076093060770930707809384
:1034D0000807909309070E941D0980917206909138
:1034E0007306892B11F18091740690917506892BD2
:1034F000E1F46091060770910707809108079091A9
:10350000090720E030E040E050E00E944421882399
:1035100051F40E9466076093060770930707809333
:103520000807909309070E947109809120089091E3
:1035300021081816190614F00E9411190E94191773
:103540000895CF93DF930E94FF160E9445150E94B5
:103550004C1780E00E949F020E943424C8ECD0E007
:103560000E941A1A88EE93E0FE013197F1F7019755
:10357000D9F7F6CFA1E1B0E0E0ECFAE10C949323A7
:103580003C017F876E876A01FC0117821682838166
:1035900081FD03C06FEF7FEF6FC39E012F5F3F4F31
:1035A000398B288BF3012381EE85FF8523FD8591DF
:1035B00023FF8191FF87EE87882309F45AC3853260
:1035C00051F4EE85FF8523FD859123FF8191FF87CF
:1035D000EE87853229F490E0B3010E942D25E2CFD9
:1035E000982F10E0882499241032B0F49B3269F0AF
:1035F0009C3228F4903251F0933271F40BC09D321A
:1036000039F0903349F4116028C01260146025C06D
:10361000186023C0106121C017FD2AC0892F805374
:103620008A3078F416FF06C0FAE09F9E902C112491
:10363000980E13C03AE0839E802C1124880E1062ED
:103640000CC09E3221F416FD14C3106406C09C36D3
:1036500011F4106802C0983659F4EE85FF8523FDF9
:10366000959123FF9191FF87EE87992309F0BCCFB5
:10367000892F8554833020F4812F8061905E07C0AC
:10368000892F8556833008F09FC1812F8F7E86FD5C
:1036900002C076E0972E6FE3F62EF822953619F4E5
:1036A000F0E4FF2A07C0963619F420E8F22A02C097
:1036B00091109A94F7FE0AC03BE3391518F45CE3C5
:1036C000B52E02C0B92CB39427E009C047E04915D4
:1036D00020F4BB2447E0942EF7CF292DBB24C6014C
:1036E00004969D878C87F601608171818281938128
:1036F000AE014F5F5F4F0B2D0E943F246C0109818B
:10370000202E332400FF04C003FD02C01DE209C0C7
:10371000F1FE02C01BE205C0F2FC02C010E001C0D5
:1037200010E2C1018C709070892BB9F1112311F452
:1037300083E001C084E0881510F088240AC0881A4C
:10374000F3FC07C080E290E0B3010E942D258A942B
:10375000C9F7112329F0812F90E0B3010E942D2594
:1037600023FE03C005E112E00EC009E112E00BC028
:10377000E114F10409F0805290E0B3010E942D257C
:103780000F5F1F4F05C0EF2CFF24F0E1EF22FF2455
:10379000F8018491882361F714C1F7FE12C0BC0CB4
:1037A00024FE04C08A81813309F4BA941B141CF0EE
:1037B000BB24B3942DC0F8E0FB1550F538E0B32ED0
:1037C00027C0F6FC25C0892D90E08C159D054CF096
:1037D0002CEFC2162FEFD20624F030E8F32A01C0F6
:1037E0009A94992049F0E2E0F0E0EC0FFD1FE90D1A
:1037F000F11D80818033A1F3F7FE0AC0B92CB39488
:10380000892D90E0C816D90614F0992401C09C189F
:10381000F7FC03C025E030E009C01C141D041CF0B7
:1038200021E030E003C096012F5F3F4F112311F0DC
:103830002F5F3F4F992029F0892D90E00196280FA6
:10384000391F882D90E02817390714F0882401C00B
:10385000821A4F2C5524C20189709070892B39F03F
:1038600008C080E290E0B3010E942D258A94882050
:10387000C1F7112329F0812F90E0B3010E942D257B
:1038800043FE07C008C080E390E0B3010E942D25ED
:103890008A948820C1F7F7FE46C08601D7FE02C091
:1038A00000E010E076010894E11CF11CE01AF10A36
:1038B00041E050E04C0F5D1FE40EF51E26014B1851
:1038C0005108892D90E0AA24BB24A81AB90A5FEFF9
:1038D0000F3F150729F48EE290E0B3010E942D25D9
:1038E000C016D10634F0401651061CF4F701808151
:1038F00001C080E3015010400894E11CF11C0A153E
:103900001B052CF090E0B3010E942D25E0CF0C1593
:103910001D0539F49A81963318F4953311F424FE79
:1039200081E390E04BC08A81813309F00F7E90E003
:10393000B3010E942D259920A1F08EE290E0B30101
:103940000E942D2512E0E1E0F0E0EC0FFD1FE10FF9
:10395000F11D1F5F808190E0B3010E942D259A9494
:1039600091F744FC03C085E690E002C085E490E056
:10397000B3010E942D25D7FC05C0C114D10441F428
:1039800004FF06C0D094C194D108D3948DE201C045
:103990008BE290E0B3010E942D2580E305C08F5F8C
:1039A00026EF3FEFC20ED31E3AE0C316D104BCF798
:1039B00090E0B3010E942D25C601C096B3010E947C
:1039C0002D25CC84DD8452C1933631F0933799F0A4
:1039D000933509F059C023C0F601808189835E01C7
:1039E0000894A11CB11C22E030E0C20ED31E21E0DD
:1039F000E22EF12C12C0F601A080B18016FD03C0AA
:103A00006FEF7FEF02C0692D70E022E030E0C20E60
:103A1000D31EC5010E9422257C011F7713C0F60129
:103A2000A080B18016FD03C06FEF7FEF02C0692D4B
:103A300070E022E030E0C20ED31EC5010E941725BF
:103A40007C01106813FF07C01BC080E290E0B30147
:103A50000E942D258A94882D90E0E816F906A8F397
:103A60000FC0F50117FD859117FF81915F0190E06F
:103A7000B3010E942D2581108A940894E108F10871
:103A8000E114F10471F7F2C0943611F0993689F51A
:103A900017FF08C0F601208131814281538184E003
:103AA00090E00AC0F601808191819C01442737FD96
:103AB0004095542F82E090E0C80ED91E9FE6F92E63
:103AC000F12257FF09C050954095309521953F4F01
:103AD0004F4F5F4F90E8F92ACA01B901AE014F5F1D
:103AE0005F4F2AE030E00E94AE25E82EE889EE1A0A
:103AF00041C0953721F41F7E2AE030E01CC0197FB9
:103B00009F3661F0903720F4983509F0B2C00FC0AD
:103B1000903739F0983709F0ACC004C028E030E0A5
:103B20000AC0106114FD146020E130E004C014FDEF
:103B3000166020E132E017FF08C0F6016081718154
:103B40008281938144E050E008C0F6018081918138
:103B5000BC0180E090E042E050E0C40ED51EAE0112
:103B60004F5F5F4F0E94AE25E82E5889E51A8FE718
:103B7000F82EF122F6FE0BC08EEFF822E91438F48D
:103B8000F4FE07C0F2FC05C09FEEF92202C01E2D14
:103B900001C0192DF4FE0DC0FE01EE0DF11D808156
:103BA000803319F4E9EEFE2208C01F5FF2FE05C063
:103BB00003C08F2D867809F01F5F0F2DF3FC14C012
:103BC000F0FE0FC0181510F09E2C0BC09E2C980C08
:103BD000911A182D06C080E290E0B3010E942D25B5
:103BE0001F5F1815C0F304C0181510F4811A01C026
:103BF000882404FF0FC080E390E0B3010E942D25CC
:103C000002FF1DC001FD03C088E790E00EC088E5FB
:103C100090E00BC0802F867891F001FF02C08BE20C
:103C200001C080E2F7FC8DE290E0B3010E942D25F7
:103C300006C080E390E0B3010E942D259A94E91418
:103C4000C0F3EA94E1E0F0E0EC0FFD1FEE0DF11D92
:103C5000808190E0B3010E942D25EE2091F706C0EF
:103C600080E290E0B3010E942D258A948820C1F75C
:103C700099CCF30166817781CB016196E2E10C94E6
:103C8000AF23E0E6F8E011928AE0E835F807D9F7CB
:103C900008959C0197FD37C077FD35C084359105A7
:103CA00094F5603371057CF5CB0173E095958795AC
:103CB0007A95E1F76770452B99F0E4E58E9FF00166
:103CC0001124E20FF31FE05AF74F81E090E002C0A9
:103CD000880F991F6A95E2F72081282B2083089589
:103CE000E4E58E9FF0011124E20FF31FE05AF74F35
:103CF00081E090E002C0880F991F6A95E2F78095F5
:103D000020812823208308952F923F924F925F9223
:103D10006F927F928F929F92AF92BF92CF92DF92DB
:103D2000EF92FF920F931F93DF93CF93CDB7DEB740
:103D30002E970FB6F894DEBF0FBECDBF7C016B018E
:103D40004A0139011C870B8784179507F9F45B0139
:103D500010C0C701B5014B855C850E94491EC61481
:103D6000D70424F40894A11CB11C03C00894A10832
:103D7000B108C614D7042CF46A147B040CF4FDC0FB
:103D8000E8CFA614B7040CF4F8C0E3CF62177307AA
:103D9000F9F45C0110C0C501B6014B855C850E9439
:103DA000491EE814F90424F40894A11CB11C03C0B2
:103DB0000894A108B108E814F9042CF48A149B04AF
:103DC0000CF4DBC0E8CFA814B9040CF4D6C0E3CFE0
:103DD0004817590724F447017A013B016901B401EE
:103DE0006E197F09882777FD8095982F0E94E6211C
:103DF0006F83788789879A87B3016C197D09882733
:103E000077FD8095982F0E94E6216B837C838D83BC
:103E10009E832F81388549855A850E944B211B013D
:103E20002C0120E030E040E050E00E94CF2287FFEC
:103E300004C057FA509457F85094DA82C9820F2E72
:103E4000F0E0AF2EF0E0BF2EF0E0CF2EF0E0DF2E5E
:103E5000F02D7FC0C70169817A814B855C850E9406
:103E6000491EC601B501A20191010E94E0203BC09C
:103E7000C70169817A814B855C850E94491E1E8637
:103E80001D866B817C818D819E8120E030E040E049
:103E900050E00E94CF22181624F421E030E03E8743
:103EA0002D8700E010E06B817C818D819E8120E078
:103EB00030E040E050E00E944421882314F401E007
:103EC00010E08D859E85801B910BE981FA81E80FBA
:103ED000F91FFA83E983C601B50120E030E040E82C
:103EE0005FE30E94DF205B016C0120E030E040E0F6
:103EF0005FE30E94CF228823CCF06B817C818D818F
:103F00009E8120E030E040E050E00E94CF22181671
:103F10003CF429813A81621673060CF0A9CF06C0E1
:103F200089819A81861597050CF0A2CF6F817885DB
:103F300089859A8520E030E040E050E00E94CF2261
:103F4000181624F40894E11CF11C03C00894E1083D
:103F5000F1086F81788589859A8520E030E040E01E
:103F600050E00E94CF22181624F48E149F042CF0E7
:103F700071CFE814F9040CF06DCF2E960FB6F894BB
:103F8000DEBF0FBECDBFCF91DF911F910F91FF908C
:103F9000EF90DF90CF90BF90AF909F908F907F90E9
:103FA0006F905F904F903F902F9008954F925F9247
:103FB0006F927F928F929F92AF92BF92CF92DF9239
:103FC000EF92FF920F931F93CF93DF933B01490131
:103FD00025E0429FA0011124ADE7EA2EA1E0FA2ED0
:103FE000E40EF51E8C01F1E04F2E512CE2E8AE2ECE
:103FF000E1E0BE2EA40EB51EF70184918114910458
:1040000009F48095C0E0D0E0C82EDD24BE01660D25
:10401000771DA2010C2E02C0440F551F0A94E2F72F
:104020004C215D210C2E02C0559547950A94E2F76C
:10403000C8010E94491E2196C830D10539F708945D
:10404000E11CF11C0F5F1F4FEA14FB04A9F6DF917E
:10405000CF911F910F91FF90EF90DF90CF90BF9085
:10406000AF909F908F907F906F905F904F9008954A
:10407000CF92DF92EF92FF920F931F93CF93DF9334
:104080006B017A01E901082F10E008C0802F90E051
:10409000B6019E010E94D61F0B5F1F5FF701E10F63
:1040A000F11D4081442391F7DF91CF911F910F9132
:1040B000FF90EF90DF90CF900895CF93DF9380E053
:1040C00060E00E94D220C0E6D8E081E069910E94C1
:1040D00070208AE0C835D807C1F7DF91CF910895E5
:1040E00095B18295880F807E9F7D982B95B95F98BA
:1040F00027E030E070E08F98CB01022E02C095954A
:1041000087950A94E2F780FF02C02E9A01C02E988C
:104110008F9A215030408FEF2F3F380761F75F9A19
:1041200008951F93182F579A249A259A269A879AAA
:104130002C985F9A2C9A80E061E20E9470201068AF
:1041400080E0612F0E94702080E064E00E94702077
:1041500080E063E10E94702080E06CE00E947020AB
:1041600080E060E20E94702080E06CE00E9470209D
:1041700080E060E40E94702080E060E80E9470208F
:104180001F910895CF93DF93C0E0D0E081E060E01D
:104190000E947020219681E0C83FD807B9F7DF91CF
:1041A000CF9108951F93182F606480E00E947020C3
:1041B000106880E0612F0E9470201F910895505870
:1041C000BB27AA270ED0A0C169D130F06ED120F054
:1041D00031F49F3F11F41EF45EC10EF4E095E7FB4D
:1041E00054C1E92FB3D180F3BA176207730784076C
:1041F000950718F071F49EF5CBC10EF4E0950B2EE7
:10420000BA2FA02D0B01B90190010C01CA01A00128
:104210001124FF27591B99F0593F50F4503E68F183
:104220001A16F040A22F232F342F4427585FF3CFC4
:10423000469537952795A795F0405395C9F77EF495
:104240001F16BA0B620B730B840BBAF09150A1F0DE
:10425000FF0FBB1F661F771F881FC2F70EC0BA0F64
:10426000621F731F841F48F4879577956795B795EC
:10427000F7959E3F08F0B3CF9395880F08F09927E4
:10428000EE0F979587950895DCD008F481E00895A6
:1042900014D1E3954AC10CD037C107D140F0FED00C
:1042A00030F021F45F3F19F0F0C0511172C1F3C03A
:1042B0004DD198F39923C9F35523B1F3951B550BB1
:1042C000BB27AA2762177307840738F09F5F5F4FE9
:1042D000220F331F441FAA1FA9F333D00E2E3AF02A
:1042E000E0E830D091505040E695001CCAF729D044
:1042F000FE2F27D0660F771F881FBB1F2617370793
:104300004807AB07B0E809F0BB0B802DBF01FF27C2
:1043100093585F4F2AF09E3F510568F0B6C039C1EF
:104320005F3FECF3983EDCF3869577956795B795FC
:10433000F7959F5FC9F7880F911D9695879597F917
:104340000895E1E0660F771F881FBB1F6217730790
:104350008407BA0720F0621B730B840BBA0BEE1FA5
:1043600088F7E095089504D06894B11112C10895BA
:10437000F5D088F09F5790F0B92F9927B751A0F04A
:10438000D1F0660F771F881F991F1AF0BA95C9F7E9
:1043900012C0B13081F0FCD0B1E00895F9C0672FB0
:1043A000782F8827B85F39F0B93FCCF38695779599
:1043B0006795B395D9F73EF4909580957095619582
:1043C0007F4F8F4F9F4F0895E89409C097FB3EF4AD
:1043D00090958095709561957F4F8F4F9F4F992352
:1043E000A9F0F92F96E9BB279395F69587957795D0
:1043F0006795B795F111F8CFFAF4BB0F11F460FF90
:104400001BC06F5F7F4F8F4F9F4F16C0882311F0E7
:1044100096E911C0772321F09EE8872F762F05C0FB
:10442000662371F096E8862F70E060E02AF09A9596
:10443000660F771F881FDAF7880F9695879597F98B
:104440000895990F0008550FAA0BE0E8FEEF161625
:104450001706E807F907C0F012161306E407F50778
:1044600098F0621B730B840B950B39F40A2661F0EC
:10447000232B242B252B21F408950A2609F4A1408F
:10448000A6958FEF811D811D089597F99F6780E89C
:1044900070E060E008959FEF80EC089500240A9496
:1044A0001616170618060906089500240A9412160F
:1044B0001306140605060895EECF50D0E8F3E894ED
:1044C000E0E0BB279F57F0F02AED3FE049EC06C043
:1044D000EE0FBB0F661F771F881F28F0B23A6207E6
:1044E0007307840728F0B25A620B730B840BE395B1
:1044F0009A9572F7803830F49A95BB0F661F771F34
:10450000881FD2F79048BAC0092E0394000C11F40A
:10451000882352F0BB0F40F4BF2B11F460FF04C09E
:104520006F5F7F4F8F4F9F4F0895EF93E0FF06C05F
:10453000A2EA2AED3FE049EC5FEB53DEE5DF0F90A6
:10454000039401FC9058EEE2F1E0A4C057FD9058AE
:10455000440F551F59F05F3F71F04795880F97FB47
:10456000991F61F09F3F79F0879508951216130601
:104570001406551FF2CF4695F1DF08C01616170630
:104580001806991FF1CF8695710561050894089565
:10459000E894BB2766277727CB0197F9089551DF69
:1045A00008F48FEF08950BD0AFCF78DF28F07DDFD0
:1045B00018F0952309F069CF6ECF1124EACFC6DF3A
:1045C000A0F3959FD1F3950F50E0551F629FF00126
:1045D000729FBB27F00DB11D639FAA27F00DB11D7F
:1045E000AA1F649F6627B00DA11D661F829F222708
:1045F000B00DA11D621F739FB00DA11D621F839F8F
:10460000A00D611D221F749F3327A00D611D231F64
:10461000849F600D211D822F762F6A2F11249F57B2
:1046200050408AF0E1F088234AF0EE0FFF1FBB1FD5
:10463000661F771F881F91505040A9F79E3F510574
:1046400070F023CFA6CF5F3FECF3983EDCF3869566
:1046500077956795B795F795E7959F5FC1F7FE2B1F
:10466000880F911D9695879597F908959F9325DF5B
:104670000F9007FCEE5F59CF9F3F31F0915020F42F
:10468000879577956795B795880F911D969587952E
:1046900097F908959F938F937F936F93FF93EF9371
:1046A0009B01AC0180DFEF91FF9105D02F913F91ED
:1046B0004F915F9178CFDF93CF931F930F93FF922A
:1046C000EF92DF927B018C01689405C0DA2EEF0136
:1046D00076DFFE01E894A59125913591459155919C
:1046E000AEF3EF017EDDFE019701A801DA9479F7C0
:1046F000DF90EF90FF900F911F91CF91DF91089580
:1047000097FB092E07260AD077FD04D043D006D0A8
:1047100000201AF4709561957F4F0895F6F79095F3
:1047200081959F4F08952F923F924F925F926F9283
:104730007F928F929F92AF92BF92CF92DF92EF9231
:10474000FF920F931F93CF93DF93CDB7DEB7CA1BB2
:10475000DB0B0FB6F894DEBF0FBECDBF09942A88DD
:10476000398848885F846E847D848C849B84AA8485
:10477000B984C884DF80EE80FD800C811B81AA8112
:10478000B981CE0FD11D0FB6F894DEBF0FBECDBFDD
:10479000ED010895AA1BBB1B51E107C0AA1FBB1F57
:1047A000A617B70710F0A61BB70B881F991F5A95BD
:1047B000A9F780959095BC01CD010895A0E0B0E0E7
:1047C000E4EEF3E20C949B23EC01A880B980CA804C
:1047D000DB80A114B104C104D10441F484E2A82E09
:1047E00089EDB82E8BE5C82E87E0D82EC601B5011D
:1047F0002DE133EF41E050E00E942B2627EA31E41F
:1048000040E050E00E940C267B018C01C601B501FE
:104810002DE133EF41E050E00E942B26CA01B9019F
:104820002CEE34EF4FEF5FEF0E940C266E0D7F1DD4
:10483000801F911F97FF04C06150704080409048D6
:10484000688379838A839B839B013F77C901CDB7B6
:10485000DEB7EAE00C94B7230E94DE2308958EE5CC
:1048600096E00E94DE230895A0E0B0E080935E060B
:1048700090935F06A0936006B09361060895283078
:1048800008F027E03327DA01990F311D87FD916089
:1048900000966105710539F432602E5F3D9330E377
:1048A0002A95E1F708959F3F30F080387105610542
:1048B00009F03C5F3C5F3D93913008F08068911DAA
:1048C000DF93CF931F930F93FF92EF92192F987F4F
:1048D0009695E92F96959695E90FFF27E95AFB4F94
:1048E00099273327EE24FF24A701E70105900894B8
:1048F000079428F4360FE71EF81E491F511D660F56
:10490000771F881F991F0694A1F70590079428F434
:10491000E70EF81E491F561FC11D770F881F991FEC
:10492000661F0694A1F70590079428F4F80E491F16
:10493000561FC71FD11D880F991F661F771F06942A
:10494000A1F70590079420F4490F561FC71FD81FE1
:10495000990F661F771F881F0694A9F784911095F9
:10496000177041F0D695C79557954795F794E794FA
:104970001A95C1F7EDEFF3E0689415901591359114
:104980006591959105907FE27395E118F10A430BCB
:10499000560BC90BD009C0F7E10CF11E431F561F7F
:1049A000C91FD01D7EF4703311F48A95E6CFE894C8
:1049B000015030F0080F0AF40027021708F4202FE6
:1049C0002395022F7A3328F079E37D932A95E9F72E
:1049D00010C07D932A9589F606949795679537952B
:1049E00017951794E118F10A430B560BC90BD00920
:1049F00098F023957E9173957A3308F070E37C9359
:104A00002013B8F77E9170617D9330F0839571E348
:104A10007D9370E32A95E1F71124EF90FF900F91B9
:104A20001F91CF91DF91992787FD90950895FC0103
:104A30000590615070400110D8F7809590958E0FC9
:104A40009F1F0895FC016150704001900110D8F73C
:104A5000809590958E0F9F1F08950F931F93CF936E
:104A6000DF938C01EB018B8181FF1BC082FF0DC0A6
:104A70002E813F818C819D812817390764F4E8815C
:104A8000F9810193F983E88306C0E885F985802FD1
:104A90000995892B31F48E819F8101969F838E83A6
:104AA00002C00FEF1FEFC801DF91CF911F910F914F
:104AB0000895AEE0B0E0EFE5F5E20C94A1230D8996
:104AC0001E898F89988D97FF02C080E090E801973A
:104AD0009E838D831A83098386E08C839E01255EE5
:104AE0003F4FCE010196698D7A8DA9010E94BA1AB5
:104AF0004D815E8157FD0AC02F81388542175307CB
:104B00000CF49A01020F131FF80110822E96E4E0B4
:104B10000C94BD23AEE0B0E0E0E9F5E20C94A123F3
:104B20000D891E8986E08C831A8309838FEF9FE7A6
:104B30009E838D839E01275E3F4FCE0101966F8934
:104B4000788DA9010E94BA1A2F813885020F131F90
:104B5000F80110822E96E4E00C94BD23FA01AA27F6
:104B6000283051F1203181F1E8946F936E7F6E5FB0
:104B70007F4F8F4F9F4FAF4FB1E03ED0B4E03CD05E
:104B8000670F781F891F9A1FA11D680F791F8A1F41
:104B9000911DA11D6A0F711D811D911DA11D20D0A8
:104BA00009F468943F912AE0269F11243019305D62
:104BB0003193DEF6CF010895462F4770405D419353
:104BC000B3E00FD0C9F7F6CF462F4F70405D4A33A0
:104BD00018F0495D31FD4052419302D0A9F7EACF68
:104BE000B4E0A6959795879577956795BA95C9F797
:104BF00000976105710508959B01AC010A2E06948A
:104C00005795479537952795BA95C9F7620F731F42
:104C1000841F951FA01D0895629FD001739FF0010E
:104C2000829FE00DF11D649FE00DF11D929FF00D3C
:104C3000839FF00D749FF00D659FF00D9927729F73
:104C4000B00DE11DF91F639FB00DE11DF91FBD01FE
:104C5000CF011124089597FB092E05260ED057FD8C
:104C600004D014D00AD0001C38F4509540953095EB
:104C700021953F4F4F4F5F4F0895F6F790958095E0
:104C8000709561957F4F8F4F9F4F0895A1E21A2E27
:104C9000AA1BBB1BFD010DC0AA1FBB1FEE1FFF1FE0
:104CA000A217B307E407F50720F0A21BB30BE40B30
:104CB000F50B661F771F881F991F1A9469F7609577
:104CC0007095809590959B01AC01BD01CF01089531
:044CD000F894FFCF86
:104CD40000E100000000086E3130303039363731E1
:104CE40000434F4E4E45435420555342000D0A0095
:104CF4005465656E737920636F6E74726F6C733A6A
:104D0400200D0A006C6566743A206D6F7665206C20
:104D14006566740D0A0072696768743A206D6F766F
:104D2400652072696768740D0A0075703A206669B7
:104D340072650D0A00646F776E3A20646973706C53
:104D440061792067616D65207374617475730D0AF0
:104D54000063656E7472653A2070617573652067CF
:104D6400616D650D0A004C65667420627574746F1C
:104D74006E3A2073746172742F7265737461727405
:104D84002067616D650D0A00526967687420627559
:104D940074746F6E3A20717569740D0A004C6566FF
:104DA4007420776865656C3A20736574207468654F
:104DB4002061696D206F6620746865207475727255
:104DC40065740D0A00526967687420776865656CBC
:104DD4003A20736574207468652073706565642077
:104DE4006F66207468652067616D650D0A00436F06
:104DF4006D707574657220636F6E74726F6C733A44
:104E0400200D0A00613A206D6F7665206C6566742A
:104E14000D0A00643A206D6F7665207269676874C4
:104E24000D0A00773A2066697265200D0A00733A0C
:104E340020646973706C61792067616D6520737497
:104E4400617475730D0A00723A2073746172742F61
:104E540072657365742067616D650D0A00703A2090
:104E64007061757365200D0A00713A20717569745B
:104E74000D0A006D3A207365742073706565640DC6
:104E84000A006C3A20736574206C697665730D0AA8
:104E940000673A207365742073636F72650D0A00AE
:104EA4003F3A207072696E7420636F6E74726F6C17
:104EB400730D0A00683A206D6F7665207368697017
:104EC4000D0A006A3A2064726F702061737465720F
:104ED4006F69640D0A006B3A2064726F7020626F10
:104EE400756C6465720D0A00693A2064726F7020F3
:104EF400667261676D656E740D0A002D47616D659C
:104F0400207374617475732D0D0A00417374657296
:104F14006F6964733A20256400426F756C6465722E
:104F2400733A20256400467261676D656E74733A46
:104F340020256400506C61736D6120626F6C747322
:104F44003A2025640041696D3A2025640053706558
:104F540065643A202564002563000D0A5370656575
:104F6400643A20000D0A41696D3A20000D0A41732C
:104F74007465726F696420783A20000D0A41737475
:104F840065726F696420793A20000D0A426F756C6E
:104F940064657220783A20000D0A426F756C64656E
:104FA4007220793A20000D0A467261676D656E744D
:104FB40020783A20000D0A467261676D656E742090
:104FC400793A20004D6F76652074686520736869AE
:104FD4007020746F20636F6F72696E646174653AD8
:104FE40020005365742074686520706C6179657263
:104FF4002773206C697665733A20005365742074B6
:10500400686520706C6179657227732073636F72B1
:10501400653A200041737465726F69642073686F28
:105024006F746572006F6F6F6F6F6F6F6F6F6F6FFD
:105034006F6F6F6F6F6F6F6F6F6F6F202020202007
:1050440020202020202020202020202020206F6FBE
:105054002020206F202020202020202020206F20AE
:105064002020206F6F20202020202020202020209E
:1050740020202020202020206F6F2020202020208E
:10508400202020202020202020202020206F6F207E
:1050940020206F6F6F6F6F6F6F6F6F6F6F6F202058
:1050A40020206F6F2020202020202020202020205E
:1050B400202020202020206F6F6F6F6F6F6F6F6F25
:1050C4006F6F6F6F6F6F6F6F6F6F6F6F6F000D0A22
:1050D40047414D4520535441525445440054696D51
:1050E400653A203025643A3025640054696D653A88
:1050F4002025643A25640054696D653A203025649E
:105104003A25640054696D653A2025643A30256473
:10511400004C697665733A20256400506F696E749B
:10512400733A202564000D0A47414D45204F5645EA
:10513400520047414D45204F564552005245535465
:10514400415254204F52205155495421002300010B
:1051540000010001002020202020202020202020E9
:10516400202020202020202020202020202020203B
:10517400202020202020202020202020202020202B
:10518400202020202020202020202020202020201B
:10519400206F6F2020206F6F6F6F6F2020206F6F44
:1051A4006F6F6F6F6F6F6F6F6F6F6F6F6F6F6F6F0B
:1051B4006F2020206F6F6F6F6F2020206F6F00852E
:1051C400052020206F20202020206F6F6F202020BA
:1051D4006F6F6F6F6F206F6F6F6F6F6F6F206F6F79
:1051E4006F6F6F2020206F6F6F20202020206F2092
:1051F400202000F10520206F2020206F6F6F206F8A
:105204006F6F6F6F206F6F6F2020206F202000253D
:1052140006206F206F6F6F206F200041066F6F6F45
:105224006F004D06EBFF000016002B00410001004B
:02523400000078
:00000001FF
