:100000000C947C020C9499020C9499020C94990221
:100010000C9499020C9499020C9499020C949902F4
:100020000C9499020C9499020C9400050C943B05D5
:100030000C9499020C9499020C9499020C949902D4
:100040000C9499020C9499020C9499020C949902C4
:100050000C9499020C9499020C9499020C949902B4
:100060000C9499020C9499020C9499020C949902A4
:100070000C9499020C9499020C9499020C94990294
:100080000C9499020C9499020C9499020C94E90E28
:100090000C9499020C9499020C9499020C94990274
:1000A0000C9499020C9499020C9499029504920470
:1000B0008F048C0489048604830480047D047A04FC
:1000C0007704740471046E046B04680465046204AC
:1000D0005F045C0459045604530450044D044A045C
:1000E0004704440441043E043B043804350432040C
:1000F0002F042C0429042604230420041D041A04BC
:100100001704140411040E040B040804050402046B
:10011000FF03FC03F903F603F303F003ED03EA0323
:10012000E703E403E103DE03DB03D803D50305A8FB
:100130004CCDB2D44EB93836A9020C50B99186884C
:10014000083CA6AAAA2ABE000000803F00010000C9
:100150008001120002000092014300030000D5015B
:100160000401030904D9011402030904EF01160371
:1001700003090407020C0001C11201803601813617
:100180001201000202000010C0167A0400010102F0
:10019000030109024300020100C03209040000010A
:1001A00002020100052400100105240101010424BC
:1001B0000206052406000107058203100040090419
:1001C0000100020A000000070503024000000705C5
:1001D000840240000004030904140359006F0075F1
:1001E00000720020004E0061006D006500000016E6
:1001F000035500530042002000530065007200695F
:100200000061006C0000000C033100320033003448
:1002100000350000006E616E00696E66000000002F
:10022000000000005F00000007000700147F147F3B
:1002300014242A7F2A122313086462364955225057
:100240000005030000001C2241000041221C001494
:10025000083E081408083E0808005030000008084E
:10026000080808006060000020100804023E5149A0
:10027000453E00427F400042615149462141454B85
:10028000311814127F1027454545393C4A494930F9
:1002900001710905033649494936064949291E00B5
:1002A00036360000005636000008142241001414AF
:1002B000141414004122140802015109063249792C
:1002C000413E7E1111117E7F494949363E414141EF
:1002D000227F4141221C7F494949417F0909090187
:1002E0003E4149497A7F0808087F00417F4100204C
:1002F00040413F017F081422417F404040407F023F
:100300000C027F7F0408107F3E4141413E7F090976
:1003100009063E4151215E7F09192946464949494E
:100320003101017F01013F4040403F1F2040201F1D
:100330003F4038403F6314081463070870080761A2
:1003400051494543007F414100020408102000410B
:10035000417F00040201020440404040400001028D
:10036000040020545454787F48444438384444446A
:1003700020384444487F3854545418087E090102F8
:100380000C5252523E7F0804047800447D40002005
:1003900040443D007F1028440000417F40007C0421
:1003A0001804787C0804047838444444387C1414D5
:1003B0001408081414187C7C080404084854545485
:1003C00020043F4440203C4040207C1C2040201C16
:1003D0003C4030403C44281028440C5050503C4491
:1003E00064544C44000836410000007F0000004186
:1003F0003608001008081008784641467800407A10
:1004000010F35A00A0724E18090010A5D4E800009D
:10041000E87648170000E40B54020000CA9A3B003B
:100420000000E1F505000080969800000040420FB2
:10043000000000A08601000000102700000000E876
:1004400003000000006400000000000A000000003B
:10045000000100000000002C76D888DC674F0823DC
:10046000DFC1DFAE59E1B1B796E5E3E453C63AE642
:1004700051997696E8E6C28426EB898C9B62ED4022
:100480007C6FFCEFBC9C9F40F2BAA56FA5F4900571
:100490005A2AF75C936B6CF9676DC11BFCE0E40DA5
:1004A00047FEF520E6B500D0ED902E030094357799
:1004B000050080841E080000204E0A000000C80CC1
:1004C000333333330F986E12831141EF8D2114892A
:1004D0003BE65516CFFEE6DB18D1844B381BF77C84
:1004E0001D901DA4BBE424203284725E228100C9C9
:1004F000F124ECA1E53D270011241FBECFEFDAE087
:10050000DEBFCDBF14E0A0E0B1E0ECEBF7E402C049
:1005100005900D92A233B107D9F717E0A2E3B4E03A
:1005200001C01D92AC3FB107E1F70E940A180C947C
:10053000DC230C94000087E880937A000895982FBC
:100540009F71906490937C00807280937B00809177
:100550007A00806480937A0080917A0086FDFCCFD7
:100560002091780030917900C901089581E080934D
:10057000D70080EA8093D80082E189BD09B400FEEB
:10058000FDCF80E98093D8001092E00010923204F1
:10059000109233048CE08093E20078940895809167
:1005A000320408952FB7F89480913204882369F0BB
:1005B00083E08093E9009BE68091E80085FD09C017
:1005C00082FF03C09093E800F7CF2FBF2FEF3FEFDC
:1005D0000CC09091F1008091E80085FD03C08BE68E
:1005E0008093E8002FBF292F30E0C90108952FB76D
:1005F000F89480913204882311F490E010C083E0D5
:100600008093E9009091F200992349F48091E800E9
:1006100082FF05C085FD03C08BE68093E8002FBFF5
:10062000892F089580913204882371F09FB7F89440
:1006300083E08093E9002BE602C02093E8008091DC
:10064000E80085FDFACF9FBF0895482F80913204BE
:100650008823D9F12FB7F89484E08093E900809142
:100660003504882341F08091E80085FD02C02FBF4A
:1006700012C0109235049091E400975E34E08091AE
:10068000E80085FD13C02FBF8091E400891729F48D
:1006900081E0809335048FEF0895809132048823A0
:1006A000A1F02FB7F8943093E900E9CF4093F1001F
:1006B0008091E80085FD03C08AE38093E80085E02F
:1006C000809334042FBF80E008958FEF0895282F82
:1006D00080913204882351F09FB7F89484E080938E
:1006E000E9008091E80085FD03C09FBF8FEF08956A
:1006F0002093F1008091E80085FD03C08AE3809398
:10070000E80085E0809334049FBF80E00895CF9394
:10071000DF93EC0180913204882309F41CC13FB7B8
:10072000F89484E08093E90080913504882309F4EB
:1007300008C18091E80085FD02C03FBF0CC1109246
:100740003504FFC09091E400975E8091E80085FD3C
:1007500013C03FBF8091E400891721F481E08093AA
:100760003504F9C080913204882309F4F4C03FB7FE
:10077000F894B093E900E9CF8091F200242F281B70
:10078000822F90E06817790708F4262F822F90E0D7
:100790008134910508F0C6C08A5A9F4FFC01EE0FC4
:1007A000FF1F0590F491E02D099489918093F10049
:1007B00089918093F10089918093F10089918093D0
:1007C000F10089918093F10089918093F1008991E2
:1007D0008093F10089918093F10089918093F100D9
:1007E00089918093F10089918093F10089918093A0
:1007F000F10089918093F10089918093F1008991B2
:100800008093F10089918093F10089918093F100A8
:1008100089918093F10089918093F100899180936F
:10082000F10089918093F10089918093F100899181
:100830008093F10089918093F10089918093F10078
:1008400089918093F10089918093F100899180933F
:10085000F10089918093F10089918093F100899151
:100860008093F10089918093F10089918093F10048
:1008700089918093F10089918093F100899180930F
:10088000F10089918093F10089918093F100899121
:100890008093F10089918093F10089918093F10018
:1008A00089918093F10089918093F10089918093DF
:1008B000F10089918093F10089918093F1008991F1
:1008C0008093F10089918093F10089918093F100E8
:1008D00089918093F10089918093F10089918093AF
:1008E000F10089918093F10089918093F1008991C1
:1008F0008093F10089918093F10089918093F100B8
:1009000089918093F10089918093F100899180937E
:10091000F10089918093F10089918093F100899190
:100920008093F10089918093F1008091E80085FD2A
:1009300002C05093E800621B7109A09334043FBFCA
:1009400004C0B4E040E45AE3A5E06115710509F084
:10095000F9CE80E001C08FEFDF91CF9108959FB76E
:10096000F89480913404882341F084E08093E90076
:100970008AE38093E800109234049FBF0895609149
:10098000000170910101809102019091030108958D
:1009900080910401089580910501089580910601D8
:1009A0000895809133040895282F9FB7F89480917B
:1009B0003204882339F082E08093E9008091E800D6
:1009C00085FD03C09FBF8FEF089581EA8093F100FA
:1009D00080E28093F1001092F1001092F1001092E9
:1009E000F1001092F10081E08093F1001092F1008B
:1009F0002093F1008AE38093E8009FBF80E0089590
:100A00001F920F920FB60F9211248F939F93809194
:100A1000E1001092E100982F83FF11C01092E900CD
:100A200081E08093EB001092EC0082E18093ED0076
:100A300088E08093F000109232041092330492FF09
:100A400013C080913204882379F080913404882384
:100A500059F0815080933404882331F484E08093EA
:100A6000E9008AE38093E8009F918F910F900FBE79
:100A70000F901F9018951F920F920FB60F9211248E
:100A80000F931F932F933F934F935F936F937F9396
:100A90008F939F93AF93BF93EF93FF931092E900CF
:100AA0008091E80083FF3CC14091F1003091F1005A
:100AB0008091F100682F70E02091F100922F80E08A
:100AC000682B792B8091F100A82FB0E02091F100E4
:100AD000922F80E0A82BB92B1091F1000091F1002A
:100AE00082EF8093E800363009F05AC023E531E008
:100AF000A90145505040F901379785919491861787
:100B0000970701F5FA01859194918A179B07D1F413
:100B10009A012E5F3F4FF901659174912E5F3F4F0F
:100B2000F9014491212F30E0902F80E0282B392BC0
:100B30002F3F310519F010F02FEF30E0241758F453
:100B4000422F09C0295F3F4F495F5F4FF1E02D37CA
:100B50003F0789F6E5C05EEF8091E800282F30E07E
:100B6000C90185709070892BB9F322FDDCC0342F48
:100B7000413108F030E1232FCB0106C0FC01019682
:100B8000E491E093F10021502223C1F7630F711D1E
:100B9000431B5093E8004423F9F63031E9F2C3C017
:100BA000353061F48EEF8093E8008091E80080FF9B
:100BB000FCCF862F80688093E300B5C0393051F5B3
:100BC000442309F0ADC060933204109233041092B4
:100BD00034048EEF8093E80086E791E021E02093D3
:100BE000E900FC010196E491E093EB00EE2369F04B
:100BF000AC014F5F5F4FFC0184918093EC00CA0110
:100C00000196FA0134913093ED002F5F253039F7CA
:100C10008EE181C0383061F4403809F081C08091A4
:100C2000E80080FFFCCF809132048093F10050C037
:100C3000313289F4413A09F073C08091E80080FFB5
:100C4000FCCFE0E0F1E081918093F10081E0E730BA
:100C5000F807C9F73DC03032A1F4413209F060C055
:100C60008091E80082FFFCCFE0E0F1E08091F100AC
:100C7000819381E0E730F807C9F78BEF8093E800B4
:100C800027C0323251F4413209F04AC06093330434
:100C90008091E80080FFFCCF1BC03323E9F48091F2
:100CA000E80080FFFCCF423811F080E00DC0A09337
:100CB000E9008091EB0090E025E0969587952A95D4
:100CC000E1F781701092E9008093F1001092F10039
:100CD0008EEF8093E80027C0313011F0333001F5FA
:100CE0004230F1F4672BE1F42A2F2F77822F8150C5
:100CF0008430B0F48EEF8093E8002093E900333025
:100D000079F089E18093EB0081E090E002C0880FE8
:100D1000991F2A95E2F78093EA001092EA0003C037
:100D200081E28093EB00FF91EF91BF91AF919F9192
:100D30008F917F916F915F914F913F912F911F9173
:100D40000F910F900FBE0F901F901895CF92DF92CA
:100D5000EF92FF920F931F93DC01841795073CF1EC
:100D6000C801840F951FA817B9070CF56217730700
:100D7000F4F0E20EF31E6E157F05CCF490E0A41B98
:100D8000B50B621B730B609FF001619FF00D709FAC
:100D9000F00D1124CA0EDB1EEC0DFD1D808180328A
:100DA00009F491E081E09827292F30E002C020E08B
:100DB00030E0C9011F910F91FF90EF90DF90CF902D
:100DC00008952F923F924F925F926F927F928F92EF
:100DD0009F92AF92BF92CF92DF92EF92FF920F93CA
:100DE0001F93DF93CF93CDB7DEB760970FB6F8941C
:100DF000DEBF0FBECDBF9A8389837C836B835E8306
:100E00004D83190118870F83FA86E986DC86CB8625
:100E1000BE86AD86988A8F86882499242EC06980E4
:100E20007A806A0C7B1CC301B20149815A812B81F3
:100E30003C810D811E817101CF80D8840E94A6065D
:100E4000892B81F0C301B20149855A852B853C85E8
:100E50000D851E85EF84F888CDA0DEA00E94A60631
:100E6000892BC1F40894A11CB11C8D819E81A81608
:100E7000B906ACF20894811C911C821493041CF0F6
:100E800020E030E009C0AA24BB244B805C80480CE1
:100E9000591CEBCF21E030E0C90160960FB6F89401
:100EA000DEBF0FBECDBFCF91DF911F910F91FF909D
:100EB000EF90DF90CF90BF90AF909F908F907F90FA
:100EC0006F905F904F903F902F900895AF92BF9298
:100ED000CF92DF92EF92FF920F931F93609168047D
:100EE0007091690480916A0490916B04E090940081
:100EF000F09095000E94581F20E030E040E857E451
:100F00000E9447205B016C0100E010E0C801B701BE
:100F10000E94581F9B01AC01C601B5010E94541EDE
:100F200020E030E040E853E40E94472020E034E233
:100F300044EF5AE40E94BF1E1F910F91FF90EF9063
:100F4000DF90CF90BF90AF9008950E9466070E94F7
:100F5000271FDC01CB016CE370E00E94F4200895B0
:100F60000E9466070E94271FDC01CB016CE370E042
:100F70000E94F420CB010895109268041092690435
:100F800010926A0410926B040895CF93DF934091FE
:100F9000380450913904415050409C01220F331FB6
:100FA000220F331FE901C858DA4FF901E85BFB4F04
:100FB0009C0112C02F5F3F4F8C819D81AE81BF810C
:100FC00089939993A993B99384819581A681B781D7
:100FD00081939193A193B193241735075CF35093B8
:100FE00039044093380482E090E09093C3058093E5
:100FF000C205DF91CF910895CF93DF9340916604AE
:1010000050916704415050409C01220F331F220F22
:10101000331FE901C459DA4FF901EA53FA4F9C0131
:1010200012C02F5F3F4F8C819D81AE81BF8189931C
:101030009993A993B99384819581A681B78181936E
:101040009193A193B193241735075CF350936704F0
:101050004093660481E090E09093C3058093C205BD
:10106000DF91CF910895CF92DF92EF92FF920F938D
:101070001F93CF93DF93EB01823591052CF025EA86
:1010800030E0281B390B05C09C0197FF02C020E00F
:1010900030E0E0903604F09037048701000F111F14
:1010A000000F111FE4EDCE2EE5E0DE2EC00ED11EA6
:1010B000B901882777FD8095982F0E945A1FF60165
:1010C00060837183828393830E561A4FBE018827F3
:1010D00077FD8095982F0E945A1FF80160837183D5
:1010E000828393830894E11CF11CF0923704E09210
:1010F0003604DF91CF911F910F91FF90EF90DF9019
:10110000CF900895CF93DF934091360450913704E8
:10111000415050409C01220F331F220F331FE90121
:10112000CC52DA4FF901EE56FA4F9C0112C02F5FF4
:101130003F4F8C819D81AE81BF8189939993A99303
:10114000B99384819581A681B78181939193A1936D
:10115000B193241735075CF350933704409336045A
:101160008091C2059091C30504969093C305809326
:10117000C205DF91CF9108950F931F93CF93DF9313
:1011800002E915E0C0E0D0E031C0F8016081718172
:1011900082819381209168053091690540916A05AB
:1011A00050916B050E94541EF80160837183828305
:1011B000938320E030E040E450E40E94541E20E09D
:1011C00030E040E252E40E944320882364F0CE01E4
:1011D0000E9482088091C4059091C5050197909363
:1011E000C5058093C40521960C5F1F4F809136047E
:1011F00090913704C817D90744F2DF91CF911F911E
:101200000F910895CF92DF92EF92FF920F931F9369
:10121000CF93DF93EB01803591052CF025EA30E088
:10122000281B390B05C09C0197FF02C020E030E06D
:10123000E0903804F09039048701000F111F000F6F
:10124000111FB8E7CB2EB5E0DB2EC00ED11EB901C1
:10125000882777FD8095982F0E945A1FF60160839A
:10126000718382839383085B1B4FBE01882777FDC0
:101270008095982F0E945A1FF801608371838283A2
:1012800093830894E11CF11CF0923904E092380435
:10129000DF91CF911F910F91FF90EF90DF90CF9052
:1012A00008950F931F93CF93DF9308E414E0C0E0F9
:1012B000D0E031C0F80160817181828193812091F9
:1012C00068053091690540916A0550916B050E944F
:1012D000541EF801608371838283938320E030E0A1
:1012E00040EA50E40E94541E20E030E040E252E424
:1012F0000E944320882364F0CE010E94C50780919C
:10130000C4059091C50501979093C5058093C405C8
:1013100021960C5F1F4F8091380490913904C817B3
:10132000D90744F2DF91CF911F910F9108956F92E9
:101330007F928F929F92AF92BF92CF92DF92EF9265
:10134000FF920F931F930E9466072091C204309171
:10135000C3044091C4045091C5040E94531E7B01F4
:101360008C010E9466073B014C01A0906204B09082
:101370006304C0906404D0906504C801B70120E004
:1013800030E040E050E40E9443208823F4F01092C3
:1013900041041092400480E090E0A0E0B0E080932F
:1013A000C2049093C304A093C404B093C504809373
:1013B000620490936304A0936404B09365042A9834
:1013C0001092D3051092D2051BC0C401B301A6012F
:1013D00095010E94531E20E030E040E05FE30E9450
:1013E0004320882364F02A980E9466076093620471
:1013F00070936304809364049093650401C02A9AF7
:101400001F910F91FF90EF90DF90CF90BF90AF9022
:101410009F908F907F906F9008956F927F928F92A0
:101420009F92AF92BF92CF92DF92EF92FF920F9373
:101430001F930E9466072091C2043091C30440911B
:10144000C4045091C5040E94531E7B018C010E946C
:1014500066073B014C01A0906204B0906304C09009
:101460006404D0906504C801B70120E030E040E09A
:1014700050E40E9443208823F4F010924304109219
:10148000420480E090E0A0E0B0E08093C20490933A
:10149000C304A093C404B093C504809362049093E2
:1014A0006304A0936404B09365042B981092D30551
:1014B0001092D2051BC0C401B301A60195010E9480
:1014C000531E20E030E040E05FE30E944320882389
:1014D00064F02B980E946607609362047093630423
:1014E000809364049093650401C02B9A1F910F911F
:1014F000FF90EF90DF90CF90BF90AF909F908F9034
:101500007F906F900895AF92BF92CF92DF92EF924B
:10151000FF920F931F93CF93DF93A0906604B09038
:1015200067049CE6E92E95E0F92ECC24DD2400E04A
:1015300010E0C0E0D0E01EC0F701608171818281BF
:10154000938120E030E040E450E40E94541E20E00B
:1015500030E048E252E40E94B81E181624F00894C5
:10156000C11CD11C02C00F5F1F4F219684E090E088
:10157000E80EF91ECA15DB05FCF20C151D055CF41E
:1015800081E090E0909341048093400410924304E2
:10159000109242040AC081E090E09093430480934B
:1015A00042041092410410924004DF91CF911F91A8
:1015B0000F91FF90EF90DF90CF90BF90AF90089584
:1015C000181619062CF420E030E01616170614F051
:1015D00021E030E0C9010895EF92FF920F931F932D
:1015E000CF93DF9360913A0470913B046150704057
:1015F0009C01220F331F220F331FA9014A5E5A4F4D
:10160000E901CA53DB4FF901EE58FB4F9C011EC0A4
:101610002F5F3F4FDA011496ED90FD900D911C91D4
:101620001797ED92FD920D931D93AD018C819D81D5
:10163000AE81BF8189939993A993B9938481958150
:10164000A681B78181939193A193B1932617370710
:10165000FCF270933B0460933A04DF91CF911F91A9
:101660000F91FF90EF900895CF92DF92EF92FF924B
:101670000F931F93CF93DF93EC0120913A043091A5
:101680003B0480914B0390914C032817390709F4D0
:1016900067C00E94660720916C0430916D044091F0
:1016A0006E0450916F040E94531E2DEC3CEC4CE4F0
:1016B0005EE30E94432018160CF052C0E0903A04FA
:1016C000F0903B048701000F111F000F111F66E10E
:1016D000C62E65E0D62EC00ED11E60919005709189
:1016E0009105882777FD8095982F0E945A1FF60153
:1016F000608371838283938356ECC52E54E0D52E8C
:10170000C00ED11E6091700470917104882777FD1E
:101710008095982F0E945A1FF601608371838283FF
:1017200093830E581B4FBE01882777FD8095982F15
:101730000E945A1FF8016083718382839383089407
:10174000E11CF11CF0923B04E0923A040E9466070F
:1017500060936C0470936D0480936E0490936F0497
:10176000DF91CF911F910F91FF90EF90DF90CF907D
:1017700008952F923F924F925F926F927F928F9235
:101780009F92AF92BF92CF92DF92EF92FF920F9310
:101790001F93DF93CF93CDB7DEB72C970FB6F89496
:1017A000DEBF0FBECDBF1A821982C5C000D02DB7D3
:1017B0003EB72F5F3F4F3C832B8309811A81000F77
:1017C000111F000F111FF801EA5EFA4F608171814D
:1017D000828193810E94271F6D837E838F839887E8
:1017E0000A531B4FF80160817181828193810E94AD
:1017F000271F1B012C010091220410912304EB846C
:10180000FC84EE0CFF1CEE0CFF1CACE64A2EA5E09F
:101810005A2E4E0C5F1CF20160817181828193818E
:101820000E94271F3B014C0197012A533A4F3A87E8
:101830002987F90160817181828193810E94271F2C
:101840005B016C018091F3039091F403EB81FC81C7
:10185000918380838D819E81B10142E050E022E03E
:1018600030E073016501F7E0AF2EB12CE7E08E2E7A
:10187000912C0E94E1060F900F90892B09F447C02C
:10188000F20160817181828193810E94271F7B0117
:101890008C01E985FA8560817181828193810E9442
:1018A000271F9B01AC01C701B9010E940209F20187
:1018B000608171818281938120E030E040EE50E4CC
:1018C0000E94541E0E94271F7B018C01E985FA8526
:1018D00060817181828193810E94271F9B01AC01ED
:1018E000C701B9010E9402098B859C850E94FC07F3
:1018F00089819A810E94EC0A29813A8121503040E5
:101900003A8329838B859C8501979C878B87EB8500
:10191000FC853196FC87EB87809166049091670483
:101920002B853C85281739070CF440CF89819A8193
:1019300001969A83898380913A0490913B04E981CE
:10194000FA81E817F9071CF41C861B86E5CF2C9654
:101950000FB6F894DEBF0FBECDBFCF91DF911F91C0
:101960000F91FF90EF90DF90CF90BF90AF909F903E
:101970008F907F906F905F904F903F902F90089541
:101980002F923F924F925F926F927F928F929F928F
:10199000AF92BF92CF92DF92EF92FF920F931F937D
:1019A000DF93CF93CDB7DEB72C970FB6F894DEBF99
:1019B0000FBECDBF1A821982C5C000D02DB73EB769
:1019C0002F5F3F4F3C832B8309811A81000F111F2A
:1019D000000F111FF801EA5EFA4F60817181828168
:1019E00093810E94271F6D837E838F8398870A537C
:1019F0001B4FF80160817181828193810E94271FB2
:101A00001B012C010091220410912304EB84FC841F
:101A1000EE0CFF1CEE0CFF1CA8E74A2EA5E05A2E88
:101A20004E0C5F1CF20160817181828193810E9462
:101A3000271F3B014C019701285B3B4F3A872987C1
:101A4000F90160817181828193810E94271F5B016E
:101A50006C0180910F0490911004EB81FC819183C3
:101A600080838D819E81B10142E050E022E030E030
:101A700073016501F7E0AF2EB12CE7E08E2E912CBB
:101A80000E94E1060F900F90892B09F447C0F201E4
:101A900060817181828193810E94271F7B018C016B
:101AA000E985FA8560817181828193810E94271F77
:101AB0009B01AC01C701B9010E943308F2016081AA
:101AC00071818281938120E030E040EA50E40E94FD
:101AD000541E0E94271F7B018C01E985FA856081D5
:101AE0007181828193810E94271F9B01AC01C701F4
:101AF000B9010E9433088B859C850E94C5078981A6
:101B00009A810E94EC0A29813A81215030403A831F
:101B100029838B859C8501979C878B87EB85FC852A
:101B20003196FC87EB8780913804909139042B859E
:101B30003C85281739070CF440CF89819A8101969A
:101B40009A83898380913A0490913B04E981FA81D8
:101B5000E817F9071CF41C861B86E5CF2C960FB6F8
:101B6000F894DEBF0FBECDBFCF91DF911F910F91D3
:101B7000FF90EF90DF90CF90BF90AF909F908F90AD
:101B80007F906F905F904F903F902F9008952F928D
:101B90003F924F925F926F927F928F929F92AF92FD
:101BA000BF92CF92DF92EF92FF920F931F93DF933A
:101BB000CF93CDB7DEB72A970FB6F894DEBF0FBE2E
:101BC000CDBF1A8219828BC000D02DB73EB72F5FD0
:101BD0003F4F3C832B8309811A81000F111F000F97
:101BE000111FF801EA5EFA4F608171818281938151
:101BF0000E94271F6D837E838F8398870A531B4F14
:101C0000F80160817181828193810E94271F1B01ED
:101C10002C010091220410912304E984FA84EE0C33
:101C2000FF1CEE0CFF1CF701EC52FA4F6081718132
:101C3000828193810E94271F3B014C0122E935E0FC
:101C4000E20EF31EF70160817181828193810E940F
:101C5000271F5B016C0180911B0490911C04EB8198
:101C6000FC81918380838D819E81B10142E050E0AF
:101C700022E030E073016501F3E0AF2EB12CE3E028
:101C80008E2E912C0E94E1060F900F90892B99F0D7
:101C900089859A850E94820889819A810E94EC0A2E
:101CA00029813A81215030403A83298389859A8558
:101CB00001979A878987E985FA853196FA87E987B6
:101CC000809136049091370429853A852817390781
:101CD0000CF47ACF89819A8101969A8389838091C5
:101CE0003A0490913B04E981FA81E817F9071CF462
:101CF0001A861986E5CF2A960FB6F894DEBF0FBE76
:101D0000CDBFCF91DF911F910F91FF90EF90DF90AA
:101D1000CF90BF90AF909F908F907F906F905F908B
:101D20004F903F902F9008950E94B90B0E94C00CD5
:101D30000E94C70D08958091530390915403892BFD
:101D400059F48091510390915203892B29F01092FC
:101D500052031092510308958091510390915203C0
:101D6000892B51F481E090E09093540380935303C6
:101D7000909352038093510308958091530390915F
:101D80005403892B59F08091510390915203892B70
:101D900029F010925203109251030895809151033B
:101DA00090915203892B51F481E090E0909352037B
:101DB000809351031092540310925303089510928C
:101DC000900084E08093910081E08093710078948A
:101DD00008951F920F920FB60F9211248F939F9325
:101DE000AF93BF938091440490914504892B99F45B
:101DF0008091680490916904A0916A04B0916B0489
:101E00000196A11DB11D8093680490936904A0936D
:101E10006A04B0936B04BF91AF919F918F910F9023
:101E20000FBE0F901F9018952098219850985198A8
:101E3000279885988698229A0E949B0208950F936E
:101E40001F93CF93DF930E94B51BC0E0D0E080E0EA
:101E500090E0BE0144E550E09E0101E010E00E94E8
:101E6000F81B2196C133D10591F784E190E06AE037
:101E700070E047E051E020E030E00E94AC1D0E949D
:101E8000D11DDF91CF911F910F9108950F931F9353
:101E9000CF93DF93C0E0D0E0CE0167E270E02396FD
:101EA000AE0127E230E001E010E00E94F81B279627
:101EB000CA35D10589F7DF91CF911F910F91089510
:101EC00089B1869580FF0FC060913C0470913D04FC
:101ED00080913E0490913F040E94271FDC01CB01BA
:101EE0000E94340B0BC083B1869580FF03C00E9413
:101EF0009B0E04C0489B02C00E94BD0E81E00E9460
:101F00009F02A0E0B0E0BC01CD010E945A1F20E07A
:101F100030EC4FE754E40E94BF1E60936805709355
:101F2000690580936A0590936B0508956F927F927F
:101F30008F929F92AF92BF92CF92DF92EF92FF92D9
:101F40000F931F93CF93DF9380E00E949F02A0E046
:101F5000B0E0BC01CD010E945A1F20E030E040EF0C
:101F600052E40E94472020E030E040E85AE30E941B
:101F7000472020E030E040E752E40E94531E609387
:101F80003C0470933D0480933E0490933F04C091C1
:101F90004D03D0914E0317E0612E712C6C0E7D1E07
:101FA00070926705609266052DE230E0309361041F
:101FB000209360042BED3FE049E450EC0E94472061
:101FC00020E030E044E353E40E94BF1E7B018C011B
:101FD000C8010E94AA205B016C01882477FC8094D0
:101FE000982CC401B3010E945A1F3B014C01C60149
:101FF000B50120E030E040E850EC0E9447209B0112
:10200000AC01C401B3010E94541E0E94271F7093AB
:10201000910560939005B701C8010E94BC1E20E0A5
:1020200030E040E850EC0E94472020E030E044E3FC
:1020300052E40E94541E0E94271F70937104609303
:102040007004209731F48091530390915403892BAD
:1020500049F4C534D10551F4809153039091540350
:10206000892B21F410925203109251038091510355
:1020700090915203892B99F08091530390915403CE
:10208000892B29F01C161D0654F4219704C0C53471
:10209000D1052CF42196D0934E03C0934D03DF91CC
:1020A000CF911F910F91FF90EF90DF90CF90BF9055
:1020B000AF909F908F907F906F9008952F923F9256
:1020C0004F925F926F927F928F929F92AF92BF9248
:1020D000CF92DF92EF92FF920F931F93DF93CF93F4
:1020E00000D000D0CDB7DEB786E1682E85E0782E2F
:1020F00006EC802E04E0902E22E734E03A83298318
:102100001C821B8233C0F301A080B180C280D380C7
:10211000F4012080318042805380E981FA81E0809F
:10212000F18002811381C601B5010E94271F161696
:1021300017063CF4C201B1010E94271F16161706AC
:10214000FCF08B819C810E94EC0A2B813C812F5FEB
:102150003F4F3C832B8384E090E0680E791E880E0D
:10216000991EE981FA813496FA83E98380913A04D1
:1021700090913B042B813C812817390724F233C00E
:10218000C801B7012BED3FE049E450EC0E94472025
:102190007B018C0120E030E044E353EC0E94BF1E41
:1021A0000E94AA209B01AC01C601B5010E94541EE9
:1021B000F3016083718382839383C801B70120E0B8
:1021C00030E044E353E40E94BF1E0E94BC1E9B010A
:1021D000AC01C201B1010E94531EF40160837183FE
:1021E00082839383B2CF0F900F900F900F90CF9177
:1021F000DF911F910F91FF90EF90DF90CF90BF90F4
:10220000AF909F908F907F906F905F904F903F9096
:102210002F9008950E94B6020EC00E94B51B84E163
:1022200090E064E170E041E151E021E030E00E94A3
:10223000AC1D0E94D11D0E94CF02882371F3089526
:10224000DC010D900020E9F71197A81BB90BBD0127
:102250000E9487030895AF92BF92CF92DF92EF92D0
:10226000FF920F931F93DF93CF93CDB7DEB72A97DB
:102270000FB6F894DEBF0FBECDBF0E94201100E064
:1022800010E07E010894E11CF11C7AE0A72EB12C2D
:102290006DE1C62E61E0D62E36C0C901C0970A97FF
:1022A000C0F5C80153E0880F991F5A95E1F7000F58
:1022B000111F080F191F00531040020F131F8DB775
:1022C0009EB708970FB6F8949EBF0FBE8DBFEDB7AF
:1022D000FEB73196ADB7BEB71296FC92EE9211974B
:1022E000B382A282D582C482378326830E94CD2204
:1022F0008DB79EB708960FB6F8949EBF0FBE8DBFE0
:10230000C7010E9420110E94D2029C019923DCF394
:10231000C4CF80E291E00E942011C8012A960FB636
:10232000F894DEBF0FBECDBFCF91DF911F910F910B
:10233000FF90EF90DF90CF90BF90AF90089583E231
:1023400091E00E942B118634910514F085E490E011
:1023500097FF02C080E090E090934E0380934D037E
:10236000089581E491E00E942B119093C50580931C
:10237000C40508958AE591E00E942B119093C3054E
:102380008093C2050895EF92FF920F931F938C01E3
:102390007B010E94A321E01AF10A0894E11CF11CC0
:1023A000B7010E94F4209C01200F311FC9011F9129
:1023B0000F91FF90EF900895AF92BF92CF92DF926E
:1023C000EF92FF920F931F93CF93DF9381E090E002
:1023D0009093D3058093D20583E090E090936704B7
:1023E00080936604AA24BB2470E060E000E010E063
:1023F000C0E0D0E00F2EF0E0CF2EF0E0DF2EF0E0D6
:10240000EF2EF1ECFF2EF02D2AC080E090E06DE47D
:1024100070E00E94C311AA2797FDA095BA2FBC01B6
:10242000CD010E945A1F5B01782F692F03C010163F
:1024300011065CF3FE01E459FA4F472F562FC501F0
:10244000DA0180839183A283B383FE01EA53FA4FBA
:10245000C082D182E282F3820F5F1F4F2496809167
:10246000660490916704081719070CF30E94830A09
:10247000DF91CF911F910F91FF90EF90DF90CF9060
:10248000BF90AF9008950F931F93CF93DF938091E8
:10249000D2059091D305892B09F04DC006EC15E0CB
:1024A000C0E0D0E031C0F801608171818281938108
:1024B000209168053091690540916A0550916B053E
:1024C0000E94541EF801608371838283938320E00D
:1024D00030E040EE50E40E94541E20E030E040E244
:1024E00052E40E944320882364F0CE010E94FC073E
:1024F0008091C4059091C50501979093C50580937F
:10250000C40521960C5F1F4F80916604909167046B
:10251000C817D90744F2892B71F480913604909141
:102520003704892B41F48091380490913904892B28
:1025300011F40E94DC11DF91CF911F910F9108954A
:102540002F923F924F925F926F927F928F929F92C3
:10255000AF92BF92CF92DF92EF92FF920F931F93B1
:10256000DF93CF9300D000D0CDB7DEB789839A83B5
:102570003A011901270148016B01AA24BB2424C098
:10258000F7018081803219F44114510431F4C801FB
:10259000B60141E050E00E94BD1B8B819C810196F9
:1025A0009C838B830F5F1F4F0894E11CF11CEB8110
:1025B000FC81E615F70524F30894A11CB11C860CD8
:1025C000971C0894C11CD11CA214B30444F4898143
:1025D0009A819C01890174011C821B82E8CF0F90B3
:1025E0000F900F900F90CF91DF911F910F91FF905F
:1025F000EF90DF90CF90BF90AF909F908F907F90A3
:102600006F905F904F903F902F9008952F923F9240
:102610004F925F926F927F928F929F92AF92BF92F2
:10262000CF92DF92EF92FF920F931F93DF93CF939E
:10263000CDB7DEB72A970FB6F894DEBF0FBECDBF79
:10264000DE011196E4E2F4E08AE001900D928150FF
:10265000E1F788249924BAEE2B2EBFEF3B2EABE096
:102660004A2E512C4C0E5D1EF8EC6F2E712C0E94E0
:10267000B51B7E994FC080E090E060E070E047E0DD
:1026800051E021E030E00E94AC1D80E090E06AE083
:1026900070E043E751E021E030E00E94AC1D5E01B4
:1026A0000894A11CB11CF501C080D180C60164E171
:1026B00070E045E150E021E130E002E811E0E1E0C6
:1026C000EE2EF12C0E94A0120894C11CD11CF50121
:1026D000D182C082F5E5CF16D1041CF0F50131821C
:1026E000208282E090E0A80EB91EA414B504D9F6A9
:1026F0000E94D11D0894811C911C88EE93E0F30187
:102700003197F1F70197D9F798EE891693E099067A
:1027100009F0ADCF2A960FB6F894DEBF0FBECDBF3D
:10272000CF91DF911F910F91FF90EF90DF90CF90AD
:10273000BF90AF909F908F907F906F905F904F90E1
:102740003F902F900895AF92BF92CF92DF92EF9279
:10275000FF920F931F93CF93DF93AA24BB24C0E073
:10276000D0E028C0FE01EE5EFA4F60817181828167
:1027700093810E94271F6B017C01FE01EE53FB4FEA
:1027800060817181828193810E94271F9B01AC012E
:102790000091220410912304C601B90142E050E0E7
:1027A00022E030E0E1E0EE2EF12C0E94A01208942D
:1027B000A11CB11C249680913A0490913B04A81668
:1027C000B90684F2DF91CF911F910F91FF90EF90A6
:1027D000DF90CF90BF90AF900895EF92FF920F934C
:1027E0001F9360914F03709150030091BF031091AC
:1027F000C00380914D0390914E034FE050E027E0DD
:1028000030E0F1E0EF2EF12C0E94A0126091600404
:102810007091610440919005509191052091700450
:1028200030917104809166059091670501E010E098
:102830000E94F81B1F910F91FF90EF900895AF92A7
:10284000BF92CF92DF92EF92FF920F931F93CF939D
:10285000DF93AA24BB24C0E0D0E028C0FE01E859E1
:10286000FA4F60817181828193810E94271F6B01E1
:102870007C01FE01EE53FA4F608171818281938168
:102880000E94271F9B01AC010091F3031091F403F8
:10289000C601B90147E050E027E030E0A1E0EA2EB0
:1028A000F12C0E94A0120894A11CB11C24968091C6
:1028B000660490916704A816B90684F2DF91CF915F
:1028C0001F910F91FF90EF90DF90CF90BF90AF904E
:1028D0000895AF92BF92CF92DF92EF92FF920F9343
:1028E0001F93CF93DF93AA24BB24C0E0D0E028C07D
:1028F000FE01EC58FA4F60817181828193810E94C0
:10290000271F6B017C01FE01EC5BFB4F6081718135
:10291000828193810E94271F9B01AC0100910F04CB
:1029200010911004C601B90145E050E025E030E007
:10293000B1E0EB2EF12C0E94A0120894A11CB11C56
:1029400024968091380490913904A816B90684F22F
:10295000DF91CF911F910F91FF90EF90DF90CF907B
:10296000BF90AF900895AF92BF92CF92DF92EF9257
:10297000FF920F931F93CF93DF93AA24BB24C0E051
:10298000D0E028C0FE01E053FA4F6081718182815E
:1029900093810E94271F6B017C01FE01E257FA4FD1
:1029A00060817181828193810E94271F9B01AC010C
:1029B00000911B0410911C04C601B90143E050E0D2
:1029C00023E030E0E1E0EE2EF12C0E94A01208940A
:1029D000A11CB11C24968091360490913704A8164E
:1029E000B90684F2DF91CF911F910F91FF90EF9084
:1029F000DF90CF90BF90AF9008950E94ED130E949A
:102A0000460F0E94A3130E94B3140E9469140E94EF
:102A10001F1408951F93E1E6F0E080E8808311E041
:102A200010830E94140F8FE40E94051E10929000E4
:102A300084E0809391001093710078940E940A11B1
:102A40000E94FD141F9108950E94B51B80914404BB
:102A500090914504892B71F40E94600F0E94960F9B
:102A60000E945E100E9443120E9451090E94BC08FD
:102A70000E94940E0E94FD140E94D11D0895CF93D0
:102A8000DF930E94B51B2A982B9883E290E09093E5
:102A90004E0380934D0389E290E09093500380931E
:102AA0004F03109245041092440410923B0410927C
:102AB0003A0410923904109238041092370410929C
:102AC00036041092C3051092C20585E090E0909301
:102AD000C5058093C4050E94DC11C1E0D0E0D0930D
:102AE0005203C093510380E090E0A0E8BFE38093DD
:102AF0006C0490936D04A0936E04B0936F0480E017
:102B000090E0A0E0B0E08093620490936304A0930F
:102B10006404B093650410926804109269041092E2
:102B20006A0410926B0480E090E062E370E00E941F
:102B3000C3114A972CF0109254031092530304C00F
:102B4000D0935403C09353030E94FD140E94D11DDF
:102B5000DF91CF910895CF92DF92EF92FF920F9382
:102B60001F93CF93DF930E9466077B018C012A9A03
:102B70002B9AC0E0D0E0F8ECCF2ED12C0E94B51BF0
:102B80000E946607A80197010E94531E20E030E0D2
:102B900040E050E40E944320882314F02A982B98A8
:102BA0007E9B03C00E943F152AC07D9B07C081E029
:102BB00090E0909347048093460421C08AE090E01F
:102BC0006AE070E047EE52E021E030E00E94AC1D88
:102BD000C0FD0AC08AE090E064E170E041EF52E09D
:102BE00021E030E00E94AC1D88EE93E0F6013197C1
:102BF000F1F70197D9F721960E94D11DBFCFDF9140
:102C0000CF911F910F91FF90EF90DF90CF9008959B
:102C10008C36910509F456C08D369105A4F484369E
:102C2000910529F1853691052CF48136910509F03D
:102C300051C01AC08736910509F447C088369105FE
:102C400009F048C045C081379105A9F18237910547
:102C500024F480379105F1F51FC082379105C9F042
:102C600087379105B9F506C00E949B0E08950E9412
:102C7000BD0E089560913C0470913D0480913E0426
:102C800090913F040E94271FDC01CB010E94340B6E
:102C900008950E943F15089520E030E0809144049B
:102CA00090914504892B11F421E030E030934504E4
:102CB00020934404089581E090E09093470480932A
:102CC000460408950E94B11108950E94BA11089512
:102CD0000E949F1108950E94D20297FD02C00E9497
:102CE00008160895AF92BF92CF92DF92EF92FF92B3
:102CF0000F931F93DF93CF93CDB7DEB7A1970FB696
:102D0000F894DEBF0FBECDBF0E94B0078C010E94B9
:102D1000A5079C010A301105D4F4CE0146962A304D
:102D200031058CF54DB75EB7485050400FB6F8945A
:102D30005EBF0FBE4DBFEDB7FEB73196ADB7BEB7A4
:102D400012969C938E93119782E093E046C00A30CE
:102D5000110559F18B30910544F18DB79EB7089755
:102D60000FB6F8949EBF0FBE8DBFEDB7FEB731967C
:102D7000CE014696ADB7BEB712969C938E9311972F
:102D800080E193E02AC0ADB7BEB718970FB6F894AC
:102D9000BEBF0FBEADBFEDB7FEB7319612969C9386
:102DA0008E9311978CE193E018C02A30310534F5E9
:102DB0008DB79EB708970FB6F8949EBF0FBE8DBF14
:102DC000EDB7FEB73196CE014696ADB7BEB71296B7
:102DD0009C938E93119789E293E09383828315836A
:102DE0000483378326830E94FE224DB75EB7485F77
:102DF0005F4F0FB6F8945EBF0FBE4DBF00D000D03E
:102E000000D0EDB7FEB731967E010894E11CF11CAD
:102E1000ADB7BEB71296FC92EE92119786E393E09F
:102E2000938382838091C4059091C50595838483A3
:102E30000E94FE22EDB7FEB731968E01055F1F4F4F
:102E4000ADB7BEB712961C930E93119780E493E032
:102E5000938382838091C2059091C3059583848377
:102E60000E94FE224DB75EB74A5F5F4F0FB6F894DF
:102E70005EBF0FBE4DBF8091440490914504892BE5
:102E800041F53CC00E94B51B80E090E060E070E03E
:102E9000A50121E030E00E94AC1D80E090E064E1FB
:102EA00070E0A60121E030E00E94AC1D80E090E0DF
:102EB0006EE170E0A70121E030E00E94AC1D88EED9
:102EC00093E0F8013197F1F70197D9F70E94D11DEE
:102ED00009C0A6E1AA2EB12CAC0EBD1E6701780177
:102EE00008EC10E0189BCECF1092450410924404D9
:102EF0000E94B51B0E94FD140E94D11DA1960FB621
:102F0000F894DEBF0FBECDBFCF91DF911F910F911F
:102F1000FF90EF90DF90CF90BF90AF9008950E9408
:102F20006B16189B0EC020E030E080914404909115
:102F30004504892B11F421E030E0309345042093BF
:102F400044041F9B02C00E9472168FB18295869521
:102F50008695837080FF02C00E943F158FB18295D5
:102F60008695877080FF06C081E090E090934704CB
:102F7000809346048091400490914104892BE1F0B4
:102F80006091C2047091C3048091C4049091C504FF
:102F900020E030E040E050E00E94B81E882351F469
:102FA0000E9466076093C2047093C3048093C404B4
:102FB0009093C5040E949709809142049091430424
:102FC000892BE1F06091C2047091C3048091C40424
:102FD0009091C50420E030E040E050E00E94B81E2F
:102FE000882351F40E9466076093C2047093C3045F
:102FF0008093C4049093C5040E940D0A8091C40577
:103000009091C5051816190614F00E94AB150E9480
:1030100024150895CF93DF9380E090E00E94A821CB
:103020000E940A150E9406130E943F15C8ECD0E0CA
:103030000E948F1788EE93E0FE013197F1F7019718
:10304000D9F78091460490914704892B89F30E9417
:103050001F0F80E090E0DF91CF910895A1E1B0E0F3
:10306000E4E3F8E10C9407213C017F876E876A0155
:10307000FC0117821682838181FD03C06FEF7FEF11
:103080006FC39E012F5F3F4F398B288BF301238144
:10309000EE85FF8523FD859123FF8191FF87EE87D4
:1030A000882309F45AC3853251F4EE85FF8523FD48
:1030B000859123FF8191FF87EE87853229F490E087
:1030C000B3010E94A122E2CF982F10E08824992416
:1030D0001032B0F49B3269F09C3228F4903251F0F7
:1030E000933271F40BC09D3239F0903349F4116082
:1030F00028C01260146025C0186023C0106121C070
:1031000017FD2AC0892F80538A3078F416FF06C035
:10311000FAE09F9E902C1124980E13C03AE0839EF3
:10312000802C1124880E10620CC09E3221F416FDF2
:1031300014C3106406C09C3611F4106802C098369F
:1031400059F4EE85FF8523FD959123FF9191FF872B
:10315000EE87992309F0BCCF892F8554833020F462
:10316000812F8061905E07C0892F8556833008F0DB
:103170009FC1812F8F7E86FD02C076E0972E6FE380
:10318000F62EF822953619F4F0E4FF2A07C0963699
:1031900019F420E8F22A02C091109A94F7FE0AC0AE
:1031A0003BE3391518F45CE3B52E02C0B92CB39497
:1031B00027E009C047E0491520F4BB2447E0942EDE
:1031C000F7CF292DBB24C60104969D878C87F60175
:1031D0006081718182819381AE014F5F5F4F0B2DC2
:1031E0000E94B3216C010981202E332400FF04C00A
:1031F00003FD02C01DE209C0F1FE02C01BE205C0D2
:10320000F2FC02C010E001C010E2C1018C709070AD
:10321000892BB9F1112311F483E001C084E08815F2
:1032200010F088240AC0881AF3FC07C080E290E0FE
:10323000B3010E94A1228A94C9F7112329F0812F9A
:1032400090E0B3010E94A12223FE03C005E112E039
:103250000EC009E112E00BC0E114F10409F0805244
:1032600090E0B3010E94A1220F5F1F4F05C0EF2C19
:10327000FF24F0E1EF22FF24F8018491882361F715
:1032800014C1F7FE12C0BC0C24FE04C08A81813335
:1032900009F4BA941B141CF0BB24B3942DC0F8E0BD
:1032A000FB1550F538E0B32E27C0F6FC25C0892D5C
:1032B00090E08C159D054CF02CEFC2162FEFD20636
:1032C00024F030E8F32A01C09A94992049F0E2E012
:1032D000F0E0EC0FFD1FE90DF11D80818033A1F3BB
:1032E000F7FE0AC0B92CB394892D90E0C816D90610
:1032F00014F0992401C09C18F7FC03C025E030E0CD
:1033000009C01C141D041CF021E030E003C096012C
:103310002F5F3F4F112311F02F5F3F4F992029F06E
:10332000892D90E00196280F391F882D90E02817ED
:10333000390714F0882401C0821A4F2C5524C20189
:1033400089709070892B39F008C080E290E0B30159
:103350000E94A1228A948820C1F7112329F0812F8D
:1033600090E0B3010E94A12243FE07C008C080E3A1
:1033700090E0B3010E94A1228A948820C1F7F7FE51
:1033800046C08601D7FE02C000E010E07601089436
:10339000E11CF11CE01AF10A41E050E04C0F5D1F06
:1033A000E40EF51E26014B185108892D90E0AA2441
:1033B000BB24A81AB90A5FEF0F3F150729F48EE264
:1033C00090E0B3010E94A122C016D10634F040164D
:1033D00051061CF4F701808101C080E301501040C8
:1033E0000894E11CF11C0A151B052CF090E0B301B8
:1033F0000E94A122E0CF0C151D0539F49A81963365
:1034000018F4953311F424FE81E390E04BC08A81D7
:10341000813309F00F7E90E0B3010E94A122992030
:10342000A1F08EE290E0B3010E94A12212E0E1E05F
:10343000F0E0EC0FFD1FE10FF11D1F5F808190E0B8
:10344000B3010E94A1229A9491F744FC03C085E63F
:1034500090E002C085E490E0B3010E94A122D7FC75
:1034600005C0C114D10441F404FF06C0D094C19436
:10347000D108D3948DE201C08BE290E0B3010E94A9
:10348000A12280E305C08F5F26EF3FEFC20ED31E5F
:103490003AE0C316D104BCF790E0B3010E94A12228
:1034A000C601C096B3010E94A122CC84DD8452C122
:1034B000933631F0933799F0933509F059C023C012
:1034C000F601808189835E010894A11CB11C22E071
:1034D00030E0C20ED31E21E0E22EF12C12C0F60124
:1034E000A080B18016FD03C06FEF7FEF02C0692D91
:1034F00070E022E030E0C20ED31EC5010E94962289
:103500007C011F7713C0F601A080B18016FD03C0B7
:103510006FEF7FEF02C0692D70E022E030E0C20E55
:10352000D31EC5010E948B227C01106813FF07C0C7
:103530001BC080E290E0B3010E94A1228A94882DF2
:1035400090E0E816F906A8F30FC0F50117FD859184
:1035500017FF81915F0190E0B3010E94A1228110C9
:103560008A940894E108F108E114F10471F7F2C0BB
:10357000943611F0993689F517FF08C0F6012081BD
:1035800031814281538184E090E00AC0F60180815C
:1035900091819C01442737FD4095542F82E090E0B3
:1035A000C80ED91E9FE6F92EF12257FF09C050958B
:1035B0004095309521953F4F4F4F5F4F90E8F92A46
:1035C000CA01B901AE014F5F5F4F2AE030E00E94AF
:1035D0002223E82EE889EE1A41C0953721F41F7E98
:1035E0002AE030E01CC0197F9F3661F0903720F44C
:1035F000983509F0B2C00FC0903739F0983709F00C
:10360000ACC004C028E030E00AC0106114FD1460B2
:1036100020E130E004C014FD166020E132E017FF25
:1036200008C0F601608171818281938144E050E09D
:1036300008C0F60180819181BC0180E090E042E009
:1036400050E0C40ED51EAE014F5F5F4F0E94222393
:10365000E82E5889E51A8FE7F82EF122F6FE0BC006
:103660008EEFF822E91438F4F4FE07C0F2FC05C02E
:103670009FEEF92202C01E2D01C0192DF4FE0DC0CF
:10368000FE01EE0DF11D8081803319F4E9EEFE227A
:1036900008C01F5FF2FE05C003C08F2D867809F0B9
:1036A0001F5F0F2DF3FC14C0F0FE0FC0181510F0B3
:1036B0009E2C0BC09E2C980C911A182D06C080E2EF
:1036C00090E0B3010E94A1221F5F1815C0F304C04F
:1036D000181510F4811A01C0882404FF0FC080E37C
:1036E00090E0B3010E94A12202FF1DC001FD03C0B2
:1036F00088E790E00EC088E590E00BC0802F8678C8
:1037000091F001FF02C08BE201C080E2F7FC8DE284
:1037100090E0B3010E94A12206C080E390E0B301D3
:103720000E94A1229A94E914C0F3EA94E1E0F0E047
:10373000EC0FFD1FEE0DF11D808190E0B3010E94A2
:10374000A122EE2091F706C080E290E0B3010E9432
:10375000A1228A948820C1F799CCF30166817781F0
:10376000CB016196E2E10C942321E4E0F6E01192B2
:1037700087E0EC3FF807D9F708959C0197FD37C023
:1037800077FD35C08435910594F5603371057CF57E
:10379000CB0173E0959587957A95E1F76770452B96
:1037A00099F0E4E58E9FF0011124E20FF31FEC5F26
:1037B000F94F81E090E002C0880F991F6A95E2F707
:1037C0002081282B20830895E4E58E9FF0011124A9
:1037D000E20FF31FEC5FF94F81E090E002C0880F29
:1037E000991F6A95E2F78095208128232083089508
:1037F0002F923F924F925F926F927F928F929F9201
:10380000AF92BF92CF92DF92EF92FF920F931F93EE
:10381000DF93CF93CDB7DEB72E970FB6F894DEBF08
:103820000FBECDBF7C016B014A0139011C870B879C
:1038300084179507F9F45B0110C0C701B5014B85EA
:103840005C850E94BD1BC614D70424F40894A11CF7
:10385000B11C03C00894A108B108C614D7042CF405
:103860006A147B040CF4FDC0E8CFA614B7040CF472
:10387000F8C0E3CF62177307F9F45C0110C0C5010B
:10388000B6014B855C850E94BD1BE814F90424F445
:103890000894A11CB11C03C00894A108B108E81445
:1038A000F9042CF48A149B040CF4DBC0E8CFA814B0
:1038B000B9040CF4D6C0E3CF4817590724F44701E4
:1038C0007A013B016901B4016E197F09882777FDF0
:1038D0008095982F0E945A1F6F83788789879A87CF
:1038E000B3016C197D09882777FD8095982F0E9478
:1038F0005A1F6B837C838D839E832F8138854985F6
:103900005A850E94BF1E1B012C0120E030E040E0E0
:1039100050E00E94432087FF04C057FA509457F8A4
:103920005094DA82C9820F2EF0E0AF2EF0E0BF2E65
:10393000F0E0CF2EF0E0DF2EF02D7FC0C7016981CF
:103940007A814B855C850E94BD1BC601B501A20131
:1039500091010E94541E3BC0C70169817A814B8549
:103960005C850E94BD1B1E861D866B817C818D81BE
:103970009E8120E030E040E050E00E944320181695
:1039800024F421E030E03E872D8700E010E06B81D9
:103990007C818D819E8120E030E040E050E00E94FB
:1039A000B81E882314F401E010E08D859E85801BED
:1039B000910BE981FA81E80FF91FFA83E983C601C7
:1039C000B50120E030E040E85FE30E94531E5B0158
:1039D0006C0120E030E040E05FE30E944320882358
:1039E000CCF06B817C818D819E8120E030E040E0D5
:1039F00050E00E94432018163CF429813A81621657
:103A000073060CF0A9CF06C089819A8186159705A7
:103A10000CF0A2CF6F81788589859A8520E030E00F
:103A200040E050E00E944320181624F40894E11C62
:103A3000F11C03C00894E108F1086F81788589853D
:103A40009A8520E030E040E050E00E9443201816C4
:103A500024F48E149F042CF071CFE814F9040CF0B8
:103A60006DCF2E960FB6F894DEBF0FBECDBFCF91AF
:103A7000DF911F910F91FF90EF90DF90CF90BF905B
:103A8000AF909F908F907F906F905F904F903F90FE
:103A90002F9008954F925F926F927F928F929F9294
:103AA000AF92BF92CF92DF92EF92FF920F931F934C
:103AB000CF93DF933B01490125E0429FA0011124F0
:103AC000ADE7EA2EA1E0FA2EE40EF51E8C01F1E03E
:103AD0004F2E512CE2E8AE2EE1E0BE2EA40EB51E14
:103AE000F70184918114910409F48095C0E0D0E03D
:103AF000C82EDD24BE01660D771DA2010C2E02C06A
:103B0000440F551F0A94E2F74C215D210C2E02C090
:103B1000559547950A94E2F7C8010E94BD1B21966E
:103B2000C830D10539F70894E11CF11C0F5F1F4F15
:103B3000EA14FB04A9F6DF91CF911F910F91FF903A
:103B4000EF90DF90CF90BF90AF909F908F907F903D
:103B50006F905F904F900895CF92DF92EF92FF9217
:103B60000F931F93CF93DF936B017A01E901082F25
:103B700010E008C0802F90E0B6019E010E944A1D0F
:103B80000B5F1F5FF701E10FF11D4081442391F7A7
:103B9000DF91CF911F910F91FF90EF90DF90CF9029
:103BA0000895CF93DF9380E060E00E94461EC4E05A
:103BB000D6E081E069910E94E41D87E0CC3FD80700
:103BC000C1F7DF91CF91089595B18295880F807EDE
:103BD0009F7D982B95B95F9827E030E070E08F9833
:103BE000CB01022E02C0959587950A94E2F780FFDB
:103BF00002C02E9A01C02E988F9A215030408FEF2C
:103C00002F3F380761F75F9A08951F93182F579A2F
:103C1000249A259A269A879A2C985F9A2C9A80E063
:103C200061E20E94E41D106880E0612F0E94E41DA3
:103C300080E064E00E94E41D80E063E10E94E41DF6
:103C400080E06CE00E94E41D80E060E20E94E41DE0
:103C500080E06CE00E94E41D80E060E40E94E41DCE
:103C600080E060E80E94E41D1F910895CF93DF93E8
:103C7000C0E0D0E081E060E00E94E41D219681E098
:103C8000C83FD807B9F7DF91CF9108951F93182F38
:103C9000606480E00E94E41D106880E0612F0E9453
:103CA000E41D1F9108955058BB27AA270ED0A0C12C
:103CB00069D130F06ED120F031F49F3F11F41EF441
:103CC0005EC10EF4E095E7FB54C1E92FB3D180F358
:103CD000BA17620773078407950718F071F49EF509
:103CE000CBC10EF4E0950B2EBA2FA02D0B01B9011C
:103CF00090010C01CA01A0011124FF27591B99F062
:103D0000593F50F4503E68F11A16F040A22F232F6D
:103D1000342F4427585FF3CF469537952795A795BD
:103D2000F0405395C9F77EF41F16BA0B620B730B64
:103D3000840BBAF09150A1F0FF0FBB1F661F771FD5
:103D4000881FC2F70EC0BA0F621F731F841F48F48A
:103D5000879577956795B795F7959E3F08F0B3CF10
:103D60009395880F08F09927EE0F979587950895FA
:103D7000DCD008F481E0089514D1E3954AC10CD059
:103D800037C107D140F0FED030F021F45F3F19F089
:103D9000F0C0511172C1F3C04DD198F39923C9F30A
:103DA0005523B1F3951B550BBB27AA276217730741
:103DB000840738F09F5F5F4F220F331F441FAA1FF5
:103DC000A9F333D00E2E3AF0E0E830D091505040B5
:103DD000E695001CCAF729D0FE2F27D0660F771F63
:103DE000881FBB1F261737074807AB07B0E809F045
:103DF000BB0B802DBF01FF2793585F4F2AF09E3FDA
:103E0000510568F0B6C039C15F3FECF3983EDCF372
:103E1000869577956795B795F7959F5FC9F7880F52
:103E2000911D9695879597F90895E1E0660F771FA4
:103E3000881FBB1F621773078407BA0720F0621B35
:103E4000730B840BBA0BEE1F88F7E095089504D02E
:103E50006894B11112C10895F5D088F09F5790F081
:103E6000B92F9927B751A0F0D1F0660F771F881F9F
:103E7000991F1AF0BA95C9F712C0B13081F0FCD081
:103E8000B1E00895F9C0672F782F8827B85F39F01F
:103E9000B93FCCF3869577956795B395D9F73EF4FE
:103EA00090958095709561957F4F8F4F9F4F0895A6
:103EB000E89409C097FB3EF49095809570956195C4
:103EC0007F4F8F4F9F4F9923A9F0F92F96E9BB277A
:103ED0009395F695879577956795B795F111F8CFF6
:103EE000FAF4BB0F11F460FF1BC06F5F7F4F8F4F61
:103EF0009F4F16C0882311F096E911C0772321F057
:103F00009EE8872F762F05C0662371F096E8862FEE
:103F100070E060E02AF09A95660F771F881FDAF745
:103F2000880F9695879597F90895990F0008550F72
:103F3000AA0BE0E8FEEF16161706E807F907C0F02F
:103F400012161306E407F50798F0621B730B840B37
:103F5000950B39F40A2661F0232B242B252B21F411
:103F600008950A2609F4A140A6958FEF811D811DB1
:103F7000089597F99F6780E870E060E008959FEFEB
:103F800080EC089500240A941616170618060906F0
:103F9000089500240A9412161306140605060895BF
:103FA000EECF50D0E8F3E894E0E0BB279F57F0F065
:103FB0002AED3FE049EC06C0EE0FBB0F661F771FEE
:103FC000881F28F0B23A62077307840728F0B25AB4
:103FD000620B730B840BE3959A9572F7803830F47B
:103FE0009A95BB0F661F771F881FD2F79048BAC0FB
:103FF000092E0394000C11F4882352F0BB0F40F4F7
:10400000BF2B11F460FF04C06F5F7F4F8F4F9F4F36
:104010000895EF93E0FF06C0A2EA2AED3FE049ECE5
:104020005FEB53DEE5DF0F90039401FC9058EEE266
:10403000F1E0A4C057FD9058440F551F59F05F3F61
:1040400071F04795880F97FB991F61F09F3F79F0BA
:1040500087950895121613061406551FF2CF46953C
:10406000F1DF08C0161617061806991FF1CF8695BE
:104070007105610508940895E894BB2766277727A2
:10408000CB0197F9089551DF08F48FEF08950BD015
:10409000AFCF78DF28F07DDF18F0952309F069CFE6
:1040A0006ECF1124EACFC6DFA0F3959FD1F3950F11
:1040B00050E0551F629FF001729FBB27F00DB11DAC
:1040C000639FAA27F00DB11DAA1F649F6627B00D3C
:1040D000A11D661F829F2227B00DA11D621F739F25
:1040E000B00DA11D621F839FA00D611D221F749F33
:1040F0003327A00D611D231F849F600D211D822F7A
:10410000762F6A2F11249F5750408AF0E1F08823C0
:104110004AF0EE0FFF1FBB1F661F771F881F9150CD
:104120005040A9F79E3F510570F023CFA6CF5F3FC7
:10413000ECF3983EDCF3869577956795B795F79500
:10414000E7959F5FC1F7FE2B880F911D9695879588
:1041500097F908959F9325DF0F9007FCEE5F59CFE5
:104160009F3F31F0915020F4879577956795B795EB
:10417000880F911D9695879597F908959F938F9332
:104180007F936F93FF93EF939B01AC0180DFEF91DF
:10419000FF9105D02F913F914F915F9178CFDF93A1
:1041A000CF931F930F93FF92EF92DF927B018C01CD
:1041B000689405C0DA2EEF0176DFFE01E894A59140
:1041C0002591359145915591AEF3EF017EDDFE01CC
:1041D0009701A801DA9479F7DF90EF90FF900F91A3
:1041E0001F91CF91DF91089597FB092E07260AD0E2
:1041F00077FD04D043D006D000201AF47095619565
:104200007F4F0895F6F7909581959F4F08952F92CF
:104210003F924F925F926F927F928F929F92AF9256
:10422000BF92CF92DF92EF92FF920F931F93CF93A3
:10423000DF93CDB7DEB7CA1BDB0B0FB6F894DEBF3A
:104240000FBECDBF09942A88398848885F846E8460
:104250007D848C849B84AA84B984C884DF80EE80AA
:10426000FD800C811B81AA81B981CE0FD11D0FB6B3
:10427000F894DEBF0FBECDBFED010895AA1BBB1B96
:1042800051E107C0AA1FBB1FA617B70710F0A61B56
:10429000B70B881F991F5A95A9F780959095BC0177
:1042A000CD010895A0E0B0E0E8E5F1E20C940F2123
:1042B000EC01A880B980CA80DB80A114B104C104DC
:1042C000D10441F484E2A82E89EDB82E8BE5C82EE6
:1042D00087E0D82EC601B5012DE133EF41E050E073
:1042E0000E949F2327EA31E440E050E00E948023AF
:1042F0007B018C01C601B5012DE133EF41E050E0B7
:104300000E949F23CA01B9012CEE34EF4FEF5FEFFB
:104310000E9480236E0D7F1D801F911F97FF04C098
:104320006150704080409048688379838A839B8382
:104330009B013F77C901CDB7DEB7EAE00C942B2192
:104340000E94522108958EE294E00E945221089525
:10435000A0E0B0E080932E0490932F04A09330044B
:10436000B09331040895283008F027E03327DA01AC
:10437000990F311D87FD916000966105710539F433
:1043800032602E5F3D9330E32A95E1F708959F3F19
:1043900030F080387105610509F03C5F3C5F3D936A
:1043A000913008F08068911DDF93CF931F930F9396
:1043B000FF92EF92192F987F9695E92F96959695F3
:1043C000E90FFF27E95AFB4F99273327EE24FF24F3
:1043D000A701E70105900894079428F4360FE71E1B
:1043E000F81E491F511D660F771F881F991F0694DD
:1043F000A1F70590079428F4E70EF81E491F561FF1
:10440000C11D770F881F991F661F0694A1F705909D
:10441000079428F4F80E491F561FC71FD11D880F97
:10442000991F661F771F0694A1F70590079420F443
:10443000490F561FC71FD81F990F661F771F881F68
:104440000694A9F784911095177041F0D695C795F9
:1044500057954795F794E7941A95C1F7EDEFF3E078
:1044600068941590159135916591959105907FE22D
:104470007395E118F10A430B560BC90BD009C0F72D
:10448000E10CF11E431F561FC91FD01D7EF470336F
:1044900011F48A95E6CFE894015030F0080F0AF441
:1044A0000027021708F4202F2395022F7A3328F0D3
:1044B00079E37D932A95E9F710C07D932A9589F6D3
:1044C000069497956795379517951794E118F10A13
:1044D000430B560BC90BD00998F023957E91739529
:1044E0007A3308F070E37C932013B8F77E91706103
:1044F0007D9330F0839571E37D9370E32A95E1F726
:104500001124EF90FF900F911F91CF91DF91992788
:1045100087FD90950895FC01059061507040011051
:10452000D8F7809590958E0F9F1F0895FC016150DC
:10453000704001900110D8F7809590958E0F9F1FC5
:1045400008950F931F93CF93DF938C01EB018B8121
:1045500081FF1BC082FF0DC02E813F818C819D8118
:104560002817390764F4E881F9810193F983E88316
:1045700006C0E885F985802F0995892B31F48E8155
:104580009F8101969F838E8302C00FEF1FEFC801AA
:10459000DF91CF911F910F910895AEE0B0E0E3ED70
:1045A000F2E20C9415210D891E898F89988D97FF51
:1045B00002C080E090E801979E838D831A8309836F
:1045C00086E08C839E01255E3F4FCE010196698D6A
:1045D0007A8DA9010E942E184D815E8157FD0AC077
:1045E0002F813885421753070CF49A01020F131FCD
:1045F000F80110822E96E4E00C943121AEE0B0E098
:10460000E4E0F3E20C9415210D891E8986E08C8389
:104610001A8309838FEF9FE79E838D839E01275E18
:104620003F4FCE0101966F89788DA9010E942E1807
:104630002F813885020F131FF80110822E96E4E0B7
:104640000C943121FA01AA27283051F1203181F14F
:10465000E8946F936E7F6E5F7F4F8F4F9F4FAF4F8A
:10466000B1E03ED0B4E03CD0670F781F891F9A1F9D
:10467000A11D680F791F8A1F911DA11D6A0F711D51
:10468000811D911DA11D20D009F468943F912AE05D
:10469000269F11243019305D3193DEF6CF01089545
:1046A000462F4770405D4193B3E00FD0C9F7F6CF76
:1046B000462F4F70405D4A3318F0495D31FD40523E
:1046C000419302D0A9F7EACFB4E0A69597958795D4
:1046D00077956795BA95C9F70097610571050895B3
:1046E0009B01AC010A2E069457954795379527955F
:1046F000BA95C9F7620F731F841F951FA01D0895F7
:10470000629FD001739FF001829FE00DF11D649FB5
:10471000E00DF11D929FF00D839FF00D749FF00D41
:10472000659FF00D9927729FB00DE11DF91F639FE2
:10473000B00DE11DF91FBD01CF011124089597FBB4
:10474000092E05260ED057FD04D014D00AD0001C27
:1047500038F450954095309521953F4F4F4F5F4F1E
:104760000895F6F790958095709561957F4F8F4FDE
:104770009F4F0895A1E21A2EAA1BBB1BFD010DC07D
:10478000AA1FBB1FEE1FFF1FA217B307E407F50701
:1047900020F0A21BB30BE40BF50B661F771F881FDD
:1047A000991F1A9469F760957095809590959B0173
:0C47B000AC01BD01CF010895F894FFCFCB
:1047BC0000E100000000086E3130303039363731FE
:1047CC0000434F4E4E454354205553420025630041
:1047DC000D0A004D6F7665207468652073686970EA
:1047EC0020746F20636F6F72696E646174653A2018
:1047FC00005365742074686520706C61796572274C
:10480C0073206C697665733A200053657420746864
:10481C006520706C6179657227732073636F7265A4
:10482C003A20004153532041504F43414C5953457A
:10483C0021006F6F6F6F6F6F6F6F6F6F6F6F6F6F39
:10484C006F6F6F6F6F6F6F6F2020202020202020E4
:10485C0020202020202020202020206F6F202020AE
:10486C006F6F6F6F6F0920206F6F6F6F6F20206FEE
:10487C006F20202020206F20202020202020206F3F
:10488C00202020206F6F2020206F6F6F6F6F2020F3
:10489C0020206F6F6F6F6F20206F6F2020202020E3
:1048AC0020202020202020202020202020206F6F5E
:1048BC0020202020202020206F202020202020209D
:1048CC002020206F6F2020202020202020206F20EF
:1048DC0020202020202020206F6F2020202020202E
:1048EC00202020206F20202020202020206F6F20CF
:1048FC00202020202020206F6F6F6F202020202070
:10490C0020206F6F202020202020202020202020FD
:10491C00202020202020206F6F2020206F6F6F6FB1
:10492C006F6F6F6F6F6F6F6F6F6F20206F6F2020C7
:10493C0020206F202020202020202020206F2020CD
:10494C00206F6F20202020206F202020202020206E
:10495C00206F202020206F6F2020202020206F6FC0
:10496C006F6F6F6F6F2020202020206F6F20202012
:10497C00202020202020202020202020202020202B
:10498C006F6F6F6F6F6F6F6F6F6F6F6F6F6F6F6F2B
:10499C006F6F6F6F6F6F0047414D45204F564552FB
:1049AC000052455354415254204F522051554954B2
:1049BC00210054696D653A203025643A3025640035
:1049CC0054696D653A2025643A25640054696D6517
:1049DC003A203025643A25640054696D653A2025E7
:1049EC00643A302564004C697665733A202564007E
:1049FC00506F696E74733A202564001400230029EB
:104A0C000001000100202020202020202020202038
:104A1C00202020202020202020202020202020208A
:104A2C00202020202020202020202020202020207A
:104A3C00202020202020202020202020202020206A
:104A4C00206F6F2020206F6F6F6F6F2020206F6F93
:104A5C006F6F6F6F6F6F6F6F6F6F6F6F6F6F6F6F5A
:104A6C006F2020206F6F6F6F6F2020206F6F0055AD
:104A7C00032020206F20202020206F6F6F2020200B
:104A8C006F6F6F6F6F206F6F6F6F6F6F6F206F6FC8
:104A9C006F6F6F2020206F6F6F20202020206F20E1
:104AAC00202000C10320206F2020206F6F6F206F0B
:104ABC006F6F6F6F206F6F6F2020206F202000F5BD
:104ACC0003206F206F6F6F206F200011046F6F6FCA
:104ADC006F001D04EBFF000016002B0041000100CD
:024AEC000000C8
:00000001FF
