:100000000C947C020C9499020C9499020C94990221
:100010000C9499020C9499020C9499020C949902F4
:100020000C9499020C9499020C9400050C943B05D5
:100030000C9499020C9499020C9499020C949902D4
:100040000C9499020C9499020C9499020C949902C4
:100050000C9499020C9499020C9499020C949902B4
:100060000C9499020C9499020C9499020C949902A4
:100070000C9499020C9499020C9499020C94990294
:100080000C9499020C9499020C9499020C94E90E28
:100090000C9499020C9499020C9499020C94990274
:1000A0000C9499020C9499020C9499029504920470
:1000B0008F048C0489048604830480047D047A04FC
:1000C0007704740471046E046B04680465046204AC
:1000D0005F045C0459045604530450044D044A045C
:1000E0004704440441043E043B043804350432040C
:1000F0002F042C0429042604230420041D041A04BC
:100100001704140411040E040B040804050402046B
:10011000FF03FC03F903F603F303F003ED03EA0323
:10012000E703E403E103DE03DB03D803D50305A8FB
:100130004CCDB2D44EB93836A9020C50B99186884C
:10014000083CA6AAAA2ABE000000803F00010000C9
:100150008001120002000092014300030000D5015B
:100160000401030904D9011402030904EF01160371
:1001700003090407020C0001C11201803601813617
:100180001201000202000010C0167A0400010102F0
:10019000030109024300020100C03209040000010A
:1001A00002020100052400100105240101010424BC
:1001B0000206052406000107058203100040090419
:1001C0000100020A000000070503024000000705C5
:1001D000840240000004030904140359006F0075F1
:1001E00000720020004E0061006D006500000016E6
:1001F000035500530042002000530065007200695F
:100200000061006C0000000C033100320033003448
:1002100000350000006E616E00696E66000000002F
:10022000000000005F00000007000700147F147F3B
:1002300014242A7F2A122313086462364955225057
:100240000005030000001C2241000041221C001494
:10025000083E081408083E0808005030000008084E
:10026000080808006060000020100804023E5149A0
:10027000453E00427F400042615149462141454B85
:10028000311814127F1027454545393C4A494930F9
:1002900001710905033649494936064949291E00B5
:1002A00036360000005636000008142241001414AF
:1002B000141414004122140802015109063249792C
:1002C000413E7E1111117E7F494949363E414141EF
:1002D000227F4141221C7F494949417F0909090187
:1002E0003E4149497A7F0808087F00417F4100204C
:1002F00040413F017F081422417F404040407F023F
:100300000C027F7F0408107F3E4141413E7F090976
:1003100009063E4151215E7F09192946464949494E
:100320003101017F01013F4040403F1F2040201F1D
:100330003F4038403F6314081463070870080761A2
:1003400051494543007F414100020408102000410B
:10035000417F00040201020440404040400001028D
:10036000040020545454787F48444438384444446A
:1003700020384444487F3854545418087E090102F8
:100380000C5252523E7F0804047800447D40002005
:1003900040443D007F1028440000417F40007C0421
:1003A0001804787C0804047838444444387C1414D5
:1003B0001408081414187C7C080404084854545485
:1003C00020043F4440203C4040207C1C2040201C16
:1003D0003C4030403C44281028440C5050503C4491
:1003E00064544C44000836410000007F0000004186
:1003F0003608001008081008784641467800407A10
:1004000010F35A00A0724E18090010A5D4E800009D
:10041000E87648170000E40B54020000CA9A3B003B
:100420000000E1F505000080969800000040420FB2
:10043000000000A08601000000102700000000E876
:1004400003000000006400000000000A000000003B
:10045000000100000000002C76D888DC674F0823DC
:10046000DFC1DFAE59E1B1B796E5E3E453C63AE642
:1004700051997696E8E6C28426EB898C9B62ED4022
:100480007C6FFCEFBC9C9F40F2BAA56FA5F4900571
:100490005A2AF75C936B6CF9676DC11BFCE0E40DA5
:1004A00047FEF520E6B500D0ED902E030094357799
:1004B000050080841E080000204E0A000000C80CC1
:1004C000333333330F986E12831141EF8D2114892A
:1004D0003BE65516CFFEE6DB18D1844B381BF77C84
:1004E0001D901DA4BBE424203284725E228100C9C9
:1004F000F124ECA1E53D270011241FBECFEFDAE087
:10050000DEBFCDBF16E0A0E0B1E0ECE5FBE402C049
:1005100005900D92AE39B107D9F71AE0AEE9B6E011
:1005200001C01D92A836B107E1F70E94DA190C94B8
:10053000AC250C94000087E880937A000895982FEA
:100540009F71906490937C00807280937B00809177
:100550007A00806480937A0080917A0086FDFCCFD7
:100560002091780030917900C901089581E080934D
:10057000D70080EA8093D80082E189BD09B400FEEB
:10058000FDCF80E98093D8001092E00010929E0683
:1005900010929F068CE08093E200789408958091F9
:1005A0009E0608952FB7F89480919E06882369F0DF
:1005B00083E08093E9009BE68091E80085FD09C017
:1005C00082FF03C09093E800F7CF2FBF2FEF3FEFDC
:1005D0000CC09091F1008091E80085FD03C08BE68E
:1005E0008093E8002FBF292F30E0C90108952FB76D
:1005F000F89480919E06882311F490E010C083E067
:100600008093E9009091F200992349F48091E800E9
:1006100082FF05C085FD03C08BE68093E8002FBFF5
:10062000892F089580919E06882371F09FB7F894D2
:1006300083E08093E9002BE602C02093E8008091DC
:10064000E80085FDFACF9FBF0895482F80919E0650
:100650008823D9F12FB7F89484E08093E900809142
:10066000A106882341F08091E80085FD02C02FBFDC
:1006700012C01092A1069091E400975E34E0809140
:10068000E80085FD13C02FBF8091E400891729F48D
:1006900081E08093A1068FEF089580919E068823C4
:1006A000A1F02FB7F8943093E900E9CF4093F1001F
:1006B0008091E80085FD03C08AE38093E80085E02F
:1006C0008093A0062FBF80E008958FEF0895282F14
:1006D00080919E06882351F09FB7F89484E0809320
:1006E000E9008091E80085FD03C09FBF8FEF08956A
:1006F0002093F1008091E80085FD03C08AE3809398
:10070000E80085E08093A0069FBF80E00895CF9326
:10071000DF93EC0180919E06882309F41CC13FB74A
:10072000F89484E08093E9008091A106882309F47D
:1007300008C18091E80085FD02C03FBF0CC1109246
:10074000A106FFC09091E400975E8091E80085FDCE
:1007500013C03FBF8091E400891721F481E08093AA
:10076000A106F9C080919E06882309F4F4C03FB722
:10077000F894B093E900E9CF8091F200242F281B70
:10078000822F90E06817790708F4262F822F90E0D7
:100790008134910508F0C6C08A5A9F4FFC01EE0FC4
:1007A000FF1F0590F491E02D099489918093F10049
:1007B00089918093F10089918093F10089918093D0
:1007C000F10089918093F10089918093F1008991E2
:1007D0008093F10089918093F10089918093F100D9
:1007E00089918093F10089918093F10089918093A0
:1007F000F10089918093F10089918093F1008991B2
:100800008093F10089918093F10089918093F100A8
:1008100089918093F10089918093F100899180936F
:10082000F10089918093F10089918093F100899181
:100830008093F10089918093F10089918093F10078
:1008400089918093F10089918093F100899180933F
:10085000F10089918093F10089918093F100899151
:100860008093F10089918093F10089918093F10048
:1008700089918093F10089918093F100899180930F
:10088000F10089918093F10089918093F100899121
:100890008093F10089918093F10089918093F10018
:1008A00089918093F10089918093F10089918093DF
:1008B000F10089918093F10089918093F1008991F1
:1008C0008093F10089918093F10089918093F100E8
:1008D00089918093F10089918093F10089918093AF
:1008E000F10089918093F10089918093F1008991C1
:1008F0008093F10089918093F10089918093F100B8
:1009000089918093F10089918093F100899180937E
:10091000F10089918093F10089918093F100899190
:100920008093F10089918093F1008091E80085FD2A
:1009300002C05093E800621B7109A093A0063FBF5C
:1009400004C0B4E040E45AE3A5E06115710509F084
:10095000F9CE80E001C08FEFDF91CF9108959FB76E
:10096000F8948091A006882341F084E08093E90008
:100970008AE38093E8001092A0069FBF08956091DB
:10098000000170910101809102019091030108958D
:1009900080910401089580910501089580910601D8
:1009A000089580919F060895282F9FB7F89480910D
:1009B0009E06882339F082E08093E9008091E80068
:1009C00085FD03C09FBF8FEF089581EA8093F100FA
:1009D00080E28093F1001092F1001092F1001092E9
:1009E000F1001092F10081E08093F1001092F1008B
:1009F0002093F1008AE38093E8009FBF80E0089590
:100A00001F920F920FB60F9211248F939F93809194
:100A1000E1001092E100982F83FF11C01092E900CD
:100A200081E08093EB001092EC0082E18093ED0076
:100A300088E08093F00010929E0610929F0692FF2D
:100A400013C080919E06882379F08091A0068823A8
:100A500059F081508093A006882331F484E080937C
:100A6000E9008AE38093E8009F918F910F900FBE79
:100A70000F901F9018951F920F920FB60F9211248E
:100A80000F931F932F933F934F935F936F937F9396
:100A90008F939F93AF93BF93EF93FF931092E900CF
:100AA0008091E80083FF3CC14091F1003091F1005A
:100AB0008091F100682F70E02091F100922F80E08A
:100AC000682B792B8091F100A82FB0E02091F100E4
:100AD000922F80E0A82BB92B1091F1000091F1002A
:100AE00082EF8093E800363009F05AC023E531E008
:100AF000A90145505040F901379785919491861787
:100B0000970701F5FA01859194918A179B07D1F413
:100B10009A012E5F3F4FF901659174912E5F3F4F0F
:100B2000F9014491212F30E0902F80E0282B392BC0
:100B30002F3F310519F010F02FEF30E0241758F453
:100B4000422F09C0295F3F4F495F5F4FF1E02D37CA
:100B50003F0789F6E5C05EEF8091E800282F30E07E
:100B6000C90185709070892BB9F322FDDCC0342F48
:100B7000413108F030E1232FCB0106C0FC01019682
:100B8000E491E093F10021502223C1F7630F711D1E
:100B9000431B5093E8004423F9F63031E9F2C3C017
:100BA000353061F48EEF8093E8008091E80080FF9B
:100BB000FCCF862F80688093E300B5C0393051F5B3
:100BC000442309F0ADC060939E0610929F061092D8
:100BD000A0068EEF8093E80086E791E021E0209365
:100BE000E900FC010196E491E093EB00EE2369F04B
:100BF000AC014F5F5F4FFC0184918093EC00CA0110
:100C00000196FA0134913093ED002F5F253039F7CA
:100C10008EE181C0383061F4403809F081C08091A4
:100C2000E80080FFFCCF80919E068093F10050C0C9
:100C3000313289F4413A09F073C08091E80080FFB5
:100C4000FCCFE0E0F1E081918093F10081E0E730BA
:100C5000F807C9F73DC03032A1F4413209F060C055
:100C60008091E80082FFFCCFE0E0F1E08091F100AC
:100C7000819381E0E730F807C9F78BEF8093E800B4
:100C800027C0323251F4413209F04AC060939F06C6
:100C90008091E80080FFFCCF1BC03323E9F48091F2
:100CA000E80080FFFCCF423811F080E00DC0A09337
:100CB000E9008091EB0090E025E0969587952A95D4
:100CC000E1F781701092E9008093F1001092F10039
:100CD0008EEF8093E80027C0313011F0333001F5FA
:100CE0004230F1F4672BE1F42A2F2F77822F8150C5
:100CF0008430B0F48EEF8093E8002093E900333025
:100D000079F089E18093EB0081E090E002C0880FE8
:100D1000991F2A95E2F78093EA001092EA0003C037
:100D200081E28093EB00FF91EF91BF91AF919F9192
:100D30008F917F916F915F914F913F912F911F9173
:100D40000F910F900FBE0F901F901895CF92DF92CA
:100D5000EF92FF920F931F93DC01841795073CF1EC
:100D6000C801840F951FA817B9070CF56217730700
:100D7000F4F0E20EF31E6E157F05CCF490E0A41B98
:100D8000B50B621B730B609FF001619FF00D709FAC
:100D9000F00D1124CA0EDB1EEC0DFD1D808180328A
:100DA00009F491E081E09827292F30E002C020E08B
:100DB00030E0C9011F910F91FF90EF90DF90CF902D
:100DC00008952F923F924F925F926F927F928F92EF
:100DD0009F92AF92BF92CF92DF92EF92FF920F93CA
:100DE0001F93DF93CF93CDB7DEB760970FB6F8941C
:100DF000DEBF0FBECDBF9A8389837C836B835E8306
:100E00004D83190118870F83FA86E986DC86CB8625
:100E1000BE86AD86988A8F86882499242EC06980E4
:100E20007A806A0C7B1CC301B20149815A812B81F3
:100E30003C810D811E817101CF80D8840E94A6065D
:100E4000892B81F0C301B20149855A852B853C85E8
:100E50000D851E85EF84F888CDA0DEA00E94A60631
:100E6000892BC1F40894A11CB11C8D819E81A81608
:100E7000B906ACF20894811C911C821493041CF0F6
:100E800020E030E009C0AA24BB244B805C80480CE1
:100E9000591CEBCF21E030E0C90160960FB6F89401
:100EA000DEBF0FBECDBFCF91DF911F910F91FF909D
:100EB000EF90DF90CF90BF90AF909F908F907F90FA
:100EC0006F905F904F903F902F900895AF92BF9298
:100ED000CF92DF92EF92FF920F931F936091D4060F
:100EE0007091D5068091D6069091D706E090940037
:100EF000F09095000E94282120E030E040E857E47F
:100F00000E9417225B016C0100E010E0C801B701EC
:100F10000E9428219B01AC01C601B5010E9424203A
:100F200020E030E040E853E40E94172220E034E261
:100F300044EF5AE40E948F201F910F91FF90EF9091
:100F4000DF90CF90BF90AF9008950E9466070E94F7
:100F5000F720DC01CB016CE370E00E94C42208950D
:100F60000E9466070E94F720DC01CB016CE370E071
:100F70000E94C422CB0108951092D4061092D50687
:100F80001092D6061092D7060895CF93DF93409122
:100F9000A4065091A506415050409C01220F331FDA
:100FA000220F331FE901CC51D84FF901EC54F94F0E
:100FB0009C0112C02F5F3F4F8C819D81AE81BF810C
:100FC00089939993A993B99384819581A681B781D7
:100FD00081939193A193B193241735075CF35093B8
:100FE000A5064093A40682E090E090932F0880939A
:100FF0002E08DF91CF910895CF93DF934091D206D1
:101000005091D306415050409C01220F331F220FB4
:10101000331FE901C852D84FF901EE5CF74F9C012C
:1010200012C02F5F3F4F8C819D81AE81BF8189931C
:101030009993A993B99384819581A681B78181936E
:101040009193A193B193241735075CF35093D30682
:101050004093D20681E090E090932F0880932E0871
:10106000DF91CF910895CF92DF92EF92FF920F938D
:101070001F93CF93DF93EB01823591052CF025EA86
:1010800030E0281B390B05C09C0197FF02C020E00F
:1010900030E0E090A206F090A3068701000F111F38
:1010A000000F111FE0E4CE2EE8E0DE2EC00ED11EB0
:1010B000B901882777FD8095982F0E942A21F60193
:1010C00060837183828393830250184FBE01882707
:1010D00077FD8095982F0E942A21F8016083718303
:1010E000828393830894E11CF11CF092A306E092A2
:1010F000A206DF91CF911F910F91FF90EF90DF90AB
:10110000CF900895CF93DF934091A2065091A3060C
:10111000415050409C01220F331F220F331FE90121
:10112000C05CD74FF901E250F84F9C0112C02F5F0D
:101130003F4F8C819D81AE81BF8189939993A99303
:10114000B99384819581A681B78181939193A1936D
:10115000B193241735075CF35093A3064093A2067E
:1011600080912E0890912F08049690932F088093D9
:101170002E08DF91CF9108950F931F93CF93DF93A4
:101180000EEF17E0C0E0D0E031C0F801608171815E
:10119000828193812091D4073091D5074091D60761
:1011A0005091D7070E942420F801608371838283C5
:1011B000938320E030E040E450E40E94242020E0CB
:1011C00030E040E252E40E941322882364F0CE0112
:1011D0000E94820880913008909131080197909385
:1011E00031088093300821960C5F1F4F8091A20632
:1011F0009091A306C817D90744F2DF91CF911F91B0
:101200000F910895CF92DF92EF92FF920F931F9369
:10121000CF93DF93EB01803591052CF025EA30E088
:10122000281B390B05C09C0197FF02C020E030E06D
:10123000E090A406F090A5068701000F111F000F93
:10124000111FB4EECB2EB7E0DB2EC00ED11EB901BC
:10125000882777FD8095982F0E942A21F6016083C8
:101260007183828393830C54194FBE01882777FDC5
:101270008095982F0E942A21F801608371838283D0
:1012800093830894E11CF11CF092A506E092A40659
:10129000DF91CF911F910F91FF90EF90DF90CF9052
:1012A00008950F931F93CF93DF9304EB16E0C0E0F4
:1012B000D0E031C0F80160817181828193812091F9
:1012C000D4073091D5074091D6075091D7070E9497
:1012D0002420F801608371838283938320E030E0CF
:1012E00040EA50E40E94242020E030E040E252E452
:1012F0000E941322882364F0CE010E94C5078091CA
:10130000300890913108019790933108809330080C
:1013100021960C5F1F4F8091A4069091A506C817D7
:10132000D90744F2DF91CF911F910F9108956F92E9
:101330007F928F929F92AF92BF92CF92DF92EF9265
:10134000FF920F931F930E94660720912E07309102
:101350002F0740913007509131070E9423207B01D5
:101360008C010E9466073B014C01A090CE06B09014
:10137000CF06C090D006D090D106C801B70120E0BA
:1013800030E040E050E40E9413228823F4F01092F1
:10139000AD061092AC0680E090E0A0E0B0E0809353
:1013A0002E0790932F07A0933007B09331078093B7
:1013B000CE069093CF06A093D006B093D1062A987C
:1013C00010923F0810923E081BC0C401B301A60151
:1013D00095010E94232020E030E040E05FE30E947E
:1013E0001322882364F02A980E9466076093CE0631
:1013F0007093CF068093D0069093D10601C02A9AAD
:101400001F910F91FF90EF90DF90CF90BF90AF9022
:101410009F908F907F906F9008956F927F928F92A0
:101420009F92AF92BF92CF92DF92EF92FF920F9373
:101430001F930E94660720912E0730912F0740913D
:101440003007509131070E9423207B018C010E94BC
:1014500066073B014C01A090CE06B090CF06C0902D
:10146000D006D090D106C801B70120E030E040E0BE
:1014700050E40E9413228823F4F01092AF061092D9
:10148000AE0680E090E0A0E0B0E080932E0790935D
:101490002F07A0933007B09331078093CE06909327
:1014A000CF06A093D006B093D1062B9810923F0898
:1014B00010923E081BC0C401B301A60195010E9411
:1014C000232020E030E040E05FE30E9413228823E5
:1014D00064F02B980E9466076093CE067093CF0647
:1014E0008093D0069093D10601C02B9A1F910F9143
:1014F000FF90EF90DF90CF90BF90AF909F908F9034
:101500007F906F900895AF92BF92CF92DF92EF924B
:10151000FF920F931F93CF93DF93A090D206B090CA
:10152000D30698EDE92E97E0F92ECC24DD2400E0D7
:1015300010E0C0E0D0E01EC0F701608171818281BF
:10154000938120E030E040E450E40E94242020E039
:1015500030E048E252E40E948820181624F00894F3
:10156000C11CD11C02C00F5F1F4F219684E090E088
:10157000E80EF91ECA15DB05FCF20C151D055CF41E
:1015800081E090E09093AD068093AC061092AF0698
:101590001092AE060AC081E090E09093AF0680936F
:1015A000AE061092AD061092AC06DF91CF911F915E
:1015B0000F91FF90EF90DF90CF90BF90AF90089584
:1015C000181619062CF420E030E01616170614F051
:1015D00021E030E0C9010895EF92FF920F931F932D
:1015E000CF93DF936091A6067091A706615070407B
:1015F0009C01220F331F220F331FA9014E57584F52
:10160000E901CE5CD84FF901E252F94F9C011EC0AE
:101610002F5F3F4FDA011496ED90FD900D911C91D4
:101620001797ED92FD920D931D93AD018C819D81D5
:10163000AE81BF8189939993A993B9938481958150
:10164000A681B78181939193A193B1932617370710
:10165000FCF27093A7066093A606DF91CF911F91CD
:101660000F91FF90EF900895CF92DF92EF92FF924B
:101670000F931F93CF93DF93EC012091A606309137
:10168000A7068091B7059091B8052817390709F486
:1016900067C00E9466072091D8063091D906409114
:1016A000DA065091DB060E9423202DEC3CEC4CE442
:1016B0005EE30E94132218160CF052C0E090A606BA
:1016C000F090A7068701000F111F000F111F62E89D
:1016D000C62E67E0D62EC00ED11E6091FC07709119
:1016E000FD07882777FD8095982F0E942A21F60113
:1016F000608371838283938352E3C52E57E0D52E96
:10170000C00ED11E6091DC067091DD06882777FD42
:101710008095982F0E942A21F6016083718382832D
:1017200093830252194FBE01882777FD8095982F29
:101730000E942A21F8016083718382839383089435
:10174000E11CF11CF092A706E092A6060E94660733
:101750006093D8067093D9068093DA069093DB06DF
:10176000DF91CF911F910F91FF90EF90DF90CF907D
:1017700008952F923F924F925F926F927F928F9235
:101780009F92AF92BF92CF92DF92EF92FF920F9310
:101790001F93DF93CF93CDB7DEB72C970FB6F89496
:1017A000DEBF0FBECDBF1A821982C5C000D02DB7D3
:1017B0003EB72F5F3F4F3C832B8309811A81000F77
:1017C000111F000F111FF801EE57F84F6081718152
:1017D000828193810E94F7206D837E838F83988717
:1017E0000E5C184FF80160817181828193810E94A3
:1017F000F7201B012C0100918E0610918F06EB84BF
:10180000FC84EE0CFF1CEE0CFF1CA8ED4A2EA7E09A
:101810005A2E4E0C5F1CF20160817181828193818E
:101820000E94F7203B014C0197012E5C374F3A870D
:101830002987F90160817181828193810E94F7205B
:101840005B016C0180915F0690916006EB81FC81E9
:10185000918380838D819E81B10142E050E022E03E
:1018600030E073016501F7E0AF2EB12CE7E08E2E7A
:10187000912C0E94E1060F900F90892B09F447C02C
:10188000F20160817181828193810E94F7207B0146
:101890008C01E985FA8560817181828193810E9442
:1018A000F7209B01AC01C701B9010E940209F201B6
:1018B000608171818281938120E030E040EE50E4CC
:1018C0000E9424200E94F7207B018C01E985FA8583
:1018D00060817181828193810E94F7209B01AC011C
:1018E000C701B9010E9402098B859C850E94FC07F3
:1018F00089819A810E94EC0A29813A8121503040E5
:101900003A8329838B859C8501979C878B87EB8500
:10191000FC853196FC87EB878091D2069091D306A7
:101920002B853C85281739070CF440CF89819A8193
:1019300001969A8389838091A6069091A706E981F2
:10194000FA81E817F9071CF41C861B86E5CF2C9654
:101950000FB6F894DEBF0FBECDBFCF91DF911F91C0
:101960000F91FF90EF90DF90CF90BF90AF909F903E
:101970008F907F906F905F904F903F902F90089541
:101980002F923F924F925F926F927F928F929F928F
:10199000AF92BF92CF92DF92EF92FF920F931F937D
:1019A000DF93CF93CDB7DEB72C970FB6F894DEBF99
:1019B0000FBECDBF1A821982C5C000D02DB73EB769
:1019C0002F5F3F4F3C832B8309811A81000F111F2A
:1019D000000F111FF801EE57F84F6081718182816D
:1019E00093810E94F7206D837E838F8398870E5C9E
:1019F000184FF80160817181828193810E94F720E4
:101A00001B012C0100918E0610918F06EB84FC8443
:101A1000EE0CFF1CEE0CFF1CA4EE4A2EA7E05A2E83
:101A20004E0C5F1CF20160817181828193810E9462
:101A3000F7203B014C0197012C54394F3A872987F5
:101A4000F90160817181828193810E94F7205B019D
:101A50006C0180917B0690917C06EB81FC819183E7
:101A600080838D819E81B10142E050E022E030E030
:101A700073016501F7E0AF2EB12CE7E08E2E912CBB
:101A80000E94E1060F900F90892B09F447C0F201E4
:101A900060817181828193810E94F7207B018C019A
:101AA000E985FA8560817181828193810E94F720A6
:101AB0009B01AC01C701B9010E943308F2016081AA
:101AC00071818281938120E030E040EA50E40E94FD
:101AD00024200E94F7207B018C01E985FA85608132
:101AE0007181828193810E94F7209B01AC01C70123
:101AF000B9010E9433088B859C850E94C5078981A6
:101B00009A810E94EC0A29813A81215030403A831F
:101B100029838B859C8501979C878B87EB85FC852A
:101B20003196FC87EB878091A4069091A5062B85C2
:101B30003C85281739070CF440CF89819A8101969A
:101B40009A8389838091A6069091A706E981FA81FC
:101B5000E817F9071CF41C861B86E5CF2C960FB6F8
:101B6000F894DEBF0FBECDBFCF91DF911F910F91D3
:101B7000FF90EF90DF90CF90BF90AF909F908F90AD
:101B80007F906F905F904F903F902F9008952F928D
:101B90003F924F925F926F927F928F929F92AF92FD
:101BA000BF92CF92DF92EF92FF920F931F93DF933A
:101BB000CF93CDB7DEB72A970FB6F894DEBF0FBE2E
:101BC000CDBF1A8219828BC000D02DB73EB72F5FD0
:101BD0003F4F3C832B8309811A81000F111F000F97
:101BE000111FF801EE57F84F608171818281938156
:101BF0000E94F7206D837E838F8398870E5C184F39
:101C0000F80160817181828193810E94F7201B011C
:101C10002C0100918E0610918F06E984FA84EE0C57
:101C2000FF1CEE0CFF1CF701E05CF74F6081718137
:101C3000828193810E94F7203B014C012EEF37E017
:101C4000E20EF31EF70160817181828193810E940F
:101C5000F7205B016C018091870690918806EB81EB
:101C6000FC81918380838D819E81B10142E050E0AF
:101C700022E030E073016501F3E0AF2EB12CE3E028
:101C80008E2E912C0E94E1060F900F90892B99F0D7
:101C900089859A850E94820889819A810E94EC0A2E
:101CA00029813A81215030403A83298389859A8558
:101CB00001979A878987E985FA853196FA87E987B6
:101CC0008091A2069091A30629853A8528173907A5
:101CD0000CF47ACF89819A8101969A8389838091C5
:101CE000A6069091A706E981FA81E817F9071CF486
:101CF0001A861986E5CF2A960FB6F894DEBF0FBE76
:101D0000CDBFCF91DF911F910F91FF90EF90DF90AA
:101D1000CF90BF90AF909F908F907F906F905F908B
:101D20004F903F902F9008950E94B90B0E94C00CD5
:101D30000E94C70D08958091BF059091C005892B21
:101D400059F48091BD059091BE05892B29F0109220
:101D5000BE051092BD0508958091BD059091BE0508
:101D6000892B51F481E090E09093C0058093BF05EA
:101D70009093BE058093BD0508958091BF05909115
:101D8000C005892B59F08091BD059091BE05892B26
:101D900029F01092BE051092BD0508958091BD05F1
:101DA0009091BE05892B51F481E090E09093BE059F
:101DB0008093BD051092C0051092BF050895109242
:101DC000900084E08093910081E08093710078948A
:101DD00008951F920F920FB60F9211248F939F9325
:101DE000AF93BF938091B0069091B106892B99F47F
:101DF0008091D4069091D506A091D606B091D706D1
:101E00000196A11DB11D8093D4069093D506A09391
:101E1000D606B093D706BF91AF919F918F910F9047
:101E20000FBE0F901F9018952098219850985198A8
:101E3000279885988698229A0E949B0208950F936E
:101E40001F93CF93DF930E94851DC0E0D0E080E018
:101E500090E0BE0144E550E09E0101E010E00E94E8
:101E6000C81D2196C133D10591F784E190E06AE065
:101E700070E047E051E020E030E00E947C1F0E94CB
:101E8000A11FDF91CF911F910F9108950F931F9381
:101E9000CF93DF93C0E0D0E0CE0167E270E02396FD
:101EA000AE0127E230E001E010E00E94C81D279655
:101EB000CA35D10589F7DF91CF911F910F91089510
:101EC00089B1869580FF0FC06091A8067091A90620
:101ED0008091AA069091AB060E94F720DC01CB010D
:101EE0000E94340B0BC083B1869580FF03C00E9413
:101EF0009B0E04C0489B02C00E94BD0E81E00E9460
:101F00009F02A0E0B0E0BC01CD010E942A2120E0A8
:101F100030EC4FE754E40E948F206093D407709315
:101F2000D5078093D6079093D70708956F927F9235
:101F30008F929F92AF92BF92CF92DF92EF92FF92D9
:101F40000F931F93CF93DF9380E00E949F02A0E046
:101F5000B0E0BC01CD010E942A2120E030E040EF3A
:101F600052E40E94172220E030E040E85AE30E9449
:101F7000172220E030E040E752E40E9423206093E3
:101F8000A8067093A9068093AA069093AB06C09109
:101F9000B905D091BA0517E0612E712C6C0E7D1E2B
:101FA0007092D3076092D2072DE230E03093CD06D5
:101FB0002093CC062BED3FE049E450EC0E94172221
:101FC00020E030E044E353E40E948F207B018C0149
:101FD000C8010E947A225B016C01882477FC8094FE
:101FE000982CC401B3010E942A213B014C01C60177
:101FF000B50120E030E040E850EC0E9417229B0140
:10200000AC01C401B3010E9424200E94F720709308
:10201000FD076093FC07B701C8010E948C2020E0F7
:1020200030E040E850EC0E94172220E030E044E32A
:1020300052E40E9424200E94F7207093DD066093F2
:10204000DC06209731F48091BF059091C005892B63
:1020500049F4C534D10551F48091BF059091C00574
:10206000892B21F41092BE051092BD058091BD050B
:102070009091BE05892B99F08091BF059091C00584
:10208000892B29F01C161D0654F4219704C0C53471
:10209000D1052CF42196D093BA05C093B905DF91F0
:1020A000CF911F910F91FF90EF90DF90CF90BF9055
:1020B000AF909F908F907F906F9008952F923F9256
:1020C0004F925F926F927F928F929F92AF92BF9248
:1020D000CF92DF92EF92FF920F931F93DF93CF93F4
:1020E00000D000D0CDB7DEB782E8682E87E0782E2A
:1020F00002E3802E07E0902E2EED36E03A8329830E
:102100001C821B8233C0F301A080B180C280D380C7
:10211000F4012080318042805380E981FA81E0809F
:10212000F18002811381C601B5010E94F7201616C5
:1021300017063CF4C201B1010E94F72016161706DB
:10214000FCF08B819C810E94EC0A2B813C812F5FEB
:102150003F4F3C832B8384E090E0680E791E880E0D
:10216000991EE981FA813496FA83E9838091A60663
:102170009091A7062B813C812817390724F233C0A0
:10218000C801B7012BED3FE049E450EC0E94172253
:102190007B018C0120E030E044E353EC0E948F206F
:1021A0000E947A229B01AC01C601B5010E94242045
:1021B000F3016083718382839383C801B70120E0B8
:1021C00030E044E353E40E948F200E948C209B0166
:1021D000AC01C201B1010E942320F401608371832C
:1021E00082839383B2CF0F900F900F900F90CF9177
:1021F000DF911F910F91FF90EF90DF90CF90BF90F4
:10220000AF909F908F907F906F905F904F903F9096
:102210002F9008950E94B6020EC00E94851D84E191
:1022200090E064E170E041E151E021E030E00E94A3
:102230007C1F0E94A11F0E94CF02882371F3089582
:10224000DC010D900020E9F71197A81BB90BBD0127
:102250000E94870308950F931F930DE111E0C801B9
:102260000E94201180E291E00E94201184E391E01D
:102270000E94201186E491E00E9420118AE591E0FD
:102280000E94201185E691E00E94201181E891E0F2
:102290000E94201186E991E00E94201188EB91E0D4
:1022A0000E9420118DEC91E00E94201185EF91E0B9
:1022B0000E942011C8010E9420118EE192E00E942C
:1022C000201184E392E00E94201183E492E00E94B6
:1022D000201183E592E00E9420118EE592E00E9499
:1022E000201187E792E00E9420118DE892E00E9481
:1022F000201189E992E00E94201183EA92E00E9475
:10230000201182EB92E00E94201181EC92E00E9469
:10231000201180ED92E00E94201184EE92E00E9454
:10232000201183EF92E00E94201186E093E00E944A
:10233000201188E193E00E9420111F910F910895D0
:10234000AF92BF92CF92DF92EF92FF920F931F93C3
:10235000DF93CF93CDB7DEB762970FB6F894DEBFA9
:102360000FBECDBF8C017B015A019DE1C92E91E0CA
:10237000D92EC6010E9420118BE293E00E94201109
:10238000C8010E942011C6010E942011C7010E94AD
:102390002011C6010E942011C5010E942011C60112
:1023A0000E94201100D000D000D0EDB7FEB73196CA
:1023B0008E010F5F1F4FADB7BEB712961C930E93E1
:1023C000119780E493E0938382838091D206909169
:1023D000D306958384830E94CE24EDB7FEB736964C
:1023E0000FB6F894FEBF0FBEEDBFC8010E942011CA
:1023F000C6010E94201100D000D000D0EDB7FEB77A
:102400003196ADB7BEB712961C930E9311978EE41A
:1024100093E0938382838091A4069091A50695838F
:1024200084830E94CE24EDB7FEB736960FB6F8949B
:10243000FEBF0FBEEDBFC8010E942011C6010E9461
:10244000201100D000D000D0EDB7FEB73196ADB767
:10245000BEB712961C930E9311978BE593E093836E
:1024600082838091A2069091A306958384830E9423
:10247000CE24EDB7FEB736960FB6F894FEBF0FBE6A
:10248000EDBFC8010E942011C6010E94201100D09A
:1024900000D000D0EDB7FEB73196ADB7BEB71296FB
:1024A0001C930E93119789E693E093838283809126
:1024B000A6069091A706958384830E94CE24EDB74B
:1024C000FEB736960FB6F894FEBF0FBEEDBFC8013B
:1024D0000E942011C6010E94201100D000D000D01F
:1024E000EDB6FEB60894E11CF11CADB7BEB712966E
:1024F0001C930E9311978AE793E0F70193838283ED
:102500006091A8067091A9068091AA069091AB06E9
:102510000E94F720D70115967C936E9314970E9422
:10252000CE24EDB7FEB736960FB6F894FEBF0FBEB9
:10253000EDBFC8010E942011C6010E94201100D0E9
:1025400000D000D0EDB6FEB60894E11CF11CADB78A
:10255000BEB712961C930E93119782E893E0F70191
:10256000938382836091D4077091D5078091D607B9
:102570009091D70720E030E040E251E40E9417221A
:102580000E94F720D70115967C936E9314970E94B2
:10259000CE24EDB7FEB736960FB6F894FEBF0FBE49
:1025A000EDBFC8010E942011C6010E942011629651
:1025B0000FB6F894DEBF0FBECDBFCF91DF911F9154
:1025C0000F91FF90EF90DF90CF90BF90AF90089564
:1025D000AF92BF92CF92DF92EF92FF920F931F9331
:1025E000DF93CF93CDB7DEB72A970FB6F894DEBF4F
:1025F0000FBECDBF0E94201100E010E07E010894C4
:10260000E11CF11C7AE0A72EB12C6CE8C62E63E029
:10261000D62E36C0C901C0970A97C0F5C80153E04D
:10262000880F991F5A95E1F7000F111F080F191F06
:1026300000531040020F131F8DB79EB708970FB6B7
:10264000F8949EBF0FBE8DBFEDB7FEB73196ADB704
:10265000BEB71296FC92EE921197B382A282D582F7
:10266000C482378326830E949D248DB79EB7089627
:102670000FB6F8949EBF0FBE8DBFC7010E942011F8
:102680000E94D2029C019923DCF3C4CF8DE191E03A
:102690000E942011C8012A960FB6F894DEBF0FBE23
:1026A000CDBFCF91DF911F910F91FF90EF90DF9001
:1026B000CF90BF90AF9008958FE893E00E94E8120A
:1026C0008634910514F085E490E097FF02C080E025
:1026D00090E09093BA058093B90508958DEA93E050
:1026E0000E94E8129093310880933008089586EC98
:1026F00093E00E94E81290932F0880932E0808958B
:10270000EF92FF920F931F938C017B010E94732322
:10271000E01AF10A0894E11CF11CB7010E94C422DE
:102720009C01200F311FC9011F910F91FF90EF9065
:102730000895AF92BF92CF92DF92EF92FF920F93E4
:102740001F93CF93DF9381E090E090933F088093B5
:102750003E0883E090E09093D3068093D206AA24AB
:10276000BB2470E060E000E010E0C0E0D0E00F2E9D
:10277000F0E0CF2EF0E0DF2EF0E0EF2EF1ECFF2EB8
:10278000F02D2AC080E090E06DE470E00E9480139C
:10279000AA2797FDA095BA2FBC01CD010E942A213E
:1027A0005B01782F692F03C0101611065CF3FE0140
:1027B000E852F84F472F562FC501DA0180839183E5
:1027C000A283B383FE01EE5CF74FC082D182E28226
:1027D000F3820F5F1F4F24968091D2069091D3060B
:1027E000081719070CF30E94830ADF91CF911F91FC
:1027F0000F91FF90EF90DF90CF90BF90AF90089532
:102800000F931F93CF93DF9380913E0890913F08E1
:10281000892B09F04DC002E318E0C0E0D0E031C0E0
:10282000F80160817181828193812091D407309178
:10283000D5074091D6075091D7070E942420F80170
:10284000608371838283938320E030E040EE50E424
:102850000E94242020E030E040E252E40E94132253
:10286000882364F0CE010E94FC078091300890918B
:1028700031080197909331088093300821960C5FBE
:102880001F4F8091D2069091D306C817D90744F202
:10289000892B71F48091A2069091A306892B41F4B3
:1028A0008091A4069091A506892B11F40E9499139A
:1028B000DF91CF911F910F9108952F923F924F92E8
:1028C0005F926F927F928F929F92AF92BF92CF92C0
:1028D000DF92EF92FF920F931F93DF93CF9300D07D
:1028E00000D0CDB7DEB789839A833A011901270159
:1028F00048016B01AA24BB2424C0F70180818032E7
:1029000019F44114510431F4C801B60141E050E01A
:102910000E948D1D8B819C8101969C838B830F5F10
:102920001F4F0894E11CF11CEB81FC81E615F705B3
:1029300024F30894A11CB11C860C971C0894C11C9C
:10294000D11CA214B30444F489819A819C018901A9
:1029500074011C821B82E8CF0F900F900F900F9094
:10296000CF91DF911F910F91FF90EF90DF90CF906B
:10297000BF90AF909F908F907F906F905F904F909F
:102980003F902F9008952F923F924F925F926F92B7
:102990007F928F929F92AF92BF92CF92DF92EF92EF
:1029A000FF920F931F93DF93CF93CDB7DEB72A9794
:1029B0000FB6F894DEBF0FBECDBFDE011196E0E981
:1029C000F6E08AE001900D928150E1F78824992485
:1029D000BAEE2B2EBFEF3B2EABE04A2E512C4C0E05
:1029E0005D1EF8EC6F2E712C0E94851D7E994FC0E4
:1029F00080E090E060E070E047E051E021E030E00E
:102A00000E947C1F80E090E06AE070E04FED53E0B0
:102A100021E030E00E947C1F5E010894A11CB11CE3
:102A2000F501C080D180C60164E170E045E150E06D
:102A300021E130E00EEE13E0E1E0EE2EF12C0E94F9
:102A40005D140894C11CD11CF501D182C082F5E54A
:102A5000CF16D1041CF0F5013182208282E090E093
:102A6000A80EB91EA414B504D9F60E94A11F08949B
:102A7000811C911C88EE93E0F3013197F1F70197E7
:102A8000D9F798EE891693E0990609F0ADCF2A960A
:102A90000FB6F894DEBF0FBECDBFCF91DF911F916F
:102AA0000F91FF90EF90DF90CF90BF90AF909F90ED
:102AB0008F907F906F905F904F903F902F900895F0
:102AC000AF92BF92CF92DF92EF92FF920F931F933C
:102AD000CF93DF93AA24BB24C0E0D0E028C0FE013E
:102AE000E258F84F60817181828193810E94F720C2
:102AF0006B017C01FE01E25DF84F60817181828192
:102B000093810E94F7209B01AC0100918E061091E9
:102B10008F06C601B90142E050E022E030E0E1E07A
:102B2000EE2EF12C0E945D140894A11CB11C249679
:102B30008091A6069091A706A816B90684F2DF91A7
:102B4000CF911F910F91FF90EF90DF90CF90BF90AA
:102B5000AF900895EF92FF920F931F936091BB0582
:102B60007091BC0500912B0610912C068091B9053F
:102B70009091BA054FE050E027E030E0F1E0EF2E11
:102B8000F12C0E945D146091CC067091CD064091AD
:102B9000FC075091FD072091DC063091DD06809105
:102BA000D2079091D30701E010E00E94C81D1F9149
:102BB0000F91FF90EF900895AF92BF92CF92DF9266
:102BC000EF92FF920F931F93CF93DF93AA24BB241E
:102BD000C0E0D0E028C0FE01EC52F84F6081718166
:102BE000828193810E94F7206B017C01FE01E25DEE
:102BF000F74F60817181828193810E94F7209B0150
:102C0000AC0100915F0610916006C601B90147E072
:102C100050E027E030E0A1E0EA2EF12C0E945D14A4
:102C20000894A11CB11C24968091D2069091D306E1
:102C3000A816B90684F2DF91CF911F910F91FF90F2
:102C4000EF90DF90CF90BF90AF900895AF92BF927A
:102C5000CF92DF92EF92FF920F931F93CF93DF9368
:102C6000AA24BB24C0E0D0E028C0FE01E052F84F07
:102C700060817181828193810E94F7206B017C01C8
:102C8000FE01E055F94F60817181828193810E943C
:102C9000F7209B01AC0100917B0610917C06C601D8
:102CA000B90145E050E025E030E0B1E0EB2EF12C39
:102CB0000E945D140894A11CB11C24968091A40666
:102CC0009091A506A816B90684F2DF91CF911F91C5
:102CD0000F91FF90EF90DF90CF90BF90AF9008954D
:102CE000AF92BF92CF92DF92EF92FF920F931F931A
:102CF000CF93DF93AA24BB24C0E0D0E028C0FE011C
:102D0000E45CF74F60817181828193810E94F7209A
:102D10006B017C01FE01E650F84F60817181828178
:102D200093810E94F7209B01AC01009187061091CE
:102D30008806C601B90143E050E023E030E0E1E05D
:102D4000EE2EF12C0E945D140894A11CB11C249657
:102D50008091A2069091A306A816B90684F2DF918D
:102D6000CF911F910F91FF90EF90DF90CF90BF9088
:102D7000AF9008950E94AA150E94460F0E94601508
:102D80000E9470160E9426160E94DC1508951F935B
:102D9000E1E6F0E080E8808311E010830E94140FE8
:102DA0008FE40E94D51F1092900084E080939100E0
:102DB0001093710078940E940A110E94BA161F9114
:102DC00008950E94851D8091B0069091B106892BCF
:102DD00071F40E94600F0E94960F0E945E100E9484
:102DE00000140E9451090E94BC080E94940E0E9487
:102DF000BA160E94A11F0895CF93DF930E94851DEC
:102E00002A982B9883E290E09093BA058093B905B5
:102E100089E290E09093BC058093BB051092B106C7
:102E20001092B0061092A7061092A6061092A50660
:102E30001092A4061092A3061092A20610922F08D8
:102E400010922E0885E090E090933108809330082E
:102E50000E949913C1E0D0E0D093BE05C093BD0598
:102E600080E090E0A0E8BFE38093D8069093D90675
:102E7000A093DA06B093DB0680E090E0A0E0B0E03B
:102E80008093CE069093CF06A093D006B093D10640
:102E90001092D4061092D5061092D6061092D7063C
:102EA00080E090E062E370E00E9480134A972CF08B
:102EB0001092C0051092BF0504C0D093C005C09306
:102EC000BF050E94BA160E94A11FDF91CF910895FD
:102ED000CF92DF92EF92FF920F931F93CF93DF93E6
:102EE0000E9466077B018C012A9A2B9AC0E0D0E0F1
:102EF000F8ECCF2ED12C0E94851D0E946607A801F8
:102F000097010E94232020E030E040E050E40E943E
:102F10001322882314F02A982B987E9B03C00E94CA
:102F2000FC162AC07D9B07C081E090E09093B30619
:102F30008093B20621C08AE090E06AE070E043E549
:102F400055E021E030E00E947C1FC0FD0AC08AE00D
:102F500090E064E170E04DE555E021E030E00E9452
:102F60007C1F88EE93E0F6013197F1F70197D9F7CE
:102F700021960E94A11FBFCFDF91CF911F910F918A
:102F8000FF90EF90DF90CF900895AF92BF92CF92D5
:102F9000DF92EF92FF920F931F93DF93CF93CDB702
:102FA000DEB7A1970FB6F894DEBF0FBECDBF0E946B
:102FB000B0078C010E94A5079C010A301105D4F4CA
:102FC000CE0146962A3031058CF54DB75EB7485094
:102FD00050400FB6F8945EBF0FBE4DBFEDB7FEB7C1
:102FE0003196ADB7BEB712969C938E9311978EE62D
:102FF00095E046C00A30110559F18B30910544F136
:103000008DB79EB708970FB6F8949EBF0FBE8DBFC1
:10301000EDB7FEB73196CE014696ADB7BEB7129664
:103020009C938E9311978CE795E02AC0ADB7BEB7FD
:1030300018970FB6F894BEBF0FBEADBFEDB7FEB781
:10304000319612969C938E93119788E895E018C05C
:103050002A30310534F58DB79EB708970FB6F8942E
:103060009EBF0FBE8DBFEDB7FEB73196CE0146961F
:10307000ADB7BEB712969C938E93119785E995E0F4
:103080009383828315830483378326830E94CE240F
:103090004DB75EB7485F5F4F0FB6F8945EBF0FBE87
:1030A0004DBF00D000D000D0EDB7FEB731966E0115
:1030B0000894C11CD11CADB7BEB71296DC92CE925B
:1030C000119782EA95E093838283809130089091F2
:1030D0003108958384830E94CE24EDB7FEB73196E4
:1030E0008E01055F1F4FADB7BEB712961C930E93AE
:1030F00011978CEA95E09383828380912E089091BA
:103100002F08958384830E94CE244DB75EB74A5F13
:103110005F4F0FB6F8945EBF0FBE4DBFA6E1EA2E1B
:10312000F12CEC0EFD1EC701B601A8010E94A011F2
:103130008091B0069091B106892B41F537C00E946D
:10314000851D80E090E060E070E0A50121E030E0C6
:103150000E947C1F80E090E064E170E0A60121E025
:1031600030E00E947C1F80E090E06EE170E0A701FB
:1031700021E030E00E947C1F88EE93E0F801319757
:10318000F1F70197D9F70E94A11F04C057017801F8
:1031900008EC10E0189BD3CF1092B1061092B00645
:1031A0000E94851D0E94BA160E94A11FA1960FB60B
:1031B000F894DEBF0FBECDBFCF91DF911F910F916D
:1031C000FF90EF90DF90CF90BF90AF9008958C3636
:1031D000910509F461C08D369105C4F484369105DA
:1031E00069F1853691054CF48F33910509F45AC085
:1031F0008136910509F05BC01EC08736910509F440
:103200004EC08836910509F052C04FC082379105F3
:1032100051F18337910544F48037910539F18137B5
:10322000910509F044C031C083379105C9F0873753
:103230009105E9F506C00E949B0E08950E94BD0EFF
:1032400008956091A8067091A9068091AA069091B0
:10325000AB060E94F720DC01CB010E94340B0895DD
:103260000E94C51708950E94FC16089520E030E0E2
:103270008091B0069091B106892B11F421E030E0E5
:103280003093B1062093B006089581E090E09093CA
:10329000B3068093B20608950E946E1308950E94AB
:1032A000771308950E942B1108950E945C130895CE
:1032B0000E94D20297FD02C00E94E71808950E9462
:1032C0005819189B0EC020E030E08091B006909114
:1032D000B106892B11F421E030E03093B106209340
:1032E000B0061F9B02C00E94C5178FB182958695BC
:1032F0008695837080FF02C00E94FC168FB1829574
:103300008695877080FF06C081E090E09093B306B9
:103310008093B2068091AC069091AD06892BE1F0C6
:1033200060912E0770912F0780913007909131079F
:1033300020E030E040E050E00E948820882351F4F3
:103340000E94660760932E0770932F0780933007C3
:10335000909331070E9497098091AE069091AF0635
:10336000892BE1F060912E0770912F078091300733
:103370009091310720E030E040E050E00E9488204A
:10338000882351F40E94660760932E0770932F07DD
:1033900080933007909331070E940D0A8091300886
:1033A000909131081816190614F00E9468170E94AF
:1033B000E1160895CF93DF9380E090E00E94782398
:1033C0000E94C7160E94C3140E94FC16C8ECD0E0ED
:1033D0000E945F1988EE93E0FE013197F1F70197A3
:1033E000D9F78091B2069091B306892B89F30E9498
:1033F0001F0F80E090E0DF91CF910895A1E1B0E050
:10340000E4E0FAE10C94D7223C017F876E876A01E1
:10341000FC0117821682838181FD03C06FEF7FEF6D
:103420006FC39E012F5F3F4F398B288BF3012381A0
:10343000EE85FF8523FD859123FF8191FF87EE8730
:10344000882309F45AC3853251F4EE85FF8523FDA4
:10345000859123FF8191FF87EE87853229F490E0E3
:10346000B3010E947124E2CF982F10E088249924A0
:103470001032B0F49B3269F09C3228F4903251F053
:10348000933271F40BC09D3239F0903349F41160DE
:1034900028C01260146025C0186023C0106121C0CC
:1034A00017FD2AC0892F80538A3078F416FF06C092
:1034B000FAE09F9E902C1124980E13C03AE0839E50
:1034C000802C1124880E10620CC09E3221F416FD4F
:1034D00014C3106406C09C3611F4106802C09836FC
:1034E00059F4EE85FF8523FD959123FF9191FF8788
:1034F000EE87992309F0BCCF892F8554833020F4BF
:10350000812F8061905E07C0892F8556833008F037
:103510009FC1812F8F7E86FD02C076E0972E6FE3DC
:10352000F62EF822953619F4F0E4FF2A07C09636F5
:1035300019F420E8F22A02C091109A94F7FE0AC00A
:103540003BE3391518F45CE3B52E02C0B92CB394F3
:1035500027E009C047E0491520F4BB2447E0942E3A
:10356000F7CF292DBB24C60104969D878C87F601D1
:103570006081718182819381AE014F5F5F4F0B2D1E
:103580000E9483236C010981202E332400FF04C094
:1035900003FD02C01DE209C0F1FE02C01BE205C02E
:1035A000F2FC02C010E001C010E2C1018C7090700A
:1035B000892BB9F1112311F483E001C084E088154F
:1035C00010F088240AC0881AF3FC07C080E290E05B
:1035D000B3010E9471248A94C9F7112329F0812F25
:1035E00090E0B3010E94712423FE03C005E112E0C4
:1035F0000EC009E112E00BC0E114F10409F08052A1
:1036000090E0B3010E9471240F5F1F4F05C0EF2CA3
:10361000FF24F0E1EF22FF24F8018491882361F771
:1036200014C1F7FE12C0BC0C24FE04C08A81813391
:1036300009F4BA941B141CF0BB24B3942DC0F8E019
:10364000FB1550F538E0B32E27C0F6FC25C0892DB8
:1036500090E08C159D054CF02CEFC2162FEFD20692
:1036600024F030E8F32A01C09A94992049F0E2E06E
:10367000F0E0EC0FFD1FE90DF11D80818033A1F317
:10368000F7FE0AC0B92CB394892D90E0C816D9066C
:1036900014F0992401C09C18F7FC03C025E030E029
:1036A00009C01C141D041CF021E030E003C0960189
:1036B0002F5F3F4F112311F02F5F3F4F992029F0CB
:1036C000892D90E00196280F391F882D90E028174A
:1036D000390714F0882401C0821A4F2C5524C201E6
:1036E00089709070892B39F008C080E290E0B301B6
:1036F0000E9471248A948820C1F7112329F0812F18
:1037000090E0B3010E94712443FE07C008C080E32B
:1037100090E0B3010E9471248A948820C1F7F7FEDB
:1037200046C08601D7FE02C000E010E07601089492
:10373000E11CF11CE01AF10A41E050E04C0F5D1F62
:10374000E40EF51E26014B185108892D90E0AA249D
:10375000BB24A81AB90A5FEF0F3F150729F48EE2C0
:1037600090E0B3010E947124C016D10634F04016D7
:1037700051061CF4F701808101C080E30150104024
:103780000894E11CF11C0A151B052CF090E0B30114
:103790000E947124E0CF0C151D0539F49A819633EF
:1037A00018F4953311F424FE81E390E04BC08A8134
:1037B000813309F00F7E90E0B3010E9471249920BB
:1037C000A1F08EE290E0B3010E94712412E0E1E0EA
:1037D000F0E0EC0FFD1FE10FF11D1F5F808190E015
:1037E000B3010E9471249A9491F744FC03C085E6CA
:1037F00090E002C085E490E0B3010E947124D7FC00
:1038000005C0C114D10441F404FF06C0D094C19492
:10381000D108D3948DE201C08BE290E0B3010E9405
:10382000712480E305C08F5F26EF3FEFC20ED31EE9
:103830003AE0C316D104BCF790E0B3010E947124B2
:10384000C601C096B3010E947124CC84DD8452C1AC
:10385000933631F0933799F0933509F059C023C06E
:10386000F601808189835E010894A11CB11C22E0CD
:1038700030E0C20ED31E21E0E22EF12C12C0F60180
:10388000A080B18016FD03C06FEF7FEF02C0692DED
:1038900070E022E030E0C20ED31EC5010E94662413
:1038A0007C011F7713C0F601A080B18016FD03C014
:1038B0006FEF7FEF02C0692D70E022E030E0C20EB2
:1038C000D31EC5010E945B247C01106813FF07C052
:1038D0001BC080E290E0B3010E9471248A94882D7D
:1038E00090E0E816F906A8F30FC0F50117FD8591E1
:1038F00017FF81915F0190E0B3010E947124811054
:103900008A940894E108F108E114F10471F7F2C017
:10391000943611F0993689F517FF08C0F601208119
:1039200031814281538184E090E00AC0F6018081B8
:1039300091819C01442737FD4095542F82E090E00F
:10394000C80ED91E9FE6F92EF12257FF09C05095E7
:103950004095309521953F4F4F4F5F4F90E8F92AA2
:10396000CA01B901AE014F5F5F4F2AE030E00E940B
:10397000F224E82EE889EE1A41C0953721F41F7E23
:103980002AE030E01CC0197F9F3661F0903720F4A8
:10399000983509F0B2C00FC0903739F0983709F068
:1039A000ACC004C028E030E00AC0106114FD14600F
:1039B00020E130E004C014FD166020E132E017FF82
:1039C00008C0F601608171818281938144E050E0FA
:1039D00008C0F60180819181BC0180E090E042E066
:1039E00050E0C40ED51EAE014F5F5F4F0E94F2241F
:1039F000E82E5889E51A8FE7F82EF122F6FE0BC063
:103A00008EEFF822E91438F4F4FE07C0F2FC05C08A
:103A10009FEEF92202C01E2D01C0192DF4FE0DC02B
:103A2000FE01EE0DF11D8081803319F4E9EEFE22D6
:103A300008C01F5FF2FE05C003C08F2D867809F015
:103A40001F5F0F2DF3FC14C0F0FE0FC0181510F00F
:103A50009E2C0BC09E2C980C911A182D06C080E24B
:103A600090E0B3010E9471241F5F1815C0F304C0D9
:103A7000181510F4811A01C0882404FF0FC080E3D8
:103A800090E0B3010E94712402FF1DC001FD03C03C
:103A900088E790E00EC088E590E00BC0802F867824
:103AA00091F001FF02C08BE201C080E2F7FC8DE2E1
:103AB00090E0B3010E94712406C080E390E0B3015E
:103AC0000E9471249A94E914C0F3EA94E1E0F0E0D2
:103AD000EC0FFD1FEE0DF11D808190E0B3010E94FF
:103AE0007124EE2091F706C080E290E0B3010E94BD
:103AF00071248A948820C1F799CCF301668177817B
:103B0000CB016196E2E10C94F322E0E7F8E0119238
:103B10008AE0E836F807D9F708959C0197FD37C089
:103B200077FD35C08435910594F5603371057CF5DA
:103B3000CB0173E0959587957A95E1F76770452BF2
:103B400099F0E4E58E9FF0011124E20FF31FE05994
:103B5000F74F81E090E002C0880F991F6A95E2F765
:103B60002081282B20830895E4E58E9FF001112405
:103B7000E20FF31FE059F74F81E090E002C0880F99
:103B8000991F6A95E2F78095208128232083089564
:103B90002F923F924F925F926F927F928F929F925D
:103BA000AF92BF92CF92DF92EF92FF920F931F934B
:103BB000DF93CF93CDB7DEB72E970FB6F894DEBF65
:103BC0000FBECDBF7C016B014A0139011C870B87F9
:103BD00084179507F9F45B0110C0C701B5014B8547
:103BE0005C850E948D1DC614D70424F40894A11C82
:103BF000B11C03C00894A108B108C614D7042CF462
:103C00006A147B040CF4FDC0E8CFA614B7040CF4CE
:103C1000F8C0E3CF62177307F9F45C0110C0C50167
:103C2000B6014B855C850E948D1DE814F90424F4CF
:103C30000894A11CB11C03C00894A108B108E814A1
:103C4000F9042CF48A149B040CF4DBC0E8CFA8140C
:103C5000B9040CF4D6C0E3CF4817590724F4470140
:103C60007A013B016901B4016E197F09882777FD4C
:103C70008095982F0E942A216F83788789879A8759
:103C8000B3016C197D09882777FD8095982F0E94D4
:103C90002A216B837C838D839E832F813885498580
:103CA0005A850E948F201B012C0120E030E040E06B
:103CB00050E00E94132287FF04C057FA509457F82F
:103CC0005094DA82C9820F2EF0E0AF2EF0E0BF2EC2
:103CD000F0E0CF2EF0E0DF2EF02D7FC0C70169812C
:103CE0007A814B855C850E948D1DC601B501A201BC
:103CF00091010E9424203BC0C70169817A814B85D4
:103D00005C850E948D1D1E861D866B817C818D8148
:103D10009E8120E030E040E050E00E94132218161F
:103D200024F421E030E03E872D8700E010E06B8135
:103D30007C818D819E8120E030E040E050E00E9457
:103D40008820882314F401E010E08D859E85801B77
:103D5000910BE981FA81E80FF91FFA83E983C60123
:103D6000B50120E030E040E85FE30E9423205B01E2
:103D70006C0120E030E040E05FE30E9413228823E2
:103D8000CCF06B817C818D819E8120E030E040E031
:103D900050E00E94132218163CF429813A816216E1
:103DA00073060CF0A9CF06C089819A818615970504
:103DB0000CF0A2CF6F81788589859A8520E030E06C
:103DC00040E050E00E941322181624F40894E11CED
:103DD000F11C03C00894E108F1086F81788589859A
:103DE0009A8520E030E040E050E00E94132218164F
:103DF00024F48E149F042CF071CFE814F9040CF015
:103E00006DCF2E960FB6F894DEBF0FBECDBFCF910B
:103E1000DF911F910F91FF90EF90DF90CF90BF90B7
:103E2000AF909F908F907F906F905F904F903F905A
:103E30002F9008954F925F926F927F928F929F92F0
:103E4000AF92BF92CF92DF92EF92FF920F931F93A8
:103E5000CF93DF933B01490125E0429FA00111244C
:103E6000ADE7EA2EA1E0FA2EE40EF51E8C01F1E09A
:103E70004F2E512CE2E8AE2EE1E0BE2EA40EB51E70
:103E8000F70184918114910409F48095C0E0D0E099
:103E9000C82EDD24BE01660D771DA2010C2E02C0C6
:103EA000440F551F0A94E2F74C215D210C2E02C0ED
:103EB000559547950A94E2F7C8010E948D1D2196F9
:103EC000C830D10539F70894E11CF11C0F5F1F4F72
:103ED000EA14FB04A9F6DF91CF911F910F91FF9097
:103EE000EF90DF90CF90BF90AF909F908F907F909A
:103EF0006F905F904F900895CF92DF92EF92FF9274
:103F00000F931F93CF93DF936B017A01E901082F81
:103F100010E008C0802F90E0B6019E010E941A1F99
:103F20000B5F1F5FF701E10FF11D4081442391F703
:103F3000DF91CF911F910F91FF90EF90DF90CF9085
:103F40000895CF93DF9380E060E00E941620C0E7E1
:103F5000D8E081E069910E94B41F8AE0C836D80792
:103F6000C1F7DF91CF91089595B18295880F807E3A
:103F70009F7D982B95B95F9827E030E070E08F988F
:103F8000CB01022E02C0959587950A94E2F780FF37
:103F900002C02E9A01C02E988F9A215030408FEF88
:103FA0002F3F380761F75F9A08951F93182F579A8C
:103FB000249A259A269A879A2C985F9A2C9A80E0C0
:103FC00061E20E94B41F106880E0612F0E94B41F5C
:103FD00080E064E00E94B41F80E063E10E94B41FAF
:103FE00080E06CE00E94B41F80E060E20E94B41F99
:103FF00080E06CE00E94B41F80E060E40E94B41F87
:1040000080E060E80E94B41F1F910895CF93DF9372
:10401000C0E0D0E081E060E00E94B41F219681E022
:10402000C83FD807B9F7DF91CF9108951F93182F94
:10403000606480E00E94B41F106880E0612F0E94DD
:10404000B41F1F9108955058BB27AA270ED0A0C1B6
:1040500069D130F06ED120F031F49F3F11F41EF49D
:104060005EC10EF4E095E7FB54C1E92FB3D180F3B4
:10407000BA17620773078407950718F071F49EF565
:10408000CBC10EF4E0950B2EBA2FA02D0B01B90178
:1040900090010C01CA01A0011124FF27591B99F0BE
:1040A000593F50F4503E68F11A16F040A22F232FCA
:1040B000342F4427585FF3CF469537952795A7951A
:1040C000F0405395C9F77EF41F16BA0B620B730BC1
:1040D000840BBAF09150A1F0FF0FBB1F661F771F32
:1040E000881FC2F70EC0BA0F621F731F841F48F4E7
:1040F000879577956795B795F7959E3F08F0B3CF6D
:104100009395880F08F09927EE0F97958795089556
:10411000DCD008F481E0089514D1E3954AC10CD0B5
:1041200037C107D140F0FED030F021F45F3F19F0E5
:10413000F0C0511172C1F3C04DD198F39923C9F366
:104140005523B1F3951B550BBB27AA27621773079D
:10415000840738F09F5F5F4F220F331F441FAA1F51
:10416000A9F333D00E2E3AF0E0E830D09150504011
:10417000E695001CCAF729D0FE2F27D0660F771FBF
:10418000881FBB1F261737074807AB07B0E809F0A1
:10419000BB0B802DBF01FF2793585F4F2AF09E3F36
:1041A000510568F0B6C039C15F3FECF3983EDCF3CF
:1041B000869577956795B795F7959F5FC9F7880FAF
:1041C000911D9695879597F90895E1E0660F771F01
:1041D000881FBB1F621773078407BA0720F0621B92
:1041E000730B840BBA0BEE1F88F7E095089504D08B
:1041F0006894B11112C10895F5D088F09F5790F0DE
:10420000B92F9927B751A0F0D1F0660F771F881FFB
:10421000991F1AF0BA95C9F712C0B13081F0FCD0DD
:10422000B1E00895F9C0672F782F8827B85F39F07B
:10423000B93FCCF3869577956795B395D9F73EF45A
:1042400090958095709561957F4F8F4F9F4F089502
:10425000E89409C097FB3EF4909580957095619520
:104260007F4F8F4F9F4F9923A9F0F92F96E9BB27D6
:104270009395F695879577956795B795F111F8CF52
:10428000FAF4BB0F11F460FF1BC06F5F7F4F8F4FBD
:104290009F4F16C0882311F096E911C0772321F0B3
:1042A0009EE8872F762F05C0662371F096E8862F4B
:1042B00070E060E02AF09A95660F771F881FDAF7A2
:1042C000880F9695879597F90895990F0008550FCF
:1042D000AA0BE0E8FEEF16161706E807F907C0F08C
:1042E00012161306E407F50798F0621B730B840B94
:1042F000950B39F40A2661F0232B242B252B21F46E
:1043000008950A2609F4A140A6958FEF811D811D0D
:10431000089597F99F6780E870E060E008959FEF47
:1043200080EC089500240A9416161706180609064C
:10433000089500240A94121613061406050608951B
:10434000EECF50D0E8F3E894E0E0BB279F57F0F0C1
:104350002AED3FE049EC06C0EE0FBB0F661F771F4A
:10436000881F28F0B23A62077307840728F0B25A10
:10437000620B730B840BE3959A9572F7803830F4D7
:104380009A95BB0F661F771F881FD2F79048BAC057
:10439000092E0394000C11F4882352F0BB0F40F453
:1043A000BF2B11F460FF04C06F5F7F4F8F4F9F4F93
:1043B0000895EF93E0FF06C0A2EA2AED3FE049EC42
:1043C0005FEB53DEE5DF0F90039401FC9058EEE2C3
:1043D000F1E0A4C057FD9058440F551F59F05F3FBE
:1043E00071F04795880F97FB991F61F09F3F79F017
:1043F00087950895121613061406551FF2CF469599
:10440000F1DF08C0161617061806991FF1CF86951A
:104410007105610508940895E894BB2766277727FE
:10442000CB0197F9089551DF08F48FEF08950BD071
:10443000AFCF78DF28F07DDF18F0952309F069CF42
:104440006ECF1124EACFC6DFA0F3959FD1F3950F6D
:1044500050E0551F629FF001729FBB27F00DB11D08
:10446000639FAA27F00DB11DAA1F649F6627B00D98
:10447000A11D661F829F2227B00DA11D621F739F81
:10448000B00DA11D621F839FA00D611D221F749F8F
:104490003327A00D611D231F849F600D211D822FD6
:1044A000762F6A2F11249F5750408AF0E1F088231D
:1044B0004AF0EE0FFF1FBB1F661F771F881F91502A
:1044C0005040A9F79E3F510570F023CFA6CF5F3F24
:1044D000ECF3983EDCF3869577956795B795F7955D
:1044E000E7959F5FC1F7FE2B880F911D96958795E5
:1044F00097F908959F9325DF0F9007FCEE5F59CF42
:104500009F3F31F0915020F4879577956795B79547
:10451000880F911D9695879597F908959F938F938E
:104520007F936F93FF93EF939B01AC0180DFEF913B
:10453000FF9105D02F913F914F915F9178CFDF93FD
:10454000CF931F930F93FF92EF92DF927B018C0129
:10455000689405C0DA2EEF0176DFFE01E894A5919C
:104560002591359145915591AEF3EF017EDDFE0128
:104570009701A801DA9479F7DF90EF90FF900F91FF
:104580001F91CF91DF91089597FB092E07260AD03E
:1045900077FD04D043D006D000201AF470956195C1
:1045A0007F4F0895F6F7909581959F4F08952F922C
:1045B0003F924F925F926F927F928F929F92AF92B3
:1045C000BF92CF92DF92EF92FF920F931F93CF9300
:1045D000DF93CDB7DEB7CA1BDB0B0FB6F894DEBF97
:1045E0000FBECDBF09942A88398848885F846E84BD
:1045F0007D848C849B84AA84B984C884DF80EE8007
:10460000FD800C811B81AA81B981CE0FD11D0FB60F
:10461000F894DEBF0FBECDBFED010895AA1BBB1BF2
:1046200051E107C0AA1FBB1FA617B70710F0A61BB2
:10463000B70B881F991F5A95A9F780959095BC01D3
:10464000CD010895A0E0B0E0E8E2F3E20C94DF22AF
:10465000EC01A880B980CA80DB80A114B104C10438
:10466000D10441F484E2A82E89EDB82E8BE5C82E42
:1046700087E0D82EC601B5012DE133EF41E050E0CF
:104680000E946F2527EA31E440E050E00E94502567
:104690007B018C01C601B5012DE133EF41E050E013
:1046A0000E946F25CA01B9012CEE34EF4FEF5FEF86
:1046B0000E9450256E0D7F1D801F911F97FF04C023
:1046C0006150704080409048688379838A839B83DF
:1046D0009B013F77C901CDB7DEB7EAE00C94FB221E
:1046E0000E94222308958AE996E00E9422230895D9
:1046F000A0E0B0E080939A0690939B06A0939C065E
:10470000B0939D060895283008F027E03327DA019A
:10471000990F311D87FD916000966105710539F48F
:1047200032602E5F3D9330E32A95E1F708959F3F75
:1047300030F080387105610509F03C5F3C5F3D93C6
:10474000913008F08068911DDF93CF931F930F93F2
:10475000FF92EF92192F987F9695E92F969596954F
:10476000E90FFF27E95AFB4F99273327EE24FF244F
:10477000A701E70105900894079428F4360FE71E77
:10478000F81E491F511D660F771F881F991F069439
:10479000A1F70590079428F4E70EF81E491F561F4D
:1047A000C11D770F881F991F661F0694A1F70590FA
:1047B000079428F4F80E491F561FC71FD11D880FF4
:1047C000991F661F771F0694A1F70590079420F4A0
:1047D000490F561FC71FD81F990F661F771F881FC5
:1047E0000694A9F784911095177041F0D695C79556
:1047F00057954795F794E7941A95C1F7EDEFF3E0D5
:1048000068941590159135916591959105907FE289
:104810007395E118F10A430B560BC90BD009C0F789
:10482000E10CF11E431F561FC91FD01D7EF47033CB
:1048300011F48A95E6CFE894015030F0080F0AF49D
:104840000027021708F4202F2395022F7A3328F02F
:1048500079E37D932A95E9F710C07D932A9589F62F
:10486000069497956795379517951794E118F10A6F
:10487000430B560BC90BD00998F023957E91739585
:104880007A3308F070E37C932013B8F77E9170615F
:104890007D9330F0839571E37D9370E32A95E1F782
:1048A0001124EF90FF900F911F91CF91DF919927E5
:1048B00087FD90950895FC010590615070400110AE
:1048C000D8F7809590958E0F9F1F0895FC01615039
:1048D000704001900110D8F7809590958E0F9F1F22
:1048E00008950F931F93CF93DF938C01EB018B817E
:1048F00081FF1BC082FF0DC02E813F818C819D8175
:104900002817390764F4E881F9810193F983E88372
:1049100006C0E885F985802F0995892B31F48E81B1
:104920009F8101969F838E8302C00FEF1FEFC80106
:10493000DF91CF911F910F910895AEE0B0E0E3EACF
:10494000F4E20C94E5220D891E898F89988D97FFDA
:1049500002C080E090E801979E838D831A830983CB
:1049600086E08C839E01255E3F4FCE010196698DC6
:104970007A8DA9010E94FE194D815E8157FD0AC002
:104980002F813885421753070CF49A01020F131F29
:10499000F80110822E96E4E00C940123AEE0B0E022
:1049A000E4EDF4E20C94E5220D891E8986E08C8307
:1049B0001A8309838FEF9FE79E838D839E01275E75
:1049C0003F4FCE0101966F89788DA9010E94FE1993
:1049D0002F813885020F131FF80110822E96E4E014
:1049E0000C940123FA01AA27283051F1203181F1DA
:1049F000E8946F936E7F6E5F7F4F8F4F9F4FAF4FE7
:104A0000B1E03ED0B4E03CD0670F781F891F9A1FF9
:104A1000A11D680F791F8A1F911DA11D6A0F711DAD
:104A2000811D911DA11D20D009F468943F912AE0B9
:104A3000269F11243019305D3193DEF6CF010895A1
:104A4000462F4770405D4193B3E00FD0C9F7F6CFD2
:104A5000462F4F70405D4A3318F0495D31FD40529A
:104A6000419302D0A9F7EACFB4E0A6959795879530
:104A700077956795BA95C9F700976105710508950F
:104A80009B01AC010A2E06945795479537952795BB
:104A9000BA95C9F7620F731F841F951FA01D089553
:104AA000629FD001739FF001829FE00DF11D649F12
:104AB000E00DF11D929FF00D839FF00D749FF00D9E
:104AC000659FF00D9927729FB00DE11DF91F639F3F
:104AD000B00DE11DF91FBD01CF011124089597FB11
:104AE000092E05260ED057FD04D014D00AD0001C84
:104AF00038F450954095309521953F4F4F4F5F4F7B
:104B00000895F6F790958095709561957F4F8F4F3A
:104B10009F4F0895A1E21A2EAA1BBB1BFD010DC0D9
:104B2000AA1FBB1FEE1FFF1FA217B307E407F5075D
:104B300020F0A21BB30BE40BF50B661F771F881F39
:104B4000991F1A9469F760957095809590959B01CF
:0C4B5000AC01BD01CF010895F894FFCF27
:104B5C0000E100000000086E31303030393637315A
:104B6C0000434F4E4E45435420555342000D0A000E
:104B7C005465656E737920636F6E74726F6C733AE3
:104B8C00200D0A006C6566743A206D6F7665206C9A
:104B9C006566740D0A0072696768743A206D6F76E9
:104BAC00652072696768740D0A0075703A20666931
:104BBC0072650D0A00646F776E3A20646973706CCD
:104BCC0061792067616D65207374617475730D0A6A
:104BDC000063656E7472653A207061757365206749
:104BEC00616D650D0A004C65667420627574746F96
:104BFC006E3A2073746172742F726573746172747F
:104C0C002067616D650D0A005269676874206275D2
:104C1C0074746F6E3A20717569740D0A004C656678
:104C2C007420776865656C3A2073657420746865C8
:104C3C002061696D206F66207468652074757272CE
:104C4C0065740D0A00526967687420776865656C35
:104C5C003A207365742074686520737065656420F0
:104C6C006F66207468652067616D650D0A00436F7F
:104C7C006D707574657220636F6E74726F6C733ABD
:104C8C00200D0A00613A206D6F7665206C656674A4
:104C9C000D0A00643A206D6F76652072696768743E
:104CAC000D0A00773A2066697265200D0A00733A86
:104CBC0020646973706C61792067616D6520737411
:104CCC00617475730D0A00723A2073746172742FDB
:104CDC0072657365742067616D650D0A00703A200A
:104CEC007061757365200D0A00713A2071756974D5
:104CFC000D0A006D3A207365742073706565640D40
:104D0C000A006C3A20736574206C697665730D0A21
:104D1C0000673A207365742073636F72650D0A0027
:104D2C003F3A207072696E7420636F6E74726F6C90
:104D3C00730D0A00683A206D6F7665207368697090
:104D4C000D0A006A3A2064726F7020617374657288
:104D5C006F69640D0A006B3A2064726F7020626F89
:104D6C00756C6465720D0A00693A2064726F70206C
:104D7C00667261676D656E740D0A002D2D2047619A
:104D8C006D6520737461747573202D2D200D0A00D0
:104D9C0041737465726F6964733A20256400426FC5
:104DAC00756C646572733A20256400467261676D98
:104DBC00656E74733A20256400506C61736D6120CC
:104DCC00626F6C74733A2025640041696D3A20253A
:104DDC00640053706565643A202564002563004DBA
:104DEC006F766520746865207368697020746F2015
:104DFC00636F6F72696E646174653A2000536574F9
:104E0C002074686520706C617965722773206C69F9
:104E1C007665733A20005365742074686520706C55
:104E2C006179657227732073636F72653A20004154
:104E3C0053532041504F43414C59534521006F6F00
:104E4C006F6F6F6F6F6F6F6F6F6F6F6F6F6F6F6F66
:104E5C006F6F6F6F2020202020202020202020200A
:104E6C00202020202020206F6F2020206F6F6F6F5C
:104E7C006F0920206F6F6F6F6F20206F6F202020C5
:104E8C0020206F20202020202020206F2020202078
:104E9C006F6F2020206F6F6F6F6F202020206F6F3F
:104EAC006F6F6F20206F6F2020202020202020206B
:104EBC00202020202020202020206F6F2020202048
:104ECC00202020206F202020202020202020206F38
:104EDC006F2020202020202020206F202020202028
:104EEC00202020206F6F2020202020202020202018
:104EFC006F20202020202020206F6F2020202020B9
:104F0C002020206F6F6F6F202020202020206F6FBB
:104F1C002020202020202020202020202020202085
:104F2C002020206F6F2020206F6F6F6F6F6F6F6F5F
:104F3C006F6F6F6F6F6F20206F6F202020206F209E
:104F4C002020202020202020206F2020206F6F2068
:104F5C00202020206F20202020202020206F2020A7
:104F6C0020206F6F2020202020206F6F6F6F6F6FBD
:104F7C006F2020202020206F6F2020202020202038
:104F8C002020202020202020202020206F6F6F6FD9
:104F9C006F6F6F6F6F6F6F6F6F6F6F6F6F6F6F6F15
:104FAC006F6F0047414D45204F56455200524553B7
:104FBC0054415254204F52205155495421005469A8
:104FCC006D653A203025643A3025640054696D656E
:104FDC003A2025643A25640054696D653A203025E1
:104FEC00643A25640054696D653A2025643A30258D
:104FFC0064004C697665733A20256400506F696EC5
:10500C0074733A2025640014002300290001000168
:10501C0000202020202020202020202020202020A4
:10502C002020202020202020202020202020202074
:10503C002020202020202020202020202020202064
:10504C00202020202020202020202020206F6F20B6
:10505C0020206F6F6F6F6F2020206F6F6F6F6F6FDF
:10506C006F6F6F6F6F6F6F6F6F6F6F6F6F20202031
:10507C006F6F6F6F6F2020206F6F00C10520202095
:10508C006F20202020206F6F6F2020206F6F6F6F9C
:10509C006F206F6F6F6F6F6F6F206F6F6F6F6F2001
:1050AC0020206F6F6F20202020206F202020002DCB
:1050BC000620206F2020206F6F6F206F6F6F6F6F37
:1050CC00206F6F6F2020206F2020006106206F2042
:1050DC006F6F6F206F20007D066F6F6F6F008906FA
:0E50EC00EBFF000016002B0041000100000049
:00000001FF
