:100000000C947C020C9499020C9499020C94990221
:100010000C9499020C9499020C9499020C949902F4
:100020000C9499020C9499020C9400050C943B05D5
:100030000C9499020C9499020C9499020C949902D4
:100040000C9499020C9499020C9499020C949902C4
:100050000C9499020C9499020C9499020C949902B4
:100060000C9499020C9499020C9499020C949902A4
:100070000C9499020C9499020C9499020C94990294
:100080000C9499020C9499020C9499020C949E0D74
:100090000C9499020C9499020C9499020C94990274
:1000A0000C9499020C9499020C9499029504920470
:1000B0008F048C0489048604830480047D047A04FC
:1000C0007704740471046E046B04680465046204AC
:1000D0005F045C0459045604530450044D044A045C
:1000E0004704440441043E043B043804350432040C
:1000F0002F042C0429042604230420041D041A04BC
:100100001704140411040E040B040804050402046B
:10011000FF03FC03F903F603F303F003ED03EA0323
:10012000E703E403E103DE03DB03D803D50305A8FB
:100130004CCDB2D44EB93836A9020C50B99186884C
:10014000083CA6AAAA2ABE000000803F00010000C9
:100150008001120002000092014300030000D5015B
:100160000401030904D9011402030904EF01160371
:1001700003090407020C0001C11201803601813617
:100180001201000202000010C0167A0400010102F0
:10019000030109024300020100C03209040000010A
:1001A00002020100052400100105240101010424BC
:1001B0000206052406000107058203100040090419
:1001C0000100020A000000070503024000000705C5
:1001D000840240000004030904140359006F0075F1
:1001E00000720020004E0061006D006500000016E6
:1001F000035500530042002000530065007200695F
:100200000061006C0000000C033100320033003448
:1002100000350000006E616E00696E66000000002F
:10022000000000005F00000007000700147F147F3B
:1002300014242A7F2A122313086462364955225057
:100240000005030000001C2241000041221C001494
:10025000083E081408083E0808005030000008084E
:10026000080808006060000020100804023E5149A0
:10027000453E00427F400042615149462141454B85
:10028000311814127F1027454545393C4A494930F9
:1002900001710905033649494936064949291E00B5
:1002A00036360000005636000008142241001414AF
:1002B000141414004122140802015109063249792C
:1002C000413E7E1111117E7F494949363E414141EF
:1002D000227F4141221C7F494949417F0909090187
:1002E0003E4149497A7F0808087F00417F4100204C
:1002F00040413F017F081422417F404040407F023F
:100300000C027F7F0408107F3E4141413E7F090976
:1003100009063E4151215E7F09192946464949494E
:100320003101017F01013F4040403F1F2040201F1D
:100330003F4038403F6314081463070870080761A2
:1003400051494543007F414100020408102000410B
:10035000417F00040201020440404040400001028D
:10036000040020545454787F48444438384444446A
:1003700020384444487F3854545418087E090102F8
:100380000C5252523E7F0804047800447D40002005
:1003900040443D007F1028440000417F40007C0421
:1003A0001804787C0804047838444444387C1414D5
:1003B0001408081414187C7C080404084854545485
:1003C00020043F4440203C4040207C1C2040201C16
:1003D0003C4030403C44281028440C5050503C4491
:1003E00064544C44000836410000007F0000004186
:1003F0003608001008081008784641467800407A10
:1004000010F35A00A0724E18090010A5D4E800009D
:10041000E87648170000E40B54020000CA9A3B003B
:100420000000E1F505000080969800000040420FB2
:10043000000000A08601000000102700000000E876
:1004400003000000006400000000000A000000003B
:10045000000100000000002C76D888DC674F0823DC
:10046000DFC1DFAE59E1B1B796E5E3E453C63AE642
:1004700051997696E8E6C28426EB898C9B62ED4022
:100480007C6FFCEFBC9C9F40F2BAA56FA5F4900571
:100490005A2AF75C936B6CF9676DC11BFCE0E40DA5
:1004A00047FEF520E6B500D0ED902E030094357799
:1004B000050080841E080000204E0A000000C80CC1
:1004C000333333330F986E12831141EF8D2114892A
:1004D0003BE65516CFFEE6DB18D1844B381BF77C84
:1004E0001D901DA4BBE424203284725E228100C9C9
:1004F000F124ECA1E53D270011241FBECFEFDAE087
:10050000DEBFCDBF15E0A0E0B1E0E8E1FBE402C052
:1005100005900D92A239B107D9F719E0A2E9B5E02B
:1005200001C01D92A838B107E1F70E94C6190C94CA
:100530008A250C94000087E880937A000895982F0C
:100540009F71906490937C00807280937B00809177
:100550007A00806480937A0080917A0086FDFCCFD7
:100560002091780030917900C901089581E080934D
:10057000D70080EA8093D80082E189BD09B400FEEB
:10058000FDCF80E98093D8001092E0001092920590
:10059000109293058CE08093E20078940895809106
:1005A000920508952FB7F89480919205882369F0F9
:1005B00083E08093E9009BE68091E80085FD09C017
:1005C00082FF03C09093E800F7CF2FBF2FEF3FEFDC
:1005D0000CC09091F1008091E80085FD03C08BE68E
:1005E0008093E8002FBF292F30E0C90108952FB76D
:1005F000F89480919205882311F490E010C083E074
:100600008093E9009091F200992349F48091E800E9
:1006100082FF05C085FD03C08BE68093E8002FBFF5
:10062000892F089580919205882371F09FB7F894DF
:1006300083E08093E9002BE602C02093E8008091DC
:10064000E80085FDFACF9FBF0895482F809192055D
:100650008823D9F12FB7F89484E08093E900809142
:100660009505882341F08091E80085FD02C02FBFE9
:1006700012C0109295059091E400975E34E080914D
:10068000E80085FD13C02FBF8091E400891729F48D
:1006900081E0809395058FEF0895809192058823DE
:1006A000A1F02FB7F8943093E900E9CF4093F1001F
:1006B0008091E80085FD03C08AE38093E80085E02F
:1006C000809394052FBF80E008958FEF0895282F21
:1006D00080919205882351F09FB7F89484E080932D
:1006E000E9008091E80085FD03C09FBF8FEF08956A
:1006F0002093F1008091E80085FD03C08AE3809398
:10070000E80085E0809394059FBF80E00895CF9333
:10071000DF93EC0180919205882309F41CC13FB757
:10072000F89484E08093E90080919505882309F48A
:1007300008C18091E80085FD02C03FBF0CC1109246
:100740009505FFC09091E400975E8091E80085FDDB
:1007500013C03FBF8091E400891721F481E08093AA
:100760009505F9C080919205882309F4F4C03FB73C
:10077000F894B093E900E9CF8091F200242F281B70
:10078000822F90E06817790708F4262F822F90E0D7
:100790008134910508F0C6C08A5A9F4FFC01EE0FC4
:1007A000FF1F0590F491E02D099489918093F10049
:1007B00089918093F10089918093F10089918093D0
:1007C000F10089918093F10089918093F1008991E2
:1007D0008093F10089918093F10089918093F100D9
:1007E00089918093F10089918093F10089918093A0
:1007F000F10089918093F10089918093F1008991B2
:100800008093F10089918093F10089918093F100A8
:1008100089918093F10089918093F100899180936F
:10082000F10089918093F10089918093F100899181
:100830008093F10089918093F10089918093F10078
:1008400089918093F10089918093F100899180933F
:10085000F10089918093F10089918093F100899151
:100860008093F10089918093F10089918093F10048
:1008700089918093F10089918093F100899180930F
:10088000F10089918093F10089918093F100899121
:100890008093F10089918093F10089918093F10018
:1008A00089918093F10089918093F10089918093DF
:1008B000F10089918093F10089918093F1008991F1
:1008C0008093F10089918093F10089918093F100E8
:1008D00089918093F10089918093F10089918093AF
:1008E000F10089918093F10089918093F1008991C1
:1008F0008093F10089918093F10089918093F100B8
:1009000089918093F10089918093F100899180937E
:10091000F10089918093F10089918093F100899190
:100920008093F10089918093F1008091E80085FD2A
:1009300002C05093E800621B7109A09394053FBF69
:1009400004C0B4E040E45AE3A5E06115710509F084
:10095000F9CE80E001C08FEFDF91CF9108959FB76E
:10096000F89480919405882341F084E08093E90015
:100970008AE38093E800109294059FBF08956091E8
:10098000000170910101809102019091030108958D
:1009900080910401089580910501089580910601D8
:1009A0000895809193050895282F9FB7F89480911A
:1009B0009205882339F082E08093E9008091E80075
:1009C00085FD03C09FBF8FEF089581EA8093F100FA
:1009D00080E28093F1001092F1001092F1001092E9
:1009E000F1001092F10081E08093F1001092F1008B
:1009F0002093F1008AE38093E8009FBF80E0089590
:100A00001F920F920FB60F9211248F939F93809194
:100A1000E1001092E100982F83FF11C01092E900CD
:100A200081E08093EB001092EC0082E18093ED0076
:100A300088E08093F000109292051092930592FF47
:100A400013C080919205882379F0809194058823C2
:100A500059F0815080939405882331F484E0809389
:100A6000E9008AE38093E8009F918F910F900FBE79
:100A70000F901F9018951F920F920FB60F9211248E
:100A80000F931F932F933F934F935F936F937F9396
:100A90008F939F93AF93BF93EF93FF931092E900CF
:100AA0008091E80083FF3CC14091F1003091F1005A
:100AB0008091F100682F70E02091F100922F80E08A
:100AC000682B792B8091F100A82FB0E02091F100E4
:100AD000922F80E0A82BB92B1091F1000091F1002A
:100AE00082EF8093E800363009F05AC023E531E008
:100AF000A90145505040F901379785919491861787
:100B0000970701F5FA01859194918A179B07D1F413
:100B10009A012E5F3F4FF901659174912E5F3F4F0F
:100B2000F9014491212F30E0902F80E0282B392BC0
:100B30002F3F310519F010F02FEF30E0241758F453
:100B4000422F09C0295F3F4F495F5F4FF1E02D37CA
:100B50003F0789F6E5C05EEF8091E800282F30E07E
:100B6000C90185709070892BB9F322FDDCC0342F48
:100B7000413108F030E1232FCB0106C0FC01019682
:100B8000E491E093F10021502223C1F7630F711D1E
:100B9000431B5093E8004423F9F63031E9F2C3C017
:100BA000353061F48EEF8093E8008091E80080FF9B
:100BB000FCCF862F80688093E300B5C0393051F5B3
:100BC000442309F0ADC060939205109293051092F2
:100BD00094058EEF8093E80086E791E021E0209372
:100BE000E900FC010196E491E093EB00EE2369F04B
:100BF000AC014F5F5F4FFC0184918093EC00CA0110
:100C00000196FA0134913093ED002F5F253039F7CA
:100C10008EE181C0383061F4403809F081C08091A4
:100C2000E80080FFFCCF809192058093F10050C0D6
:100C3000313289F4413A09F073C08091E80080FFB5
:100C4000FCCFE0E0F1E081918093F10081E0E730BA
:100C5000F807C9F73DC03032A1F4413209F060C055
:100C60008091E80082FFFCCFE0E0F1E08091F100AC
:100C7000819381E0E730F807C9F78BEF8093E800B4
:100C800027C0323251F4413209F04AC060939305D3
:100C90008091E80080FFFCCF1BC03323E9F48091F2
:100CA000E80080FFFCCF423811F080E00DC0A09337
:100CB000E9008091EB0090E025E0969587952A95D4
:100CC000E1F781701092E9008093F1001092F10039
:100CD0008EEF8093E80027C0313011F0333001F5FA
:100CE0004230F1F4672BE1F42A2F2F77822F8150C5
:100CF0008430B0F48EEF8093E8002093E900333025
:100D000079F089E18093EB0081E090E002C0880FE8
:100D1000991F2A95E2F78093EA001092EA0003C037
:100D200081E28093EB00FF91EF91BF91AF919F9192
:100D30008F917F916F915F914F913F912F911F9173
:100D40000F910F900FBE0F901F901895CF92DF92CA
:100D5000EF92FF920F931F93DC01841795073CF1EC
:100D6000C801840F951FA817B9070CF56217730700
:100D7000F4F0E20EF31E6E157F05CCF490E0A41B98
:100D8000B50B621B730B609FF001619FF00D709FAC
:100D9000F00D1124CA0EDB1EEC0DFD1D808180328A
:100DA00009F491E081E09827292F30E002C020E08B
:100DB00030E0C9011F910F91FF90EF90DF90CF902D
:100DC00008952F923F924F925F926F927F928F92EF
:100DD0009F92AF92BF92CF92DF92EF92FF920F93CA
:100DE0001F93DF93CF93CDB7DEB760970FB6F8941C
:100DF000DEBF0FBECDBF9A8389837C836B835E8306
:100E00004D83190118870F83FA86E986DC86CB8625
:100E1000BE86AD86988A8F86882499242EC06980E4
:100E20007A806A0C7B1CC301B20149815A812B81F3
:100E30003C810D811E817101CF80D8840E94A6065D
:100E4000892B81F0C301B20149855A852B853C85E8
:100E50000D851E85EF84F888CDA0DEA00E94A60631
:100E6000892BC1F40894A11CB11C8D819E81A81608
:100E7000B906ACF20894811C911C821493041CF0F6
:100E800020E030E009C0AA24BB244B805C80480CE1
:100E9000591CEBCF21E030E0C90160960FB6F89401
:100EA000DEBF0FBECDBFCF91DF911F910F91FF909D
:100EB000EF90DF90CF90BF90AF909F908F907F90FA
:100EC0006F905F904F903F902F900895AF92BF9298
:100ED000CF92DF92EF92FF920F931F936091DC0508
:100EE0007091DD058091DE059091DF05E090940022
:100EF000F09095000E94062120E030E040E857E4A1
:100F00000E94F5215B016C0100E010E0C801B7010F
:100F10000E9406219B01AC01C601B5010E9402207E
:100F200020E030E040E853E40E94F52120E034E284
:100F300044EF5AE40E946D201F910F91FF90EF90B3
:100F4000DF90CF90BF90AF9008950E9466070E94F7
:100F5000D520DC01CB016CE370E00E94A222089551
:100F60000E9466070E94D520DC01CB016CE370E093
:100F70000E94A222CB0108951092DC051092DD059B
:100F80001092DE051092DF050895CF93DF93409114
:100F900098055091990541505040EC01CC0FDD1F50
:100FA000C851D94FFC01EE0FFF1FEE0FFF1FE25596
:100FB000FA4F9C010EC02F5F3F4F8A819B8189931E
:100FC000999384819581A681B78181939193A1930F
:100FD000B193241735077CF35093990540939805F6
:100FE00082E090E090934F0780934E07DF91CF917E
:100FF0000895CF93DF934091DA055091DB0541507E
:101000005040EC01CC0FDD1FC252D94FFC01EE0F56
:10101000FF1FEE0FFF1FEE5AF84F9C010EC02F5F0F
:101020003F4F8A819B818993999384819581A68181
:10103000B78181939193A193B193241735077CF3E2
:101040005093DB054093DA0581E090E090934F07E1
:1010500080934E07DF91CF910895EF92FF920F9307
:101060001F93AB01823591052CF025EA30E0281B57
:10107000390B05C09C0197FF02C020E030E0E090F2
:101080009605F0909705F701EE0FFF1FE859F84F0E
:10109000318320838701000F111F000F111F0250A1
:1010A000194FBA01882777FD8095982F0E94082153
:1010B000F80160837183828393830894E11CF11C9F
:1010C000F0929705E09296051F910F91FF90EF9097
:1010D0000895CF93DF934091960550919705415025
:1010E0005040EC01CC0FDD1FC859D84FFC01EE0F6A
:1010F000FF1FEE0FFF1FE250F94F9C010EC02F5F44
:101100003F4F8A819B818993999384819581A681A0
:10111000B78181939193A193B193241735077CF301
:10112000509397054093960580914E0790914F07F5
:10113000049690934F0780934E07DF91CF910895C7
:10114000EF92FF920F931F93AB01803591052CF026
:1011500025EA30E0281B390B05C09C0197FF02C02F
:1011600020E030E0E0909805F0909905F701EE0F4F
:10117000FF1FE851F94F318320838701000F111FB2
:10118000000F111F02551A4FBA01882777FD80956D
:10119000982F0E940821F8016083718382839383D2
:1011A0000894E11CF11CF0929905E09298051F91BA
:1011B0000F91FF90EF900895A091DA05B091DB05B3
:1011C000EEEDF6E060E070E040E050E020E030E07E
:1011D0000CC08081918188971CF46F5F7F4F02C0A3
:1011E0004F5F5F4F2F5F3F4F32962A173B078CF3BD
:1011F000461757075CF481E090E09093A105809337
:10120000A0051092A3051092A205089581E090E038
:101210009093A3058093A2051092A1051092A005BA
:1012200008956F927F928F929F92AF92BF92CF92CA
:10123000DF92EF92FF920F931F930E946607209117
:1012400036063091370640913806509139060E9493
:1012500001207B018C010E9466073B014C01A0909C
:10126000D605B090D705C090D805D090D905C80153
:10127000B70120E030E040E050E40E94F1218823F3
:10128000F4F01092A1051092A00580E090E0A0E09B
:10129000B0E08093360690933706A0933806B0935B
:1012A00039068093D6059093D705A093D805B093BF
:1012B000D9052A9810926707109266071BC0C401CF
:1012C000B301A60195010E94012020E030E040E03A
:1012D0005FE30E94F121882364F02A980E94660748
:1012E0006093D6057093D7058093D8059093D90560
:1012F00001C02A9A1F910F91FF90EF90DF90CF903D
:10130000BF90AF909F908F907F906F9008950E94B4
:101310006607209136063091370640913806509185
:1013200039060E94012020E030E040E050E40E94B5
:10133000F1218823F4F01092A3051092A20580E019
:1013400090E0A0E0B0E08093360690933706A0933B
:101350003806B09339068093D6059093D705A093AD
:10136000D805B093D9052B9810926707109266079D
:1013700008950E9466072091D6053091D7054091C7
:10138000D8055091D9050E94012020E030E040E0CE
:101390005FE30E94F121882364F02B980E94660786
:1013A0006093D6057093D7058093D8059093D9059F
:1013B00008952B9A0895181619062CF420E030E0B1
:1013C0001616170614F021E030E0C9010895EF92D7
:1013D000FF920F931F93CF93DF9360919A057091C3
:1013E0009B05615070409C01220F331F220F331F59
:1013F000A9014657594FE901C65CD94FF901EA5195
:10140000FA4F9C011EC02F5F3F4FDA011496ED90FA
:10141000FD900D911C911797ED92FD920D931D93E8
:10142000AD018C819D81AE81BF8189939993A993F0
:10143000B99384819581A681B78181939193A1937A
:10144000B19326173707FCF270939B0560939A05BA
:10145000DF91CF911F910F91FF90EF900895CF9260
:10146000DF92EF92FF920F931F93CF93DF93EC01E4
:1014700080919A0590919B05449709F467C00E945A
:1014800066072091E0053091E1054091E205509119
:10149000E3050E9401202DEC3CEC4CE45EE30E944D
:1014A000F12118160CF052C0E0909A05F0909B05BF
:1014B0008701000F111F000F111FAAE8CA2EA6E016
:1014C000DA2EC00ED11E6091FC067091FD068827B1
:1014D00077FD8095982F0E940821F6016083718323
:1014E00082839383FAE3CF2EF6E0DF2EC00ED11E67
:1014F0006091E4057091E505882777FD8095982F28
:101500000E940821F60160837183828393830A51CC
:101510001A4FBE01882777FD8095982F0E940821D9
:10152000F80160837183828393830894E11CF11C2A
:10153000F0929B05E0929A050E9466076093E00591
:101540007093E1058093E2059093E305DF91CF91DD
:101550001F910F91FF90EF90DF90CF9008952F9201
:101560003F924F925F926F927F928F929F92AF9233
:10157000BF92CF92DF92EF92FF920F931F93DF9370
:10158000CF93CDB7DEB728970FB6F894DEBF0FBE66
:10159000CDBF1A821982ABC000D02DB73EB72F5FE6
:1015A0003F4F3C832B8309811A81000F111F000FCD
:1015B000111FF801E657F94F608171818281938193
:1015C0000E94D5201B012C01065C194FF801608197
:1015D0007181828193810E94D5203B014C01009151
:1015E0008C0510918D052F813885220F331F2252D3
:1015F000394F3E832D83F901E080F1804F8058847C
:10160000440C551C440C551C22E537E0420E531E79
:10161000F20160817181828193810E94D5205B01FA
:101620006C0180915D0590915E05EB81FC81918359
:101630008083C101B30142E050E022E030E0650167
:10164000F7E0AF2EB12CE7E08E2E912C0E94E10640
:101650000F900F90892BB9F1ED81FE8100811181EE
:10166000F20160817181828193810E94D5209B016A
:10167000AC01C801B9010E94A008ED81FE81008182
:101680001181095F1F4FF201608171818281938115
:101690000E94D5209B01AC01C801B9010E94A0089D
:1016A0008F8198850E94F90789819A810E94E709B4
:1016B00029813A81215030403A8329838F8198854E
:1016C000019798878F83EF81F8853196F887EF83AC
:1016D0008091DA059091DB052F813885281739072D
:1016E0000CF45ACF89819A8101969A8389838091DB
:1016F0009A0590919B05E981FA81E817F9071CF496
:1017000018861F82E5CF28960FB6F894DEBF0FBE6D
:10171000CDBFCF91DF911F910F91FF90EF90DF90A0
:10172000CF90BF90AF909F908F907F906F905F9081
:101730004F903F902F9008952F923F924F925F923B
:101740006F927F928F929F92AF92BF92CF92DF92D1
:10175000EF92FF920F931F93DF93CF93CDB7DEB736
:1017600028970FB6F894DEBF0FBECDBF1A8219823C
:10177000ABC000D02DB73EB72F5F3F4F3C832B83CC
:1017800009811A81000F111F000F111FF801E65780
:10179000F94F60817181828193810E94D5201B0164
:1017A0002C01065C194FF80160817181828193815F
:1017B0000E94D5203B014C0100918C0510918D05B4
:1017C0002F813885220F331F2851394F3E832D83B7
:1017D000F901E080F1804F805884440C551C440C82
:1017E000551C2EEA35E0420E531EF20160817181D4
:1017F000828193810E94D5205B016C0180917905E3
:1018000090917A05EB81FC8191838083C101B301C2
:1018100042E050E022E030E06501F7E0AF2EB12C6D
:10182000E7E08E2E912C0E94E1060F900F90892BFD
:10183000B9F1ED81FE8100811181F2016081718138
:10184000828193810E94D5209B01AC01C801B9011E
:101850000E942D08ED81FE81008111810B5F1F4FD9
:10186000F20160817181828193810E94D5209B0168
:10187000AC01C801B9010E942D088F8198850E9492
:10188000C50789819A810E94E70929813A812150FF
:1018900030403A8329838F819885019798878F8379
:1018A000EF81F8853196F887EF83809198059091C4
:1018B00099052F813885281739070CF45ACF89816B
:1018C0009A8101969A83898380919A0590919B05CC
:1018D000E981FA81E817F9071CF418861F82E5CF21
:1018E00028960FB6F894DEBF0FBECDBFCF91DF9123
:1018F0001F910F91FF90EF90DF90CF90BF90AF902E
:101900009F908F907F906F905F904F903F902F901F
:1019100008952F923F924F925F926F927F928F9293
:101920009F92AF92BF92CF92DF92EF92FF920F936E
:101930001F93DF93CF9300D000D000D0CDB7DEB798
:101940001A82198281C000D02DB73EB72F5F3F4F5A
:101950003C832B8309811A81000F111F000F111F77
:10196000F801E657F94F60817181828193810E946D
:10197000D5201B012C01065C194FF8016081718193
:10198000828193810E94D5203B014C0100918C05FE
:1019900010918D05ED81FE81EE0FFF1FE859F84F84
:1019A000E080F180ED81FE81EE0FFF1FEE0FFF1F43
:1019B000E250F94F60817181828193810E94D5202C
:1019C0005B016C018091850590918605EB81FC811E
:1019D00091838083C101B30142E050E022E030E016
:1019E0006501F3E0AF2EB12CE3E08E2E912C0E9426
:1019F000E1060F900F90892B99F08D819E810E94B6
:101A0000690889819A810E94E70929813A812150D8
:101A100030403A8329838D819E8101979E838D83F7
:101A2000ED81FE813196FE83ED8380919605909144
:101A300097052D813E81281739070CF484CF8981C1
:101A40009A8101969A83898380919A0590919B054A
:101A5000E981FA81E817F9071CF41E821D82E5CF9F
:101A600026960FB6F894DEBF0FBECDBFCF91DF91A3
:101A70001F910F91FF90EF90DF90CF90BF90AF90AC
:101A80009F908F907F906F905F904F903F902F909E
:101A900008950E94AF0A0E949C0B0E94890C089531
:101AA0008091BB049091BC04892B59F48091B904B6
:101AB0009091BA04892B29F01092BA041092B904BB
:101AC00008958091B9049091BA04892B51F481E072
:101AD00090E09093BC048093BB049093BA048093ED
:101AE000B90408958091BB049091BC04892B59F0EE
:101AF0008091B9049091BA04892B29F01092BA040C
:101B00001092B90408958091B9049091BA04892B78
:101B100051F481E090E09093BA048093B90410925C
:101B2000BC041092BB0408951092900084E080934E
:101B3000910081E080937100789408951F920F9234
:101B40000FB60F9211248F939F93AF93BF93809101
:101B5000A4059091A505892B99F48091DC059091BD
:101B6000DD05A091DE05B091DF050196A11DB11D37
:101B70008093DC059093DD05A093DE05B093DF052F
:101B8000BF91AF919F918F910F900FBE0F901F90BB
:101B900018950895209821985098519827988598DD
:101BA0008698229A0E949B0208950F931F93CF93C9
:101BB000DF930E94631DC0E0D0E080E090E0BE01B2
:101BC00044E550E09E0101E010E00E94A61D219630
:101BD000C133D10591F784E190E06AE070E047E01D
:101BE00051E020E030E00E945A1F0E947F1FFFCF8B
:101BF000EF92FF920F931F93CF93DF9389B1869556
:101C000080FF0FC060919C0570919D0580919E059D
:101C100090919F050E94D520DC01CB010E942F0AE4
:101C20000BC083B1869580FF03C00E94500D04C095
:101C3000489B02C00E94720D81E00E949F02EC014D
:101C40000E946607E090AA05F090AB050091AC05F4
:101C50001091AD05A80197010E94012020E030E01D
:101C600040E85FE30E94F12187FF0AC0C801B70185
:101C700020E030E040E050E00E9466208823F9F444
:101C8000BE0180E090E00E94082120E030E040E8C2
:101C90005AE30E94F5216093DA067093DB06809385
:101CA000DC069093DD0680E090E0A0E0B0E0809359
:101CB000AA059093AB05A093AC05B093AD05DF9159
:101CC000CF911F910F91FF90EF9008956F927F92A7
:101CD0008F929F92AF92BF92CF92DF92EF92FF923C
:101CE0000F931F93CF93DF9380E00E949F02EC013C
:101CF000E090A605F090A7050091A8051091A90510
:101D00000E9466079B01AC01C801B7010E94012037
:101D100020E030E040E050E00E946620882381F41B
:101D20006091A6057091A7058091A8059091A905DD
:101D300020E030E040E050E00E946620882359F522
:101D4000BE0180E090E00E94082120E030E040EFFA
:101D500052E40E94F52120E030E040E85AE30E947E
:101D6000F52120E030E040E752E40E94012060933A
:101D70009C0570939D0580939E0590939F0580E040
:101D800090E0A0E0B0E08093A6059093A705A09313
:101D9000A805B093A905C091B704D091B80460918B
:101DA0009C0570919D0580919E0590919F052BED5E
:101DB0003FE049E450EC0E94F52120E030E044E3AC
:101DC00053E40E946D207B018C01C8010E945822BF
:101DD0003B014C012796BE01882777FD8095982FFF
:101DE00027970E9408215B016C01C401B30120E028
:101DF00030E040E850EC0E94F5219B01AC01C601A7
:101E0000B5010E9402200E94D5207093FD066093C8
:101E1000FC06B701C8010E946A2020E030E040E8DB
:101E200050EC0E94F52120E030E044E352E40E94AF
:101E300002200E94D5207093E5056093E405209769
:101E400031F48091BB049091BC04892B49F4C534D2
:101E5000D10551F48091BB049091BC04892B21F4ED
:101E60001092BA041092B9048091B9049091BA0406
:101E7000892B99F08091BB049091BC04892B29F0A7
:101E80001C161D0654F4219704C0C534D1052CF44A
:101E90002196D093B804C093B704DF91CF911F91DE
:101EA0000F91FF90EF90DF90CF90BF90AF909F90F9
:101EB0008F907F906F9008952F923F924F925F92F4
:101EC0006F927F928F929F92AF92BF92CF92DF924A
:101ED000EF92FF920F931F93DF93CF9300D000D028
:101EE000CDB7DEB72AE8622E26E0722E9AE3892E5D
:101EF00096E0992E26EE35E03A8329831C821B82D8
:101F000033C0F301A080B180C280D380F40120806F
:101F1000318042805380E981FA81E080F180028142
:101F20001381C601B5010E94D520161617063CF490
:101F3000C201B1010E94D52016161706FCF08B8154
:101F40009C810E94E7092B813C812F5F3F4F3C839E
:101F50002B8384E090E0680E791E880E991EE9813B
:101F6000FA813496FA83E98380919A0590919B05D2
:101F70002B813C812817390724F233C0C801B701EF
:101F80002BED3FE049E450EC0E94F5217B018C01F0
:101F900020E030E044E353EC0E946D200E94582280
:101FA0009B01AC01C601B5010E940220F3016083D0
:101FB000718382839383C801B70120E030E044E35A
:101FC00053E40E946D200E946A209B01AC01C20173
:101FD000B1010E940120F4016083718382839383A5
:101FE000B2CF0F900F900F900F90CF91DF911F9174
:101FF0000F91FF90EF90DF90CF90BF90AF909F90A8
:102000008F907F906F905F904F903F902F900895AA
:102010000E94B6020EC00E94631D84E190E064E15C
:1020200070E041E151E021E030E00E945A1F0E943F
:102030007F1F0E94CF02882371F30895DC010D9069
:102040000020E9F71197A81BB90BBD010E94870377
:1020500008950F931F930DE111E0C8010E941E1017
:1020600080E291E00E941E1084E391E00E941E1025
:1020700086E491E00E941E108AE591E00E941E1005
:1020800085E691E00E941E1081E891E00E941E10FA
:1020900086E991E00E941E1088EB91E00E941E10DC
:1020A0008DEC91E00E941E1085EF91E00E941E10C1
:1020B000C8010E941E108EE192E00E941E1084E36F
:1020C00092E00E941E1083E492E00E941E1083E5BD
:1020D00092E00E941E108EE592E00E941E1087E79B
:1020E00092E00E941E108DE892E00E941E1089E985
:1020F00092E00E941E1083EA92E00E941E1082EB82
:1021000092E00E941E1081EC92E00E941E1080ED71
:1021100092E00E941E1084EE92E00E941E1083EF57
:1021200092E00E941E1086E093E00E941E1088E15B
:1021300093E00E941E101F910F910895AF92BF92DD
:10214000CF92DF92EF92FF920F931F93DF93CF9383
:10215000CDB7DEB762970FB6F894DEBF0FBECDBF26
:102160008C017B015A013DE1C32E31E0D32EC60123
:102170000E941E108BE293E00E941E10C8010E9474
:102180001E10C6010E941E10C7010E941E10C6012B
:102190000E941E10C5010E941E10C6010E941E1042
:1021A00000D000D000D0EDB7FEB731968E010F5FA2
:1021B0001F4FADB7BEB712961C930E9311978BE3CA
:1021C00093E0938382838091DA059091DB05958378
:1021D00084830E94AC24EDB7FEB736960FB6F89410
:1021E000FEBF0FBEEDBFC8010E941E10C6010E94B7
:1021F0001E1000D000D000D0EDB7FEB73196ADB7BD
:10220000BEB712961C930E93119789E493E09383C3
:1022100082838091980590919905958384830E948B
:10222000AC24EDB7FEB736960FB6F894FEBF0FBEDE
:10223000EDBFC8010E941E10C6010E941E1000D0F2
:1022400000D000D0EDB7FEB73196ADB7BEB712964D
:102250001C930E93119786E593E09383828380917C
:10226000960590919705958384830E94AC24EDB7E1
:10227000FEB736960FB6F894FEBF0FBEEDBFC8018D
:102280000E941E10C6010E941E1000D000D000D077
:10229000EDB7FEB73196ADB7BEB712961C930E934D
:1022A000119784E693E09383828380919A059091BD
:1022B0009B05958384830E94AC24EDB7FEB73696C8
:1022C0000FB6F894FEBF0FBEEDBFC8010E941E10EE
:1022D000C6010E941E1000D000D000D0EDB6FEB6A0
:1022E0000894E11CF11CADB7BEB712961C930E9377
:1022F000119785E793E0F7019383828360919C05B2
:1023000070919D0580919E0590919F050E94D5201A
:10231000D70115967C936E9314970E94AC24EDB769
:10232000FEB736960FB6F894FEBF0FBEEDBFC801DC
:102330000E941E10C6010E941E1000D000D000D0C6
:10234000EDB6FEB60894E11CF11CADB7BEB712960F
:102350001C930E9311978DE793E0F701938382838B
:102360006091DA067091DB068091DC069091DD06C3
:1023700020E030E040E251E40E94F5210E94D520A7
:10238000D70115967C936E9314970E94AC24EDB7F9
:10239000FEB736960FB6F894FEBF0FBEEDBFC8016C
:1023A0000E941E10C6010E941E1062960FB6F8947D
:1023B000DEBF0FBECDBFCF91DF911F910F91FF9078
:1023C000EF90DF90CF90BF90AF900895AF92BF9203
:1023D000CF92DF92EF92FF920F931F93DF93CF93F1
:1023E000CDB7DEB72A970FB6F894DEBF0FBECDBFCC
:1023F0000E941E1000E010E07E010894E11CF11C18
:102400007AE0A72EB12C67E8C62E63E0D62E36C040
:10241000C901C0970A97C0F5C80153E0880F991FFA
:102420005A95E1F7000F111F080F191F00531040B4
:10243000020F131F8DB79EB708970FB6F8949EBF73
:102440000FBE8DBFEDB7FEB73196ADB7BEB71296D2
:10245000FC92EE921197B382A282D582C482378316
:1024600026830E947B248DB79EB708960FB6F894FA
:102470009EBF0FBE8DBFC7010E941E100E94D202D8
:102480009C019923DCF3C4CF8DE191E00E941E10E2
:10249000C8012A960FB6F894DEBF0FBECDBFCF910C
:1024A000DF911F910F91FF90EF90DF90CF90BF9041
:1024B000AF9008958AE893E00E94E61124E081300D
:1024C000920714F080E094E09C0197FF02C020E0A6
:1024D00030E0B901882777FD8095982F0E94082168
:1024E00020E030E040E85AE30E94F5216093DA06EC
:1024F0007093DB068093DC069093DD060E946607EE
:102500006093AA057093AB058093AC059093AD05DD
:10251000089584E993E00E94E61124E08130920757
:1025200014F080E094E09C0197FF02C020E030E0CE
:10253000B901882777FD8095982F0E94082120E017
:1025400030E040EF52E40E94F52120E030E040E826
:102550005AE30E94F52120E030E040E752E40E9477
:10256000012060939C0570939D0580939E05909338
:102570009F050E9466076093A6057093A705809348
:10258000A8059093A90508950F931F93CF93DF9308
:10259000C091DA05D091DB05C530D10574F58CE921
:1025A00093E00E94E611CC0FDD1FC252D94F9983F0
:1025B00088830091DA051091DB058BEA93E00E9495
:1025C000E611000F111F000F111F0E5A184FAA27F6
:1025D00097FDA095BA2FBC01CD010E940821F801FA
:1025E00060837183828393838091DA059091DB0508
:1025F00001969093DB058093DA05DF91CF911F91CF
:102600000F9108950F931F93CF93DF93C091980577
:10261000D0919905CA30D10574F58AEB93E00E94F8
:10262000E611CC0FDD1FC851D94F998388830091E3
:1026300098051091990588EC93E00E94E611000F2F
:10264000111F000F111F02551A4FAA2797FDA095C1
:10265000BA2FBC01CD010E940821F801608371836B
:102660008283938380919805909199050196909328
:10267000990580939805DF91CF911F910F9108954F
:10268000EF92FF920F931F9380919605909197057B
:1026900044977CF586ED93E00E94E6118C0185EE6F
:1026A00093E00E94E611E0909605F0909705F701FF
:1026B000EE0FFF1FE859F84F118300838701000FC9
:1026C000111F000F111F0250194FAA2797FDA09547
:1026D000BA2FBC01CD010E940821F80160837183EB
:1026E000828393830894E11CF11CF0929705E09299
:1026F00096051F910F91FF90EF90089584EF93E05E
:102700000E94E6118634910514F085E490E097FF6D
:1027100002C080E090E09093B8048093B7040895DD
:1027200082E194E00E94E611909351078093500754
:1027300008958BE294E00E94E61190934F078093F6
:102740004E070895EF92FF920F931F938C017B0128
:102750000E945123E01AF10A0894E11CF11CB70110
:102760000E94A2229C01200F311FC9011F910F91CD
:10277000FF90EF900895AF92BF92CF92DF92EF92C9
:10278000FF920F931F93CF93DF9381E090E090939C
:1027900067078093660783E090E09093DB05809362
:1027A000DA054EEDE42E46E0F42E02E517E020E0D7
:1027B00030E0C0E0D0E00F2EF0E0AF2EF0E0BF2E12
:1027C000F0E0CF2EF1ECDF2EF02D16C080E090E08F
:1027D0006DE470E00E94A2139C0103C01C161D064C
:1027E000ACF3F701219331937F01F801A192B192EB
:1027F000C192D1928F0121968091DA059091DB05EB
:10280000C817D9075CF30E94DC08DF91CF911F91B4
:102810000F91FF90EF90DF90CF90BF90AF90089511
:102820000F931F93CF93DF93809166079091670773
:10283000892B09F0C7C002E517E0C0E0D0E031C045
:10284000F80160817181828193812091DA06309153
:10285000DB064091DC065091DD060E940220F80163
:10286000608371838283938320E030E040EE50E404
:102870000E94022020E030E040E252E40E94F12178
:10288000882364F0CE010E94F9078091500790914F
:1028900051070197909351078093500721960C5F41
:1028A0001F4F8091DA059091DB05C817D90744F2D4
:1028B000892B71F48091960590919705892B41F4AD
:1028C0008091980590919905892B11F40E94BB1372
:1028D0000EEA15E0C0E0D0E031C0F80160817181FE
:1028E000828193812091DA063091DB064091DC06EB
:1028F0005091DD060E940220F8016083718382837B
:10290000938320E030E040EA50E40E94022020E07F
:1029100030E040E252E40E94F121882364F0CE01CD
:102920000E94C5078091500790915107019790939D
:1029300051078093500721960C5F1F4F8091980597
:1029400090919905C817D90744F20EEF16E0C0E040
:10295000D0E031C0F8016081718182819381209142
:10296000DA063091DB064091DC065091DD060E94CC
:102970000220F801608371838283938320E030E03A
:1029800040E450E40E94022020E030E040E252E4C3
:102990000E94F121882364F0CE010E946908809191
:1029A00050079091510701979093510780935007DA
:1029B00021960C5F1F4F8091960590919705C8173F
:1029C000D90744F2DF91CF911F910F9108952F9273
:1029D0003F924F925F926F927F928F929F92AF92AF
:1029E000BF92CF92DF92EF92FF920F931F93DF93EC
:1029F000CF9300D000D0CDB7DEB789839A833A0158
:102A00001901270148016B01AA24BB2424C0F70146
:102A10008081803219F44114510431F4C801B601A7
:102A200041E050E00E946B1D8B819C8101969C834C
:102A30008B830F5F1F4F0894E11CF11CEB81FC811D
:102A4000E615F70524F30894A11CB11C860C971C0D
:102A50000894C11CD11CA214B30444F489819A8146
:102A60009C01890174011C821B82E8CF0F900F909A
:102A70000F900F90CF91DF911F910F91FF90EF90EA
:102A8000DF90CF90BF90AF909F908F907F906F908E
:102A90005F904F903F902F900895AF92BF92CF924A
:102AA000DF92EF92FF920F931F93CF93DF930091EA
:102AB000290510912A058091B7049091B80469E224
:102AC00070E04FE050E027E030E0E1E0EE2EF12C46
:102AD0000E94E7148091B7049091B8044091FC06DD
:102AE0005091FD062091E4053091E50507966DE2D1
:102AF00070E001E010E00E94A61DC0E0D0E0CE0131
:102B000067E270E02396AE0127E230E001E010E0DA
:102B10000E94A61D2796CA35D10589F7AA24BB2491
:102B2000C0E0D0E028C0FE01EA57F94F6081718112
:102B3000828193810E94D5206B017C01FE01EA5CB9
:102B4000F94F60817181828193810E94D5209B0120
:102B5000AC0100918C0510918D05C601B90142E0D0
:102B600050E022E030E0B1E0EB2EF12C0E94E714BF
:102B70000894A11CB11C249680919A0590919B0504
:102B8000A816B90684F2A8E6CA2EA7E0DA2EFEEF50
:102B9000AF2EF6E0BF2EC0E0D0E01EC0F601E190FF
:102BA000F1906F01F50161917191819191915F01B6
:102BB0000E94D5209B01AC010091850510918605EE
:102BC000C701B90143E050E023E030E0E1E0EE2E40
:102BD000F12C0E94E714219680919605909197051B
:102BE000C817D907DCF208EEC02E06E0D02E1EEA88
:102BF000A12E15E0B12EC0E0D0E01EC0F601E1909C
:102C0000F1906F01F50161917191819191915F0155
:102C10000E94D5209B01AC010091790510917A05A5
:102C2000C701B90145E050E025E030E0B1E0EB2E0E
:102C3000F12C0E94E71421968091980590919905B6
:102C4000C817D907DCF2AEEDCA2EA6E0DA2EF2E5FF
:102C5000AF2EF7E0BF2EC0E0D0E01EC0F601E1903D
:102C6000F1906F01F50161917191819191915F01F5
:102C70000E94D5209B01AC0100915D0510915E057D
:102C8000C701B90147E050E027E030E0E1E0EE2E77
:102C9000F12C0E94E71421968091DA059091DB05D2
:102CA000C817D907DCF2DF91CF911F910F91FF90E8
:102CB000EF90DF90CF90BF90AF9008951F93E1E623
:102CC000F0E080E8808311E010830E94CA0D8FE459
:102CD0000E94B31F1092900084E0809391001093A3
:102CE000710078940E9408100E944D151F9108955C
:102CF0000E94631D8091BD049091BE04892BB1F0A8
:102D00008091A4059091A505892B81F41092DC0592
:102D10001092DD051092DE051092DF051092BE04C0
:102D20001092BD0484E494E00E941E108091A405DA
:102D30009091A505892B51F40E94F80D0E94660E12
:102D40000E945C0F0E9410140E94490D0E944D15B4
:102D50000E947F1F0895CF93DF930E94631D2A98DE
:102D60002B9883E290E09093B8048093B704C1E07D
:102D7000D0E0D093A505C093A405D093BE04C09322
:102D8000BD0410929B0510929A051092990510921D
:102D90009805109297051092960510924F07109281
:102DA0004E0785E090E090935107809350070E9472
:102DB000BB13D093BA04C093B90480E090E0A0E8BC
:102DC000BFE38093E0059093E105A093E205B09303
:102DD000E30520E030E040E050E02093D60530935A
:102DE000D7054093D8055093D90520939C0530937F
:102DF0009D0540939E0550939F058091B704909147
:102E0000B80407969093FD068093FC0689E290E053
:102E10009093E5058093E4052093A6053093A705DC
:102E20004093A8055093A9052093AA053093AB05BC
:102E30004093AC055093AD0580E090E062E370E014
:102E40000E94A2134A972CF01092BC041092BB046B
:102E500004C0D093BC04C093BB040E944D150E94D3
:102E60007F1FDF91CF910895CF92DF92EF92FF9273
:102E70000F931F93CF93DF930E9466077B018C0112
:102E80002A9A2B9AC0E0D0E0F8ECCF2ED12C0E94E9
:102E9000631D0E946607A80197010E94012020E09F
:102EA00030E040E050E40E94F121882314F02A9899
:102EB0002B987E9B0BC00E94AB16DF91CF911F9188
:102EC0000F91FF90EF90DF90CF9008957D9B02C00F
:102ED0000E94D50D8AE090E06AE070E043E554E09E
:102EE00021E030E00E945A1FC0FD0AC08AE090E055
:102EF00064E170E04DE554E021E030E00E945A1FAB
:102F000088EE93E0F6013197F1F70197D9F7219612
:102F10000E947F1FBCCFAF92BF92CF92DF92EF9201
:102F2000FF920F931F93DF93CF93CDB7DEB7A19797
:102F30000FB6F894DEBF0FBECDBF0E94B0078C0164
:102F40000E94A5079C010A301105D4F4CE014696D3
:102F50002A3031058CF54DB75EB7485050400FB65A
:102F6000F8945EBF0FBE4DBFEDB7FEB73196ADB75B
:102F7000BEB712969C938E9311978EE694E046C04E
:102F80000A30110559F18B30910544F18DB79EB788
:102F900008970FB6F8949EBF0FBE8DBFEDB7FEB772
:102FA0003196CE014696ADB7BEB712969C938E93DE
:102FB00011978CE794E02AC0ADB7BEB718970FB64B
:102FC000F894BEBF0FBEADBFEDB7FEB731961296F7
:102FD0009C938E93119788E894E018C02A303105AD
:102FE00034F58DB79EB708970FB6F8949EBF0FBE05
:102FF0008DBFEDB7FEB73196CE014696ADB7BEB7E1
:1030000012969C938E93119785E994E09383828323
:1030100015830483378326830E94AC244DB75EB7A3
:10302000485F5F4F0FB6F8945EBF0FBE4DBF00D034
:1030300000D000D0EDB7FEB731966E010894C11CE8
:10304000D11CADB7BEB71296DC92CE92119782EA30
:1030500094E09383828380915007909151079583E8
:1030600084830E94AC24EDB7FEB731968E01055FD4
:103070001F4FADB7BEB712961C930E9311978CEAF3
:1030800094E09383828380914E0790914F079583BC
:1030900084830E94AC244DB75EB74A5F5F4F0FB682
:1030A000F8945EBF0FBE4DBFA6E1EA2EF12CEC0EE8
:1030B000FD1EC701B601A8010E949E108091A405C3
:1030C0009091A505892B41F537C00E94631D80E0D2
:1030D00090E060E070E0A50121E030E00E945A1F1E
:1030E00080E090E064E170E0A60121E030E00E9421
:1030F0005A1F80E090E06EE170E0A70121E030E02F
:103100000E945A1F88EE93E0F8013197F1F701977A
:10311000D9F70E947F1F04C05701780108EC10E026
:10312000189BD3CF1092A5051092A4050E94631D91
:103130000E944D150E947F1FA1960FB6F894DEBF26
:103140000FBECDBFCF91DF911F910F91FF90EF90F8
:10315000DF90CF90BF90AF9008958C36910509F421
:1031600076C08D36910524F58836910509F478C02E
:1031700089369105A4F484369105C9F18536910507
:103180004CF48F33910509F468C08136910509F03C
:1031900072C02AC08736910509F06DC05BC08A36BF
:1031A000910509F460C08B3691050CF05FC061C0D9
:1031B0008237910589F1833791055CF48037910559
:1031C00071F181379105D4F58D36910509F053C021
:1031D0003BC084379105A9F184379105D4F0873736
:1031E000910509F048C006C00E94500D08950E9444
:1031F000720D089560919C0570919D0580919E05CA
:1032000090919F050E94D520DC01CB010E942F0ADE
:1032100008950E948B1708950E94AB16089520E030
:1032200030E08091A4059091A505892B11F421E04F
:1032300030E03093A5052093A40508950E94D50D94
:1032400008950E94891208950E945A1208950E94BA
:10325000901308950E94991308950E9429100895CB
:103260000E947E1308950E94C41208950E940213C2
:1032700008950E94401308950E94D20297FD02C053
:103280000E94AD1808950E943C19189B0EC020E0C2
:1032900030E08091A4059091A505892B11F421E0DF
:1032A00030E03093A5052093A4051F9B02C00E9427
:1032B0008B178FB1829586958695837080FF02C0AB
:1032C0000E94AB168FB182958695877080FF02C0F1
:1032D0000E94D50D8091A0059091A105892B11F137
:1032E0008091A4059091A505892BE1F460913606A3
:1032F00070913706809138069091390620E030E0D1
:1033000040E050E00E946620882351F40E94660746
:10331000609336067093370680933806909339068B
:103320000E9411098091A2059091A305892B11F1AA
:103330008091A4059091A505892BE1F46091360652
:1033400070913706809138069091390620E030E080
:1033500040E050E00E946620882351F40E946607F6
:10336000609336067093370680933806909339063B
:103370000E948709809150079091510718161906ED
:1033800014F00E9434170E9478160895CF93DF93AB
:1033900080E090E00E9456230E945E160E94AB16C9
:1033A000C8ECD0E00E94431988EE93E0FE0131970B
:1033B000F1F70197D9F7F6CFA1E1B0E0E2EEF9E13C
:1033C0000C94B5223C017F876E876A01FC0117824D
:1033D0001682838181FD03C06FEF7FEF6FC39E0173
:1033E0002F5F3F4F398B288BF3012381EE85FF85BB
:1033F00023FD859123FF8191FF87EE87882309F4C0
:103400005AC3853251F4EE85FF8523FD859123FF54
:103410008191FF87EE87853229F490E0B3010E9405
:103420004F24E2CF982F10E0882499241032B0F472
:103430009B3269F09C3228F4903251F0933271F44F
:103440000BC09D3239F0903349F4116028C01260EE
:10345000146025C0186023C0106121C017FD2AC068
:10346000892F80538A3078F416FF06C0FAE09F9EB9
:10347000902C1124980E13C03AE0839E802C1124C6
:10348000880E10620CC09E3221F416FD14C3106425
:1034900006C09C3611F4106802C0983659F4EE85C7
:1034A000FF8523FD959123FF9191FF87EE87992357
:1034B00009F0BCCF892F8554833020F4812F80619F
:1034C000905E07C0892F8556833008F09FC1812FF9
:1034D0008F7E86FD02C076E0972E6FE3F62EF822EF
:1034E000953619F4F0E4FF2A07C0963619F420E85F
:1034F000F22A02C091109A94F7FE0AC03BE33915F4
:1035000018F45CE3B52E02C0B92CB39427E009C0CF
:1035100047E0491520F4BB2447E0942EF7CF292D2E
:10352000BB24C60104969D878C87F601608171815A
:1035300082819381AE014F5F5F4F0B2D0E9461230B
:103540006C010981202E332400FF04C003FD02C05A
:103550001DE209C0F1FE02C01BE205C0F2FC02C080
:1035600010E001C010E2C1018C709070892BB9F19C
:10357000112311F483E001C084E0881510F0882441
:103580000AC0881AF3FC07C080E290E0B3010E94F1
:103590004F248A94C9F7112329F0812F90E0B301B9
:1035A0000E944F2423FE03C005E112E00EC009E192
:1035B00012E00BC0E114F10409F0805290E0B30175
:1035C0000E944F240F5F1F4F05C0EF2CFF24F0E136
:1035D000EF22FF24F8018491882361F714C1F7FEDC
:1035E00012C0BC0C24FE04C08A81813309F4BA9451
:1035F0001B141CF0BB24B3942DC0F8E0FB1550F550
:1036000038E0B32E27C0F6FC25C0892D90E08C153C
:103610009D054CF02CEFC2162FEFD20624F030E8B7
:10362000F32A01C09A94992049F0E2E0F0E0EC0F0F
:10363000FD1FE90DF11D80818033A1F3F7FE0AC063
:10364000B92CB394892D90E0C816D90614F09924AA
:1036500001C09C18F7FC03C025E030E009C01C1431
:103660001D041CF021E030E003C096012F5F3F4FA6
:10367000112311F02F5F3F4F992029F0892D90E001
:103680000196280F391F882D90E02817390714F06C
:10369000882401C0821A4F2C5524C2018970907071
:1036A000892B39F008C080E290E0B3010E944F24DA
:1036B0008A948820C1F7112329F0812F90E0B3016B
:1036C0000E944F2443FE07C008C080E390E0B3018E
:1036D0000E944F248A948820C1F7F7FE46C08601D5
:1036E000D7FE02C000E010E076010894E11CF11C56
:1036F000E01AF10A41E050E04C0F5D1FE40EF51EA8
:1037000026014B185108892D90E0AA24BB24A81A41
:10371000B90A5FEF0F3F150729F48EE290E0B3017D
:103720000E944F24C016D10634F0401651061CF4F6
:10373000F701808101C080E3015010400894E11C32
:10374000F11C0A151B052CF090E0B3010E944F24D8
:10375000E0CF0C151D0539F49A81963318F4953392
:1037600011F424FE81E390E04BC08A81813309F09B
:103770000F7E90E0B3010E944F249920A1F08EE2C9
:1037800090E0B3010E944F2412E0E1E0F0E0EC0F82
:10379000FD1FE10FF11D1F5F808190E0B3010E94CA
:1037A0004F249A9491F744FC03C085E690E002C050
:1037B00085E490E0B3010E944F24D7FC05C0C114FA
:1037C000D10441F404FF06C0D094C194D108D3942D
:1037D0008DE201C08BE290E0B3010E944F2480E3B0
:1037E00005C08F5F26EF3FEFC20ED31E3AE0C3162F
:1037F000D104BCF790E0B3010E944F24C601C096EB
:10380000B3010E944F24CC84DD8452C1933631F041
:10381000933799F0933509F059C023C0F6018081A0
:1038200089835E010894A11CB11C22E030E0C20E25
:10383000D31E21E0E22EF12C12C0F601A080B1804F
:1038400016FD03C06FEF7FEF02C0692D70E022E02C
:1038500030E0C20ED31EC5010E9444247C011F77B4
:1038600013C0F601A080B18016FD03C06FEF7FEF9B
:1038700002C0692D70E022E030E0C20ED31EC50107
:103880000E9439247C01106813FF07C01BC080E22E
:1038900090E0B3010E944F248A94882D90E0E816AE
:1038A000F906A8F30FC0F50117FD859117FF819167
:1038B0005F0190E0B3010E944F2481108A94089424
:1038C000E108F108E114F10471F7F2C0943611F047
:1038D000993689F517FF08C0F601208131814281B0
:1038E000538184E090E00AC0F601808191819C01BF
:1038F000442737FD4095542F82E090E0C80ED91E32
:103900009FE6F92EF12257FF09C05095409530955A
:1039100021953F4F4F4F5F4F90E8F92ACA01B901F7
:10392000AE014F5F5F4F2AE030E00E94D024E82EC6
:10393000E889EE1A41C0953721F41F7E2AE030E075
:103940001CC0197F9F3661F0903720F4983509F03C
:10395000B2C00FC0903739F0983709F0ACC004C03E
:1039600028E030E00AC0106114FD146020E130E06E
:1039700004C014FD166020E132E017FF08C0F60114
:10398000608171818281938144E050E008C0F6013A
:1039900080819181BC0180E090E042E050E0C40E63
:1039A000D51EAE014F5F5F4F0E94D024E82E58898C
:1039B000E51A8FE7F82EF122F6FE0BC08EEFF82203
:1039C000E91438F4F4FE07C0F2FC05C09FEEF922BA
:1039D00002C01E2D01C0192DF4FE0DC0FE01EE0D1A
:1039E000F11D8081803319F4E9EEFE2208C01F5FCB
:1039F000F2FE05C003C08F2D867809F01F5F0F2DE2
:103A0000F3FC14C0F0FE0FC0181510F09E2C0BC074
:103A10009E2C980C911A182D06C080E290E0B301FC
:103A20000E944F241F5F1815C0F304C0181510F42E
:103A3000811A01C0882404FF0FC080E390E0B30125
:103A40000E944F2402FF1DC001FD03C088E790E0E3
:103A50000EC088E590E00BC0802F867891F001FFC2
:103A600002C08BE201C080E2F7FC8DE290E0B3017E
:103A70000E944F2406C080E390E0B3010E944F24CF
:103A80009A94E914C0F3EA94E1E0F0E0EC0FFD1F32
:103A9000EE0DF11D808190E0B3010E944F24EE20D5
:103AA00091F706C080E290E0B3010E944F248A940F
:103AB0008820C1F799CCF30166817781CB016196AB
:103AC000E2E10C94D122E0E9F7E0119289E0E838D4
:103AD000F807D9F708959C0197FD37C077FD35C0E9
:103AE0008435910594F5603371057CF5CB0173E065
:103AF000959587957A95E1F76770452B99F0E4E500
:103B00008E9FF0011124E20FF31FE057F84F81E080
:103B100090E002C0880F991F6A95E2F72081282B58
:103B200020830895E4E58E9FF0011124E20FF31F36
:103B3000E057F84F81E090E002C0880F991F6A9526
:103B4000E2F7809520812823208308952F923F92C9
:103B50004F925F926F927F928F929F92AF92BF929D
:103B6000CF92DF92EF92FF920F931F93DF93CF9349
:103B7000CDB7DEB72E970FB6F894DEBF0FBECDBF20
:103B80007C016B014A0139011C870B87841795075B
:103B9000F9F45B0110C0C701B5014B855C850E943B
:103BA0006B1DC614D70424F40894A11CB11C03C0D7
:103BB0000894A108B108C614D7042CF46A147B0435
:103BC0000CF4FDC0E8CFA614B7040CF4F8C0E3CFA2
:103BD00062177307F9F45C0110C0C501B6014B858B
:103BE0005C850E946B1DE814F90424F40894A11C60
:103BF000B11C03C00894A108B108E814F9042CF41E
:103C00008A149B040CF4DBC0E8CFA814B9040CF4AC
:103C1000D6C0E3CF4817590724F447017A013B0186
:103C20006901B4016E197F09882777FD8095982F67
:103C30000E9408216F83788789879A87B3016C195E
:103C40007D09882777FD8095982F0E9408216B8336
:103C50007C838D839E832F81388549855A850E9478
:103C60006D201B012C0120E030E040E050E00E947C
:103C7000F12187FF04C057FA509457F85094DA8224
:103C8000C9820F2EF0E0AF2EF0E0BF2EF0E0CF2E75
:103C9000F0E0DF2EF02D7FC0C70169817A814B856E
:103CA0005C850E946B1DC601B501A20191010E94B5
:103CB00002203BC0C70169817A814B855C850E94E7
:103CC0006B1D1E861D866B817C818D819E8120E00F
:103CD00030E040E050E00E94F121181624F421E089
:103CE00030E03E872D8700E010E06B817C818D8184
:103CF0009E8120E030E040E050E00E946620882372
:103D000014F401E010E08D859E85801B910BE98104
:103D1000FA81E80FF91FFA83E983C601B50120E0B3
:103D200030E040E85FE30E9401205B016C0120E08D
:103D300030E040E05FE30E94F1218823CCF06B810A
:103D40007C818D819E8120E030E040E050E00E9447
:103D5000F12118163CF429813A81621673060CF0A1
:103D6000A9CF06C089819A81861597050CF0A2CF4C
:103D70006F81788589859A8520E030E040E050E0C9
:103D80000E94F121181624F40894E11CF11C03C0D0
:103D90000894E108F1086F81788589859A8520E08B
:103DA00030E040E050E00E94F121181624F48E1417
:103DB0009F042CF071CFE814F9040CF06DCF2E960F
:103DC0000FB6F894DEBF0FBECDBFCF91DF911F912C
:103DD0000F91FF90EF90DF90CF90BF90AF909F90AA
:103DE0008F907F906F905F904F903F902F900895AD
:103DF0004F925F926F927F928F929F92AF92BF92FB
:103E0000CF92DF92EF92FF920F931F93CF93DF93A6
:103E10003B01490125E0429FA0011124ADE7EA2EB4
:103E2000A1E0FA2EE40EF51E8C01F1E04F2E512C8C
:103E3000E2E8AE2EE1E0BE2EA40EB51EF70184919D
:103E40008114910409F48095C0E0D0E0C82EDD24EF
:103E5000BE01660D771DA2010C2E02C0440F551F36
:103E60000A94E2F74C215D210C2E02C0559547952E
:103E70000A94E2F7C8010E946B1D2196C830D10553
:103E800039F70894E11CF11C0F5F1F4FEA14FB0483
:103E9000A9F6DF91CF911F910F91FF90EF90DF90E6
:103EA000CF90BF90AF909F908F907F906F905F90DA
:103EB0004F900895CF92DF92EF92FF920F931F934E
:103EC000CF93DF936B017A01E901082F10E008C05E
:103ED000802F90E0B6019E010E94F81E0B5F1F5FCD
:103EE000F701E10FF11D4081442391F7DF91CF915C
:103EF0001F910F91FF90EF90DF90CF900895CF9397
:103F0000DF9380E060E00E94F41FC0E9D7E081E029
:103F100069910E94921F89E0C838D807C1F7DF91E4
:103F2000CF91089595B18295880F807E9F7D982BC3
:103F300095B95F9827E030E070E08F98CB01022EB2
:103F400002C0959587950A94E2F780FF02C02E9AE9
:103F500001C02E988F9A215030408FEF2F3F3807A5
:103F600061F75F9A08951F93182F579A249A259AFC
:103F7000269A879A2C985F9A2C9A80E061E20E9498
:103F8000921F106880E0612F0E94921F80E064E021
:103F90000E94921F80E063E10E94921F80E06CE02B
:103FA0000E94921F80E060E20E94921F80E06CE01D
:103FB0000E94921F80E060E40E94921F80E060E80F
:103FC0000E94921F1F910895CF93DF93C0E0D0E02D
:103FD00081E060E00E94921F219681E0C83FD807EF
:103FE000B9F7DF91CF9108951F93182F606480E097
:103FF0000E94921F106880E0612F0E94921F1F9103
:1040000008955058BB27AA270ED0A0C169D130F01F
:104010006ED120F031F49F3F11F41EF45EC10EF416
:10402000E095E7FB54C1E92FB3D180F3BA176207DB
:1040300073078407950718F071F49EF5CBC10EF451
:10404000E0950B2EBA2FA02D0B01B90190010C01A8
:10405000CA01A0011124FF27591B99F0593F50F4C0
:10406000503E68F11A16F040A22F232F342F442718
:10407000585FF3CF469537952795A795F040539510
:10408000C9F77EF41F16BA0B620B730B840BBAF0E0
:104090009150A1F0FF0FBB1F661F771F881FC2F74B
:1040A0000EC0BA0F621F731F841F48F4879577955F
:1040B0006795B795F7959E3F08F0B3CF9395880F16
:1040C00008F09927EE0F979587950895DCD008F4AE
:1040D00081E0089514D1E3954AC10CD037C107D1CE
:1040E00040F0FED030F021F45F3F19F0F0C05111E4
:1040F00072C1F3C04DD198F39923C9F35523B1F39D
:10410000951B550BBB27AA2762177307840738F046
:104110009F5F5F4F220F331F441FAA1FA9F333D0A5
:104120000E2E3AF0E0E830D091505040E695001C59
:10413000CAF729D0FE2F27D0660F771F881FBB1F15
:10414000261737074807AB07B0E809F0BB0B802DEF
:10415000BF01FF2793585F4F2AF09E3F510568F03B
:10416000B6C039C15F3FECF3983EDCF38695779596
:104170006795B795F7959F5FC9F7880F911D96953D
:10418000879597F90895E1E0660F771F881FBB1F99
:10419000621773078407BA0720F0621B730B840B46
:1041A000BA0BEE1F88F7E095089504D06894B1111A
:1041B00012C10895F5D088F09F5790F0B92F992734
:1041C000B751A0F0D1F0660F771F881F991F1AF022
:1041D000BA95C9F712C0B13081F0FCD0B1E00895B2
:1041E000F9C0672F782F8827B85F39F0B93FCCF333
:1041F000869577956795B395D9F73EF49095809518
:10420000709561957F4F8F4F9F4F0895E89409C037
:1042100097FB3EF490958095709561957F4F8F4FF9
:104220009F4F9923A9F0F92F96E9BB279395F6950F
:10423000879577956795B795F111F8CFFAF4BB0F8D
:1042400011F460FF1BC06F5F7F4F8F4F9F4F16C0F1
:10425000882311F096E911C0772321F09EE8872F7B
:10426000762F05C0662371F096E8862F70E060E037
:104270002AF09A95660F771F881FDAF7880F9695B0
:10428000879597F90895990F0008550FAA0BE0E854
:10429000FEEF16161706E807F907C0F01216130608
:1042A000E407F50798F0621B730B840B950B39F448
:1042B0000A2661F0232B242B252B21F408950A26AE
:1042C00009F4A140A6958FEF811D811D089597F9EE
:1042D0009F6780E870E060E008959FEF80EC0895AC
:1042E00000240A94161617061806090608950024D5
:1042F0000A9412161306140605060895EECF50D040
:10430000E8F3E894E0E0BB279F57F0F02AED3FE0A8
:1043100049EC06C0EE0FBB0F661F771F881F28F001
:10432000B23A62077307840728F0B25A620B730B24
:10433000840BE3959A9572F7803830F49A95BB0F09
:10434000661F771F881FD2F79048BAC0092E0394C2
:10435000000C11F4882352F0BB0F40F4BF2B11F472
:1043600060FF04C06F5F7F4F8F4F9F4F0895EF93A3
:10437000E0FF06C0A2EA2AED3FE049EC5FEB53DE26
:10438000E5DF0F90039401FC9058EEE2F1E0A4C049
:1043900057FD9058440F551F59F05F3F71F04795F6
:1043A000880F97FB991F61F09F3F79F087950895DB
:1043B000121613061406551FF2CF4695F1DF08C0FA
:1043C000161617061806991FF1CF86957105610517
:1043D00008940895E894BB2766277727CB0197F9BF
:1043E000089551DF08F48FEF08950BD0AFCF78DF39
:1043F00028F07DDF18F0952309F069CF6ECF1124E6
:10440000EACFC6DFA0F3959FD1F3950F50E0551F7B
:10441000629FF001729FBB27F00DB11D639FAA2719
:10442000F00DB11DAA1F649F6627B00DA11D661F68
:10443000829F2227B00DA11D621F739FB00DA11D89
:10444000621F839FA00D611D221F749F3327A00D43
:10445000611D231F849F600D211D822F762F6A2FDF
:1044600011249F5750408AF0E1F088234AF0EE0F64
:10447000FF1FBB1F661F771F881F91505040A9F771
:104480009E3F510570F023CFA6CF5F3FECF3983EDF
:10449000DCF3869577956795B795F795E7959F5FD8
:1044A000C1F7FE2B880F911D9695879597F9089572
:1044B0009F9325DF0F9007FCEE5F59CF9F3F31F0B0
:1044C000915020F4879577956795B795880F911D42
:1044D0009695879597F908959F938F937F936F9300
:1044E000FF93EF939B01AC0180DFEF91FF9105D02B
:1044F0002F913F914F915F9178CFDF93CF931F938F
:104500000F93FF92EF92DF927B018C01689405C0BC
:10451000DA2EEF0176DFFE01E894A5912591359121
:1045200045915591AEF3EF017EDDFE019701A801A3
:10453000DA9479F7DF90EF90FF900F911F91CF9170
:10454000DF91089597FB092E07260AD077FD04D046
:1045500043D006D000201AF4709561957F4F0895DE
:10456000F6F7909581959F4F08952F923F924F9225
:104570005F926F927F928F929F92AF92BF92CF92F3
:10458000DF92EF92FF920F931F93CF93DF93CDB7FC
:10459000DEB7CA1BDB0B0FB6F894DEBF0FBECDBF74
:1045A00009942A88398848885F846E847D848C8445
:1045B0009B84AA84B984C884DF80EE80FD800C814E
:1045C0001B81AA81B981CE0FD11D0FB6F894DEBF31
:1045D0000FBECDBFED010895AA1BBB1B51E107C063
:1045E000AA1FBB1FA617B70710F0A61BB70B881F83
:1045F000991F5A95A9F780959095BC01CD01089512
:10460000A0E0B0E0E6E0F3E20C94BD22EC01A8806B
:10461000B980CA80DB80A114B104C104D10441F483
:1046200084E2A82E89EDB82E8BE5C82E87E0D82E1F
:10463000C601B5012DE133EF41E050E00E944D2568
:1046400027EA31E440E050E00E942E257B018C01F6
:10465000C601B5012DE133EF41E050E00E944D2548
:10466000CA01B9012CEE34EF4FEF5FEF0E942E2507
:104670006E0D7F1D801F911F97FF04C06150704019
:1046800080409048688379838A839B839B013F772E
:10469000C901CDB7DEB7EAE00C94D9220E9400230D
:1046A00008958EE895E00E9400230895A0E0B0E010
:1046B00080938E0590938F05A0939005B0939105FC
:1046C0000895283008F027E03327DA01990F311DCB
:1046D00087FD916000966105710539F432602E5FA7
:1046E0003D9330E32A95E1F708959F3F30F08038FD
:1046F0007105610509F03C5F3C5F3D93913008F026
:104700008068911DDF93CF931F930F93FF92EF92D9
:10471000192F987F9695E92F96959695E90FFF2783
:10472000E95AFB4F99273327EE24FF24A701E7011D
:1047300005900894079428F4360FE71EF81E491FC9
:10474000511D660F771F881F991F0694A1F70590CA
:10475000079428F4E70EF81E491F561FC11D770F56
:10476000881F991F661F0694A1F70590079428F4E7
:10477000F80E491F561FC71FD11D880F991F661FAE
:10478000771F0694A1F70590079420F4490F561F50
:10479000C71FD81F990F661F771F881F0694A9F798
:1047A00084911095177041F0D695C7955795479508
:1047B000F794E7941A95C1F7EDEFF3E0689415903C
:1047C000159135916591959105907FE27395E1186A
:1047D000F10A430B560BC90BD009C0F7E10CF11ECF
:1047E000431F561FC91FD01D7EF4703311F48A95E4
:1047F000E6CFE894015030F0080F0AF400270217C2
:1048000008F4202F2395022F7A3328F079E37D9343
:104810002A95E9F710C07D932A9589F60694979515
:104820006795379517951794E118F10A430B560BC6
:10483000C90BD00998F023957E9173957A3308F0CF
:1048400070E37C932013B8F77E9170617D9330F014
:10485000839571E37D9370E32A95E1F71124EF903E
:10486000FF900F911F91CF91DF91992787FD909530
:104870000895FC010590615070400110D8F78095B3
:1048800090958E0F9F1F0895FC016150704001901C
:104890000110D8F7809590958E0F9F1F08950F9364
:1048A0001F93CF93DF938C01EB018B8181FF1BC0A2
:1048B00082FF0DC02E813F818C819D812817390791
:1048C00064F4E881F9810193F983E88306C0E885FF
:1048D000F985802F0995892B31F48E819F8101966E
:1048E0009F838E8302C00FEF1FEFC801DF91CF912E
:1048F0001F910F910895AEE0B0E0E1E8F4E20C946E
:10490000C3220D891E898F89988D97FF02C080E090
:1049100090E801979E838D831A83098386E08C83B8
:104920009E01255E3F4FCE010196698D7A8DA901CA
:104930000E94DC194D815E8157FD0AC02F813885A8
:10494000421753070CF49A01020F131FF80110824B
:104950002E96E4E00C94DF22AEE0B0E0E2EBF4E26D
:104960000C94C3220D891E8986E08C831A830983E7
:104970008FEF9FE79E838D839E01275E3F4FCE0181
:1049800001966F89788DA9010E94DC192F813885E5
:10499000020F131FF80110822E96E4E00C94DF2220
:1049A000FA01AA27283051F1203181F1E8946F9360
:1049B0006E7F6E5F7F4F8F4F9F4FAF4FB1E03ED006
:1049C000B4E03CD0670F781F891F9A1FA11D680FA4
:1049D000791F8A1F911DA11D6A0F711D811D911DD7
:1049E000A11D20D009F468943F912AE0269F11244C
:1049F0003019305D3193DEF6CF010895462F4770B0
:104A0000405D4193B3E00FD0C9F7F6CF462F4F700A
:104A1000405D4A3318F0495D31FD4052419302D068
:104A2000A9F7EACFB4E0A69597958795779567950E
:104A3000BA95C9F700976105710508959B01AC010E
:104A40000A2E06945795479537952795BA95C9F735
:104A5000620F731F841F951FA01D0895629FD001D0
:104A6000739FF001829FE00DF11D649FE00DF11D29
:104A7000929FF00D839FF00D749FF00D659FF00DD8
:104A80009927729FB00DE11DF91F639FB00DE11DC5
:104A9000F91FBD01CF011124089597FB092E0526AA
:104AA0000ED057FD04D014D00AD0001C38F4509515
:104AB0004095309521953F4F4F4F5F4F0895F6F742
:104AC00090958095709561957F4F8F4F9F4F08957A
:104AD000A1E21A2EAA1BBB1BFD010DC0AA1FBB1F02
:104AE000EE1FFF1FA217B307E407F50720F0A21B74
:104AF000B30BE40BF50B661F771F881F991F1A94E1
:104B000069F760957095809590959B01AC01BD010A
:084B1000CF010895F894FFCFD6
:104B180000E100000000086E31303030393637319E
:104B280000434F4E4E45435420555342000D0A0052
:104B38005465656E737920636F6E74726F6C733A27
:104B4800200D0A006C6566743A206D6F7665206CDE
:104B58006566740D0A0072696768743A206D6F762D
:104B6800652072696768740D0A0075703A20666975
:104B780072650D0A00646F776E3A20646973706C11
:104B880061792067616D65207374617475730D0AAE
:104B98000063656E7472653A20706175736520678D
:104BA800616D650D0A004C65667420627574746FDA
:104BB8006E3A2073746172742F72657374617274C3
:104BC8002067616D650D0A00526967687420627517
:104BD80074746F6E3A20717569740D0A004C6566BD
:104BE8007420776865656C3A20736574207468650D
:104BF8002061696D206F6620746865207475727213
:104C080065740D0A00526967687420776865656C79
:104C18003A20736574207468652073706565642034
:104C28006F66207468652067616D650D0A00436FC3
:104C38006D707574657220636F6E74726F6C733A01
:104C4800200D0A00613A206D6F7665206C656674E8
:104C58000D0A00643A206D6F766520726967687482
:104C68000D0A00773A2066697265200D0A00733ACA
:104C780020646973706C61792067616D6520737455
:104C8800617475730D0A00723A2073746172742F1F
:104C980072657365742067616D650D0A00703A204E
:104CA8007061757365200D0A00713A207175697419
:104CB8000D0A006D3A207365742073706565640D84
:104CC8000A006C3A20736574206C697665730D0A66
:104CD80000673A207365742073636F72650D0A006C
:104CE8003F3A207072696E7420636F6E74726F6CD5
:104CF800730D0A00683A206D6F76652073686970D5
:104D08000D0A006A3A2064726F70206173746572CC
:104D18006F69640D0A006B3A2064726F7020626FCD
:104D2800756C6465720D0A00693A2064726F7020B0
:104D3800667261676D656E740D0A002D47616D6559
:104D4800207374617475732D0D0A00417374657254
:104D58006F6964733A20256400426F756C646572EC
:104D6800733A20256400467261676D656E74733A04
:104D780020256400506C61736D6120626F6C7473E0
:104D88003A2025640041696D3A2025640053706516
:104D980065643A202564002563000D0A5370656533
:104DA800643A20000D0A41696D3A20000D0A4173EA
:104DB8007465726F696420783A20000D0A41737433
:104DC80065726F696420793A20000D0A426F756C2C
:104DD80064657220783A20000D0A426F756C64652C
:104DE8007220793A20000D0A467261676D656E740B
:104DF80020783A20000D0A467261676D656E74204E
:104E0800793A20004D6F766520746865207368696B
:104E18007020746F20636F6F72696E646174653A95
:104E280020005365742074686520706C6179657220
:104E38002773206C697665733A2000536574207473
:104E4800686520706C6179657227732073636F726F
:104E5800653A20000D0A47414D45205354415254AC
:104E680045440047414D45204F5645520052455351
:104E780054415254204F52205155495421005469ED
:104E88006D653A203025643A3025640054696D65B3
:104E98003A2025643A25640054696D653A20302526
:104EA800643A25640054696D653A2025643A3025D2
:104EB80064004C697665733A20256400506F696E0A
:104EC80074733A20256400230001000100010020CA
:104ED80020202020202020202020202020202020CA
:104EE80020202020202020202020202020202020BA
:104EF80020202020202020202020202020202020AA
:104F080020202020202020202020206F6F202020FB
:104F18006F6F6F6F6F2020206F6F6F6F6F6F6F6F86
:104F28006F6F6F6F6F6F6F6F6F6F6F2020206F6F76
:104F38006F6F6F2020206F6F00BF042020206F202C
:104F4800202020206F6F6F2020206F6F6F6F6F20E1
:104F58006F6F6F6F6F6F6F206F6F6F6F6F20202095
:104F68006F6F6F20202020206F202020002B05202D
:104F7800206F2020206F6F6F206F6F6F6F6F206F13
:104F88006F6F2020206F2020005F05206F206F6F3B
:104F98006F206F20007B056F6F6F6F008705010022
:024FA800000007
:00000001FF
