:100000000C94D6010C94F3010C94F3010C94F301BD
:100010000C94F3010C94F3010C94F3010C94F30190
:100020000C94F3010C94F3010C94F3010C94F30180
:100030000C94F3010C94F3010C94F3010C94F30170
:100040000C94F3010C94F3010C94F3010C94F30160
:100050000C94F3010C94F3010C94F3010C94F30150
:100060000C94F3010C94F3010C94F3010C94F30140
:100070000C94F3010C94F3010C94F3010C94F30130
:100080000C94F3010C94F3010C94F3010C94EA0723
:100090000C94F3010C94F3010C94F3010C94F30110
:1000A0000C94F3010C94F3010C94F30105A84CCDCE
:1000B000B2D44EB93836A9020C50B9918688083CA2
:1000C000A6AAAA2ABE000000803F0000000000008F
:1000D000005F00000007000700147F147F14242A2B
:1000E0007F2A122313086462364955225000050303
:1000F0000000001C2241000041221C0014083E08A0
:100100001408083E080800503000000808080808D5
:10011000006060000020100804023E5149453E0086
:10012000427F400042615149462141454B311814FC
:10013000127F1027454545393C4A4949300171092C
:1001400005033649494936064949291E0036360015
:100150000000563600000814224100141414141430
:1001600000412214080201510906324979413E7EBC
:100170001111117E7F494949363E414141227F415B
:1001800041221C7F494949417F090909013E4149F2
:10019000497A7F0808087F00417F41002040413FA5
:1001A000017F081422417F404040407F020C027FC3
:1001B0007F0408107F3E4141413E7F090909063E08
:1001C0004151215E7F0919294646494949310101BA
:1001D0007F01013F4040403F1F2040201F3F4038EB
:1001E000403F6314081463070870080761514945CC
:1001F00043007F41410002040810200041417F007C
:10020000040201020440404040400001020400207A
:10021000545454787F484444383844444420384443
:1002200044487F3854545418087E0901020C525235
:10023000523E7F0804047800447D40002040443D45
:10024000007F1028440000417F40007C041804789F
:100250007C0804047838444444387C141414080896
:100260001414187C7C080404084854545420043F97
:100270004440203C4040207C1C2040201C3C40301E
:10028000403C44281028440C5050503C4464544C8A
:1002900044000836410000007F000000413608009D
:1002A000100808100878464146786E616E00696E45
:1002B000660000407A10F35A00A0724E1809001030
:1002C000A5D4E80000E87648170000E40B540200CB
:1002D00000CA9A3B000000E1F505000080969800F6
:1002E000000040420F000000A0860100000010271F
:1002F00000000000E80300000000640000000000AF
:100300000A00000000000100000000002C76D888E0
:10031000DC674F0823DFC1DFAE59E1B1B796E5E3F3
:10032000E453C63AE651997696E8E6C28426EB890C
:100330008C9B62ED407C6FFCEFBC9C9F40F2BAA5A9
:100340006FA5F490055A2AF75C936B6CF9676DC141
:100350001BFCE0E40D47FEF520E6B500D0ED902E45
:100360000300943577050080841E080000204E0AA3
:10037000000000C80C333333330F986E12831141E1
:10038000EF8D2114893BE65516CFFEE6DB18D184AC
:100390004B381BF77C1D901DA4BBE42420328472D3
:1003A0005E228100C9F124ECA1E53D2711241FBE86
:1003B000CFEFDAE0DEBFCDBF12E0A0E0B1E0ECE6C7
:1003C000F3E302C005900D92A431B107D9F717E00D
:1003D000A4E1B2E001C01D92AC32B107E1F70E9486
:1003E000FE0D0C94B4190C940000CF92DF92EF92A2
:1003F000FF920F931F93DC018417950734F1C80116
:10040000840F951FA817B90704F562177307ECF05E
:10041000E20EF31E6E157F05C4F490E0A41BB50B2D
:10042000621B730B609FF001619FF00D709FF00DD8
:100430001124CA0EDB1EEC0DFD1D8081803209F4F3
:1004400091E081E09827892F02C080E090E01F9121
:100450000F91FF90EF90DF90CF9008952F923F92F1
:100460004F925F926F927F928F929F92AF92BF92C4
:10047000CF92DF92EF92FF920F931F93DF93CF9370
:10048000CDB7DEB760970FB6F894DEBF0FBECDBF15
:100490009A8389837C836B835E834D8319011887DC
:1004A0000F83FA86E986DC86CB86BE86AD86988A7F
:1004B0008F86882499242EC069807A806A0C7B1CE0
:1004C000C301B20149815A812B813C810D811E817A
:1004D0007101CF80D8840E94F501882381F0C30187
:1004E000B20149855A852B853C850D851E85EF8493
:1004F000F888CDA0DEA00E94F5018823B9F4089405
:10050000A11CB11C8D819E81A816B906ACF208947D
:10051000811C911C8214930414F080E008C0AA246A
:10052000BB244B805C80480C591CECCF81E060966A
:100530000FB6F894DEBF0FBECDBFCF91DF911F91F4
:100540000F91FF90EF90DF90CF90BF90AF909F9072
:100550008F907F906F905F904F903F902F90089575
:10056000AF92BF92CF92DF92EF92FF920F931F93C1
:1005700060913A0270913B0280913C0290913D0261
:10058000E0909400F09095000E94611520E030E02A
:1005900040E857E40E9450165B016C0100E010E057
:1005A000C801B7010E9461159B01AC01C601B501EC
:1005B0000E945D1420E030E040E853E40E945016B1
:1005C00020E034E244EF5AE40E94C8141F910F91D6
:1005D000FF90EF90DF90CF90BF90AF9008950E9472
:1005E000B0020E943015DC01CB016CE370E00E9488
:1005F0001C1708950E94B0020E943015DC01CB0147
:100600006CE370E00E941C17CB01089510923A022F
:1006100010923B0210923C0210923D020895CF933B
:10062000DF934091160250911702415050409C01B7
:10063000220F331F220F331FE901C655DB4FF9018B
:10064000E25EFD4F9C0112C02F5F3F4F8C819D8168
:10065000AE81BF8189939993A993B9938481958140
:10066000A681B78181939193A193B1932417350704
:100670005CF3509317024093160282E090E090934F
:10068000F5048093F404DF91CF910895CF93DF9325
:100690004091380250913902415050409C01220F44
:1006A000331F220F331FE901C256DB4FF901E85017
:1006B000FB4F9C0112C02F5F3F4F8C819D81AE810B
:1006C000BF8189939993A993B99384819581A681D8
:1006D000B78181939193A193B193241735075CF36C
:1006E000509339024093380281E090E09093F504F2
:1006F0008093F404DF91CF910895CF92DF92EF922F
:10070000FF920F931F93CF93DF93EB0181359105F8
:1007100019F424E530E005C09C0197FF02C020E0F9
:1007200030E0E0901402F09015028701000F111FD5
:10073000000F111FE4E0CE2EE5E0DE2EC00ED11E2C
:10074000B901882777FD8095982F0E946315F601DF
:1007500060837183828393830C531B4FBE01882770
:1007600077FD8095982F0E946315F801608371834F
:10077000828393830894E11CF11CF0921502E092AD
:100780001402DF91CF911F910F91FF90EF90DF90B6
:10079000CF900895CF93DF934091140250911502AA
:1007A000415050409C01220F331F220F331FE9019B
:1007B000CC5FDA4FF901EC53FB4F9C0112C02F5F65
:1007C0003F4F8C819D81AE81BF8189939993A9937D
:1007D000B99384819581A681B78181939193A193E7
:1007E000B193241735075CF350931502409314021C
:1007F0008091F4049091F50404969093F50480930D
:10080000F404DF91CF9108950F931F93CF93DF935B
:1008100004EC14E0C0E0D0E031C0F80160817181E7
:100820008281938120919A0430919B0440919C0491
:1008300050919D040E945D14F8016083718382834E
:10084000938320E030E040E450E40E945D1420E017
:1008500030E040E252E40E94C114882361F4CE01EA
:100860000E94CA038091F6049091F7040197909337
:10087000F7048093F60421960C5F1F4F80911402B9
:1008800090911502C817D90744F2DF91CF911F91BB
:100890000F910895CF92DF92EF92FF920F931F93E3
:1008A000CF93DF93EB018F34910519F426E530E007
:1008B00005C09C0197FF02C020E030E0E0901602E6
:1008C000F09017028701000F111F000F111FBAEAE5
:1008D000CB2EB4E0DB2EC00ED11EB901882777FDE8
:1008E0008095982F0E946315F6016083718382833F
:1008F0009383025E1D4FBE01882777FD8095982F58
:100900000E946315F8016083718382839383089446
:10091000E11CF11CF0921702E0921602DF91CF91D8
:100920001F910F91FF90EF90DF90CF9008950F935C
:100930001F93CF93DF930EE112E0C0E0D0E031C00F
:10094000F801608171818281938120919A043091B4
:100950009B0440919C0450919D040E945D14F801F9
:10096000608371838283938320E030E040EA50E427
:100970000E945D1420E030E040E252E40E94C11485
:10098000882361F4CE010E940F038091F6049091B8
:10099000F70401979093F7048093F60421960C5F77
:1009A0001F4F8091160290911702C817D90744F281
:1009B000DF91CF911F910F910895181619061CF021
:1009C00081E090E0089580E090E01616170614F09C
:1009D00081E090E00895CF93DF9340911802509109
:1009E0001902415050409C01220F331FE901C053AE
:1009F000DC4FD901A85FBC4FF901E05CFD4F9C01C1
:100A000010C02F5F3F4F8A819B81899399931296E3
:100A10008D919C9113978D939D9382819381819366
:100A20009193241735076CF35093190240931802E1
:100A3000DF91CF910895AC012091180230911902F5
:100A400080913C0190913D0128173907F9F0F90197
:100A5000EE0FFF1FDF01A053BC4F8091C2049091A5
:100A6000C3048D939C93DF01A85FBC4F80913E022D
:100A700090913F028D939C93E05CFD4F51834083A6
:100A80002F5F3F4F309319022093180208952F9241
:100A90003F924F925F926F927F928F929F92AF920E
:100AA000BF92CF92DF92EF92FF920F931F93DF934B
:100AB000CF93CDB7DEB728970FB6F894DEBF0FBE41
:100AC000CDBF1A821982AFC000D02DB63EB60894B1
:100AD000211C311CE981FA81EE0FFF1FDF01A053B9
:100AE000BC4F4D905C90E85FFC4FE080F1800F813F
:100AF0001885000F111F000F111F980122563B4F40
:100B00003C832B83D9016D917D918D919C910E94A5
:100B100030153B014C01F801E850FB4FFE83ED839B
:100B200060817181828193810E9430155B016C012B
:100B30008091E6019091E701D1018D939C93C201D0
:100B4000B70141E050E021E030E000E011E0730146
:100B50006501F7E0AF2EB12CE7E08E2E912C0E94BC
:100B60002E020F900F90882309F449C0EB81FC817D
:100B700060817181828193810E9430157B018C019B
:100B8000AD81BE816D917D918D919C910E943015BA
:100B90009B01AC01C701B9010E944A04EB81FC81B1
:100BA000608171818281938120E030E040EE50E4E9
:100BB0000E945D140E9430157B018C01AD81BE81C5
:100BC0006D917D918D919C910E9430159B01AC019E
:100BD000C701B9010E944A048F8198850E9446038B
:100BE00089819A810E94EB04E981FA813197FA8325
:100BF000E9832F8138852150304038872F838F81BA
:100C00009885019698878F83809138029091390258
:100C1000AF81B885A817B9070CF456CFE981FA81DE
:100C20003196FA83E9838091180290911902298103
:100C30003A81281739071CF418861F82E5CF2896B9
:100C40000FB6F894DEBF0FBECDBFCF91DF911F91DD
:100C50000F91FF90EF90DF90CF90BF90AF909F905B
:100C60008F907F906F905F904F903F902F9008955E
:100C70002F923F924F925F926F927F928F929F92AC
:100C8000AF92BF92CF92DF92EF92FF920F931F939A
:100C9000DF93CF93CDB7DEB728970FB6F894DEBFBA
:100CA0000FBECDBF1A821982AFC000D02DB63EB69E
:100CB0000894211C311CE981FA81EE0FFF1FDF012E
:100CC000A053BC4F4D905C90E85FFC4FE080F180FA
:100CD0000F811885000F111F000F111F9801265555
:100CE0003B4F3C832B83D9016D917D918D919C91DC
:100CF0000E9430153B014C01F801E25EFD4FFE837E
:100D0000ED8360817181828193810E9430155B0146
:100D10006C018091020290910302D1018D939C930A
:100D2000C201B70141E050E021E030E000E011E015
:100D300073016501F7E0AF2EB12CE7E08E2E912C08
:100D40000E942E020F900F90882309F449C0EB8176
:100D5000FC8160817181828193810E9430157B01C9
:100D60008C01AD81BE816D917D918D919C910E9490
:100D700030159B01AC01C701B9010E947D03EB81D5
:100D8000FC81608171818281938120E030E040EAC2
:100D900050E40E945D140E9430157B018C01AD81EE
:100DA000BE816D917D918D919C910E9430159B012A
:100DB000AC01C701B9010E947D038F8198850E9413
:100DC0000F0389819A810E94EB04E981FA813197AE
:100DD000FA83E9832F8138852150304038872F836B
:100DE0008F819885019698878F83809116029091C4
:100DF0001702AF81B885A817B9070CF456CFE9815F
:100E0000FA813196FA83E983809118029091190250
:100E100029813A81281739071CF418861F82E5CFEB
:100E200028960FB6F894DEBF0FBECDBFCF91DF91ED
:100E30001F910F91FF90EF90DF90CF90BF90AF90F8
:100E40009F908F907F906F905F904F903F902F90EA
:100E500008952F923F924F925F926F927F928F925E
:100E60009F92AF92BF92CF92DF92EF92FF920F9339
:100E70001F93DF93CF9300D000D0CDB7DEB71A8297
:100E8000198274C000D02DB63EB60894211C311CC6
:100E9000E981FA81EE0FFF1FDF01A053BC4F4D9097
:100EA0005C90E85FFC4FE080F1800B811C81000FBB
:100EB000111F000F111FF801EC5FFA4F6081718163
:100EC000828193810E9430153B014C010C531B4FD2
:100ED000D8016D917D918D919C910E9430155B019F
:100EE0006C0180910E0290910F02F1019183808339
:100EF000C201B70141E050E021E030E000E011E044
:100F000073016501F3E0AF2EB12CE3E08E2E912C3E
:100F10000E942E020F900F90882399F08B819C8164
:100F20000E94CA0389819A810E94EB0429813A8137
:100F3000215030403A8329838B819C8101979C8387
:100F40008B83AB81BC811196BC83AB8380911402EF
:100F500090911502EB81FC81E817F9070CF492CF10
:100F600029813A812F5F3F4F3A832983809118026C
:100F700090911902A981BA81A817B9071CF41C82A3
:100F80001B82E4CF0F900F900F900F90CF91DF91C5
:100F90001F910F91FF90EF90DF90CF90BF90AF9097
:100FA0009F908F907F906F905F904F903F902F9089
:100FB00008950E9447050E9438060E942907089557
:100FC0001092900084E08093910081E08093710002
:100FD000789408951F920F920FB60F9211248F9359
:100FE0009F93AF93BF9380911C02882399F48091C3
:100FF0003A0290913B02A0913C02B0913D020196D1
:10100000A11DB11D80933A0290933B02A0933C0234
:10101000B0933D02BF91AF919F918F910F900FBE02
:101020000F901F90189520982198509851982798C4
:1010300085988698229A0E94BA1008950F931F935C
:10104000DF93CF93CDB7DEB764970FB6F894DEBFCA
:101050000FBECDBF0E94FA028C010E94EF029C01DC
:101060000A301105D4F4CE0101962A3031058CF5F1
:101070004DB75EB7485050400FB6F8945EBF0FBEF4
:101080004DBFEDB7FEB73196ADB7BEB712969C9384
:101090008E93119782E091E046C00A30110559F114
:1010A0008B30910544F18DB79EB708970FB6F89431
:1010B0009EBF0FBE8DBFEDB7FEB73196CE01019634
:1010C000ADB7BEB712969C938E93119780E191E0D5
:1010D0002AC0ADB7BEB718970FB6F894BEBF0FBE03
:1010E000ADBFEDB7FEB7319612969C938E931197D4
:1010F0008CE191E018C02A30310534F58DB79EB7E8
:1011000008970FB6F8949EBF0FBE8DBFEDB7FEB720
:101110003196CE010196ADB7BEB712969C938E93D1
:10112000119789E291E09383828315830483378347
:1011300026830E9432194DB75EB7485F5F4F0FB6E6
:10114000F8945EBF0FBE4DBF8AE090E06AE070E0A9
:10115000AE014F5F5F4F21E00E94131064960FB6FF
:10116000F894DEBF0FBECDBFCF91DF911F910F91DD
:10117000089589B1869580FF07C080911A029091E9
:101180001B020E941B052EC01F992CC083B186959F
:1011900080FF12C080914701882321F4809146018D
:1011A0008823A1F4809146018823E1F481E08093B3
:1011B00047018093460116C0489B14C080914701A7
:1011C000882339F080914601882319F01092460156
:1011D00009C080914601882329F481E0809346016B
:1011E0001092470181E00E94BE10A0E0B0E0BC0177
:1011F000CD010E94631520E030EC4FE754E40E94DB
:10120000C81460939A0470939B0480939C049093F9
:101210009D0408956F927F928F929F92AF92BF929A
:10122000CF92DF92EF92FF920F931F93CF93DF93B2
:1012300080E00E94BE10A0E0B0E0BC01CD0128E734
:1012400030E040E050E00E94FD162FEF33E040E038
:1012500050E00E942F172C53304030931B022093F4
:101260001A02C0914201D091430117E0612E712C06
:101270006C0E7D1E70929904609298048DE290E04D
:101280009093370280933602309521953F4FB901F4
:10129000882777FD8095982F0E9463152BED3FE0FE
:1012A00049E450E40E94501620E030E044E353E467
:1012B0000E94C8147B018C01C8010E94B3165B0117
:1012C0006C01882477FC8094982CC401B3010E949F
:1012D00063153B014C01C601B50120E030E040E858
:1012E00050EC0E9450169B01AC01C401B3010E9456
:1012F0005D140E9430157093C3046093C204B7015B
:10130000C8010E94C51420E030E040E850EC0E9483
:10131000501620E030E044E352E40E945D140E9445
:10132000301570933F0260933E02209721F4809124
:101330004701882369F480913E0190913F018C0F11
:101340009D1F8435910531F480914701882311F464
:1013500010924601809146018823B9F0809147019F
:10136000882329F01C161D0684F421970AC0809159
:101370003E0190913F018C0F9D1F843591052CF407
:101380002196D0934301C0934201DF91CF911F91E9
:101390000F91FF90EF90DF90CF90BF90AF909F9014
:1013A0008F907F906F9008952F923F924F925F920F
:1013B0006F927F928F929F92AF92BF92CF92DF9265
:1013C000EF92FF920F931F93DF93CF93CDB7DEB7CA
:1013D0002A970FB6F894DEBF0FBECDBF20ED33E0E5
:1013E0003E832D8388E093E09C838B83E0E4F2E0EE
:1013F000FA83E9831A86198685C0EB81FC81019006
:10140000F081E02DF887EF83E981FA8160817181B5
:10141000709561957F4F882777FD8095982F0E9462
:1014200063152BED3FE049E450E40E94501620E0A4
:1014300030E044E353E40E94C8143B014C01C40172
:101440000E94B3165B016C01ED81FE8160817181A8
:10145000882777FD8095982F0E9463157B018C016A
:10146000C601B50120E030E040E050EC0E9450168B
:101470009B01AC01C801B7010E945D140E943015A8
:101480001B012C011616170624F5B301C4010E9496
:10149000C5147B018C012F813885B901882777FD20
:1014A0008095982F0E9463155B016C01C801B701FC
:1014B00020E030E040E050EC0E9450169B01AC016F
:1014C000C601B5010E945D140E943015161617065C
:1014D00024F189859A850E94EB0489859A85019675
:1014E0009A878987ED81FE813296FE83ED832B8179
:1014F0003C812E5F3F4F3C832B8389819A810296EA
:101500009A8389838091180290911902E985FA855E
:10151000E817F9070CF471CF09C0ED81FE81318223
:101520002082EB81FC8171836083D7CF2A960FB62E
:10153000F894DEBF0FBECDBFCF91DF911F910F9109
:10154000FF90EF90DF90CF90BF90AF909F908F90E3
:101550007F906F905F904F903F902F900895EF9203
:10156000FF920F931F93CF93DF9300EDE02E03E0E4
:10157000F02E08E013E0C0E0D0E00CC0F80161916B
:1015800071918F01F701819191917F0141E00E945A
:10159000240E21968091180290911902C817D9073C
:1015A0006CF3DF91CF911F910F91FF90EF90089511
:1015B0002F923F924F925F926F927F928F929F9263
:1015C000AF92BF92CF92DF92EF92FF920F931F9351
:1015D000DF93CF9300D00F92CDB7DEB78983292E4A
:1015E0003A0129013E2C48016B01AA24BB2422C0E8
:1015F000F7018081803211F4332029F4C801B6014B
:1016000041E00E94240E8A819B8101969B838A83FC
:101610000F5F1F4F0894E11CF11CEA81FB81E61566
:10162000F70534F30894A11CB11C860C971C089490
:10163000C11CD11CA414B50444F48981922D9C01D1
:10164000890174011B821A82E8CF0F900F900F90CE
:10165000CF91DF911F910F91FF90EF90DF90CF908E
:10166000BF90AF909F908F907F906F905F904F90C2
:101670003F902F900895AF92BF92CF92DF92EF925A
:10168000FF920F931F93CF93DF93AA24BB24C0E054
:10169000D0E027C0FE01E656FB4F60817181828158
:1016A00093810E9430156B017C01FE01EC50FB4FD1
:1016B00060817181828193810E9430159B01AC0110
:1016C0000091E6011091E701C601B90147E050E041
:1016D00027E030E0EE24E3940E94D80A0894A11C8D
:1016E000B11C24968091380290913902A816B9064F
:1016F0008CF2DF91CF911F910F91FF90EF90DF90CF
:10170000CF90BF90AF900895AF92BF92CF92DF92EB
:10171000EF92FF920F931F93CF93DF93AA24BB24E2
:10172000C0E0D0E027C0FE01EA55FB4F6081718127
:10173000828193810E9430156B017C01FE01E65E7F
:10174000FD4F60817181828193810E9430159B01E0
:10175000AC010091020210910302C601B90145E0FB
:1017600050E025E030E0EE24E3940E94D80A08948B
:10177000A11CB11C24968091160290911702A81604
:10178000B9068CF2DF91CF911F910F91FF90EF90EE
:10179000DF90CF90BF90AF900895AF92BF92CF925D
:1017A000DF92EF92FF920F931F93CF93DF93AA24C0
:1017B000BB24C0E0D0E027C0FE01E050FB4F6081B9
:1017C0007181828193810E9430156B017C01FE0141
:1017D000E054FB4F60817181828193810E943015BA
:1017E0009B01AC0100910E0210910F02C601B901DC
:1017F00043E050E023E030E0EE24E3940E94D80A76
:101800000894A11CB11C2496809114029091150299
:10181000A816B9068CF2DF91CF911F910F91FF901E
:10182000EF90DF90CF90BF90AF9008950F93CF933C
:10183000DF93C0E0D0E0CE0167E270E02396AE0116
:1018400027E230E001E00E945F0E2796CA35D105FD
:1018500091F7DF91CF910F910895EF920F931F931E
:10186000609144017091450140913E0150913F01CA
:1018700020914001309141010091B2011091B301DA
:101880008091420190914301EE24E3940E94D80A92
:1018900060913602709137024091C2045091C304A6
:1018A00020913E0230913F028091980490919904DA
:1018B00001E00E945F0E1F910F91EF9008950E942A
:1018C0002D0C0E94160C0E94AF0A0E94CD0B0E94A4
:1018D000840B0E943B0B08951F93E1E6F0E080E843
:1018E000808311E010830E9413088FE30E946C1024
:1018F0001092900084E0809391001093710078948E
:101900000E945F0C1F910895EF92FF920F931F9317
:101910008C017B010E940818E01AF10A0894E11C6E
:10192000F11CB7010E941C179C01200F311FC90137
:101930001F910F91FF90EF900895AF92BF92CF92B9
:10194000DF92EF92FF920F931F93CF93DF9383E089
:1019500090E09093390280933802EE24FF24C0E097
:10196000D0E00F2EF0E0AF2EF0E0BF2EF0EECF2E45
:10197000F0ECDF2EF02D20C080E090E06DE470E010
:101980000E94840C8E0106561B4FAA2797FDA09536
:10199000BA2FBC01CD010E946315F80160837183E9
:1019A00082839383FE01EC50FB4FA082B182C282FE
:1019B000D3820894E11CF11C249680913802909106
:1019C0003902E816F906C4F2DF91CF911F910F9109
:1019D000FF90EF90DF90CF90BF90AF9008950F935E
:1019E0001F93CF93DF9308EF14E0C0E0D0E031C045
:1019F000F801608171818281938120919A043091F4
:101A00009B0440919C0450919D040E945D14F80138
:101A1000608371838283938320E030E040EE50E462
:101A20000E945D1420E030E040E252E40E94C114C4
:101A3000882361F4CE010E9446038091F6049091C0
:101A4000F70401979093F7048093F60421960C5FB6
:101A50001F4F8091380290913902C817D90744F27C
:101A6000892B71F48091140290911502892B41F415
:101A70008091160290911702892B11F40E949D0CFF
:101A8000DF91CF911F910F9108950F931F93DF93D3
:101A9000CF93CDB7DEB72F970FB6F894DEBF0FBE4A
:101AA000CDBF0E941C0E0E94B9080E940A090E9424
:101AB000D4090E94EF0C0E9497040E9404040E9423
:101AC000D90700D000D000D0EDB7FEB731968E0117
:101AD0000F5F1F4FADB7BEB712961C930E931197B1
:101AE00086E391E09383828380911A0290911B0296
:101AF000958384830E9432198DB79EB706960FB6E0
:101B0000F8949EBF0FBE8DBF8AE090E06AE070E05F
:101B1000A80121E00E9413100E945F0C0E9438105F
:101B20002F960FB6F894DEBF0FBECDBFCF91DF91D9
:101B30001F910F9108951F9383E290E090934301CA
:101B40008093420189E290E09093450180934401A3
:101B500010921C0210921902109218021092170291
:101B60001092160210921502109214021092F504AF
:101B70001092F40485E090E09093F7048093F604CB
:101B80000E949D0C11E01093460110923A021092AF
:101B90003B0210923C0210923D0280E090E062E332
:101BA00070E00E94840C4A971CF01092470102C01A
:101BB000109347011F910895189B06C080911C0245
:101BC00091E0892780931C028FB182958695869536
:101BD000837080FF03C00E949B0D2A9A8FB182956B
:101BE0008695877080FF03C081E080931D028091FD
:101BF0001C02882311F40E94450D0895CF93DF93B2
:101C000080E090E00E940D180E946C0C0E949B0DD9
:101C1000C8ECD0E00E94DC0D88EE93E0FE01319725
:101C2000F1F70197D9F780911D02882399F380E09D
:101C300090E0DF91CF910895E4E3F5E0119287E021
:101C4000EC32F807D9F708959C0197FD37C077FD6E
:101C500035C08435910594F5603371057CF5CB0171
:101C600073E0959587957A95E1F76770452B99F024
:101C7000E4E58E9FF0011124E20FF31FEC5CFA4FB4
:101C800081E090E002C0880F991F6A95E2F72081F9
:101C9000282B20830895E4E58E9FF0011124E20FA4
:101CA000F31FEC5CFA4F81E090E002C0880F991FAF
:101CB0006A95E2F7809520812823208308952F924A
:101CC0003F924F925F926F927F928F929F92AF92CC
:101CD000BF92CF92DF92EF92FF920F931F93DF9309
:101CE000CF93CDB7DEB72E970FB6F894DEBF0FBEF9
:101CF000CDBF7C016B014A0139011C870B8784171A
:101D00009507F9F45B0110C0C701B5014B855C85EF
:101D10000E94240EC614D70424F40894A11CB11CFC
:101D200003C00894A108B108C614D7042CF46A149F
:101D30007B040CF4FDC0E8CFA614B7040CF4F8C083
:101D4000E3CF62177307F9F45C0110C0C501B60157
:101D50004B855C850E94240EE814F90424F4089451
:101D6000A11CB11C03C00894A108B108E814F9042F
:101D70002CF48A149B040CF4DBC0E8CFA814B9043B
:101D80000CF4D6C0E3CF4817590724F447017A0171
:101D90003B016901B4016E197F09882777FD8095A1
:101DA000982F0E9463156F83788789879A87B3017C
:101DB0006C197D09882777FD8095982F0E946315FF
:101DC0006B837C838D839E832F81388549855A85DB
:101DD0000E94C8141B012C0120E030E040E050E0DC
:101DE0000E944C1687FF04C057FA509457F850943D
:101DF000DA82C9820F2EF0E0AF2EF0E0BF2EF0E0C5
:101E0000CF2EF0E0DF2EF02D7FC0C70169817A81EF
:101E10004B855C850E94240EC601B501A20191018B
:101E20000E945D143BC0C70169817A814B855C8546
:101E30000E94240E1E861D866B817C818D819E8171
:101E400020E030E040E050E00E944C16181624F4E8
:101E500021E030E03E872D8700E010E06B817C813F
:101E60008D819E8120E030E040E050E00E94C1146E
:101E7000882314F401E010E08D859E85801B910B72
:101E8000E981FA81E80FF91FFA83E983C601B501F8
:101E900020E030E040E85FE30E945C145B016C01ED
:101EA00020E030E040E05FE30E944C168823CCF055
:101EB0006B817C818D819E8120E030E040E050E0AC
:101EC0000E944C1618163CF429813A81621673065A
:101ED0000CF0A9CF06C089819A81861597050CF070
:101EE000A2CF6F81788589859A8520E030E040E037
:101EF00050E00E944C16181624F40894E11CF11CC2
:101F000003C00894E108F1086F81788589859A8576
:101F100020E030E040E050E00E944C16181624F417
:101F20008E149F042CF071CFE814F9040CF06DCFDF
:101F30002E960FB6F894DEBF0FBECDBFCF91DF91C6
:101F40001F910F91FF90EF90DF90CF90BF90AF90D7
:101F50009F908F907F906F905F904F903F902F90C9
:101F600008954F925F926F927F928F929F92AF925D
:101F7000BF92CF92DF92EF92FF920F931F93CF9376
:101F8000DF933B01490125E0429FA0011124AAE211
:101F9000EA2EA0E0FA2EE40EF51E8C01F1E04F2EA1
:101FA000512CEFE2AE2EE0E0BE2EA40EB51EF701DE
:101FB00084918114910409F48095C0E0D0E0C82E8A
:101FC000DD24BE01660D771DA2010C2E02C0440F58
:101FD000551F0A94E2F74C215D210C2E02C0559545
:101FE00047950A94E2F7C8010E94240E2196C83052
:101FF000D10539F70894E11CF11C0F5F1F4FEA145B
:10200000FB04A9F6DF91CF911F910F91FF90EF9004
:10201000DF90CF90BF90AF909F908F907F906F9008
:102020005F904F900895CF92DF92EF92FF920F93BF
:102030001F93CF93DF936B017A01E901082F10E022
:1020400008C0802F90E0B6019E010E94B10F0B5F87
:102050001F5FF701E10FF11D4081442391F7DF91EC
:10206000CF911F910F91FF90EF90DF90CF90089547
:10207000CF93DF9380E060E00E94AD10C4E3D5E031
:1020800081E069910E944B1087E0CC32D807C1F7FC
:10209000DF91CF91089595B18295880F807E9F7DC5
:1020A000982B95B95F9827E030E070E08F98CB01CE
:1020B000022E02C0959587950A94E2F780FF02C030
:1020C0002E9A01C02E988F9A215030408FEF2F3FCB
:1020D000380761F75F9A08951F93182F579A249A2B
:1020E000259A269A879A2C985F9A2C9A80E061E22A
:1020F0000E944B10106880E0612F0E944B1080E01E
:1021000064E00E944B1080E063E10E944B1080E08D
:102110006CE00E944B1080E060E20E944B1080E077
:102120006CE00E944B1080E060E40E944B1080E065
:1021300060E80E944B101F910895CF93DF93C0E099
:10214000D0E081E060E00E944B10219681E0C83F22
:10215000D807B9F7DF91CF9108951F93182F6064C6
:1021600080E00E944B10106880E0612F0E944B10AD
:102170001F91089587E880937A000895982F9F71A2
:10218000906490937C00807280937B0080917A00B1
:10219000806480937A0080917A0086FDFCCF209144
:1021A000780030917900C9010895A1E1B0E0EBED2C
:1021B000F0E10C944A173C017F876E876A01FC01AD
:1021C00017821682838181FD03C06FEF7FEF6FC39B
:1021D0009E012F5F3F4F398B288BF3012381EE85C2
:1021E000FF8523FD859123FF8191FF87EE8788235B
:1021F00009F45AC3853251F4EE85FF8523FD85919C
:1022000023FF8191FF87EE87853229F490E0B301A7
:102210000E940619E2CF982F10E0882499241032EA
:10222000B0F49B3269F09C3228F4903251F0933232
:1022300071F40BC09D3239F0903349F4116028C01D
:102240001260146025C0186023C0106121C017FD02
:102250002AC0892F80538A3078F416FF06C0FAE02E
:102260009F9E902C1124980E13C03AE0839E802CE0
:102270001124880E10620CC09E3221F416FD14C386
:10228000106406C09C3611F4106802C0983659F4E8
:10229000EE85FF8523FD959123FF9191FF87EE87C2
:1022A000992309F0BCCF892F8554833020F4812FE6
:1022B0008061905E07C0892F8556833008F09FC1EA
:1022C000812F8F7E86FD02C076E0972E6FE3F62E7B
:1022D000F822953619F4F0E4FF2A07C0963619F46F
:1022E00020E8F22A02C091109A94F7FE0AC03BE35C
:1022F000391518F45CE3B52E02C0B92CB39427E06D
:1023000009C047E0491520F4BB2447E0942EF7CFDD
:10231000292DBB24C60104969D878C87F601608118
:10232000718182819381AE014F5F5F4F0B2D0E94BF
:1023300018186C010981202E332400FF04C003FD0E
:1023400002C01DE209C0F1FE02C01BE205C0F2FCA2
:1023500002C010E001C010E2C1018C709070892BA6
:10236000B9F1112311F483E001C084E0881510F065
:1023700088240AC0881AF3FC07C080E290E0B30109
:102380000E9406198A94C9F7112329F0812F90E041
:10239000B3010E94061923FE03C00AEA12E00EC030
:1023A0000EEA12E00BC0E114F10409F0805290E053
:1023B000B3010E9406190F5F1F4F05C0EF2CFF24C9
:1023C000F0E1EF22FF24F8018491882361F714C122
:1023D000F7FE12C0BC0C24FE04C08A81813309F4CC
:1023E000BA941B141CF0BB24B3942DC0F8E0FB1569
:1023F00050F538E0B32E27C0F6FC25C0892D90E0BB
:102400008C159D054CF02CEFC2162FEFD20624F050
:1024100030E8F32A01C09A94992049F0E2E0F0E014
:10242000EC0FFD1FE90DF11D80818033A1F3F7FE54
:102430000AC0B92CB394892D90E0C816D90614F0BF
:10244000992401C09C18F7FC03C025E030E009C0C6
:102450001C141D041CF021E030E003C096012F5F26
:102460003F4F112311F02F5F3F4F992029F0892D05
:1024700090E00196280F391F882D90E02817390722
:1024800014F0882401C0821A4F2C5524C20189708F
:102490009070892B39F008C080E290E0B3010E946F
:1024A00006198A948820C1F7112329F0812F90E022
:1024B000B3010E94061943FE07C008C080E390E004
:1024C000B3010E9406198A948820C1F7F7FE46C01E
:1024D0008601D7FE02C000E010E076010894E11CFE
:1024E000F11CE01AF10A41E050E04C0F5D1FE40ED0
:1024F000F51E26014B185108892D90E0AA24BB2413
:10250000A81AB90A5FEF0F3F150729F48EE290E091
:10251000B3010E940619C016D10634F040165106C8
:102520001CF4F701808101C080E301501040089441
:10253000E11CF11C0A151B052CF090E0B3010E9470
:102540000619E0CF0C151D0539F49A81963318F45D
:10255000953311F424FE81E390E04BC08A818133EE
:1025600009F00F7E90E0B3010E9406199920A1F0B6
:102570008EE290E0B3010E94061912E0E1E0F0E083
:10258000EC0FFD1FE10FF11D1F5F808190E0B30193
:102590000E9406199A9491F744FC03C085E690E0E6
:1025A00002C085E490E0B3010E940619D7FC05C083
:1025B000C114D10441F404FF06C0D094C194D108E1
:1025C000D3948DE201C08BE290E0B3010E94061922
:1025D00080E305C08F5F26EF3FEFC20ED31E3AE0C7
:1025E000C316D104BCF790E0B3010E940619C601DE
:1025F000C096B3010E940619CC84DD8452C1933683
:1026000031F0933799F0933509F059C023C0F601A2
:10261000808189835E010894A11CB11C22E030E016
:10262000C20ED31E21E0E22EF12C12C0F601A080D2
:10263000B18016FD03C06FEF7FEF02C0692D70E01F
:1026400022E030E0C20ED31EC5010E94FB187C01BF
:102650001F7713C0F601A080B18016FD03C06FEF95
:102660007FEF02C0692D70E022E030E0C20ED31E81
:10267000C5010E94F0187C01106813FF07C01BC041
:1026800080E290E0B3010E9406198A94882D90E0C0
:10269000E816F906A8F30FC0F50117FD859117FF9D
:1026A00081915F0190E0B3010E94061981108A9424
:1026B0000894E108F108E114F10471F7F2C09436CE
:1026C00011F0993689F517FF08C0F6012081318194
:1026D0004281538184E090E00AC0F60180819181BB
:1026E0009C01442737FD4095542F82E090E0C80EAE
:1026F000D91E9FE6F92EF12257FF09C0509540954B
:10270000309521953F4F4F4F5F4F90E8F92ACA010E
:10271000B901AE014F5F5F4F2AE030E00E945619C9
:10272000E82EE889EE1A41C0953721F41F7E2AE091
:1027300030E01CC0197F9F3661F0903720F4983547
:1027400009F0B2C00FC0903739F0983709F0ACC02B
:1027500004C028E030E00AC0106114FD146020E1DC
:1027600030E004C014FD166020E132E017FF08C01D
:10277000F601608171818281938144E050E008C05C
:10278000F60180819181BC0180E090E042E050E060
:10279000C40ED51EAE014F5F5F4F0E945619E82E42
:1027A0005889E51A8FE7F82EF122F6FE0BC08EEF5E
:1027B000F822E91438F4F4FE07C0F2FC05C09FEEDD
:1027C000F92202C01E2D01C0192DF4FE0DC0FE011C
:1027D000EE0DF11D8081803319F4E9EEFE2208C070
:1027E0001F5FF2FE05C003C08F2D867809F01F5FC2
:1027F0000F2DF3FC14C0F0FE0FC0181510F09E2C26
:102800000BC09E2C980C911A182D06C080E290E007
:10281000B3010E9406191F5F1815C0F304C01815F4
:1028200010F4811A01C0882404FF0FC080E390E0F7
:10283000B3010E94061902FF1DC001FD03C088E715
:1028400090E00EC088E590E00BC0802F867891F074
:1028500001FF02C08BE201C080E2F7FC8DE290E054
:10286000B3010E94061906C080E390E0B3010E9404
:1028700006199A94E914C0F3EA94E1E0F0E0EC0F51
:10288000FD1FEE0DF11D808190E0B3010E9406193D
:10289000EE2091F706C080E290E0B3010E94061995
:1028A0008A948820C1F799CCF30166817781CB01A6
:1028B0006196E2E10C9466175058BB27AA270ED008
:1028C000A0C169D130F06ED120F031F49F3F11F4F6
:1028D0001EF45EC10EF4E095E7FB54C1E92FB3D1BD
:1028E00080F3BA17620773078407950718F071F42D
:1028F0009EF5CBC10EF4E0950B2EBA2FA02D0B0147
:10290000B90190010C01CA01A0011124FF27591B34
:1029100099F0593F50F4503E68F11A16F040A22F3A
:10292000232F342F4427585FF3CF469537952795AB
:10293000A795F0405395C9F77EF41F16BA0B620BAA
:10294000730B840BBAF09150A1F0FF0FBB1F661FF1
:10295000771F881FC2F70EC0BA0F621F731F841F34
:1029600048F4879577956795B795F7959E3F08F05A
:10297000B3CF9395880F08F09927EE0F9795879519
:102980000895DCD008F481E0089514D1E3954AC19C
:102990000CD037C107D140F0FED030F021F45F3FBA
:1029A00019F0F0C0511172C1F3C04DD198F39923C1
:1029B000C9F35523B1F3951B550BBB27AA27621703
:1029C0007307840738F09F5F5F4F220F331F441F48
:1029D000AA1FA9F333D00E2E3AF0E0E830D0915080
:1029E0005040E695001CCAF729D0FE2F27D0660F6D
:1029F000771F881FBB1F261737074807AB07B0E8AC
:102A000009F0BB0B802DBF01FF2793585F4F2AF0C1
:102A10009E3F510568F0B6C039C15F3FECF3983E68
:102A2000DCF3869577956795B795F7959F5FC9F71E
:102A3000880F911D9695879597F90895E1E0660FA7
:102A4000771F881FBB1F621773078407BA0720F020
:102A5000621B730B840BBA0BEE1F88F7E095089589
:102A600004D06894B11112C10895F5D088F09F5731
:102A700090F0B92F9927B751A0F0D1F0660F771FCA
:102A8000881F991F1AF0BA95C9F712C0B13081F0AA
:102A9000FCD0B1E00895F9C0672F782F8827B85F80
:102AA00039F0B93FCCF3869577956795B395D9F70B
:102AB0003EF490958095709561957F4F8F4F9F4F15
:102AC0000895E89409C097FB3EF490958095709521
:102AD00061957F4F8F4F9F4F9923A9F0F92F96E96A
:102AE000BB279395F695879577956795B795F111DF
:102AF000F8CFFAF4BB0F11F460FF1BC06F5F7F4F7C
:102B00008F4F9F4F16C0882311F096E911C077238D
:102B100021F09EE8872F762F05C0662371F096E896
:102B2000862F70E060E02AF09A95660F771F881F65
:102B3000DAF7880F9695879597F90895990F000809
:102B4000550FAA0BE0E8FEEF16161706E807F9077F
:102B5000C0F012161306E407F50798F0621B730B1A
:102B6000840B950B39F40A2661F0232B242B252B9B
:102B700021F408950A2609F4A140A6958FEF811D3E
:102B8000811D089597F99F6780E870E060E00895DF
:102B90009FEF80EC089500240A9416161706180675
:102BA0000906089500240A94121613061406050651
:102BB0000895EECF50D0E8F3E894E0E0BB279F57AC
:102BC000F0F02AED3FE049EC06C0EE0FBB0F661FA8
:102BD000771F881F28F0B23A62077307840728F02E
:102BE000B25A620B730B840BE3959A9572F7803897
:102BF00030F49A95BB0F661F771F881FD2F7904855
:102C0000BAC0092E0394000C11F4882352F0BB0FB4
:102C100040F4BF2B11F460FF04C06F5F7F4F8F4FF4
:102C20009F4F0895EF93E0FF06C0A2EA2AED3FE030
:102C300049EC5FEB53DEE5DF0F90039401FC905805
:102C4000ECEAF0E0A4C057FD9058440F551F59F02E
:102C50005F3F71F04795880F97FB991F61F09F3F89
:102C600079F087950895121613061406551FF2CFB2
:102C70004695F1DF08C0161617061806991FF1CF02
:102C800086957105610508940895E894BB27662729
:102C90007727CB0197F9089551DF08F48FEF089556
:102CA0000BD0AFCF78DF28F07DDF18F0952309F047
:102CB00069CF6ECF1124EACFC6DFA0F3959FD1F381
:102CC000950F50E0551F629FF001729FBB27F00DDA
:102CD000B11D639FAA27F00DB11DAA1F649F66272F
:102CE000B00DA11D661F829F2227B00DA11D621F7E
:102CF000739FB00DA11D621F839FA00D611D221F38
:102D0000749F3327A00D611D231F849F600D211D1B
:102D1000822F762F6A2F11249F5750408AF0E1F0BE
:102D200088234AF0EE0FFF1FBB1F661F771F881F07
:102D300091505040A9F79E3F510570F023CFA6CF88
:102D40005F3FECF3983EDCF3869577956795B795F2
:102D5000F795E7959F5FC1F7FE2B880F911D96951C
:102D6000879597F908959F9325DF0F9007FCEE5FF5
:102D700059CF9F3F31F0915020F487957795679513
:102D8000B795880F911D9695879597F908959F930C
:102D90008F937F936F93FF93EF939B01AC0180DF41
:102DA000EF91FF9105D02F913F914F915F9178CF97
:102DB000DF93CF931F930F93FF92EF92DF927B01EC
:102DC0008C01689405C0DA2EEF0176DFFE01E894ED
:102DD000A5912591359145915591AEF3EF017EDD99
:102DE000FE019701A801DA9479F7DF90EF90FF9048
:102DF0000F911F91CF91DF910895629FD001739F32
:102E0000F001829FE00DF11D649FE00DF11D929F86
:102E1000F00D839FF00D749FF00D659FF00D9927C5
:102E2000729FB00DE11DF91F639FB00DE11DF91FE9
:102E3000BD01CF011124089597FB092E07260AD062
:102E400077FD04D05ED006D000201AF4709561950D
:102E50007F4F0895F6F7909581959F4F089597FBC2
:102E6000092E05260ED057FD04D05FD00AD0001CD5
:102E700038F450954095309521953F4F4F4F5F4F17
:102E80000895F6F790958095709561957F4F8F4FD7
:102E90009F4F08952F923F924F925F926F927F9231
:102EA0008F929F92AF92BF92CF92DF92EF92FF925A
:102EB0000F931F93CF93DF93CDB7DEB7CA1BDB0B06
:102EC0000FB6F894DEBF0FBECDBF09942A883988AB
:102ED00048885F846E847D848C849B84AA84B984B2
:102EE000C884DF80EE80FD800C811B81AA81B981BE
:102EF000CE0FD11D0FB6F894DEBF0FBECDBFED01D2
:102F00000895AA1BBB1B51E107C0AA1FBB1FA61730
:102F1000B70710F0A61BB70B881F991F5A95A9F782
:102F200080959095BC01CD010895A1E21A2EAA1BAF
:102F3000BB1BFD010DC0AA1FBB1FEE1FFF1FA21769
:102F4000B307E407F50720F0A21BB30BE40BF50B66
:102F5000661F771F881F991F1A9469F760957095EF
:102F6000809590959B01AC01BD01CF010895A0E033
:102F7000B0E0EDEBF7E10C945217EC01A880B980BA
:102F8000CA80DB80A114B104C104D10441F484E2FD
:102F9000A82E89EDB82E8BE5C82E87E0D82EC60165
:102FA000B5012DE133EF41E050E00E942F1727EAF1
:102FB00031E440E050E00E94FD167B018C01C60127
:102FC000B5012DE133EF41E050E00E942F17CA0117
:102FD000B9012CEE34EF4FEF5FEF0E94FD166E0D3E
:102FE0007F1D801F911F97FF04C06150704080407B
:102FF0009048688379838A839B839B013F77C901CB
:10300000CDB7DEB7EAE00C946E170E94B7170895AB
:1030100080E192E00E94B7170895A0E0B0E08093AD
:10302000100290931102A0931202B093130208951C
:10303000283008F027E03327DA01990F311D87FD8A
:10304000916000966105710539F432602E5F3D9301
:1030500030E32A95E1F708959F3F30F080387105FD
:10306000610509F03C5F3C5F3D93913008F080685A
:10307000911DDF93CF931F930F93FF92EF92192F20
:10308000987F9695E92F96959695E90FFF27E45F2F
:10309000FC4F99273327EE24FF24A701E701059071
:1030A0000894079428F4360FE71EF81E491F511D97
:1030B000660F771F881F991F0694A1F70590079444
:1030C00028F4E70EF81E491F561FC11D770F881FF1
:1030D000991F661F0694A1F70590079428F4F80E2F
:1030E000491F561FC71FD11D880F991F661F771FC5
:1030F0000694A1F70590079420F4490F561FC71FA7
:10310000D81F990F661F771F881F0694A9F784910F
:103110001095177041F0D695C79557954795F79438
:10312000E7941A95C1F7E2EBF2E0689415901591D7
:1031300035916591959105907FE27395E118F10ABB
:10314000430B560BC90BD009C0F7E10CF11E431F0E
:10315000561FC91FD01D7EF4703311F48A95E6CF37
:10316000E894015030F0080F0AF40027021708F421
:10317000202F2395022F7A3328F079E37D932A9527
:10318000E9F710C07D932A9589F60694979567957F
:10319000379517951794E118F10A430B560BC90B95
:1031A000D00998F023957E9173957A3308F070E3F7
:1031B0007C932013B8F77E9170617D9330F08395F6
:1031C00071E37D9370E32A95E1F71124EF90FF906E
:1031D0000F911F91CF91DF91992787FD90950895C9
:1031E000FC010590615070400110D8F780959095D2
:1031F0008E0F9F1F0895FC016150704001900110D7
:10320000D8F7809590958E0F9F1F08950F931F9369
:10321000CF93DF938C01EB018B8181FF1BC082FF79
:103220000DC02E813F818C819D812817390764F460
:10323000E881F9810193F983E88306C0E885F9857F
:10324000802F0995892B31F48E819F8101969F8370
:103250008E8302C00FEF1FEFC801DF91CF911F9146
:103260000F910895AEE0B0E0E8E3F9E10C9458174F
:103270000D891E8986E08C831A8309838FEF9FE76F
:103280009E838D839E01275E3F4FCE0101966F89FD
:10329000788DA9010E94D5102F813885020F131F48
:1032A000F80110822E96E4E00C947417FA01AA2714
:1032B000283051F1203181F1E8946F936E7F6E5F79
:1032C0007F4F8F4F9F4FAF4FB1E03ED0B4E03CD027
:1032D000670F781F891F9A1FA11D680F791F8A1F0A
:1032E000911DA11D6A0F711D811D911DA11D20D071
:1032F00009F468943F912AE0269F11243019305D2B
:103300003193DEF6CF010895462F4770405D41931B
:10331000B3E00FD0C9F7F6CF462F4F70405D4A3368
:1033200018F0495D31FD4052419302D0A9F7EACF30
:10333000B4E0A6959795879577956795BA95C9F75F
:1033400000976105710508959B01AC010A2E069452
:103350005795479537952795BA95C9F7620F731F0B
:0C336000841F951FA01D0895F894FFCF56
:10336C006F0054696D653A203025643A302564004D
:10337C0054696D653A2025643A25640054696D657D
:10338C003A203025643A25640054696D653A20254D
:10339C00643A30256400413A2025640064000F0033
:1033AC0007002300290001012020202020202020BC
:1033BC002020202020202020202020202020202001
:1033CC0020202020202020202020202020202020F1
:1033DC0020202020202020202020202020202020E1
:1033EC00202020206F6F2020206F6F6F6F6F2020A8
:1033FC00206F6F6F6F6F6F6F6F6F6F6F6F6F6F6F20
:10340C006F6F6F6F2020206F6F6F6F6F2020206F9A
:10341C006F0048012020206F20202020206F6F6F2C
:10342C002020206F6F6F6F6F206F6F6F6F6F6F6FDC
:10343C00206F6F6F6F6F2020206F6F6F2020202008
:10344C00206F20202000B40120206F2020206F6FDF
:10345C006F206F6F6F6F6F206F6F6F2020206F204A
:10346C002000E801206F206F6F6F206F2000040296
:04347C00010000004B
:00000001FF
