:100000000C94D6010C94F3010C94F3010C94F301BD
:100010000C94F3010C94F3010C94F3010C94F30190
:100020000C94F3010C94F3010C94F3010C94F30180
:100030000C94F3010C94F3010C94F3010C94F30170
:100040000C94F3010C94F3010C94F3010C94F30160
:100050000C94F3010C94F3010C94F3010C94F30150
:100060000C94F3010C94F3010C94F3010C94F30140
:100070000C94F3010C94F3010C94F3010C94F30130
:100080000C94F3010C94F3010C94F3010C944308C9
:100090000C94F3010C94F3010C94F3010C94F30110
:1000A0000C94F3010C94F3010C94F30105A84CCDCE
:1000B000B2D44EB93836A9020C50B9918688083CA2
:1000C000A6AAAA2ABE000000803F0000000000008F
:1000D000005F00000007000700147F147F14242A2B
:1000E0007F2A122313086462364955225000050303
:1000F0000000001C2241000041221C0014083E08A0
:100100001408083E080800503000000808080808D5
:10011000006060000020100804023E5149453E0086
:10012000427F400042615149462141454B311814FC
:10013000127F1027454545393C4A4949300171092C
:1001400005033649494936064949291E0036360015
:100150000000563600000814224100141414141430
:1001600000412214080201510906324979413E7EBC
:100170001111117E7F494949363E414141227F415B
:1001800041221C7F494949417F090909013E4149F2
:10019000497A7F0808087F00417F41002040413FA5
:1001A000017F081422417F404040407F020C027FC3
:1001B0007F0408107F3E4141413E7F090909063E08
:1001C0004151215E7F0919294646494949310101BA
:1001D0007F01013F4040403F1F2040201F3F4038EB
:1001E000403F6314081463070870080761514945CC
:1001F00043007F41410002040810200041417F007C
:10020000040201020440404040400001020400207A
:10021000545454787F484444383844444420384443
:1002200044487F3854545418087E0901020C525235
:10023000523E7F0804047800447D40002040443D45
:10024000007F1028440000417F40007C041804789F
:100250007C0804047838444444387C141414080896
:100260001414187C7C080404084854545420043F97
:100270004440203C4040207C1C2040201C3C40301E
:10028000403C44281028440C5050503C4464544C8A
:1002900044000836410000007F000000413608009D
:1002A000100808100878464146786E616E00696E45
:1002B000660000407A10F35A00A0724E1809001030
:1002C000A5D4E80000E87648170000E40B540200CB
:1002D00000CA9A3B000000E1F505000080969800F6
:1002E000000040420F000000A0860100000010271F
:1002F00000000000E80300000000640000000000AF
:100300000A00000000000100000000002C76D888E0
:10031000DC674F0823DFC1DFAE59E1B1B796E5E3F3
:10032000E453C63AE651997696E8E6C28426EB890C
:100330008C9B62ED407C6FFCEFBC9C9F40F2BAA5A9
:100340006FA5F490055A2AF75C936B6CF9676DC141
:100350001BFCE0E40D47FEF520E6B500D0ED902E45
:100360000300943577050080841E080000204E0AA3
:10037000000000C80C333333330F986E12831141E1
:10038000EF8D2114893BE65516CFFEE6DB18D184AC
:100390004B381BF77C1D901DA4BBE42420328472D3
:1003A0005E228100C9F124ECA1E53D2711241FBE86
:1003B000CFEFDAE0DEBFCDBF13E0A0E0B1E0E0E0D8
:1003C000F6E302C005900D92A03BB107D9F719E002
:1003D000A0EBB3E001C01D92A639B107E1F70E947E
:1003E000460F0C94FE1A0C940000CF92DF92EF920D
:1003F000FF920F931F93DC018417950734F1C80116
:10040000840F951FA817B90704F562177307ECF05E
:10041000E20EF31E6E157F05C4F490E0A41BB50B2D
:10042000621B730B609FF001619FF00D709FF00DD8
:100430001124CA0EDB1EEC0DFD1D8081803209F4F3
:1004400091E081E09827892F02C080E090E01F9121
:100450000F91FF90EF90DF90CF9008952F923F92F1
:100460004F925F926F927F928F929F92AF92BF92C4
:10047000CF92DF92EF92FF920F931F93DF93CF9370
:10048000CDB7DEB760970FB6F894DEBF0FBECDBF15
:100490009A8389837C836B835E834D8319011887DC
:1004A0000F83FA86E986DC86CB86BE86AD86988A7F
:1004B0008F86882499242EC069807A806A0C7B1CE0
:1004C000C301B20149815A812B813C810D811E817A
:1004D0007101CF80D8840E94F501882381F0C30187
:1004E000B20149855A852B853C850D851E85EF8493
:1004F000F888CDA0DEA00E94F5018823B9F4089405
:10050000A11CB11C8D819E81A816B906ACF208947D
:10051000811C911C8214930414F080E008C0AA246A
:10052000BB244B805C80480C591CECCF81E060966A
:100530000FB6F894DEBF0FBECDBFCF91DF911F91F4
:100540000F91FF90EF90DF90CF90BF90AF909F9072
:100550008F907F906F905F904F903F902F90089575
:10056000AF92BF92CF92DF92EF92FF920F931F93C1
:100570006091D8037091D9038091DA039091DB03E5
:10058000E0909400F09095000E94AB1620E030E0DF
:1005900040E857E40E949A175B016C0100E010E00C
:1005A000C801B7010E94AB169B01AC01C601B501A1
:1005B0000E94A71520E030E040E853E40E949A171B
:1005C00020E034E244EF5AE40E9412161F910F918A
:1005D000FF90EF90DF90CF90BF90AF9008950E9472
:1005E000B0020E947A16DC01CB016CE370E00E943D
:1005F000471808950E94B0020E947A16DC01CB01D0
:100600006CE370E00E944718CB0108951092D80364
:100610001092D9031092DA031092DB030895CF935E
:10062000DF934091B2035091B303415050409C017D
:10063000220F331F220F331FE901CC5ED84FF9017F
:10064000E454FC4F9C0112C02F5F3F4F8C819D8171
:10065000AE81BF8189939993A993B9938481958140
:10066000A681B78181939193A193B1932417350704
:100670005CF35093B3034093B20382E090E0909315
:100680005F0780935E07DF91CF910895CF93DF934B
:100690004091D6035091D703415050409C01220F06
:1006A000331F220F331FE901C85FD84FF901EE59FC
:1006B000F84F9C0112C02F5F3F4F8C819D81AE810E
:1006C000BF8189939993A993B99384819581A681D8
:1006D000B78181939193A193B193241735075CF36C
:1006E0005093D7034093D60381E090E090935F0747
:1006F00080935E07DF91CF910895CF92DF92EF92C2
:10070000FF920F931F93CF93DF93EB0181359105F8
:1007100019F424E530E005C09C0197FF02C020E0F9
:1007200030E0E090B003F090B1038701000F111F9B
:10073000000F111FEEE6CE2EE7E0DE2EC00ED11E1A
:10074000B901882777FD8095982F0E94AD16F60194
:100750006083718382839383025D184FBE01882773
:1007600077FD8095982F0E94AD16F8016083718304
:10077000828393830894E11CF11CF092B103E09210
:10078000B003DF91CF911F910F91FF90EF90DF9019
:10079000CF900895CF93DF934091B0035091B10370
:1007A000415050409C01220F331F220F331FE9019B
:1007B000C259D84FF901E25DF84F9C0112C02F5F7A
:1007C0003F4F8C819D81AE81BF8189939993A9937D
:1007D000B99384819581A681B78181939193A193E7
:1007E000B193241735075CF35093B1034093B003E2
:1007F00080915E0790915F07049690935F078093C6
:100800005E07DF91CF9108950F931F93CF93DF93EE
:100810000EE217E0C0E0D0E031C0F80160817181E4
:10082000828193812091040730910507409106074A
:10083000509107070E94A715F80160837183828396
:10084000938320E030E040E450E40E94A71520E0CC
:1008500030E040E252E40E949617882364F0CE0113
:100860000E94CA038091600790916107019790935D
:1008700061078093600721960C5F1F4F8091B00342
:100880009091B103C817D90744F2DF91CF911F911E
:100890000F910895CF92DF92EF92FF920F931F93E3
:1008A000CF93DF93EB018F34910519F426E530E007
:1008B00005C09C0197FF02C020E030E0E090B20349
:1008C000F090B3038701000F111F000F111FB4E157
:1008D000CB2EB7E0DB2EC00ED11EB901882777FDE5
:1008E0008095982F0E94AD16F601608371838283F4
:1008F000938304541C4FBE01882777FD8095982F61
:100900000E94AD16F80160837183828393830894FB
:10091000E11CF11CF092B303E092B203DF91CF919E
:100920001F910F91FF90EF90DF90CF9008950F935C
:100930001F93CF93DF930CEB13E0C0E0D0E031C006
:10094000F801608171818281938120910407309147
:10095000050740910607509107070E94A715F80167
:10096000608371838283938320E030E040EA50E427
:100970000E94A71520E030E040E252E40E94961762
:10098000882364F0CE010E940F038091600790914C
:1009900061070197909361078093600721960C5F30
:1009A0001F4F8091B2039091B303C817D90744F247
:1009B000DF91CF911F910F910895181619061CF021
:1009C00081E090E0089580E090E01616170614F09C
:1009D00081E090E00895CF93DF936091B40370912C
:1009E000B503615070409C01220F331FA901465C82
:1009F000594FE901CE58DA4FFC01EE0FFF1FEE0F01
:100A0000FF1FEE51FC4F9C0116C02F5F3F4FDA01D4
:100A100012968D919C9113978D939D93AD018A8130
:100A20009B818993999384819581A681B7818193D4
:100A30009193A193B193261737073CF37093B503B5
:100A40006093B403DF91CF910895EF92FF920F93DB
:100A50001F93CF93DF93EC012091B4033091B50342
:100A60008091C7029091C8022817390709F450C035
:100A70000E94B0022091DC033091DD034091DE033F
:100A80005091DF030E94A6152DEC3CEC4CE45EE394
:100A90000E9496171816E4F5E090B403F090B503A1
:100AA000F701EE0FFF1FDF01A65CB94F80912C0705
:100AB00090912D078D939C93EE58FA4F8091E0030F
:100AC0009091E103918380838701000F111F000F34
:100AD000111F0E511C4FBE01882777FD8095982F5E
:100AE0000E94AD16F801608371838283938308941A
:100AF000E11CF11CF092B503E092B4030E94B00235
:100B00006093DC037093DD038093DE039093DF0337
:100B1000DF91CF911F910F91FF90EF9008952F9249
:100B20003F924F925F926F927F928F929F92AF927D
:100B3000BF92CF92DF92EF92FF920F931F93DF93BA
:100B4000CF93CDB7DEB72A970FB6F894DEBF0FBEAE
:100B5000CDBF1A821982B3C000D02DB73EB72F5F28
:100B60003F4F3C832B83E981FA81EE0FFF1FDF01AA
:100B7000A65CB94F2D903C90EE58FA4F40805180C2
:100B80000091A0031091A103E984FA84EE0CFF1CEC
:100B9000EE0CFF1CC701885F984F9E838D83DC019C
:100BA0006D917D918D919C910E947A163B014C0133
:100BB000F701EE59F84FF887EF83608171818281E8
:100BC00093810E947A165B016C0180917103909170
:100BD0007203AB81BC818D939C93C101B20142E051
:100BE00050E022E030E073016501F7E0AF2EB12C58
:100BF000E7E08E2E912C0E942E020F900F908823FA
:100C000009F449C0ED81FE81608171818281938107
:100C10000E947A167B018C01AF81B8856D917D9120
:100C20008D919C910E947A169B01AC01C701B9017C
:100C30000E944A04ED81FE816081718182819381ED
:100C400020E030E040EE50E40E94A7150E947A16A2
:100C50007B018C01AF81B8856D917D918D919C91C7
:100C60000E947A169B01AC01C701B9010E944A0497
:100C700089859A850E94460389819A810E94EB04A6
:100C8000E981FA813197FA83E98329853A852150F0
:100C900030403A87298789859A8501969A8789877E
:100CA0008091D6039091D703A985BA85A817B90773
:100CB0000CF452CFE981FA813196FA83E98380916D
:100CC000B4039091B50329813A81281739071CF4A0
:100CD0001A861986E5CF2A960FB6F894DEBF0FBEA6
:100CE000CDBFCF91DF911F910F91FF90EF90DF90DB
:100CF000CF90BF90AF909F908F907F906F905F90BC
:100D00004F903F902F9008952F923F924F925F9275
:100D10006F927F928F929F92AF92BF92CF92DF920B
:100D2000EF92FF920F931F93DF93CF93CDB7DEB770
:100D30002A970FB6F894DEBF0FBECDBF1A82198274
:100D4000B3C000D02DB73EB72F5F3F4F3C832B83FE
:100D5000E981FA81EE0FFF1FDF01A65CB94F2D90EC
:100D60003C90EE58FA4F408051800091A0031091C2
:100D7000A103E984FA84EE0CFF1CEE0CFF1CC701F2
:100D80008C5E984F9E838D83DC016D917D918D915A
:100D90009C910E947A163B014C01F701E454FC4FF0
:100DA000F887EF8360817181828193810E947A1636
:100DB0005B016C0180918D0390918E03AB81BC81AE
:100DC0008D939C93C101B20142E050E022E030E0FB
:100DD00073016501F7E0AF2EB12CE7E08E2E912C68
:100DE0000E942E020F900F90882309F449C0ED81D4
:100DF000FE8160817181828193810E947A167B01DC
:100E00008C01AF81B8856D917D918D919C910E94EF
:100E10007A169B01AC01C701B9010E947D03ED81E7
:100E2000FE81608171818281938120E030E040EA1F
:100E300050E40E94A7150E947A167B018C01AF81B5
:100E4000B8856D917D918D919C910E947A169B0140
:100E5000AC01C701B9010E947D0389859A850E9472
:100E60000F0389819A810E94EB04E981FA8131970D
:100E7000FA83E98329853A85215030403A872987CA
:100E800089859A8501969A8789878091B203909186
:100E9000B303A985BA85A817B9070CF452CFE98125
:100EA000FA813196FA83E9838091B4039091B50376
:100EB00029813A81281739071CF41A861986E5CF4B
:100EC0002A960FB6F894DEBF0FBECDBFCF91DF914B
:100ED0001F910F91FF90EF90DF90CF90BF90AF9058
:100EE0009F908F907F906F905F904F903F902F904A
:100EF00008952F923F924F925F926F927F928F92BE
:100F00009F92AF92BF92CF92DF92EF92FF920F9398
:100F10001F93DF93CF9300D000D000D0CDB7DEB7C2
:100F20001A8219827AC000D02DB73EB72F5F3F4F8B
:100F30003C832B83E981FA81EE0FFF1FDF01A65C62
:100F4000B94F2D903C90EE58FA4F4080518000915F
:100F5000A0031091A103ED80FE80EE0CFF1CEE0CAF
:100F6000FF1CF701E259F84F608171818281938102
:100F70000E947A163B014C018EE297E0E80EF91EC2
:100F8000D7016D917D918D919C910E947A165B01A4
:100F90006C018091990390919A03EB81FC8191837C
:100FA0008083C101B20142E050E022E030E07301F1
:100FB0006501F3E0AF2EB12CE3E08E2E912C0E9460
:100FC0002E020F900F90882399F08D819E810E94B0
:100FD000CA0389819A810E94EB0429813A812150B8
:100FE00030403A8329838D819E8101979E838D8332
:100FF000AD81BE811196BE83AD838091B003909187
:10100000B103ED81FE81E817F9070CF48CCF29813B
:101010003A812F5F3F4F3A8329838091B4039091A7
:10102000B503A981BA81A817B9071CF41E821D82D5
:10103000E4CF26960FB6F894DEBF0FBECDBFCF919A
:10104000DF911F910F91FF90EF90DF90CF90BF90B5
:10105000AF909F908F907F906F905F904F903F9058
:101060002F9008950E948F050E9484060E947907A0
:1010700008951092900084E08093910081E0809325
:101080007100789408951F920F920FB60F92112459
:101090008F939F93AF93BF938091BA03882399F462
:1010A0008091D8039091D903A091DA03B091DB032A
:1010B0000196A11DB11D8093D8039093D903A093ED
:1010C000DA03B093DB03BF91AF919F918F910F90A3
:1010D0000FBE0F901F901895209821985098519806
:1010E000279885988698229A0E940412089589B1BB
:1010F000869580FF0FC06091B6037091B703809111
:10110000B8039091B9030E947A16DC01CB010E94CA
:1011100025052CC083B1869580FF12C08091D20234
:10112000882321F48091D1028823A1F48091D102F7
:101130008823E1F481E08093D2028093D10216C02B
:10114000489B14C08091D202882339F08091D1024B
:10115000882319F01092D10209C08091D10288230E
:1011600029F481E08093D1021092D20281E00E94A2
:101170000812A0E0B0E0BC01CD010E94AD1620E055
:1011800030EC4FE754E40E9412166093040770930A
:101190000507809306079093070708956F927F9243
:1011A0008F929F92AF92BF92CF92DF92EF92FF9277
:1011B0000F931F93CF93DF9380E00E940812A0E06B
:1011C000B0E0BC01CD010E94AD1620E030E040EF60
:1011D00052E40E949A1720E030EC4FE754E40E945A
:1011E000121620E030E040E752E40E94A61560931A
:1011F000B6037093B7038093B8039093B903C0917B
:10120000CD02D091CE0217E0612E712C6C0E7D1EA6
:1012100070920307609202072DE230E03093D5030D
:101220002093D4032BED3FE049E450EC0E949A1741
:1012300020E030E044E353E40E9412167B018C016D
:10124000C8010E94FD175B016C01882477FC809423
:10125000982CC401B3010E94AD163B014C01C6019C
:10126000B50120E030E040E850EC0E949A179B0165
:10127000AC01C401B3010E94A7150E947A167093B5
:101280002D0760932C07B701C8010E940F1620E0BC
:1012900030E040E850EC0E949A1720E030E044E350
:1012A00052E40E94A7150E947A167093E10360939E
:1012B000E003209721F48091D202882369F4809181
:1012C000C9029091CA028C0F9D1F8435910531F49B
:1012D0008091D202882311F41092D1028091D10220
:1012E0008823B9F08091D202882329F01C161D06AC
:1012F00084F421970AC08091C9029091CA028C0F90
:101300009D1F843591052CF42196D093CE02C09375
:10131000CD02DF91CF911F910F91FF90EF90DF9061
:10132000CF90BF90AF909F908F907F906F900895D7
:101330002F923F924F925F926F927F928F929F92E5
:10134000AF92BF92CF92DF92EF92FF920F931F93D3
:10135000DF93CF9300D000D000D0CDB7DEB78AE3C3
:10136000282E86E0382E02E7402E05E0502E22EE91
:1013700033E03A8329831E821D822CC0F1018080D4
:101380009180F2010190F081E02DFC83EB83E981F3
:10139000FA816081718182819381181419042CF47F
:1013A0002B813C8112161306FCF08D819E810E94D8
:1013B000EB048D819E8101969E838D83E2E0F0E0B7
:1013C0002E0E3F1E4E0E5F1E29813A812C5F3F4F2D
:1013D0003A8329838091B4039091B503ED81FE8116
:1013E000E817F9075CF25FC00E947A167095619564
:1013F0007F4F882777FD8095982F0E94AD162BEDA3
:101400003FE049E450E40E949A1720E030E044E3D2
:1014100053E40E9412167B018C01C8010E94FD1743
:101420005B016C01B401882777FD8095982F0E949D
:10143000AD163B014C01C601B50120E030E040E0B3
:1014400050EC0E949A179B01AC01C401B3010E94A9
:10145000A7150E947A16F10171836083B701C80154
:101460000E940F167B018C012B813C81B9018827DA
:1014700077FD8095982F0E94AD165B016C01C80125
:10148000B70120E030E040E050EC0E949A179B0149
:10149000AC01C601B5010E94A7150E947A16F2019F
:1014A0007183608386CF26960FB6F894DEBF0FBE99
:1014B000CDBFCF91DF911F910F91FF90EF90DF9003
:1014C000CF90BF90AF909F908F907F906F905F90E4
:1014D0004F903F902F9008950F93CF93DF93C0E0EC
:1014E000D0E0CE0167E270E02396AE0127E230E063
:1014F00001E00E94A90F2796CA35D10591F7DF9127
:10150000CF910F910895EF92FF920F931F938C014B
:101510007B010E94F618E01AF10A0894E11CF11C04
:10152000B7010E9447189C01200F311FC9011F916C
:101530000F91FF90EF900895AF92BF92CF92DF92FC
:10154000EF92FF920F931F93CF93DF9383E090E08E
:101550009093D7038093D603EE24FF24C0E0D0E01D
:101560000F2EF0E0AF2EF0E0BF2EF0EECF2EF0EC1D
:10157000DF2EF02D20C080E090E06DE470E00E944E
:10158000830A8E010C5F184FAA2797FDA095BA2FEA
:10159000BC01CD010E94AD16F80160837183828386
:1015A0009383FE01E25AF84FA082B182C282D382B5
:1015B0000894E11CF11C24968091D6039091D703E6
:1015C000E816F906C4F2DF91CF911F910F91FF90B9
:1015D000EF90DF90CF90BF90AF9008950F931F933F
:1015E000CF93DF9302E617E0C0E0D0E031C0F8010E
:1015F0006081718182819381209104073091050778
:1016000040910607509107070E94A715F8016083D3
:1016100071838283938320E030E040EE50E40E94A7
:10162000A71520E030E040E252E40E94961788239C
:1016300064F0CE010E94460380916007909161079B
:101640000197909361078093600721960C5F1F4F6D
:101650008091D6039091D703C817D90744F2892BFC
:1016600071F48091B0039091B103892B41F4809182
:10167000B2039091B303892B11F40E949C0ADF916D
:10168000CF911F910F9108951F9383E290E0909363
:10169000CE028093CD0289E290E09093D0028093B5
:1016A000CF021092BA031092B5031092B4031092B5
:1016B000B3031092B2031092B1031092B0031092D0
:1016C0005F0710925E0785E090E09093610780933A
:1016D00060070E949C0A11E01093D10280E090E024
:1016E000A0E8BFE38093DC039093DD03A093DE03C7
:1016F000B093DF031092D8031092D9031092DA034B
:101700001092DB0380E090E062E370E00E94830AC5
:101710004A971CF01092D20202C01093D2021F917D
:1017200008952F923F924F925F926F927F928F9285
:101730009F92AF92BF92CF92DF92EF92FF920F9360
:101740001F93DF93CF9300D00F92CDB7DEB789837D
:10175000292E3A0129013E2C48016B01AA24BB2401
:1017600022C0F7018081803211F4332029F4C801AE
:10177000B60141E00E946E0F8A819B8101969B8396
:101780008A830F5F1F4F0894E11CF11CEA81FB81E3
:10179000E615F70534F30894A11CB11C860C971CC0
:1017A0000894C11CD11CA414B50444F48981922D61
:1017B0009C01890174011B821A82E8CF0F900F905F
:1017C0000F90CF91DF911F910F91FF90EF90DF90DD
:1017D000CF90BF90AF909F908F907F906F905F90D1
:1017E0004F903F902F9008952F923F924F925F928B
:1017F0006F927F928F929F92AF92BF92CF92DF9221
:10180000EF920F931F93DF93CF93CDB7DEB72A9755
:101810000FB6F894DEBF0FBECDBFDE011196E2EA2F
:10182000F3E08AE001900D928150E1F78824992439
:101830003AEE232E3FEF332E2BE0422E512C4C0E4E
:101840005D1E98EC692E712C0E94660F7E994CC02B
:1018500080E090E060E070E040E051E021E00E9434
:101860005D1180E090E06AE070E04AE051E021E044
:101870000E945D115E010894A11CB11CF501C0809D
:10188000D180C60164E170E045E150E021E130E043
:1018900009E111E0EE24E3940E94910B0894C11C2D
:1018A000D11CF501D182C082F5E5CF16D1041CF020
:1018B000F5013182208282E090E0A80EB91EA414C6
:1018C000B504E1F60E9482110894811C911C88EEF7
:1018D00093E0F3013197F1F70197D9F798EE891664
:1018E00093E0990609F0B0CF2A960FB6F894DEBFC0
:1018F0000FBECDBFCF91DF911F910F91EF90DF9081
:10190000CF90BF90AF909F908F907F906F905F909F
:101910004F903F902F900895AF92BF92CF92DF9259
:10192000EF920F931F93CF93DF935AE3A52E56E0C8
:10193000B52E42E7C42E45E0D42EC0E0D0E015C05D
:10194000F601619171916F010091A0031091A103C3
:10195000F501819191915F0142E050E022E030E099
:10196000EE24E3940E94910B21968091B403909110
:10197000B503C817D90724F3DF91CF911F910F91B9
:10198000EF90DF90CF90BF90AF900895EF920F93BC
:101990001F936091CF027091D0024091C902509183
:1019A000CA022091CB023091CC0200913D031091EC
:1019B0003E038091CD029091CE02EE24E3940E94EA
:1019C000910B6091D4037091D50340912C075091F5
:1019D0002D072091E0033091E1038091020790915F
:1019E000030701E00E94A90F1F910F91EF90089546
:1019F000AF92BF92CF92DF92EF92FF920F931F931D
:101A0000CF93DF93AA24BB24C0E0D0E027C0FE011F
:101A1000EC5FF84F60817181828193810E947A1618
:101A20006B017C01FE01E25AF84F60817181828175
:101A300093810E947A169B01AC0100917103109171
:101A40007203C601B90147E050E027E030E0EE2420
:101A5000E3940E94910B0894A11CB11C24968091E0
:101A6000D6039091D703A816B9068CF2DF91CF91D7
:101A70001F910F91FF90EF90DF90CF90BF90AF90AC
:101A80000895AF92BF92CF92DF92EF92FF920F93A1
:101A90001F93CF93DF93AA24BB24C0E0D0E027C0DC
:101AA000FE01E05FF84F60817181828193810E9425
:101AB0007A166B017C01FE01E854FC4F6081718154
:101AC000828193810E947A169B01AC0100918D0363
:101AD00010918E03C601B90145E050E025E030E0E9
:101AE000EE24E3940E94910B0894A11CB11C24964F
:101AF0008091B2039091B303A816B9068CF2DF91DE
:101B0000CF911F910F91FF90EF90DF90CF90BF90FA
:101B1000AF900895AF92BF92CF92DF92EF92FF9273
:101B20000F931F93CF93DF93AA24BB24C0E0D0E090
:101B300027C0FE01E659F84F60817181828193814F
:101B40000E947A166B017C01FE01E65DF84F608110
:101B50007181828193810E947A169B01AC01009170
:101B6000990310919A03C601B90143E050E023E0C4
:101B700030E0EE24E3940E94910B0894A11CB11C68
:101B800024968091B0039091B103A816B9068CF207
:101B9000DF91CF911F910F91FF90EF90DF90CF9049
:101BA000BF90AF9008950E94C60C0E946C0A0E94DC
:101BB0008C0C0E948A0D0E94410D0E94F80C089521
:101BC0001F93E1E6F0E080E8808311E010830E943B
:101BD0006C088FE30E94B6111092900084E080930D
:101BE00091001093710078940E94D30D1F91089575
:101BF0000E94660F0E9477080E94CE080E949809F2
:101C00000E94EE0A0E9497040E9404040E94320877
:101C10000E94D30D0E9482110895AF92BF92CF927D
:101C2000DF92EF92FF920F931F93DF93CF93CDB785
:101C3000DEB7EC970FB6F894DEBF0FBECDBF809134
:101C4000BA03882309F4ECC00E94FA028C010E94B6
:101C5000EF029C010A301105D4F4CE0101962A301E
:101C600031058CF54DB75EB7485050400FB6F8942B
:101C70005EBF0FBE4DBFEDB7FEB73196ADB7BEB775
:101C800012969C938E9311978EE792E046C00A308D
:101C9000110559F18B30910544F18DB79EB7089726
:101CA0000FB6F8949EBF0FBE8DBFEDB7FEB731964D
:101CB000CE010196ADB7BEB712969C938E93119745
:101CC0008CE892E02AC0ADB7BEB718970FB6F8946B
:101CD000BEBF0FBEADBFEDB7FEB7319612969C9357
:101CE0008E93119788E992E018C02A30310534F5B7
:101CF0008DB79EB708970FB6F8949EBF0FBE8DBFE5
:101D0000EDB7FEB73196CE010196ADB7BEB71296CC
:101D10009C938E93119785EA92E093838283158337
:101D20000483378326830E94201A4DB75EB7485F2D
:101D30005F4F0FB6F8945EBF0FBE4DBF00D000D00E
:101D400000D0EDB7FEB7319665E1E62EF12CEC0E32
:101D5000FD1EADB7BEB71296FC92EE92119782EBC4
:101D600092E09383828380916007909161079583CD
:101D700084830E94201AEDB7FEB731968E01075D6D
:101D80001F4FADB7BEB712961C930E9311978CEBF5
:101D900092E09383828380915E0790915F079583A1
:101DA00084830E94201A4DB75EB74A5F5F4F0FB61B
:101DB000F8945EBF0FBE4DBF5E010894A11CB11C1C
:101DC0006701780108EC10E023C00E94660F80E0F4
:101DD00090E060E070E0A50121E00E945D1180E0EC
:101DE00090E064E170E0A60121E00E945D1180E0D6
:101DF00090E06EE170E0A70121E00E945D1188EEA5
:101E000093E0F8013197F1F70197D9F70E94821119
:101E1000499BDBCF0E94660F0E94D30D0E94821166
:101E2000EC960FB6F894DEBF0FBECDBFCF91DF9119
:101E30001F910F91FF90EF90DF90CF90BF90AF90E8
:101E40000895189B06C08091BA0391E0892780937A
:101E5000BA031F9B02C00E940D0E8FB1829586951A
:101E60008695837080FF02C00E94440B8FB18295DB
:101E70008695877080FF03C081E08093BB038091CB
:101E8000BA03882311F40E94F80D0895CF93DF93CD
:101E900080E090E00E94FB180E94E00D0E94F40B8D
:101EA0000E94440BC8ECD0E00E94210F88EE93E022
:101EB000FE013197F1F70197D9F78091BB03882391
:101EC00099F380E090E0DF91CF910895EEE9F7E09B
:101ED000119289E0E639F807D9F708959C0197FD3A
:101EE00037C077FD35C08435910594F560337105B1
:101EF0007CF5CB0173E0959587957A95E1F767704E
:101F0000452B99F0E4E58E9FF0011124E20FF31FB9
:101F1000E256F84F81E090E002C0880F991F6A9561
:101F2000E2F72081282B20830895E4E58E9FF001BD
:101F30001124E20FF31FE256F84F81E090E002C057
:101F4000880F991F6A95E2F78095208128232083C6
:101F500008952F923F924F925F926F927F928F924D
:101F60009F92AF92BF92CF92DF92EF92FF920F9328
:101F70001F93DF93CF93CDB7DEB72E970FB6F894AC
:101F8000DEBF0FBECDBF7C016B014A0139011C874A
:101F90000B8784179507F9F45B0110C0C701B501E1
:101FA0004B855C850E946E0FC614D70424F40894F8
:101FB000A11CB11C03C00894A108B108C614D70421
:101FC0002CF46A147B040CF4FDC0E8CFA614B7040B
:101FD0000CF4F8C0E3CF62177307F9F45C0110C08A
:101FE000C501B6014B855C850E946E0FE814F904AB
:101FF00024F40894A11CB11C03C00894A108B108E2
:10200000E814F9042CF48A149B040CF4DBC0E8CF28
:10201000A814B9040CF4D6C0E3CF4817590724F428
:1020200047017A013B016901B4016E197F098827D4
:1020300077FD8095982F0E94AD166F8378878987EA
:102040009A87B3016C197D09882777FD8095982FB1
:102050000E94AD166B837C838D839E832F81388590
:1020600049855A850E9412161B012C0120E030E0A0
:1020700040E050E00E94961787FF04C057FA509442
:1020800057F85094DA82C9820F2EF0E0AF2EF0E0BC
:10209000BF2EF0E0CF2EF0E0DF2EF02D7FC0C70185
:1020A00069817A814B855C850E946E0FC601B501FE
:1020B000A20191010E94A7153BC0C70169817A81E5
:1020C0004B855C850E946E0F1E861D866B817C8110
:1020D0008D819E8120E030E040E050E00E94961724
:1020E000181624F421E030E03E872D8700E010E050
:1020F0006B817C818D819E8120E030E040E050E06A
:102100000E940B16882314F401E010E08D859E8553
:10211000801B910BE981FA81E80FF91FFA83E983AB
:10212000C601B50120E030E040E85FE30E94A6155B
:102130005B016C0120E030E040E05FE30E94961715
:102140008823CCF06B817C818D819E8120E030E002
:1021500040E050E00E94961718163CF429813A811D
:10216000621673060CF0A9CF06C089819A81861584
:1021700097050CF0A2CF6F81788589859A8520E03C
:1021800030E040E050E00E949617181624F40894BE
:10219000E11CF11C03C00894E108F1086F81788507
:1021A00089859A8520E030E040E050E00E94961753
:1021B000181624F48E149F042CF071CFE814F9043F
:1021C0000CF06DCF2E960FB6F894DEBF0FBECDBFCC
:1021D000CF91DF911F910F91FF90EF90DF90CF9003
:1021E000BF90AF909F908F907F906F905F904F9037
:1021F0003F902F9008954F925F926F927F928F92AF
:102200009F92AF92BF92CF92DF92EF92FF920F9385
:102210001F93CF93DF933B01490125E0429FA0012B
:102220001124AAE2EA2EA0E0FA2EE40EF51E8C019B
:10223000F1E04F2E512CEFE2AE2EE0E0BE2EA40EC8
:10224000B51EF70184918114910409F48095C0E0D2
:10225000D0E0C82EDD24BE01660D771DA2010C2E34
:1022600002C0440F551F0A94E2F74C215D210C2E49
:1022700002C0559547950A94E2F7C8010E946E0F77
:102280002196C830D10539F70894E11CF11C0F5F85
:102290001F4FEA14FB04A9F6DF91CF911F910F9114
:1022A000FF90EF90DF90CF90BF90AF909F908F9076
:1022B0007F906F905F904F900895CF92DF92EF9252
:1022C000FF920F931F93CF93DF936B017A01E90184
:1022D000082F10E008C0802F90E0B6019E010E94F8
:1022E000FB100B5F1F5FF701E10FF11D40814423DD
:1022F00091F7DF91CF911F910F91FF90EF90DF90B9
:10230000CF900895CF93DF9380E060E00E94F711B3
:10231000CEE9D7E081E069910E94951189E0C63944
:10232000D807C1F7DF91CF91089595B18295880FB5
:10233000807E9F7D982B95B95F9827E030E070E014
:102340008F98CB01022E02C0959587950A94E2F7EB
:1023500080FF02C02E9A01C02E988F9A21503040E3
:102360008FEF2F3F380761F75F9A08951F93182F5B
:10237000579A249A259A269A879A2C985F9A2C9A8B
:1023800080E061E20E949511106880E0612F0E9458
:10239000951180E064E00E94951180E063E10E9465
:1023A000951180E06CE00E94951180E060E20E944F
:1023B000951180E06CE00E94951180E060E40E943D
:1023C000951180E060E80E9495111F910895CF93C8
:1023D000DF93C0E0D0E081E060E00E94951121969B
:1023E00081E0C83FD807B9F7DF91CF9108951F93D7
:1023F000182F606480E00E949511106880E0612FC2
:102400000E9495111F91089587E880937A0008959E
:10241000982F9F71906490937C00807280937B00D2
:1024200080917A00806480937A0080917A0086FDA2
:10243000FCCF2091780030917900C9010895A1E185
:10244000B0E0E5E2F2E10C945A183C017F876E8718
:102450006A01FC0117821682838181FD03C06FEF40
:102460007FEF6FC39E012F5F3F4F398B288BF301A6
:102470002381EE85FF8523FD859123FF8191FF87D1
:10248000EE87882309F45AC3853251F4EE85FF851F
:1024900023FD859123FF8191FF87EE87853229F403
:1024A00090E0B3010E94F419E2CF982F10E0882445
:1024B00099241032B0F49B3269F09C3228F49032A7
:1024C00051F0933271F40BC09D3239F0903349F4DE
:1024D000116028C01260146025C0186023C010610C
:1024E00021C017FD2AC0892F80538A3078F416FF47
:1024F00006C0FAE09F9E902C1124980E13C03AE07B
:10250000839E802C1124880E10620CC09E3221F410
:1025100016FD14C3106406C09C3611F4106802C086
:10252000983659F4EE85FF8523FD959123FF91910F
:10253000FF87EE87992309F0BCCF892F855483301C
:1025400020F4812F8061905E07C0892F85568330EB
:1025500008F09FC1812F8F7E86FD02C076E0972E06
:102560006FE3F62EF822953619F4F0E4FF2A07C03F
:10257000963619F420E8F22A02C091109A94F7FED8
:102580000AC03BE3391518F45CE3B52E02C0B92C40
:10259000B39427E009C047E0491520F4BB2447E085
:1025A000942EF7CF292DBB24C60104969D878C87D6
:1025B000F6016081718182819381AE014F5F5F4F2F
:1025C0000B2D0E9406196C010981202E332400FF77
:1025D00004C003FD02C01DE209C0F1FE02C01BE2FF
:1025E00005C0F2FC02C010E001C010E2C1018C7015
:1025F0009070892BB9F1112311F483E001C084E0BC
:10260000881510F088240AC0881AF3FC07C080E2FD
:1026100090E0B3010E94F4198A94C9F7112329F0BC
:10262000812F90E0B3010E94F41923FE03C00AEA4F
:1026300012E00EC00EEA12E00BC0E114F10409F042
:10264000805290E0B3010E94F4190F5F1F4F05C044
:10265000EF2CFF24F0E1EF22FF24F801849188237E
:1026600061F714C1F7FE12C0BC0C24FE04C08A81BD
:10267000813309F4BA941B141CF0BB24B3942DC00D
:10268000F8E0FB1550F538E0B32E27C0F6FC25C066
:10269000892D90E08C159D054CF02CEFC2162FEF84
:1026A000D20624F030E8F32A01C09A94992049F028
:1026B000E2E0F0E0EC0FFD1FE90DF11D80818033B9
:1026C000A1F3F7FE0AC0B92CB394892D90E0C81687
:1026D000D90614F0992401C09C18F7FC03C025E02A
:1026E00030E009C01C141D041CF021E030E003C0E0
:1026F00096012F5F3F4F112311F02F5F3F4F99201D
:1027000029F0892D90E00196280F391F882D90E03F
:102710002817390714F0882401C0821A4F2C552439
:10272000C20189709070892B39F008C080E290E076
:10273000B3010E94F4198A948820C1F7112329F06B
:10274000812F90E0B3010E94F41943FE07C008C036
:1027500080E390E0B3010E94F4198A948820C1F7C5
:10276000F7FE46C08601D7FE02C000E010E0760109
:102770000894E11CF11CE01AF10A41E050E04C0F12
:102780005D1FE40EF51E26014B185108892D90E0BF
:10279000AA24BB24A81AB90A5FEF0F3F150729F432
:1027A0008EE290E0B3010E94F419C016D10634F015
:1027B000401651061CF4F701808101C080E30150EE
:1027C00010400894E11CF11C0A151B052CF090E048
:1027D000B3010E94F419E0CF0C151D0539F49A815C
:1027E000963318F4953311F424FE81E390E04BC046
:1027F0008A81813309F00F7E90E0B3010E94F419C1
:102800009920A1F08EE290E0B3010E94F41912E049
:10281000E1E0F0E0EC0FFD1FE10FF11D1F5F808193
:1028200090E0B3010E94F4199A9491F744FC03C01C
:1028300085E690E002C085E490E0B3010E94F419BF
:10284000D7FC05C0C114D10441F404FF06C0D094E4
:10285000C194D108D3948DE201C08BE290E0B30122
:102860000E94F41980E305C08F5F26EF3FEFC20E90
:10287000D31E3AE0C316D104BCF790E0B3010E9426
:10288000F419C601C096B3010E94F419CC84DD840A
:1028900052C1933631F0933799F0933509F059C00E
:1028A00023C0F601808189835E010894A11CB11CBC
:1028B00022E030E0C20ED31E21E0E22EF12C12C045
:1028C000F601A080B18016FD03C06FEF7FEF02C05C
:1028D000692D70E022E030E0C20ED31EC5010E94D7
:1028E000E9197C011F7713C0F601A080B18016FDA5
:1028F00003C06FEF7FEF02C0692D70E022E030E08F
:10290000C20ED31EC5010E94DE197C01106813FFA0
:1029100007C01BC080E290E0B3010E94F4198A94C2
:10292000882D90E0E816F906A8F30FC0F50117FD11
:10293000859117FF81915F0190E0B3010E94F41926
:1029400081108A940894E108F108E114F10471F708
:10295000F2C0943611F0993689F517FF08C0F601D8
:10296000208131814281538184E090E00AC0F601E8
:10297000808191819C01442737FD4095542F82E04E
:1029800090E0C80ED91E9FE6F92EF12257FF09C02C
:1029900050954095309521953F4F4F4F5F4F90E8B0
:1029A000F92ACA01B901AE014F5F5F4F2AE030E05A
:1029B0000E94441AE82EE889EE1A41C0953721F4A6
:1029C0001F7E2AE030E01CC0197F9F3661F09037EF
:1029D00020F4983509F0B2C00FC0903739F098371D
:1029E00009F0ACC004C028E030E00AC0106114FD5A
:1029F000146020E130E004C014FD166020E132E0F4
:102A000017FF08C0F601608171818281938144E0E3
:102A100050E008C0F60180819181BC0180E090E027
:102A200042E050E0C40ED51EAE014F5F5F4F0E94E2
:102A3000441AE82E5889E51A8FE7F82EF122F6FE9F
:102A40000BC08EEFF822E91438F4F4FE07C0F2FC54
:102A500005C09FEEF92202C01E2D01C0192DF4FE03
:102A60000DC0FE01EE0DF11D8081803319F4E9EEF9
:102A7000FE2208C01F5FF2FE05C003C08F2D8678BE
:102A800009F01F5F0F2DF3FC14C0F0FE0FC01815E6
:102A900010F09E2C0BC09E2C980C911A182D06C07D
:102AA00080E290E0B3010E94F4191F5F1815C0F393
:102AB00004C0181510F4811A01C0882404FF0FC047
:102AC00080E390E0B3010E94F41902FF1DC001FDF4
:102AD00003C088E790E00EC088E590E00BC0802F2F
:102AE000867891F001FF02C08BE201C080E2F7FC22
:102AF0008DE290E0B3010E94F41906C080E390E0FB
:102B0000B3010E94F4199A94E914C0F3EA94E1E045
:102B1000F0E0EC0FFD1FEE0DF11D808190E0B301A0
:102B20000E94F419EE2091F706C080E290E0B30114
:102B30000E94F4198A948820C1F799CCF301668128
:102B40007781CB016196E2E10C9476185058BB274F
:102B5000AA270ED0A0C169D130F06ED120F031F497
:102B60009F3F11F41EF45EC10EF4E095E7FB54C1E3
:102B7000E92FB3D180F3BA1762077307840795076B
:102B800018F071F49EF5CBC10EF4E0950B2EBA2F20
:102B9000A02D0B01B90190010C01CA01A001112463
:102BA000FF27591B99F0593F50F4503E68F11A160F
:102BB000F040A22F232F342F4427585FF3CF4695A0
:102BC00037952795A795F0405395C9F77EF41F16C2
:102BD000BA0B620B730B840BBAF09150A1F0FF0F8C
:102BE000BB1F661F771F881FC2F70EC0BA0F621F78
:102BF000731F841F48F4879577956795B795F79568
:102C00009E3F08F0B3CF9395880F08F09927EE0FF9
:102C1000979587950895DCD008F481E0089514D144
:102C2000E3954AC10CD037C107D140F0FED030F057
:102C300021F45F3F19F0F0C0511172C1F3C04DD1C2
:102C400098F39923C9F35523B1F3951B550BBB2773
:102C5000AA2762177307840738F09F5F5F4F220F20
:102C6000331F441FAA1FA9F333D00E2E3AF0E0E819
:102C700030D091505040E695001CCAF729D0FE2F65
:102C800027D0660F771F881FBB1F261737074807F7
:102C9000AB07B0E809F0BB0B802DBF01FF279358AD
:102CA0005F4F2AF09E3F510568F0B6C039C15F3FC3
:102CB000ECF3983EDCF3869577956795B795F79595
:102CC0009F5FC9F7880F911D9695879597F908958D
:102CD000E1E0660F771F881FBB1F62177307840729
:102CE000BA0720F0621B730B840BBA0BEE1F88F738
:102CF000E095089504D06894B11112C10895F5D0FB
:102D000088F09F5790F0B92F9927B751A0F0D1F0D4
:102D1000660F771F881F991F1AF0BA95C9F712C05E
:102D2000B13081F0FCD0B1E00895F9C0672F782F61
:102D30008827B85F39F0B93FCCF3869577956795CA
:102D4000B395D9F73EF490958095709561957F4F36
:102D50008F4F9F4F0895E89409C097FB3EF49095DC
:102D60008095709561957F4F8F4F9F4F9923A9F064
:102D7000F92F96E9BB279395F695879577956795F3
:102D8000B795F111F8CFFAF4BB0F11F460FF1BC037
:102D90006F5F7F4F8F4F9F4F16C0882311F096E9CA
:102DA00011C0772321F09EE8872F762F05C0662378
:102DB00071F096E8862F70E060E02AF09A95660F31
:102DC000771F881FDAF7880F9695879597F90895EA
:102DD000990F0008550FAA0BE0E8FEEF161617062C
:102DE000E807F907C0F012161306E407F50798F094
:102DF000621B730B840B950B39F40A2661F0232BAD
:102E0000242B252B21F408950A2609F4A140A69528
:102E10008FEF811D811D089597F99F6780E870E00D
:102E200060E008959FEF80EC089500240A94161640
:102E3000170618060906089500240A9412161306A8
:102E4000140605060895EECF50D0E8F3E894E0E0CC
:102E5000BB279F57F0F02AED3FE049EC06C0EE0F8C
:102E6000BB0F661F771F881F28F0B23A62077307EF
:102E7000840728F0B25A620B730B840BE3959A9582
:102E800072F7803830F49A95BB0F661F771F881F42
:102E9000D2F79048BAC0092E0394000C11F488238D
:102EA00052F0BB0F40F4BF2B11F460FF04C06F5F02
:102EB0007F4F8F4F9F4F0895EF93E0FF06C0A2EA28
:102EC0002AED3FE049EC5FEB53DEE5DF0F90039422
:102ED00001FC9058ECEAF0E0A4C057FD9058440F74
:102EE000551F59F05F3F71F04795880F97FB991F69
:102EF00061F09F3F79F08795089512161306140626
:102F0000551FF2CF4695F1DF08C0161617061806B2
:102F1000991FF1CF86957105610508940895E8948D
:102F2000BB2766277727CB0197F9089551DF08F46F
:102F30008FEF08950BD0AFCF78DF28F07DDF18F04A
:102F4000952309F069CF6ECF1124EACFC6DFA0F335
:102F5000959FD1F3950F50E0551F629FF001729F2E
:102F6000BB27F00DB11D639FAA27F00DB11DAA1F4D
:102F7000649F6627B00DA11D661F829F2227B00D9A
:102F8000A11D621F739FB00DA11D621F839FA00D25
:102F9000611D221F749F3327A00D611D231F849F75
:102FA000600D211D822F762F6A2F11249F575040CC
:102FB0008AF0E1F088234AF0EE0FFF1FBB1F661F67
:102FC000771F881F91505040A9F79E3F510570F020
:102FD00023CFA6CF5F3FECF3983EDCF38695779541
:102FE0006795B795F795E7959F5FC1F7FE2B880F1B
:102FF000911D9695879597F908959F9325DF0F90DA
:1030000007FCEE5F59CF9F3F31F0915020F4879538
:1030100077956795B795880F911D9695879597F940
:1030200008959F938F937F936F93FF93EF939B01EB
:10303000AC0180DFEF91FF9105D02F913F914F912F
:103040005F9178CFDF93CF931F930F93FF92EF920F
:10305000DF927B018C01689405C0DA2EEF0176DFE8
:10306000FE01E894A5912591359145915591AEF3D6
:10307000EF017EDDFE019701A801DA9479F7DF9078
:10308000EF90FF900F911F91CF91DF91089597FBE3
:10309000092E07260AD077FD04D043D006D00020A1
:1030A0001AF4709561957F4F0895F6F79095819584
:1030B0009F4F08952F923F924F925F926F927F920F
:1030C0008F929F92AF92BF92CF92DF92EF92FF9238
:1030D0000F931F93CF93DF93CDB7DEB7CA1BDB0BE4
:1030E0000FB6F894DEBF0FBECDBF09942A88398889
:1030F00048885F846E847D848C849B84AA84B98490
:10310000C884DF80EE80FD800C811B81AA81B9819B
:10311000CE0FD11D0FB6F894DEBF0FBECDBFED01AF
:103120000895AA1BBB1B51E107C0AA1FBB1FA6170E
:10313000B70710F0A61BB70B881F991F5A95A9F760
:1031400080959095BC01CD010895A0E0B0E0EBEA38
:10315000F8E10C946218EC01A880B980CA80DB8089
:10316000A114B104C104D10441F484E2A82E89ED74
:10317000B82E8BE5C82E87E0D82EC601B5012DE10B
:1031800033EF41E050E00E94C11A27EA31E440E009
:1031900050E00E94A21A7B018C01C601B5012DE10D
:1031A00033EF41E050E00E94C11ACA01B9012CEE90
:1031B00034EF4FEF5FEF0E94A21A6E0D7F1D801F4C
:1031C000911F97FF04C06150704080409048688311
:1031D00079838A839B839B013F77C901CDB7DEB793
:1031E000EAE00C947E180E94A51808958CEA93E0FA
:1031F0000E94A5180895A0E0B0E08093AC039093DE
:10320000AD03A093AE03B093AF030895283008F048
:1032100027E03327DA01990F311D87FD9160009671
:103220006105710539F432602E5F3D9330E32A95D4
:10323000E1F708959F3F30F080387105610509F08E
:103240003C5F3C5F3D93913008F08068911DDF93B7
:10325000CF931F930F93FF92EF92192F987F96951C
:10326000E92F96959695E90FFF27E45FFC4F992784
:103270003327EE24FF24A701E70105900894079463
:1032800028F4360FE71EF81E491F511D660F771FE1
:10329000881F991F0694A1F70590079428F4E70E5C
:1032A000F81E491F561FC11D770F881F991F661FE3
:1032B0000694A1F70590079428F4F80E491F561FAD
:1032C000C71FD11D880F991F661F771F0694A1F78E
:1032D0000590079420F4490F561FC71FD81F990F58
:1032E000661F771F881F0694A9F7849110951770A1
:1032F00041F0D695C79557954795F794E7941A9559
:10330000C1F7E2EBF2E06894159015913591659163
:10331000959105907FE27395E118F10A430B560BE6
:10332000C90BD009C0F7E10CF11E431F561FC91F7E
:10333000D01D7EF4703311F48A95E6CFE8940150E5
:1033400030F0080F0AF40027021708F4202F239505
:10335000022F7A3328F079E37D932A95E9F710C09C
:103360007D932A9589F606949795679537951795D5
:103370001794E118F10A430B560BC90BD00998F0CA
:1033800023957E9173957A3308F070E37C93201334
:10339000B8F77E9170617D9330F0839571E37D93F2
:1033A00070E32A95E1F71124EF90FF900F911F91A0
:1033B000CF91DF91992787FD90950895FC010590A5
:1033C000615070400110D8F7809590958E0F9F1F27
:1033D0000895FC016150704001900110D8F780956C
:1033E00090958E0F9F1F08950F931F93CF93DF9398
:1033F0008C01EB018B8181FF1BC082FF0DC02E81F0
:103400003F818C819D812817390764F4E881F98117
:103410000193F983E88306C0E885F985802F099533
:10342000892B31F48E819F8101969F838E8302C008
:103430000FEF1FEFC801DF91CF911F910F910895FA
:10344000AEE0B0E0E6E2FAE10C9468180D891E895E
:1034500086E08C831A8309838FEF9FE79E838D8399
:103460009E01275E3F4FCE0101966F89788DA9019D
:103470000E941F122F813885020F131FF80110823E
:103480002E96E4E00C948418FA01AA27283051F112
:10349000203181F1E8946F936E7F6E5F7F4F8F4F85
:1034A0009F4FAF4FB1E03ED0B4E03CD0670F781FE4
:1034B000891F9A1FA11D680F791F8A1F911DA11DC9
:1034C0006A0F711D811D911DA11D20D009F4689402
:1034D0003F912AE0269F11243019305D3193DEF6AA
:1034E000CF010895462F4770405D4193B3E00FD060
:1034F000C9F7F6CF462F4F70405D4A3318F0495D4B
:1035000031FD4052419302D0A9F7EACFB4E0A6952D
:103510009795879577956795BA95C9F7009761054F
:10352000710508959B01AC010A2E069457954795A5
:1035300037952795BA95C9F7620F731F841F951F9A
:10354000A01D0895629FD001739FF001829FE00D3E
:10355000F11D649FE00DF11D929FF00D839FF00D12
:10356000749FF00D659FF00D9927729FB00DE11DBE
:10357000F91F639FB00DE11DF91FBD01CF0111249B
:10358000089597FB092E05260ED057FD04D014D0C0
:103590000AD0001C38F450954095309521953F4F46
:1035A0004F4F5F4F0895F6F7909580957095619510
:1035B0007F4F8F4F9F4F0895A1E21A2EAA1BBB1B6E
:1035C000FD010DC0AA1FBB1FEE1FFF1FA217B307EF
:1035D000E407F50720F0A21BB30BE40BF50B661F05
:1035E000771F881F991F1A9469F7609570958095C9
:1035F00090959B01AC01BD01CF010895F894FFCFD8
:103600006E3130303039363731004153532041501C
:103610004F43414C59534521006F6F6F6F6F6F6F70
:103620006F6F6F6F6F6F6F6F6F6F6F6F6F6F6F20F9
:10363000202020202020202020202020202020208A
:1036400020206F6F2020206F6F6F6F6F0920206F19
:103650006F6F6F6F20206F6F20202020206F202041
:103660002020202020206F202020206F6F2020206D
:103670006F6F6F6F6F202020206F6F6F6F6F202034
:103680006F6F20202020202020202020202020209C
:1036900020202020206F6F20202020202020206F3D
:1036A000202020202020202020206F6F202020207C
:1036B00020202020206F2020202020202020206F6C
:1036C0006F202020202020202020206F202020205C
:1036D000202020206F6F20202020202020206F6FAE
:1036E0006F6F202020202020206F6F20202020209E
:1036F00020202020202020202020202020206F6F2C
:103700002020206F6F6F6F6F6F6F6F6F6F6F6F6FB6
:103710006F20206F6F202020206F2020202020206D
:10372000202020206F2020206F6F20202020206F5D
:1037300020202020202020206F202020206F6F209C
:1037400020202020206F6F6F6F6F6F6F2020202050
:1037500020206F6F202020202020202020202020CB
:10376000202020202020206F6F6F6F6F6F6F6F6F92
:103770006F6F6F6F6F6F6F6F6F6F6F6F6F005469E9
:103780006D653A203025643A3025640054696D65D2
:103790003A2025643A25640054696D653A20302545
:1037A000643A25640054696D653A2025643A3025F1
:1037B00064004C697665733A20256400506F696E29
:1037C00074733A2025640064000F00070023002969
:1037D0000001012020202020202020202020202047
:1037E00020202020202020202020202020202020D9
:1037F00020202020202020202020202020202020C9
:103800002020202020202020202020202020206F69
:103810006F2020206F6F6F6F6F2020206F6F6F6F92
:103820006F6F6F6F6F6F6F6F6F6F6F6F6F6F6F20F7
:1038300020206F6F6F6F6F2020206F6F00D30220EA
:1038400020206F20202020206F6F6F2020206F6F9E
:103850006F6F6F206F6F6F6F6F6F6F206F6F6F6F16
:103860006F2020206F6F6F20202020206F202020CD
:10387000003F0320206F2020206F6F6F206F6F6F3D
:103880006F6F206F6F6F2020206F20200073032048
:103890006F206F6F6F206F20008F036F6F6F6F004F
:1038A0009B03EBFF000016002B004100010000000D
:00000001FF
