:100000000C94D6010C94F3010C94F3010C94F301BD
:100010000C94F3010C94F3010C94F3010C94F30190
:100020000C94F3010C94F3010C94F3010C94F30180
:100030000C94F3010C94F3010C94F3010C94F30170
:100040000C94F3010C94F3010C94F3010C94F30160
:100050000C94F3010C94F3010C94F3010C94F30150
:100060000C94F3010C94F3010C94F3010C94F30140
:100070000C94F3010C94F3010C94F3010C94F30130
:100080000C94F3010C94F3010C94F3010C94F30120
:100090000C94F3010C94F3010C94F3010C94F30110
:1000A0000C94F3010C94F3010C94F30105A84CCDCE
:1000B000B2D44EB93836A9020C50B9918688083CA2
:1000C000A6AAAA2ABE000000803F0000000000008F
:1000D000005F00000007000700147F147F14242A2B
:1000E0007F2A122313086462364955225000050303
:1000F0000000001C2241000041221C0014083E08A0
:100100001408083E080800503000000808080808D5
:10011000006060000020100804023E5149453E0086
:10012000427F400042615149462141454B311814FC
:10013000127F1027454545393C4A4949300171092C
:1001400005033649494936064949291E0036360015
:100150000000563600000814224100141414141430
:1001600000412214080201510906324979413E7EBC
:100170001111117E7F494949363E414141227F415B
:1001800041221C7F494949417F090909013E4149F2
:10019000497A7F0808087F00417F41002040413FA5
:1001A000017F081422417F404040407F020C027FC3
:1001B0007F0408107F3E4141413E7F090909063E08
:1001C0004151215E7F0919294646494949310101BA
:1001D0007F01013F4040403F1F2040201F3F4038EB
:1001E000403F6314081463070870080761514945CC
:1001F00043007F41410002040810200041417F007C
:10020000040201020440404040400001020400207A
:10021000545454787F484444383844444420384443
:1002200044487F3854545418087E0901020C525235
:10023000523E7F0804047800447D40002040443D45
:10024000007F1028440000417F40007C041804789F
:100250007C0804047838444444387C141414080896
:100260001414187C7C080404084854545420043F97
:100270004440203C4040207C1C2040201C3C40301E
:10028000403C44281028440C5050503C4464544C8A
:1002900044000836410000007F000000413608009D
:1002A000100808100878464146786E616E00696E45
:1002B000660000407A10F35A00A0724E1809001030
:1002C000A5D4E80000E87648170000E40B540200CB
:1002D00000CA9A3B000000E1F505000080969800F6
:1002E000000040420F000000A0860100000010271F
:1002F00000000000E80300000000640000000000AF
:100300000A00000000000100000000002C76D888E0
:10031000DC674F0823DFC1DFAE59E1B1B796E5E3F3
:10032000E453C63AE651997696E8E6C28426EB890C
:100330008C9B62ED407C6FFCEFBC9C9F40F2BAA5A9
:100340006FA5F490055A2AF75C936B6CF9676DC141
:100350001BFCE0E40D47FEF520E6B500D0ED902E45
:100360000300943577050080841E080000204E0AA3
:10037000000000C80C333333330F986E12831141E1
:10038000EF8D2114893BE65516CFFEE6DB18D184AC
:100390004B381BF77C1D901DA4BBE42420328472D3
:1003A0005E228100C9F124ECA1E53D2711241FBE86
:1003B000CFEFDAE0DEBFCDBF11E0A0E0B1E0E4E9CD
:1003C000F3E202C005900D92A43BB107D9F716E005
:1003D000A4EBB1E001C01D92A032B107E1F70E9489
:1003E00012060C94C8110C9400004091BC0150916D
:1003F000BD01E2E2F4E020E030E007C080819181BD
:100400000196819391932F5F3F4F24173507B4F3E3
:100410000895181619061CF081E090E0089580E018
:1004200090E01616170614F081E090E00895CF933F
:10043000DF934091B4015091B501415050409C016F
:10044000220F331FE901C05BDC4FD901A857BD4F14
:10045000F901E054FE4F9C0110C02F5F3F4F8A818D
:100460009B818993999312968D919C9113978D936B
:100470009D938281938181939193241735076CF327
:100480005093B5014093B401DF91CF910895AC0131
:100490002091B4013091B50180910601909107013E
:1004A00028173907F9F0F901EE0FFF1FDF01A05BF4
:1004B000BC4F80912004909121048D939C93DF0187
:1004C000A857BD4F8091BE019091BF018D939C9321
:1004D000E054FE4F518340832F5F3F4F3093B5016F
:1004E0002093B40108952F923F924F925F926F92A2
:1004F0007F928F929F92AF92BF92CF92DF92EF92B4
:10050000FF920F931F93DF93CF93CDB7DEB72F9753
:100510000FB6F894DEBF0FBECDBF80E00E94D208B8
:10052000A0E0B0E0BC01CD0128E730E040E050E0C1
:100530000E94110F2FEF33E040E050E00E94430F84
:100540002C5330403093B7012093B60100D000D037
:1005500000D0EDB7FEB731968E010F5F1F4FADB7DC
:10056000BEB712961C930E93119780E091E093838F
:100570008283358324830E9446118DB79EB70696E9
:100580000FB6F8949EBF0FBE8DBF8AE090E06AE080
:1005900070E0A80121E00E94270840900C015090D3
:1005A0000D01E7E06E2E712C640C751C709219041D
:1005B000609218048DE290E09093BB018093BA01A1
:1005C0002090B6013090B70166277727621973092A
:1005D000882777FD8095982F0E94770D2BED3FE0BF
:1005E00049E450E40E94640E20E030E044E353E428
:1005F0000E94DC0C7B018C01C8010E94C70E5B01CC
:100600006C01882477FC8094982CC401B3010E946B
:10061000770D3B014C01C601B50120E030E040E818
:1006200050EC0E94640E9B01AC01C401B3010E9416
:10063000710C0E94440D7093210460932004B70153
:10064000C8010E94D90C20E030E040E850EC0E9444
:10065000640E20E030E044E352E40E94710C0E94FA
:10066000440D7093BF016093BE0189B1869580FFF0
:1006700004C0C1010E9447021FC01F991DC083B161
:10068000869580FF07C01414150424F408944108CB
:1006900051080EC0489B10C080910801909109013B
:1006A000840D951D843591053CF40894411C511C22
:1006B00050920D0140920C012F960FB6F894DEBFB8
:1006C0000FBECDBFCF91DF911F910F91FF90EF90A3
:1006D000DF90CF90BF90AF909F908F907F906F9062
:1006E0005F904F903F902F9008952F923F924F929E
:1006F0005F926F927F928F929F92AF92BF92CF92B2
:10070000DF92EF92FF920F931F93DF93CF93CDB7BA
:10071000DEB72A970FB6F894DEBF0FBECDBF20E537
:1007200033E03E832D8388E892E09C838B83E0EC6A
:10073000F1E0FA83E9831A86198685C0EB81FC8192
:100740000190F081E02DF887EF83E981FA816081E3
:100750007181709561957F4F882777FD8095982FDF
:100760000E94770D2BED3FE049E450E40E94640EB7
:1007700020E030E044E353E40E94DC0C3B014C01F8
:10078000C4010E94C70E5B016C01ED81FE81608196
:100790007181882777FD8095982F0E94770D7B01C6
:1007A0008C01C601B50120E030E040E050EC0E9431
:1007B000640E9B01AC01C801B7010E94710C0E943C
:1007C000440D1B012C011616170624F5B301C401B4
:1007D0000E94D90C7B018C012F813885B9018827B3
:1007E00077FD8095982F0E94770D5B016C01C80101
:1007F000B70120E030E040E050EC0E94640E9B0125
:10080000AC01C601B5010E94710C0E94440D161680
:10081000170624F189859A850E94170289859A8591
:1008200001969A878987ED81FE813296FE83ED835A
:100830002B813C812E5F3F4F3C832B8389819A81A2
:1008400002969A8389838091B4019091B501E985DC
:10085000FA85E817F9070CF471CF09C0ED81FE8124
:1008600031822082EB81FC8171836083D7CF2A960D
:100870000FB6F894DEBF0FBECDBFCF91DF911F91B1
:100880000F91FF90EF90DF90CF90BF90AF909F902F
:100890008F907F906F905F904F903F902F90089532
:1008A0002098219850985198279885988698229A50
:1008B0000E94CE080895EF92FF920F931F93CF935B
:1008C000DF93F0E5EF2EF3E0FF2E08E812E0C0E042
:1008D000D0E00CC0F801619171918F01F701819115
:1008E00091917F0141E00E94380621968091B401E8
:1008F0009091B501C817D9076CF3DF91CF911F9183
:100900000F91FF90EF9008952F923F924F925F9238
:100910006F927F928F929F92AF92BF92CF92DF920F
:10092000EF92FF920F931F93DF93CF9300D00F921C
:10093000CDB7DEB78983292E3A0129013E2C480123
:100940006B01AA24BB2422C0F7018081803211F4FC
:10095000332029F4C801B60141E00E9438068A819B
:100960009B8101969B838A830F5F1F4F0894E11C34
:10097000F11CEA81FB81E615F70534F30894A11C0C
:10098000B11C860C971C0894C11CD11CA414B5047E
:1009900044F48981922D9C01890174011B821A8281
:1009A000E8CF0F900F900F90CF91DF911F910F9193
:1009B000FF90EF90DF90CF90BF90AF909F908F907F
:1009C0007F906F905F904F903F902F900895AF92DF
:1009D000BF92CF92DF92EF920F931F93CF93DF934B
:1009E000BAE1AB2EB4E0BB2EA2E2CA2EA4E0DA2E0E
:1009F000C0E0D0E015C0F601619171916F010091E6
:100A0000AE011091AF01F501819191915F0147E035
:100A100050E027E030E0EE24E3940E948404219625
:100A20008091BC019091BD01C817D90724F3DF91D3
:100A3000CF911F910F91EF90DF90CF90BF90AF902B
:100A400008950F93CF93DF93C0E0D0E0CE0167E22B
:100A500070E02396AE0127E230E001E00E947306C9
:100A60002796CA35D10591F7DF91CF910F9108955F
:100A7000EF920F931F9360910E0170910F014091BF
:100A800008015091090120910A0130910B01009158
:100A90007A0110917B0180910C0190910D01EE245F
:100AA000E3940E9484046091BA017091BB0140916B
:100AB0002004509121042091BE013091BF0180910A
:100AC00018049091190401E00E9473061F910F9180
:100AD000EF9008950E9438050E9421050E945B0452
:100AE0000E94E7040895E1E6F0E080E8808381E079
:100AF00080830E9450048FE30E9480080E946A0550
:100B000008950E9430060E9473020E94750340916E
:100B1000BC015091BD01E2E2F4E020E030E007C00A
:100B2000808191810196819391932F5F3F4F24178C
:100B30003507B4F30E946A050E944C080895EF92AD
:100B4000FF920F931F938C017B010E941C10E01AEF
:100B5000F10A0894E11CF11CB7010E94300F9C01BE
:100B6000200F311FC9011F910F91FF90EF90089541
:100B70000F931F93CF93DF9383E090E09093BD0199
:100B80008093BC01C0E0D0E009EF1FEF80E090E06F
:100B90006DE470E00E949F05FE01E65EFB4F9183CD
:100BA0008083FE01EE5DFB4F118300832296C830E7
:100BB000D10561F7DF91CF911F910F91089583E2E5
:100BC00090E090930D0180930C0189E290E0909366
:100BD0000F0180930E011092B8010E94B80508958C
:100BE000189B06C08091B80191E089278093B801D5
:100BF0008FB1829586958695837080FF03C00E9491
:100C0000DF052A9A8FB182958695877080FF03C091
:100C100081E08093B9018091B801882311F40E948A
:100C200081050895CF93DF9380E090E00E9421102A
:100C30000E9473050E94DF05C8ECD0E00E94F00519
:100C400088EE93E0FE013197F1F70197D9F7809193
:100C5000B901882399F380E090E0DF91CF91089566
:100C6000E8E2F4E0119286E0E032F807D9F708955F
:100C70009C0197FD37C077FD35C08435910594F50B
:100C8000603371057CF5CB0173E0959587957A9576
:100C9000E1F76770452B99F0E4E58E9FF001112490
:100CA000E20FF31FE85DFB4F81E090E002C0880F88
:100CB000991F6A95E2F72081282B20830895E4E5A7
:100CC0008E9FF0011124E20FF31FE85DFB4F81E0DE
:100CD00090E002C0880F991F6A95E2F78095208105
:100CE0002823208308952F923F924F925F926F9214
:100CF0007F928F929F92AF92BF92CF92DF92EF92AC
:100D0000FF920F931F93DF93CF93CDB7DEB72E974C
:100D10000FB6F894DEBF0FBECDBF7C016B014A0158
:100D200039011C870B8784179507F9F45B0110C004
:100D3000C701B5014B855C850E943806C614D704EF
:100D400024F40894A11CB11C03C00894A108B108A4
:100D5000C614D7042CF46A147B040CF4FDC0E8CF4D
:100D6000A614B7040CF4F8C0E3CF62177307F9F4C4
:100D70005C0110C0C501B6014B855C850E94380638
:100D8000E814F90424F40894A11CB11C03C00894CD
:100D9000A108B108E814F9042CF48A149B040CF49B
:100DA000DBC0E8CFA814B9040CF4D6C0E3CF4817D1
:100DB000590724F447017A013B016901B4016E1916
:100DC0007F09882777FD8095982F0E94770D6F8384
:100DD000788789879A87B3016C197D09882777FD01
:100DE0008095982F0E94770D6B837C838D839E83E3
:100DF0002F81388549855A850E94DC0C1B012C0106
:100E000020E030E040E050E00E94600E87FF04C028
:100E100057FA509457F85094DA82C9820F2EF0E0B6
:100E2000AF2EF0E0BF2EF0E0CF2EF0E0DF2EF02D61
:100E30007FC0C70169817A814B855C850E94380635
:100E4000C601B501A20191010E94710C3BC0C7010E
:100E500069817A814B855C850E9438061E861D86D5
:100E60006B817C818D819E8120E030E040E050E00C
:100E70000E94600E181624F421E030E03E872D8792
:100E800000E010E06B817C818D819E8120E030E06C
:100E900040E050E00E94D50C882314F401E010E0FB
:100EA0008D859E85801B910BE981FA81E80FF91FE2
:100EB000FA83E983C601B50120E030E040E85FE352
:100EC0000E94700C5B016C0120E030E040E05FE3C9
:100ED0000E94600E8823CCF06B817C818D819E8185
:100EE00020E030E040E050E00E94600E18163CF434
:100EF00029813A81621673060CF0A9CF06C0898158
:100F00009A81861597050CF0A2CF6F817885898527
:100F10009A8520E030E040E050E00E94600E181614
:100F200024F40894E11CF11C03C00894E108F108C2
:100F30006F81788589859A8520E030E040E050E037
:100F40000E94600E181624F48E149F042CF071CFAA
:100F5000E814F9040CF06DCF2E960FB6F894DEBFAE
:100F60000FBECDBFCF91DF911F910F91FF90EF90FA
:100F7000DF90CF90BF90AF909F908F907F906F90B9
:100F80005F904F903F902F9008954F925F926F9295
:100F90007F928F929F92AF92BF92CF92DF92EF9209
:100FA000FF920F931F93CF93DF933B01490125E0FD
:100FB000429FA0011124AAE2EA2EA0E0FA2EE40E3C
:100FC000F51E8C01F1E04F2E512CEFE2AE2EE0E049
:100FD000BE2EA40EB51EF70184918114910409F46C
:100FE0008095C0E0D0E0C82EDD24BE01660D771DDF
:100FF000A2010C2E02C0440F551F0A94E2F74C21A7
:101000005D210C2E02C0559547950A94E2F7C80160
:101010000E9438062196C830D10539F70894E11CA2
:10102000F11C0F5F1F4FEA14FB04A9F6DF91CF916B
:101030001F910F91FF90EF90DF90CF90BF90AF90F6
:101040009F908F907F906F905F904F900895CF9278
:10105000DF92EF92FF920F931F93CF93DF936B0179
:101060007A01E901082F10E008C0802F90E0B60156
:101070009E010E94C5070B5F1F5FF701E10FF11D85
:101080004081442391F7DF91CF911F910F91FF9001
:10109000EF90DF90CF900895CF93DF9380E060E0F2
:1010A0000E94C108C8E2D4E081E069910E945F0813
:1010B00086E0C032D807C1F7DF91CF91089595B18E
:1010C0008295880F807E9F7D982B95B95F9827E049
:1010D00030E070E08F98CB01022E02C09595879585
:1010E0000A94E2F780FF02C02E9A01C02E988F9AD0
:1010F000215030408FEF2F3F380761F75F9A0895F6
:101100001F93182F579A249A259A269A879A2C98D3
:101110005F9A2C9A80E061E20E945F08106880E08C
:10112000612F0E945F0880E064E00E945F0880E019
:1011300063E10E945F0880E06CE00E945F0880E04D
:1011400060E20E945F0880E06CE00E945F0880E03F
:1011500060E40E945F0880E060E80E945F081F91E1
:101160000895CF93DF93C0E0D0E081E060E00E947B
:101170005F08219681E0C83FD807B9F7DF91CF918A
:1011800008951F93182F606480E00E945F08106824
:1011900080E0612F0E945F081F91089587E8809387
:1011A0007A000895982F9F71906490937C008072CC
:1011B00080937B0080917A00806480937A00809194
:1011C0007A0086FDFCCF2091780030917900C9012A
:1011D0000895A1E1B0E0EFEEF8E00C945E0F3C0161
:1011E0007F876E876A01FC0117821682838181FDE9
:1011F00003C06FEF7FEF6FC39E012F5F3F4F398BAF
:10120000288BF3012381EE85FF8523FD859123FF44
:101210008191FF87EE87882309F45AC3853251F400
:10122000EE85FF8523FD859123FF8191FF87EE8762
:10123000853229F490E0B3010E941A11E2CF982F71
:1012400010E0882499241032B0F49B3269F09C326B
:1012500028F4903251F0933271F40BC09D3239F082
:10126000903349F4116028C01260146025C01860E2
:1012700023C0106121C017FD2AC0892F80538A30F6
:1012800078F416FF06C0FAE09F9E902C1124980E69
:1012900013C03AE0839E802C1124880E10620CC08B
:1012A0009E3221F416FD14C3106406C09C3611F45E
:1012B000106802C0983659F4EE85FF8523FD95919C
:1012C00023FF9191FF87EE87992309F0BCCF892FE7
:1012D0008554833020F4812F8061905E07C0892F70
:1012E0008556833008F09FC1812F8F7E86FD02C016
:1012F00076E0972E6FE3F62EF822953619F4F0E497
:10130000FF2A07C0963619F420E8F22A02C091108D
:101310009A94F7FE0AC03BE3391518F45CE3B52E46
:1013200002C0B92CB39427E009C047E0491520F466
:10133000BB2447E0942EF7CF292DBB24C601049689
:101340009D878C87F6016081718182819381AE01D6
:101350004F5F5F4F0B2D0E942C106C010981202ED6
:10136000332400FF04C003FD02C01DE209C0F1FEEA
:1013700002C01BE205C0F2FC02C010E001C010E296
:10138000C1018C709070892BB9F1112311F483E0A5
:1013900001C084E0881510F088240AC0881AF3FC84
:1013A00007C080E290E0B3010E941A118A94C9F745
:1013B000112329F0812F90E0B3010E941A1123FE1E
:1013C00003C00AEA12E00EC00EEA12E00BC0E114FC
:1013D000F10409F0805290E0B3010E941A110F5FEE
:1013E0001F4F05C0EF2CFF24F0E1EF22FF24F8018E
:1013F0008491882361F714C1F7FE12C0BC0C24FE4F
:1014000004C08A81813309F4BA941B141CF0BB24F4
:10141000B3942DC0F8E0FB1550F538E0B32E27C08B
:10142000F6FC25C0892D90E08C159D054CF02CEF25
:10143000C2162FEFD20624F030E8F32A01C09A94A6
:10144000992049F0E2E0F0E0EC0FFD1FE90DF11DFD
:1014500080818033A1F3F7FE0AC0B92CB394892DA3
:1014600090E0C816D90614F0992401C09C18F7FC26
:1014700003C025E030E009C01C141D041CF021E06D
:1014800030E003C096012F5F3F4F112311F02F5F13
:101490003F4F992029F0892D90E00196280F391FA0
:1014A000882D90E02817390714F0882401C0821A8B
:1014B0004F2C5524C20189709070892B39F008C0D7
:1014C00080E290E0B3010E941A118A948820C1F74B
:1014D000112329F0812F90E0B3010E941A1143FEDD
:1014E00007C008C080E390E0B3010E941A118A94FB
:1014F0008820C1F7F7FE46C08601D7FE02C000E093
:1015000010E076010894E11CF11CE01AF10A41E0B8
:1015100050E04C0F5D1FE40EF51E26014B185108DC
:10152000892D90E0AA24BB24A81AB90A5FEF0F3FC7
:10153000150729F48EE290E0B3010E941A11C0163B
:10154000D10634F0401651061CF4F701808101C029
:1015500080E3015010400894E11CF11C0A151B05A2
:101560002CF090E0B3010E941A11E0CF0C151D057C
:1015700039F49A81963318F4953311F424FE81E3FB
:1015800090E04BC08A81813309F00F7E90E0B30177
:101590000E941A119920A1F08EE290E0B3010E94FE
:1015A0001A1112E0E1E0F0E0EC0FFD1FE10FF11D78
:1015B0001F5F808190E0B3010E941A119A9491F705
:1015C00044FC03C085E690E002C085E490E0B301EE
:1015D0000E941A11D7FC05C0C114D10441F404FFC4
:1015E00006C0D094C194D108D3948DE201C08BE29F
:1015F00090E0B3010E941A1180E305C08F5F26EFCF
:101600003FEFC20ED31E3AE0C316D104BCF790E000
:10161000B3010E941A11C601C096B3010E941A11AB
:10162000CC84DD8452C1933631F0933799F09335F1
:1016300009F059C023C0F601808189835E010894B6
:10164000A11CB11C22E030E0C20ED31E21E0E22E2C
:10165000F12C12C0F601A080B18016FD03C06FEF1F
:101660007FEF02C0692D70E022E030E0C20ED31E91
:10167000C5010E940F117C011F7713C0F601A080E5
:10168000B18016FD03C06FEF7FEF02C0692D70E0DF
:1016900022E030E0C20ED31EC5010E9404117C017D
:1016A000106813FF07C01BC080E290E0B3010E94E6
:1016B0001A118A94882D90E0E816F906A8F30FC055
:1016C000F50117FD859117FF81915F0190E0B3014E
:1016D0000E941A1181108A940894E108F108E1141B
:1016E000F10471F7F2C0943611F0993689F517FFBD
:1016F00008C0F601208131814281538184E090E06D
:101700000AC0F601808191819C01442737FD4095F4
:10171000542F82E090E0C80ED91E9FE6F92EF122E8
:1017200057FF09C050954095309521953F4F4F4F39
:101730005F4F90E8F92ACA01B901AE014F5F5F4FD0
:101740002AE030E00E946A11E82EE889EE1A41C0D2
:10175000953721F41F7E2AE030E01CC0197F9F36A8
:1017600061F0903720F4983509F0B2C00FC090377F
:1017700039F0983709F0ACC004C028E030E00AC066
:10178000106114FD146020E130E004C014FD166007
:1017900020E132E017FF08C0F6016081718182818B
:1017A000938144E050E008C0F60180819181BC0142
:1017B00080E090E042E050E0C40ED51EAE014F5FE5
:1017C0005F4F0E946A11E82E5889E51A8FE7F82EBC
:1017D000F122F6FE0BC08EEFF822E91438F4F4FE85
:1017E00007C0F2FC05C09FEEF92202C01E2D01C009
:1017F000192DF4FE0DC0FE01EE0DF11D8081803328
:1018000019F4E9EEFE2208C01F5FF2FE05C003C016
:101810008F2D867809F01F5F0F2DF3FC14C0F0FEAA
:101820000FC0181510F09E2C0BC09E2C980C911A0E
:10183000182D06C080E290E0B3010E941A111F5FCC
:101840001815C0F304C0181510F4811A01C08824BB
:1018500004FF0FC080E390E0B3010E941A1102FF61
:101860001DC001FD03C088E790E00EC088E590E050
:101870000BC0802F867891F001FF02C08BE201C07F
:1018800080E2F7FC8DE290E0B3010E941A1106C0DD
:1018900080E390E0B3010E941A119A94E914C0F316
:1018A000EA94E1E0F0E0EC0FFD1FEE0DF11D808108
:1018B00090E0B3010E941A11EE2091F706C080E279
:1018C00090E0B3010E941A118A948820C1F799CC44
:1018D000F30166817781CB016196E2E10C947A0F86
:1018E0005058BB27AA270ED0A0C169D130F06ED1C5
:1018F00020F031F49F3F11F41EF45EC10EF4E09528
:10190000E7FB54C1E92FB3D180F3BA17620773071D
:101910008407950718F071F49EF5CBC10EF4E0959D
:101920000B2EBA2FA02D0B01B90190010C01CA0199
:10193000A0011124FF27591B99F0593F50F4503E44
:1019400068F11A16F040A22F232F342F4427585F36
:10195000F3CF469537952795A795F0405395C9F74E
:101960007EF41F16BA0B620B730B840BBAF0915006
:10197000A1F0FF0FBB1F661F771F881FC2F70EC0A5
:10198000BA0F621F731F841F48F487957795679578
:10199000B795F7959E3F08F0B3CF9395880F08F061
:1019A0009927EE0F979587950895DCD008F481E08C
:1019B000089514D1E3954AC10CD037C107D140F046
:1019C000FED030F021F45F3F19F0F0C0511172C128
:1019D000F3C04DD198F39923C9F35523B1F3951B67
:1019E000550BBB27AA2762177307840738F09F5F40
:1019F0005F4F220F331F441FAA1FA9F333D00E2EAF
:101A00003AF0E0E830D091505040E695001CCAF71B
:101A100029D0FE2F27D0660F771F881FBB1F2617E0
:101A200037074807AB07B0E809F0BB0B802DBF01B3
:101A3000FF2793585F4F2AF09E3F510568F0B6C0CC
:101A400039C15F3FECF3983EDCF386957795679557
:101A5000B795F7959F5FC9F7880F911D9695879564
:101A600097F90895E1E0660F771F881FBB1F621783
:101A700073078407BA0720F0621B730B840BBA0B41
:101A8000EE1F88F7E095089504D06894B11112C153
:101A90000895F5D088F09F5790F0B92F9927B75146
:101AA000A0F0D1F0660F771F881F991F1AF0BA9522
:101AB000C9F712C0B13081F0FCD0B1E00895F9C08F
:101AC000672F782F8827B85F39F0B93FCCF3869518
:101AD00077956795B395D9F73EF490958095709575
:101AE00061957F4F8F4F9F4F0895E89409C097FBF2
:101AF0003EF490958095709561957F4F8F4F9F4FE5
:101B00009923A9F0F92F96E9BB279395F695879528
:101B100077956795B795F111F8CFFAF4BB0F11F4EB
:101B200060FF1BC06F5F7F4F8F4F9F4F16C0882392
:101B300011F096E911C0772321F09EE8872F762FC8
:101B400005C0662371F096E8862F70E060E02AF009
:101B50009A95660F771F881FDAF7880F96958795F5
:101B600097F90895990F0008550FAA0BE0E8FEEFCA
:101B700016161706E807F907C0F012161306E40751
:101B8000F50798F0621B730B840B950B39F40A264A
:101B900061F0232B242B252B21F408950A2609F428
:101BA000A140A6958FEF811D811D089597F99F672C
:101BB00080E870E060E008959FEF80EC08950024D5
:101BC0000A941616170618060906089500240A94A2
:101BD00012161306140605060895EECF50D0E8F34A
:101BE000E894E0E0BB279F57F0F02AED3FE049EC96
:101BF00006C0EE0FBB0F661F771F881F28F0B23A92
:101C000062077307840728F0B25A620B730B840BC8
:101C1000E3959A9572F7803830F49A95BB0F661F5A
:101C2000771F881FD2F79048BAC0092E0394000C82
:101C300011F4882352F0BB0F40F4BF2B11F460FF66
:101C400004C06F5F7F4F8F4F9F4F0895EF93E0FF6A
:101C500006C0A2EA2AED3FE049EC5FEB53DEE5DF88
:101C60000F90039401FC9058ECEAF0E0A4C057FDFB
:101C70009058440F551F59F05F3F71F04795880FFA
:101C800097FB991F61F09F3F79F087950895121691
:101C900013061406551FF2CF4695F1DF08C016163D
:101CA00017061806991FF1CF8695710561050894EE
:101CB0000895E894BB2766277727CB0197F9089505
:101CC00051DF08F48FEF08950BD0AFCF78DF28F005
:101CD0007DDF18F0952309F069CF6ECF1124EACF8C
:101CE000C6DFA0F3959FD1F3950F50E0551F629F7B
:101CF000F001729FBB27F00DB11D639FAA27F00D65
:101D0000B11DAA1F649F6627B00DA11D661F829F8B
:101D10002227B00DA11D621F739FB00DA11D621F70
:101D2000839FA00D611D221F749F3327A00D611D8D
:101D3000231F849F600D211D822F762F6A2F11246F
:101D40009F5750408AF0E1F088234AF0EE0FFF1FC2
:101D5000BB1F661F771F881F91505040A9F79E3FF9
:101D6000510570F023CFA6CF5F3FECF3983EDCF334
:101D7000869577956795B795F795E7959F5FC1F736
:101D8000FE2B880F911D9695879597F908959F933F
:101D900025DF0F9007FCEE5F59CF9F3F31F0915048
:101DA00020F4879577956795B795880F911D96953F
:101DB000879597F908959F938F937F936F93FF93E0
:101DC000EF939B01AC0180DFEF91FF9105D02F9144
:101DD0003F914F915F9178CFDF93CF931F930F93F4
:101DE000FF92EF92DF927B018C01689405C0DA2E9E
:101DF000EF0176DFFE01E894A5912591359145919B
:101E00005591AEF3EF017EDDFE019701A801DA9452
:101E100079F7DF90EF90FF900F911F91CF91DF91B5
:101E20000895629FD001739FF001829FE00DF11D24
:101E3000649FE00DF11D929FF00D839FF00D749F44
:101E4000F00D659FF00D9927729FB00DE11DF91FF0
:101E5000639FB00DE11DF91FBD01CF01112408954D
:101E600097FB092E07260AD077FD04D05ED006D056
:101E700000201AF4709561957F4F0895F6F79095BC
:101E800081959F4F089597FB092E05260ED057FD8B
:101E900004D05FD00AD0001C38F45095409530959E
:101EA00021953F4F4F4F5F4F0895F6F790958095DE
:101EB000709561957F4F8F4F9F4F08952F923F925E
:101EC0004F925F926F927F928F929F92AF92BF924A
:101ED000CF92DF92EF92FF920F931F93CF93DF93F6
:101EE000CDB7DEB7CA1BDB0B0FB6F894DEBF0FBE53
:101EF000CDBF09942A88398848885F846E847D84A0
:101F00008C849B84AA84B984C884DF80EE80FD80A1
:101F10000C811B81AA81B981CE0FD11D0FB6F89417
:101F2000DEBF0FBECDBFED010895AA1BBB1B51E163
:101F300007C0AA1FBB1FA617B70710F0A61BB70B39
:101F4000881F991F5A95A9F780959095BC01CD01DE
:101F50000895A1E21A2EAA1BBB1BFD010DC0AA1FEA
:101F6000BB1FEE1FFF1FA217B307E407F50720F002
:101F7000A21BB30BE40BF50B661F771F881F991F7D
:101F80001A9469F760957095809590959B01AC01C6
:101F9000BD01CF010895A0E0B0E0E1EDFFE00C94B9
:101FA000660FEC01A880B980CA80DB80A114B1045F
:101FB000C104D10441F484E2A82E89EDB82E8BE54A
:101FC000C82E87E0D82EC601B5012DE133EF41E0E0
:101FD00050E00E94430F27EA31E440E050E00E94C5
:101FE000110F7B018C01C601B5012DE133EF41E0FA
:101FF00050E00E94430FCA01B9012CEE34EF4FEFBD
:102000005FEF0E94110F6E0D7F1D801F911F97FFC4
:1020100004C06150704080409048688379838A830F
:102020009B839B013F77C901CDB7DEB7EAE00C94F3
:10203000820F0E94CB0F089580EB91E00E94CB0F9E
:102040000895A0E0B0E08093B0019093B101A09317
:10205000B201B093B3010895283008F027E0332788
:10206000DA01990F311D87FD9160009661057105B8
:1020700039F432602E5F3D9330E32A95E1F70895FD
:102080009F3F30F080387105610509F03C5F3C5F8F
:102090003D93913008F08068911DDF93CF931F939B
:1020A0000F93FF92EF92192F987F9695E92F9695AF
:1020B0009695E90FFF27E45FFC4F99273327EE241D
:1020C000FF24A701E70105900894079428F4360F30
:1020D000E71EF81E491F511D660F771F881F991FA5
:1020E0000694A1F70590079428F4E70EF81E491FFF
:1020F000561FC11D770F881F991F661F0694A1F7F1
:102100000590079428F4F80E491F561FC71FD11DCC
:10211000880F991F661F771F0694A1F705900794F3
:1021200020F4490F561FC71FD81F990F661F771F2E
:10213000881F0694A9F784911095177041F0D695E1
:10214000C79557954795F794E7941A95C1F7E2EB31
:10215000F2E06894159015913591659195910590EF
:102160007FE27395E118F10A430B560BC90BD009B6
:10217000C0F7E10CF11E431F561FC91FD01D7EF48E
:10218000703311F48A95E6CFE894015030F0080FCF
:102190000AF40027021708F4202F2395022F7A3320
:1021A00028F079E37D932A95E9F710C07D932A956D
:1021B00089F6069497956795379517951794E118C2
:1021C000F10A430B560BC90BD00998F023957E9169
:1021D00073957A3308F070E37C932013B8F77E91FF
:1021E00070617D9330F0839571E37D9370E32A9560
:1021F000E1F71124EF90FF900F911F91CF91DF91A4
:10220000992787FD90950895FC01059061507040D5
:102210000110D8F7809590958E0F9F1F0895FC01AF
:102220006150704001900110D8F7809590958E0F05
:102230009F1F08950F931F93CF93DF938C01EB01A2
:102240008B8181FF1BC082FF0DC02E813F818C815D
:102250009D812817390764F4E881F9810193F98396
:10226000E88306C0E885F985802F0995892B31F42C
:102270008E819F8101969F838E8302C00FEF1FEF97
:10228000C801DF91CF911F910F910895AEE0B0E0AA
:10229000ECE4F1E10C946C0F0D891E8986E08C83CF
:1022A0001A8309838FEF9FE79E838D839E01275EAC
:1022B0003F4FCE0101966F89788DA9010E94E908F0
:1022C0002F813885020F131FF80110822E96E4E04B
:1022D0000C94880FFA01AA27283051F1203181F19E
:1022E000E8946F936E7F6E5F7F4F8F4F9F4FAF4F1E
:1022F000B1E03ED0B4E03CD0670F781F891F9A1F31
:10230000A11D680F791F8A1F911DA11D6A0F711DE4
:10231000811D911DA11D20D009F468943F912AE0F0
:10232000269F11243019305D3193DEF6CF010895D8
:10233000462F4770405D4193B3E00FD0C9F7F6CF09
:10234000462F4F70405D4A3318F0495D31FD4052D1
:10235000419302D0A9F7EACFB4E0A6959795879567
:1023600077956795BA95C9F7009761057105089546
:102370009B01AC010A2E06945795479537952795F2
:10238000BA95C9F7620F731F841F951FA01D08958A
:04239000F894FFCFEF
:10239400413A2025640064000F000700230029004F
:1023A4002020202020202020202020202020202029
:1023B4002020202020202020202020202020202019
:1023C4002020202020202020202020202020202009
:1023D4002020202020202020202020206F6F20205B
:1023E400206F6F6F6F6F2020206F6F6F6F6F6F6F35
:1023F4006F6F6F6F6F6F6F6F6F6F6F6F2020206FD6
:102404006F6F6F6F2020206F6F0010012020206FEE
:1024140020202020206F6F6F2020206F6F6F6F6F40
:10242400206F6F6F6F6F6F6F206F6F6F6F6F2020F4
:10243400206F6F6F20202020206F202020007C013F
:042444000100000093
:00000001FF
