:100000000C94D6010C94F3010C94F3010C94F301BD
:100010000C94F3010C94F3010C94F3010C94F30190
:100020000C94F3010C94F3010C94F3010C94F30180
:100030000C94F3010C94F3010C94F3010C94F30170
:100040000C94F3010C94F3010C94F3010C94F30160
:100050000C94F3010C94F3010C94F3010C94F30150
:100060000C94F3010C94F3010C94F3010C94F30140
:100070000C94F3010C94F3010C94F3010C94F30130
:100080000C94F3010C94F3010C94F3010C94AF085D
:100090000C94F3010C94F3010C94F3010C94F30110
:1000A0000C94F3010C94F3010C94F30105A84CCDCE
:1000B000B2D44EB93836A9020C50B9918688083CA2
:1000C000A6AAAA2ABE000000803F0000000000008F
:1000D000005F00000007000700147F147F14242A2B
:1000E0007F2A122313086462364955225000050303
:1000F0000000001C2241000041221C0014083E08A0
:100100001408083E080800503000000808080808D5
:10011000006060000020100804023E5149453E0086
:10012000427F400042615149462141454B311814FC
:10013000127F1027454545393C4A4949300171092C
:1001400005033649494936064949291E0036360015
:100150000000563600000814224100141414141430
:1001600000412214080201510906324979413E7EBC
:100170001111117E7F494949363E414141227F415B
:1001800041221C7F494949417F090909013E4149F2
:10019000497A7F0808087F00417F41002040413FA5
:1001A000017F081422417F404040407F020C027FC3
:1001B0007F0408107F3E4141413E7F090909063E08
:1001C0004151215E7F0919294646494949310101BA
:1001D0007F01013F4040403F1F2040201F3F4038EB
:1001E000403F6314081463070870080761514945CC
:1001F00043007F41410002040810200041417F007C
:10020000040201020440404040400001020400207A
:10021000545454787F484444383844444420384443
:1002200044487F3854545418087E0901020C525235
:10023000523E7F0804047800447D40002040443D45
:10024000007F1028440000417F40007C041804789F
:100250007C0804047838444444387C141414080896
:100260001414187C7C080404084854545420043F97
:100270004440203C4040207C1C2040201C3C40301E
:10028000403C44281028440C5050503C4464544C8A
:1002900044000836410000007F000000413608009D
:1002A000100808100878464146786E616E00696E45
:1002B000660000407A10F35A00A0724E1809001030
:1002C000A5D4E80000E87648170000E40B540200CB
:1002D00000CA9A3B000000E1F505000080969800F6
:1002E000000040420F000000A0860100000010271F
:1002F00000000000E80300000000640000000000AF
:100300000A00000000000100000000002C76D888E0
:10031000DC674F0823DFC1DFAE59E1B1B796E5E3F3
:10032000E453C63AE651997696E8E6C28426EB890C
:100330008C9B62ED407C6FFCEFBC9C9F40F2BAA5A9
:100340006FA5F490055A2AF75C936B6CF9676DC141
:100350001BFCE0E40D47FEF520E6B500D0ED902E45
:100360000300943577050080841E080000204E0AA3
:10037000000000C80C333333330F986E12831141E1
:10038000EF8D2114893BE65516CFFEE6DB18D184AC
:100390004B381BF77C1D901DA4BBE42420328472D3
:1003A0005E228100C9F124ECA1E53D2711241FBE86
:1003B000CFEFDAE0DEBFCDBF13E0A0E0B1E0E6E4CE
:1003C000F8E302C005900D92AC3CB107D9F719E0F3
:1003D000ACECB3E001C01D92A23BB107E1F70E9473
:1003E00067100C94211C0C940000CF92DF92EF92C6
:1003F000FF920F931F93DC018417950734F1C80116
:10040000840F951FA817B90704F562177307ECF05E
:10041000E20EF31E6E157F05C4F490E0A41BB50B2D
:10042000621B730B609FF001619FF00D709FF00DD8
:100430001124CA0EDB1EEC0DFD1D8081803209F4F3
:1004400091E081E09827892F02C080E090E01F9121
:100450000F91FF90EF90DF90CF9008952F923F92F1
:100460004F925F926F927F928F929F92AF92BF92C4
:10047000CF92DF92EF92FF920F931F93DF93CF9370
:10048000CDB7DEB760970FB6F894DEBF0FBECDBF15
:100490009A8389837C836B835E834D8319011887DC
:1004A0000F83FA86E986DC86CB86BE86AD86988A7F
:1004B0008F86882499242EC069807A806A0C7B1CE0
:1004C000C301B20149815A812B813C810D811E817A
:1004D0007101CF80D8840E94F501882381F0C30187
:1004E000B20149855A852B853C850D851E85EF8493
:1004F000F888CDA0DEA00E94F5018823B9F4089405
:10050000A11CB11C8D819E81A816B906ACF208947D
:10051000811C911C8214930414F080E008C0AA246A
:10052000BB244B805C80480C591CECCF81E060966A
:100530000FB6F894DEBF0FBECDBFCF91DF911F91F4
:100540000F91FF90EF90DF90CF90BF90AF909F9072
:100550008F907F906F905F904F903F902F90089575
:10056000AF92BF92CF92DF92EF92FF920F931F93C1
:100570006091F4037091F5038091F6039091F70375
:10058000E0909400F09095000E94CE1720E030E0BB
:1005900040E857E40E94BD185B016C0100E010E0E8
:1005A000C801B7010E94CE179B01AC01C601B5017D
:1005B0000E94CA1620E030E040E853E40E94BD18D3
:1005C00020E034E244EF5AE40E9435171F910F9166
:1005D000FF90EF90DF90CF90BF90AF9008950E9472
:1005E000B0020E949D17DC01CB016CE370E00E9419
:1005F0006A1908950E94B0020E949D17DC01CB0188
:100600006CE370E00E946A19CB0108951092F40324
:100610001092F5031092F6031092F7030895CF930A
:10062000DF934091CE035091CF03415050409C0145
:10063000220F331F220F331FE901C05DD84FF9018C
:10064000E852FC4F9C0112C02F5F3F4F8C819D816F
:10065000AE81BF8189939993A993B9938481958140
:10066000A681B78181939193A193B1932417350704
:100670005CF35093CF034093CE0382E090E09093DD
:100680007B0780937A07DF91CF910895CF93DF9313
:100690004091F2035091F303415050409C01220FCE
:1006A000331F220F331FE901CC5DD84FF901E25807
:1006B000F84F9C0112C02F5F3F4F8C819D81AE810E
:1006C000BF8189939993A993B99384819581A681D8
:1006D000B78181939193A193B193241735075CF36C
:1006E0005093F3034093F20381E090E090937B07F3
:1006F00080937A07DF91CF910895CF92DF92EF92A6
:10070000FF920F931F93CF93DF93EB0181359105F8
:1007100019F424E530E005C09C0197FF02C020E0F9
:1007200030E0E090CC03F090CD038701000F111F63
:10073000000F111FEAE8CE2EE7E0DE2EC00ED11E1C
:10074000B901882777FD8095982F0E94D017F60170
:100750006083718382839383065B184FBE01882771
:1007600077FD8095982F0E94D017F80160837183E0
:10077000828393830894E11CF11CF092CD03E092F4
:10078000CC03DF91CF911F910F91FF90EF90DF90FD
:10079000CF900895CF93DF934091CC035091CD0338
:1007A000415050409C01220F331F220F331FE9019B
:1007B000C657D84FF901E65BF84F9C0112C02F5F76
:1007C0003F4F8C819D81AE81BF8189939993A9937D
:1007D000B99384819581A681B78181939193A193E7
:1007E000B193241735075CF35093CD034093CC03AA
:1007F00080917A0790917B07049690937B07809372
:100800007A07DF91CF9108950F931F93CF93DF93D2
:100810000AE417E0C0E0D0E031C0F80160817181E6
:1008200082819381209120073091210740912207F6
:10083000509123070E94CA16F80160837183828356
:10084000938320E030E040E450E40E94CA1620E0A8
:1008500030E040E252E40E94B918882364F0CE01EF
:100860000E94CA0380917C0790917D070197909325
:100870007D0780937C0721960C5F1F4F8091CC03EE
:100880009091CD03C817D90744F2DF91CF911F9102
:100890000F910895CF92DF92EF92FF920F931F93E3
:1008A000CF93DF93EB018F34910519F426E530E007
:1008B00005C09C0197FF02C020E030E0E090CE032D
:1008C000F090CF038701000F111F000F111FB0E33D
:1008D000CB2EB7E0DB2EC00ED11EB901882777FDE5
:1008E0008095982F0E94D017F601608371838283D0
:1008F000938308521C4FBE01882777FD8095982F5F
:100900000E94D017F80160837183828393830894D7
:10091000E11CF11CF092CF03E092CE03DF91CF9166
:100920001F910F91FF90EF90DF90CF9008950F935C
:100930001F93CF93DF9308ED13E0C0E0D0E031C008
:10094000F80160817181828193812091200730912B
:10095000210740912207509123070E94CA16F801EF
:10096000608371838283938320E030E040EA50E427
:100970000E94CA1620E030E040E252E40E94B9181A
:10098000882364F0CE010E940F0380917C07909130
:100990007D07019790937D0780937C0721960C5FDC
:1009A0001F4F8091CE039091CF03C817D90744F20F
:1009B000DF91CF911F910F910895CF92DF92EF9227
:1009C000FF920F931F93CF93DF930E94B0027B019E
:1009D0008C01C0E0D0E098ECC92ED12C0E94B0026E
:1009E000A80197010E94C91620E030E040E050E4E1
:1009F0000E94B91887FF0EC0C0FD02C02A9A01C02C
:100A00002A9888E893E1F6013197F1F70197D9F731
:100A10002196E4CFDF91CF911F910F91FF90EF903E
:100A2000DF90CF900895CF92DF92EF92FF920F93D5
:100A30001F93CF93DF930E94B0027B018C01C0E033
:100A4000D0E028ECC22ED12C0E94B002A801970160
:100A50000E94C91620E030E040E050E40E94B9183E
:100A600087FF0EC0C0FD02C02B9A01C02B9888E8FA
:100A700093E1F6013197F1F70197D9F72196E4CF89
:100A8000DF91CF911F910F91FF90EF90DF90CF906A
:100A90000895181619061CF081E090E0089580E092
:100AA00090E01616170614F081E090E00895CF93B9
:100AB000DF936091D0037091D103615070409C012D
:100AC000220F331FA9014A5A594FE901C257DA4F81
:100AD000FC01EE0FFF1FEE0FFF1FE250FC4F9C01C9
:100AE00016C02F5F3F4FDA0112968D919C9113979C
:100AF0008D939D93AD018A819B8189939993848184
:100B00009581A681B78181939193A193B193261783
:100B100037073CF37093D1036093D003DF91CF91FB
:100B20000895EF92FF920F931F93CF93DF93EC0101
:100B30002091D0033091D1038091E2029091E302A1
:100B40002817390709F450C00E94B0022091F80319
:100B50003091F9034091FA035091FB030E94C916AA
:100B60002DEC3CEC4CE45EE30E94B9181816E4F559
:100B7000E090D003F090D103F701EE0FFF1FDF01EB
:100B8000AA5AB94F80914807909149078D939C9339
:100B9000E257FA4F8091FC039091FD03918380838B
:100BA0008701000F111F000F111F02501C4FBE01C3
:100BB000882777FD8095982F0E94D017F8016083D1
:100BC0007183828393830894E11CF11CF092D1031A
:100BD000E092D0030E94B0026093F8037093F9038F
:100BE0008093FA039093FB03DF91CF911F910F91B4
:100BF000FF90EF9008952F923F924F925F926F92E5
:100C00007F928F929F92AF92BF92CF92DF92EF929C
:100C1000FF920F931F93DF93CF93CDB7DEB72A9741
:100C20000FB6F894DEBF0FBECDBF1A821982B3C0D3
:100C300000D02DB73EB72F5F3F4F3C832B83E98118
:100C4000FA81EE0FFF1FDF01AA5AB94F2D903C9099
:100C5000E257FA4F408051800091BB031091BC03D2
:100C6000E984FA84EE0CFF1CEE0CFF1CC7018C5DBE
:100C7000984F9E838D83DC016D917D918D919C9128
:100C80000E949D173B014C01F701E258F84FF8878D
:100C9000EF8360817181828193810E949D175B0146
:100CA0006C0180918C0390918D03AB81BC818D93FD
:100CB0009C93C101B20142E050E022E030E07301B8
:100CC0006501F7E0AF2EB12CE7E08E2E912C0E944B
:100CD0002E020F900F90882309F449C0ED81FE8108
:100CE00060817181828193810E949D177B018C01BB
:100CF000AF81B8856D917D918D919C910E949D17DA
:100D00009B01AC01C701B9010E944A04ED81FE813B
:100D1000608171818281938120E030E040EE50E477
:100D20000E94CA160E949D177B018C01AF81B88575
:100D30006D917D918D919C910E949D179B01AC01BD
:100D4000C701B9010E944A0489859A850E94460319
:100D500089819A810E945705E981FA813197FA8346
:100D6000E98329853A85215030403A87298789854A
:100D70009A8501969A8789878091F2039091F3036F
:100D8000A985BA85A817B9070CF452CFE981FA8171
:100D90003196FA83E9838091D0039091D103298120
:100DA0003A81281739071CF41A861986E5CF2A9646
:100DB0000FB6F894DEBF0FBECDBFCF91DF911F916C
:100DC0000F91FF90EF90DF90CF90BF90AF909F90EA
:100DD0008F907F906F905F904F903F902F900895ED
:100DE0002F923F924F925F926F927F928F929F923B
:100DF000AF92BF92CF92DF92EF92FF920F931F9329
:100E0000DF93CF93CDB7DEB72A970FB6F894DEBF46
:100E10000FBECDBF1A821982B3C000D02DB73EB726
:100E20002F5F3F4F3C832B83E981FA81EE0FFF1F39
:100E3000DF01AA5AB94F2D903C90E257FA4F4080FB
:100E400051800091BB031091BC03E984FA84EE0C3D
:100E5000FF1CEE0CFF1CC701805D984F9E838D83A5
:100E6000DC016D917D918D919C910E949D173B01BC
:100E70004C01F701E852FC4FF887EF8360817181E4
:100E8000828193810E949D175B016C018091A80370
:100E90009091A903AB81BC818D939C93C101B20158
:100EA00042E050E022E030E073016501F7E0AF2E50
:100EB000B12CE7E08E2E912C0E942E020F900F9005
:100EC000882309F449C0ED81FE81608171818281AE
:100ED00093810E949D177B018C01AF81B8856D9134
:100EE0007D918D919C910E949D179B01AC01C70142
:100EF000B9010E947D03ED81FE8160817181828153
:100F0000938120E030E040EA50E40E94CA160E943B
:100F10009D177B018C01AF81B8856D917D918D917D
:100F20009C910E949D179B01AC01C701B9010E94D1
:100F30007D0389859A850E940F0389819A810E9489
:100F40005705E981FA813197FA83E98329853A8542
:100F5000215030403A87298789859A8501969A875A
:100F600089878091CE039091CF03A985BA85A81770
:100F7000B9070CF452CFE981FA813196FA83E983FB
:100F80008091D0039091D10329813A8128173907A4
:100F90001CF41A861986E5CF2A960FB6F894DEBFA0
:100FA0000FBECDBFCF91DF911F910F91FF90EF90BA
:100FB000DF90CF90BF90AF909F908F907F906F9079
:100FC0005F904F903F902F9008952F923F924F92B5
:100FD0005F926F927F928F929F92AF92BF92CF92C9
:100FE000DF92EF92FF920F931F93DF93CF9300D086
:100FF00000D000D0CDB7DEB71A8219827AC000D0F7
:101000002DB73EB72F5F3F4F3C832B83E981FA8199
:10101000EE0FFF1FDF01AA5AB94F2D903C90E25707
:10102000FA4F408051800091BB031091BC03ED80CA
:10103000FE80EE0CFF1CEE0CFF1CF701E657F84F8C
:1010400060817181828193810E949D173B014C01D7
:101050008AE497E0E80EF91ED7016D917D918D919C
:101060009C910E949D175B016C018091B40390914B
:10107000B503EB81FC8191838083C101B20142E021
:1010800050E022E030E073016501F3E0AF2EB12CB7
:10109000E3E08E2E912C0E942E020F900F90882359
:1010A00099F08D819E810E94CA0389819A810E9454
:1010B000570529813A81215030403A8329838D8117
:1010C0009E8101979E838D83AD81BE811196BE83E3
:1010D000AD838091CC039091CD03ED81FE81E81723
:1010E000F9070CF48CCF29813A812F5F3F4F3A8367
:1010F00029838091D0039091D103A981BA81A81747
:10110000B9071CF41E821D82E4CF26960FB6F89410
:10111000DEBF0FBECDBFCF91DF911F910F91FF902A
:10112000EF90DF90CF90BF90AF909F908F907F9087
:101130006F905F904F903F902F9008950E94FB0515
:101140000E94F0060E94E50708951092900084E046
:101150008093910081E080937100789408951F92AC
:101160000F920FB60F9211248F939F93AF93BF935B
:101170008091D603882399F48091F4039091F5032C
:10118000A091F603B091F7030196A11DB11D8093C4
:10119000F4039093F503A093F603B093F703BF9184
:1011A000AF919F918F910F900FBE0F901F90189548
:1011B0000E94891084E190E06AE070E040E051E034
:1011C00021E00E9480120E94A51208952098219883
:1011D00050985198279885988698229A0E942713AC
:1011E000089589B1869580FF0FC06091D2037091F8
:1011F000D3038091D4039091D5030E949D17DC0105
:10120000CB010E9491052CC083B1869580FF12C04E
:101210008091ED02882321F48091EC028823A1F4CF
:101220008091EC028823E1F481E08093ED028093C9
:10123000EC0216C0489B14C08091ED02882339F05F
:101240008091EC02882319F01092EC0209C0809181
:10125000EC02882329F481E08093EC021092ED02E5
:1012600081E00E942B13A0E0B0E0BC01CD010E9400
:10127000D01720E030EC4FE754E40E94351760931C
:1012800020077093210780932207909323070895E6
:101290006F927F928F929F92AF92BF92CF92DF9286
:1012A000EF92FF920F931F93CF93DF9380E00E9402
:1012B0002B13A0E0B0E0BC01CD010E94D01720E0CC
:1012C00030E040EF52E40E94BD1820E030EC4FE7E0
:1012D00054E40E94351720E030E040E752E40E94D9
:1012E000C9166093D2037093D3038093D403909371
:1012F000D503C091E802D091E90217E0612E712C6C
:101300006C0E7D1E70921F0760921E072DE230E06A
:101310003093F1032093F0032BED3FE049E450ECD0
:101320000E94BD1820E030E044E353E40E943517EA
:101330007B018C01C8010E9420195B016C0188248B
:1013400077FC8094982CC401B3010E94D0173B0114
:101350004C01C601B50120E030E040E850EC0E94AD
:10136000BD189B01AC01C401B3010E94CA160E94C2
:101370009D177093490760934807B701C8010E9401
:10138000321720E030E040E850EC0E94BD1820E029
:1013900030E044E352E40E94CA160E949D17709305
:1013A000FD036093FC03209721F48091ED028823D4
:1013B00069F48091E4029091E5028C0F9D1F8435C1
:1013C000910531F48091ED02882311F41092EC0222
:1013D0008091EC028823B9F08091ED02882329F0F6
:1013E0001C161D0684F421970AC08091E402909196
:1013F000E5028C0F9D1F843591052CF42196D09326
:10140000E902C093E802DF91CF911F910F91FF9005
:10141000EF90DF90CF90BF90AF909F908F907F9094
:101420006F9008952F923F924F925F926F927F92AA
:101430008F929F92AF92BF92CF92DF92EF92FF92E4
:101440000F931F93DF93CF9300D000D000D0CDB780
:10145000DEB786E5282E86E0382E0EE8402E05E021
:10146000502E2EEF33E03A8329831E821D822CC03A
:10147000F10180809180F2010190F081E02DFC83E8
:10148000EB83E981FA8160817181828193811814F3
:1014900019042CF42B813C8112161306FCF08D816B
:1014A0009E810E9457058D819E8101969E838D832A
:1014B000E2E0F0E02E0E3F1E4E0E5F1E29813A81C3
:1014C0002C5F3F4F3A8329838091D0039091D103C1
:1014D000ED81FE81E817F9075CF25FC00E949D175D
:1014E000709561957F4F882777FD8095982F0E9492
:1014F000D0172BED3FE049E450E40E94BD1820E0F6
:1015000030E044E353E40E9435177B018C01C801AD
:101510000E9420195B016C01B401882777FD80953A
:10152000982F0E94D0173B014C01C601B50120E065
:1015300030E040E050EC0E94BD189B01AC01C401BA
:10154000B3010E94CA160E949D17F1017183608346
:10155000B701C8010E9432177B018C012B813C81AD
:10156000B901882777FD8095982F0E94D0175B01DD
:101570006C01C801B70120E030E040E050EC0E946F
:10158000BD189B01AC01C601B5010E94CA160E949C
:101590009D17F2017183608386CF26960FB6F8946B
:1015A000DEBF0FBECDBFCF91DF911F910F91FF9096
:1015B000EF90DF90CF90BF90AF909F908F907F90F3
:1015C0006F905F904F903F902F9008950F93CF931F
:1015D000DF93C0E0D0E0CE0167E270E02396AE0179
:1015E00027E230E001E00E94CC102796CA35D105F1
:1015F00091F7DF91CF910F910895EF92FF920F93A2
:101600001F938C017B010E94191AE01AF10A0894B9
:10161000E11CF11CB7010E946A199C01200F311FC7
:10162000C9011F910F91FF90EF9008958F929F92A3
:10163000AF92BF92CF92DF92EF92FF920F931F93E0
:10164000CF93DF9383E090E09093F3038093F203D2
:101650008824992470E060E000E010E0C0E0D0E071
:101660000F2EF0E0CF2EF0E0DF2EF0E0EF2EF1ECC9
:10167000FF2EF02D2AC080E090E06DE470E00E9423
:10168000FD0AAA2797FDA095BA2FBC01CD010E94A3
:10169000D0174B01782F692F03C0101611065CF389
:1016A000FE01EC5DF84F472F562FC401DA0180830D
:1016B0009183A283B383FE01E258F84FC082D182A6
:1016C000E282F3820F5F1F4F2496A090F203B09046
:1016D000F3030A151B050CF394E2E92E97E0F92EAB
:1016E000CC24DD2400E010E0C0E0D0E01EC0F70113
:1016F000608171818281938120E030E040E450E498
:101700000E94CA1620E030E048E252E40E942E1700
:10171000181624F00894C11CD11C02C00F5F1F4F83
:10172000219684E090E0E80EF91ECA15DB05FCF274
:101730000C151D051CF40E94DD0402C00E94130557
:10174000DF91CF911F910F91FF90EF90DF90CF909D
:10175000BF90AF909F908F9008950F931F93CF935A
:10176000DF930EE717E0C0E0D0E031C0F801608100
:1017700071818281938120912007309121074091CE
:101780002207509123070E94CA16F80160837183D3
:101790008283938320E030E040EE50E40E94CA163A
:1017A00020E030E040E252E40E94B918882364F05F
:1017B000CE010E94460380917C0790917D0701979E
:1017C00090937D0780937C0721960C5F1F4F80913B
:1017D000F2039091F303C817D90744F2892B71F4EF
:1017E0008091CC039091CD03892B41F48091CE035D
:1017F0009091CF03892B11F40E94160BDF91CF91AA
:101800001F910F9108951F9383E290E09093E90256
:101810008093E80289E290E09093EB028093EA02E1
:101820001092D6031092D1031092D0031092CF03DE
:101830001092CE031092CD031092CC0310927B072E
:1018400010927A0785E090E090937D0780937C0763
:101850000E94160B11E01093EC0280E090E0A0E8EB
:10186000BFE38093F8039093F903A093FA03B09336
:10187000FB031092F4031092F5031092F6031092FA
:10188000F70380E090E062E370E00E94FD0A4A976F
:101890001CF01092ED0202C01093ED021F9108950A
:1018A000CF92DF92EF92FF920F931F93CF93DF932C
:1018B0000E94B0027B018C012A9A2B9AC0E0D0E0F2
:1018C00028ECC22ED12C0E9489100E94B002A801DF
:1018D00097010E94C91620E030E040E050E40E94E9
:1018E000B918882314F02A982B987E9B03C00E9475
:1018F000030C25C07D9B04C081E08093D7031FC0EB
:101900008AE090E06AE070E04AE051E021E00E9465
:101910008012C0FD09C08AE090E064E170E044E11B
:1019200051E021E00E94801288EE93E0F6013197A9
:10193000F1F70197D9F721960E94A512C4CFDF9144
:10194000CF911F910F91FF90EF90DF90CF9008956E
:101950002F923F924F925F926F927F928F929F92BF
:10196000AF92BF92CF92DF92EF92FF920F931F93AD
:10197000DF93CF9300D00F92CDB7DEB78983292EA6
:101980003A0129013E2C48016B01AA24BB2422C044
:10199000F7018081803211F4332029F4C801B601A7
:1019A00041E00E9491108A819B8101969B838A83EA
:1019B0000F5F1F4F0894E11CF11CEA81FB81E615C3
:1019C000F70534F30894A11CB11C860C971C0894ED
:1019D000C11CD11CA414B50444F48981922D9C012E
:1019E000890174011B821A82E8CF0F900F900F902B
:1019F000CF91DF911F910F91FF90EF90DF90CF90EB
:101A0000BF90AF909F908F907F906F905F904F901E
:101A10003F902F9008952F923F924F925F926F9236
:101A20007F928F929F92AF92BF92CF92DF92EF926E
:101A30000F931F93DF93CF93CDB7DEB72A970FB6DF
:101A4000F894DEBF0FBECDBFDE011196EDEBF3E0E3
:101A50008AE001900D928150E1F7882499245AEE92
:101A6000252E5FEF352E4BE0442E512C4C0E5D1E83
:101A700038EC632E712C0E9489107E994CC080E056
:101A800090E060E070E040E051E021E00E948012D0
:101A900080E090E06AE070E045E251E021E00E94E1
:101AA00080125E010894A11CB11CF501C080D18098
:101AB000C60164E170E045E150E021E130E004E37B
:101AC00011E0EE24E3940E94A80C0894C11CD11CE0
:101AD000F501D182C082F5E5CF16D1041CF0F501E5
:101AE0003182208282E090E0A80EB91EA414B504D1
:101AF000E1F60E94A5120894811C911C88EE93E0E7
:101B0000F3013197F1F70197D9F798EE891693E031
:101B1000990609F0B0CF2A960FB6F894DEBF0FBE33
:101B2000CDBFCF91DF911F910F91EF90DF90CF90BC
:101B3000BF90AF909F908F907F906F905F904F90ED
:101B40003F902F900895AF92BF92CF92DF92EF9285
:101B50000F931F93CF93DF9376E5A72E76E0B72EF2
:101B60006EE8C62E65E0D62EC0E0D0E015C0F601C6
:101B7000619171916F010091BB031091BC03F5015C
:101B8000819191915F0142E050E022E030E0EE244B
:101B9000E3940E94A80C21968091D0039091D103E8
:101BA000C817D90724F3DF91CF911F910F91EF90C0
:101BB000DF90CF90BF90AF900895EF920F931F9357
:101BC0006091EA027091EB024091E4025091E502CB
:101BD0002091E6023091E7020091580310915903D9
:101BE0008091E8029091E902EE24E3940E94A80C0F
:101BF0006091F0037091F1034091480750914907BB
:101C00002091FC033091FD0380911E0790911F07E6
:101C100001E00E94CC101F910F91EF900895AF92B8
:101C2000BF92CF92DF92EF92FF920F931F93CF93C9
:101C3000DF93AA24BB24C0E0D0E027C0FE01E05E11
:101C4000F84F60817181828193810E949D176B01A1
:101C50007C01FE01E658F84F608171818281938199
:101C60000E949D179B01AC0100918C0310918D0384
:101C7000C601B90147E050E027E030E0EE24E394EC
:101C80000E94A80C0894A11CB11C24968091F20318
:101C90009091F303A816B9068CF2DF91CF911F91B2
:101CA0000F91FF90EF90DF90CF90BF90AF9008958D
:101CB000AF92BF92CF92DF92EF92FF920F931F935A
:101CC000CF93DF93AA24BB24C0E0D0E027C0FE015D
:101CD000E45DF84F60817181828193810E949D173C
:101CE0006B017C01FE01EC52FC4F608171818281AD
:101CF00093810E949D179B01AC010091A803109154
:101D0000A903C601B90145E050E025E030E0EE242A
:101D1000E3940E94A80C0894A11CB11C2496809105
:101D2000CE039091CF03A816B9068CF2DF91CF9124
:101D30001F910F91FF90EF90DF90CF90BF90AF90E9
:101D40000895AF92BF92CF92DF92EF92FF920F93DE
:101D50001F93CF93DF93AA24BB24C0E0D0E027C019
:101D6000FE01EA57F84F60817181828193810E9460
:101D70009D176B017C01FE01EA5BF84F6081718168
:101D8000828193810E949D179B01AC010091B40355
:101D90001091B503C601B90143E050E023E030E003
:101DA000EE24E3940E94A80C0894A11CB11C249674
:101DB0008091CC039091CD03A816B9068CF2DF91E7
:101DC000CF911F910F91FF90EF90DF90CF90BF9038
:101DD000AF9008950E94DD0D0E94E60A0E94A30DB7
:101DE0000E94A10E0E94580E0E940F0E08951F938C
:101DF000E1E6F0E080E8808311E010830E94E608CD
:101E00008FE40E94D9121092900084E08093910098
:101E10001093710078940E94EA0E1F9108950E9419
:101E200089100E94F1080E9448090E94120A0E942B
:101E3000AD0B0E9497040E9404040E949E080E9419
:101E4000EA0E0E94A5120895AF92BF92CF92DF9240
:101E5000EF92FF920F931F93DF93CF93CDB7DEB72F
:101E6000EC970FB6F894DEBF0FBECDBF8091D603BE
:101E7000882309F4ECC00E94FA028C010E94EF0250
:101E80009C010A301105D4F4CE0101962A303105A7
:101E90008CF54DB75EB7485050400FB6F8945EBF12
:101EA0000FBE4DBFEDB7FEB73196ADB7BEB71296B8
:101EB0009C938E93119789E992E046C00A301105F0
:101EC00059F18B30910544F18DB79EB708970FB645
:101ED000F8949EBF0FBE8DBFEDB7FEB73196CE0111
:101EE0000196ADB7BEB712969C938E93119787EA71
:101EF00092E02AC0ADB7BEB718970FB6F894BEBF30
:101F00000FBEADBFEDB7FEB7319612969C938E9380
:101F1000119783EB92E018C02A30310534F58DB764
:101F20009EB708970FB6F8949EBF0FBE8DBFEDB752
:101F3000FEB73196CE010196ADB7BEB712969C930F
:101F40008E93119780EC92E09383828315830483B0
:101F5000378326830E94431B4DB75EB7485F5F4FB0
:101F60000FB6F8945EBF0FBE4DBF00D000D000D0BA
:101F7000EDB7FEB73196A5E1EA2EF12CEC0EFD1E71
:101F8000ADB7BEB71296FC92EE9211978DEC92E02F
:101F90009383828380917C0790917D0795838483CE
:101FA0000E94431BEDB7FEB731968E01075D1F4FB0
:101FB000ADB7BEB712961C930E93119787ED92E0C2
:101FC0009383828380917A0790917B0795838483A2
:101FD0000E94431B4DB75EB74A5F5F4F0FB6F89440
:101FE0005EBF0FBE4DBF5E010894A11CB11C67010E
:101FF000780108EC10E023C00E94891080E090E096
:1020000060E070E0A50121E00E94801280E090E095
:1020100064E170E0A60121E00E94801280E090E07F
:102020006EE170E0A70121E00E94801288EE93E04B
:10203000F8013197F1F70197D9F70E94A512499B52
:10204000DBCF0E9489100E94EA0E0E94A512EC9636
:102050000FB6F894DEBF0FBECDBFCF91DF911F91B9
:102060000F91FF90EF90DF90CF90BF90AF900895C9
:10207000189B06C08091D60391E089278093D603F0
:102080001F9B02C00E94240F8FB182958695869572
:10209000837080FF03C00E94030C2A9A8FB182953F
:1020A0008695877080FF03C081E08093D70380917D
:1020B000D603882359F480917C0790917D071816E8
:1020C000190614F00E94500C0E940F0F0895CF9330
:1020D000DF9380E090E00E941E1A0E94F70E0E949B
:1020E0000B0D0E94030CC8ECD0E00E94381088EE63
:1020F00093E0FE013197F1F70197D9F78091D7036B
:10210000882399F30E94D80880E090E0DF91CF9176
:102110000895EAEBF7E0119289E0E23BF807D9F77E
:1021200008959C0197FD37C077FD35C08435910532
:1021300094F5603371057CF5CB0173E09595879537
:102140007A95E1F76770452B99F0E4E58E9FF001F1
:102150001124E20FF31FE654F84F81E090E002C033
:10216000880F991F6A95E2F72081282B2083089514
:10217000E4E58E9FF0011124E20FF31FE654F84FBF
:1021800081E090E002C0880F991F6A95E2F7809580
:1021900020812823208308952F923F924F925F92AF
:1021A0006F927F928F929F92AF92BF92CF92DF9267
:1021B000EF92FF920F931F93DF93CF93CDB7DEB7CC
:1021C0002E970FB6F894DEBF0FBECDBF7C016B011A
:1021D0004A0139011C870B8784179507F9F45B01C5
:1021E00010C0C701B5014B855C850E949110C614D3
:1021F000D70424F40894A11CB11C03C00894A108BE
:10220000B108C614D7042CF46A147B040CF4FDC086
:10221000E8CFA614B7040CF4F8C0E3CF6217730735
:10222                                                                                                                                                                                                                                                                                                                                                                                                                                                                                                                                                                                                                                                                                                                                                                                                                                                                                                                                                                                                                                                                                                                                                                                                                                                                                                                                                                                                                                                                                                                                                                                                                                                                                                                                                                                                                                                                                                                                                                                                                                                                                                                                                                                                                                                                                                                                                                                                                                                                                                                                                                                                                                                                                                                                                                                                                                                                                                                                                                                                                                                                                                                                                                                                                                                                                                                                                                                                                                                                                                                                                                                                                                                                                                                                                                                                                                                                                                                                                                                                                                                                                                                                                                                                                                                                                                                                                                                                                                                                                                                                                                                                                                                                                                                                                                                                                                                                                                                                                                                                                                                                                                                                                                                                                                                                                                                                                                                                                                                                                                                                                                                                                                                                                                                                                                                                                                                                                                                                                                                                                                                                                                                                                                                                                                                                                                                                                                                                                                                                                                                                                                                                                                                                                                                                                                                                                                                                                                                                                                                                                                                                                                                                                                                                                                                                                                                                                                                                                                                                                                                                                                                                                                                                                                                                                                                                                                                                                                                                                                                                                                                                                                                                                                                                                                                                                                                                                                                                                                                                                                                                                                                                                                                                                                                                                                                                                                                                                                                                                                                                                                                                                                                                                                                                                                                                                                                                                                                                                                                                                                                                                                                                                                                                                                                                                                                                                                                                                                                                                                                                                                                                                                                                                                                                                                                                                                                                                                                                                                                                                                                                                                                                                                                                                                                                                                                                                                                                                                                                                                                                                                                                                                                                                                                                                                                                                                                                                                                                                                                                                                                                                                                                                                                                                                                                                                                                                                                                                                                                                                                                                                                                                                                                                                                                                                                                                                                                                                                                                                                                                                                                                                                                                                                                                                                                                                                                                                                                                                                                                                                                                                                                                                                                                                                                                                                                                                                                                                                                                                                                                                                                                                                                                                                                                                                                                                                                                                                                                                                                                                                                                                                                                                                                                                                                                                                                                                                                                                                                                                                                                                                                                                                                                                                                                                                                                                                                                                                                                                                                                                                                                                                                                                                                                                                                                                                                                                                                                                                                                                                                                                                                                                                                                                                                                                                                                                                                                                                                                                                                                                                                                                                                                                                                                                                                                                                                                                                                                                                                                                                                                                                                                                                                                                                                                                                                                                                                                                                                                                                                                                                                                                                                06F6F202020B9
:1038E60020202020202020202020202020202020D2
:1038F6006F6F20202020202020206F2020202020D5
:1039060020202020206F6F20202020202020202013
:103916006F2020202020202020206F6F20202020B4
:103926002020202020206F20202020202020206FF3
:103936006F20202020202020206F6F6F6F202020F6
:10394600202020206F6F20202020202020202020D3
:103956002020202020202020206F6F2020206F6F25
:103966006F6F6F6F6F6F6F6F6F6F6F6F20206F6FFF
:10397600202020206F202020202020202020206FA3
:103986002020206F6F20202020206F202020202044
:103996002020206F202020206F6F20202020202034
:1039A6006F6F6F6F6F6F6F2020202020206F6F204A
:1039B6002020202020202020202020202020202001
:1039C60020206F6F6F6F6F6F6F6F6F6F6F6F6F6F9F
:1039D6006F6F6F6F6F6F6F6F0054696D653A203050
:1039E60025643A3025640054696D653A2025643AA9
:1039F60025640054696D653A203025643A256400D3
:103A060054696D653A2025643A302564004C697620
:103A160065733A20256400506F696E74733A2025E9
:103A2600640064000F000700230029000101202024
:103A36002020202020202020202020202020202080
:103A46002020202020202020202020202020202070
:103A56002020202020202020202020202020202060
:103A6600202020202020202020206F6F2020206F63
:103A76006F6F6F6F2020206F6F6F6F6F6F6F6F6F3D
:103A86006F6F6F6F6F6F6F6F6F6F2020206F6F6F2D
:103A96006F6F2020206F6F00EE022020206F202005
:103AA6002020206F6F6F2020206F6F6F6F6F206F49
:103AB6006F6F6F6F6F6F206F6F6F6F6F2020206F4C
:103AC6006F6F20202020206F202020005A03202006
:103AD6006F2020206F6F6F206F6F6F6F6F206F6F7B
:103AE6006F2020206F2020008E03206F206F6F6FC5
:103AF600206F2000AA036F6F6F6F00B603EBFF0005
:0C3B06000016002B004100010000000030
:00000001FF
